{
	"contracts/Lock.sol": {
		"Lock": {
			"abi": [
				{
					"inputs": [
						{
							"internalType": "string",
							"name": "_initialAdminId",
							"type": "string"
						},
						{
							"internalType": "string",
							"name": "_initialAdminPassword",
							"type": "string"
						}
					],
					"stateMutability": "nonpayable",
					"type": "constructor"
				},
				{
					"anonymous": false,
					"inputs": [
						{
							"indexed": false,
							"internalType": "string",
							"name": "electionName",
							"type": "string"
						},
						{
							"indexed": false,
							"internalType": "string",
							"name": "candidateName",
							"type": "string"
						}
					],
					"name": "VoteCast",
					"type": "event"
				},
				{
					"inputs": [
						{
							"internalType": "string",
							"name": "_id",
							"type": "string"
						},
						{
							"internalType": "string",
							"name": "_password",
							"type": "string"
						}
					],
					"name": "addAdmin",
					"outputs": [],
					"stateMutability": "nonpayable",
					"type": "function"
				},
				{
					"inputs": [
						{
							"internalType": "string",
							"name": "_electionName",
							"type": "string"
						},
						{
							"components": [
								{
									"internalType": "string",
									"name": "firstName",
									"type": "string"
								},
								{
									"internalType": "string",
									"name": "middleName",
									"type": "string"
								},
								{
									"internalType": "string",
									"name": "lastName",
									"type": "string"
								},
								{
									"internalType": "string",
									"name": "partyName",
									"type": "string"
								},
								{
									"internalType": "uint256",
									"name": "votes",
									"type": "uint256"
								}
							],
							"internalType": "struct Lock.Candidate[]",
							"name": "_candidates",
							"type": "tuple[]"
						},
						{
							"internalType": "uint256",
							"name": "_startTime",
							"type": "uint256"
						},
						{
							"internalType": "uint256",
							"name": "_endTime",
							"type": "uint256"
						},
						{
							"internalType": "string",
							"name": "_adminId",
							"type": "string"
						},
						{
							"internalType": "string",
							"name": "_adminPassword",
							"type": "string"
						}
					],
					"name": "addElectionWithDetails",
					"outputs": [],
					"stateMutability": "nonpayable",
					"type": "function"
				},
				{
					"inputs": [],
					"name": "getAllElectionNames",
					"outputs": [
						{
							"internalType": "string[]",
							"name": "",
							"type": "string[]"
						}
					],
					"stateMutability": "view",
					"type": "function"
				},
				{
					"inputs": [],
					"name": "getAllElections",
					"outputs": [
						{
							"internalType": "string[]",
							"name": "",
							"type": "string[]"
						},
						{
							"components": [
								{
									"internalType": "string",
									"name": "electionName",
									"type": "string"
								},
								{
									"components": [
										{
											"internalType": "string",
											"name": "firstName",
											"type": "string"
										},
										{
											"internalType": "string",
											"name": "middleName",
											"type": "string"
										},
										{
											"internalType": "string",
											"name": "lastName",
											"type": "string"
										},
										{
											"internalType": "string",
											"name": "partyName",
											"type": "string"
										},
										{
											"internalType": "uint256",
											"name": "votes",
											"type": "uint256"
										}
									],
									"internalType": "struct Lock.Candidate[]",
									"name": "candidates",
									"type": "tuple[]"
								},
								{
									"internalType": "uint256",
									"name": "startTime",
									"type": "uint256"
								},
								{
									"internalType": "uint256",
									"name": "endTime",
									"type": "uint256"
								}
							],
							"internalType": "struct Lock.ElectionDetails[]",
							"name": "",
							"type": "tuple[]"
						}
					],
					"stateMutability": "view",
					"type": "function"
				},
				{
					"inputs": [
						{
							"internalType": "string",
							"name": "_electionName",
							"type": "string"
						}
					],
					"name": "getCandidateNames",
					"outputs": [
						{
							"internalType": "string[]",
							"name": "",
							"type": "string[]"
						}
					],
					"stateMutability": "view",
					"type": "function"
				},
				{
					"inputs": [
						{
							"internalType": "string",
							"name": "_electionName",
							"type": "string"
						},
						{
							"internalType": "string",
							"name": "_candidateFullName",
							"type": "string"
						}
					],
					"name": "getCandidateVotes",
					"outputs": [
						{
							"internalType": "uint256",
							"name": "",
							"type": "uint256"
						}
					],
					"stateMutability": "view",
					"type": "function"
				},
				{
					"inputs": [
						{
							"internalType": "string",
							"name": "_electionName",
							"type": "string"
						}
					],
					"name": "getElectionDetails",
					"outputs": [
						{
							"components": [
								{
									"internalType": "string",
									"name": "electionName",
									"type": "string"
								},
								{
									"components": [
										{
											"internalType": "string",
											"name": "firstName",
											"type": "string"
										},
										{
											"internalType": "string",
											"name": "middleName",
											"type": "string"
										},
										{
											"internalType": "string",
											"name": "lastName",
											"type": "string"
										},
										{
											"internalType": "string",
											"name": "partyName",
											"type": "string"
										},
										{
											"internalType": "uint256",
											"name": "votes",
											"type": "uint256"
										}
									],
									"internalType": "struct Lock.Candidate[]",
									"name": "candidates",
									"type": "tuple[]"
								},
								{
									"internalType": "uint256",
									"name": "startTime",
									"type": "uint256"
								},
								{
									"internalType": "uint256",
									"name": "endTime",
									"type": "uint256"
								}
							],
							"internalType": "struct Lock.ElectionDetails",
							"name": "",
							"type": "tuple"
						}
					],
					"stateMutability": "view",
					"type": "function"
				},
				{
					"inputs": [
						{
							"internalType": "string",
							"name": "_electionName",
							"type": "string"
						}
					],
					"name": "getElectionResult",
					"outputs": [
						{
							"internalType": "string",
							"name": "",
							"type": "string"
						},
						{
							"components": [
								{
									"internalType": "string",
									"name": "firstName",
									"type": "string"
								},
								{
									"internalType": "string",
									"name": "middleName",
									"type": "string"
								},
								{
									"internalType": "string",
									"name": "lastName",
									"type": "string"
								},
								{
									"internalType": "string",
									"name": "partyName",
									"type": "string"
								},
								{
									"internalType": "uint256",
									"name": "votes",
									"type": "uint256"
								}
							],
							"internalType": "struct Lock.Candidate[]",
							"name": "",
							"type": "tuple[]"
						}
					],
					"stateMutability": "view",
					"type": "function"
				},
				{
					"inputs": [
						{
							"internalType": "string",
							"name": "_id",
							"type": "string"
						},
						{
							"internalType": "string",
							"name": "_password",
							"type": "string"
						}
					],
					"name": "verifyAdmin",
					"outputs": [
						{
							"internalType": "bool",
							"name": "",
							"type": "bool"
						}
					],
					"stateMutability": "view",
					"type": "function"
				},
				{
					"inputs": [
						{
							"internalType": "string",
							"name": "_electionName",
							"type": "string"
						},
						{
							"internalType": "string",
							"name": "_candidateFullName",
							"type": "string"
						}
					],
					"name": "vote",
					"outputs": [],
					"stateMutability": "nonpayable",
					"type": "function"
				}
			],
			"devdoc": {
				"kind": "dev",
				"methods": {},
				"version": 1
			},
			"evm": {
				"assembly": "    /* \"contracts/Lock.sol\":64:6396  contract Lock {... */\n  mstore(0x40, 0x80)\n    /* \"contracts/Lock.sol\":946:1136  constructor(... */\n  callvalue\n  dup1\n  iszero\n  tag_1\n  jumpi\n  0x00\n  dup1\n  revert\ntag_1:\n  pop\n  mload(0x40)\n  sub(codesize, bytecodeSize)\n  dup1\n  bytecodeSize\n  dup4\n  codecopy\n  dup2\n  dup2\n  add\n  0x40\n  mstore\n  dup2\n  add\n  swap1\n  tag_2\n  swap2\n  swap1\n  tag_3\n  jump\t// in\ntag_2:\n    /* \"contracts/Lock.sol\":1084:1129  Admin(_initialAdminId, _initialAdminPassword) */\n  mload(0x40)\n  dup1\n  0x40\n  add\n  0x40\n  mstore\n  dup1\n    /* \"contracts/Lock.sol\":1090:1105  _initialAdminId */\n  dup4\n    /* \"contracts/Lock.sol\":1084:1129  Admin(_initialAdminId, _initialAdminPassword) */\n  dup2\n  mstore\n  0x20\n  add\n    /* \"contracts/Lock.sol\":1107:1128  _initialAdminPassword */\n  dup3\n    /* \"contracts/Lock.sol\":1084:1129  Admin(_initialAdminId, _initialAdminPassword) */\n  dup2\n  mstore\n  pop\n    /* \"contracts/Lock.sol\":1058:1064  admins */\n  0x01\n    /* \"contracts/Lock.sol\":1065:1080  _initialAdminId */\n  dup4\n    /* \"contracts/Lock.sol\":1058:1081  admins[_initialAdminId] */\n  mload(0x40)\n  tag_6\n  swap2\n  swap1\n  tag_7\n  jump\t// in\ntag_6:\n  swap1\n  dup2\n  mstore\n  0x20\n  add\n  mload(0x40)\n  dup1\n  swap2\n  sub\n  swap1\n  keccak256\n    /* \"contracts/Lock.sol\":1058:1129  admins[_initialAdminId] = Admin(_initialAdminId, _initialAdminPassword) */\n  0x00\n  dup3\n  add\n  mload\n  dup2\n  0x00\n  add\n  swap1\n  dup2\n  tag_8\n  swap2\n  swap1\n  tag_9\n  jump\t// in\ntag_8:\n  pop\n  0x20\n  dup3\n  add\n  mload\n  dup2\n  0x01\n  add\n  swap1\n  dup2\n  tag_10\n  swap2\n  swap1\n  tag_9\n  jump\t// in\ntag_10:\n  pop\n  swap1\n  pop\n  pop\n    /* \"contracts/Lock.sol\":946:1136  constructor(... */\n  pop\n  pop\n    /* \"contracts/Lock.sol\":64:6396  contract Lock {... */\n  jump(tag_11)\n    /* \"#utility.yul\":7:82   */\ntag_12:\n    /* \"#utility.yul\":40:46   */\n  0x00\n    /* \"#utility.yul\":73:75   */\n  0x40\n    /* \"#utility.yul\":67:76   */\n  mload\n    /* \"#utility.yul\":57:76   */\n  swap1\n  pop\n    /* \"#utility.yul\":7:82   */\n  swap1\n  jump\t// out\n    /* \"#utility.yul\":88:205   */\ntag_13:\n    /* \"#utility.yul\":197:198   */\n  0x00\n    /* \"#utility.yul\":194:195   */\n  dup1\n    /* \"#utility.yul\":187:199   */\n  revert\n    /* \"#utility.yul\":211:328   */\ntag_14:\n    /* \"#utility.yul\":320:321   */\n  0x00\n    /* \"#utility.yul\":317:318   */\n  dup1\n    /* \"#utility.yul\":310:322   */\n  revert\n    /* \"#utility.yul\":334:451   */\ntag_15:\n    /* \"#utility.yul\":443:444   */\n  0x00\n    /* \"#utility.yul\":440:441   */\n  dup1\n    /* \"#utility.yul\":433:445   */\n  revert\n    /* \"#utility.yul\":457:574   */\ntag_16:\n    /* \"#utility.yul\":566:567   */\n  0x00\n    /* \"#utility.yul\":563:564   */\n  dup1\n    /* \"#utility.yul\":556:568   */\n  revert\n    /* \"#utility.yul\":580:682   */\ntag_17:\n    /* \"#utility.yul\":621:627   */\n  0x00\n    /* \"#utility.yul\":672:674   */\n  0x1f\n    /* \"#utility.yul\":668:675   */\n  not\n    /* \"#utility.yul\":663:665   */\n  0x1f\n    /* \"#utility.yul\":656:661   */\n  dup4\n    /* \"#utility.yul\":652:666   */\n  add\n    /* \"#utility.yul\":648:676   */\n  and\n    /* \"#utility.yul\":638:676   */\n  swap1\n  pop\n    /* \"#utility.yul\":580:682   */\n  swap2\n  swap1\n  pop\n  jump\t// out\n    /* \"#utility.yul\":688:868   */\ntag_18:\n    /* \"#utility.yul\":736:813   */\n  0x4e487b7100000000000000000000000000000000000000000000000000000000\n    /* \"#utility.yul\":733:734   */\n  0x00\n    /* \"#utility.yul\":726:814   */\n  mstore\n    /* \"#utility.yul\":833:837   */\n  0x41\n    /* \"#utility.yul\":830:831   */\n  0x04\n    /* \"#utility.yul\":823:838   */\n  mstore\n    /* \"#utility.yul\":857:861   */\n  0x24\n    /* \"#utility.yul\":854:855   */\n  0x00\n    /* \"#utility.yul\":847:862   */\n  revert\n    /* \"#utility.yul\":874:1155   */\ntag_19:\n    /* \"#utility.yul\":957:984   */\n  tag_55\n    /* \"#utility.yul\":979:983   */\n  dup3\n    /* \"#utility.yul\":957:984   */\n  tag_17\n  jump\t// in\ntag_55:\n    /* \"#utility.yul\":949:955   */\n  dup2\n    /* \"#utility.yul\":945:985   */\n  add\n    /* \"#utility.yul\":1087:1093   */\n  dup2\n    /* \"#utility.yul\":1075:1085   */\n  dup2\n    /* \"#utility.yul\":1072:1094   */\n  lt\n    /* \"#utility.yul\":1051:1069   */\n  0xffffffffffffffff\n    /* \"#utility.yul\":1039:1049   */\n  dup3\n    /* \"#utility.yul\":1036:1070   */\n  gt\n    /* \"#utility.yul\":1033:1095   */\n  or\n    /* \"#utility.yul\":1030:1118   */\n  iszero\n  tag_56\n  jumpi\n    /* \"#utility.yul\":1098:1116   */\n  tag_57\n  tag_18\n  jump\t// in\ntag_57:\n    /* \"#utility.yul\":1030:1118   */\ntag_56:\n    /* \"#utility.yul\":1138:1148   */\n  dup1\n    /* \"#utility.yul\":1134:1136   */\n  0x40\n    /* \"#utility.yul\":1127:1149   */\n  mstore\n    /* \"#utility.yul\":917:1155   */\n  pop\n    /* \"#utility.yul\":874:1155   */\n  pop\n  pop\n  jump\t// out\n    /* \"#utility.yul\":1161:1290   */\ntag_20:\n    /* \"#utility.yul\":1195:1201   */\n  0x00\n    /* \"#utility.yul\":1222:1242   */\n  tag_59\n  tag_12\n  jump\t// in\ntag_59:\n    /* \"#utility.yul\":1212:1242   */\n  swap1\n  pop\n    /* \"#utility.yul\":1251:1284   */\n  tag_60\n    /* \"#utility.yul\":1279:1283   */\n  dup3\n    /* \"#utility.yul\":1271:1277   */\n  dup3\n    /* \"#utility.yul\":1251:1284   */\n  tag_19\n  jump\t// in\ntag_60:\n    /* \"#utility.yul\":1161:1290   */\n  swap2\n  swap1\n  pop\n  jump\t// out\n    /* \"#utility.yul\":1296:1604   */\ntag_21:\n    /* \"#utility.yul\":1358:1362   */\n  0x00\n    /* \"#utility.yul\":1448:1466   */\n  0xffffffffffffffff\n    /* \"#utility.yul\":1440:1446   */\n  dup3\n    /* \"#utility.yul\":1437:1467   */\n  gt\n    /* \"#utility.yul\":1434:1490   */\n  iszero\n  tag_62\n  jumpi\n    /* \"#utility.yul\":1470:1488   */\n  tag_63\n  tag_18\n  jump\t// in\ntag_63:\n    /* \"#utility.yul\":1434:1490   */\ntag_62:\n    /* \"#utility.yul\":1508:1537   */\n  tag_64\n    /* \"#utility.yul\":1530:1536   */\n  dup3\n    /* \"#utility.yul\":1508:1537   */\n  tag_17\n  jump\t// in\ntag_64:\n    /* \"#utility.yul\":1500:1537   */\n  swap1\n  pop\n    /* \"#utility.yul\":1592:1596   */\n  0x20\n    /* \"#utility.yul\":1586:1590   */\n  dup2\n    /* \"#utility.yul\":1582:1597   */\n  add\n    /* \"#utility.yul\":1574:1597   */\n  swap1\n  pop\n    /* \"#utility.yul\":1296:1604   */\n  swap2\n  swap1\n  pop\n  jump\t// out\n    /* \"#utility.yul\":1610:1749   */\ntag_22:\n    /* \"#utility.yul\":1699:1705   */\n  dup3\n    /* \"#utility.yul\":1694:1697   */\n  dup2\n    /* \"#utility.yul\":1689:1692   */\n  dup4\n    /* \"#utility.yul\":1683:1706   */\n  mcopy\n    /* \"#utility.yul\":1740:1741   */\n  0x00\n    /* \"#utility.yul\":1731:1737   */\n  dup4\n    /* \"#utility.yul\":1726:1729   */\n  dup4\n    /* \"#utility.yul\":1722:1738   */\n  add\n    /* \"#utility.yul\":1715:1742   */\n  mstore\n    /* \"#utility.yul\":1610:1749   */\n  pop\n  pop\n  pop\n  jump\t// out\n    /* \"#utility.yul\":1755:2189   */\ntag_23:\n    /* \"#utility.yul\":1844:1849   */\n  0x00\n    /* \"#utility.yul\":1869:1935   */\n  tag_67\n    /* \"#utility.yul\":1885:1934   */\n  tag_68\n    /* \"#utility.yul\":1927:1933   */\n  dup5\n    /* \"#utility.yul\":1885:1934   */\n  tag_21\n  jump\t// in\ntag_68:\n    /* \"#utility.yul\":1869:1935   */\n  tag_20\n  jump\t// in\ntag_67:\n    /* \"#utility.yul\":1860:1935   */\n  swap1\n  pop\n    /* \"#utility.yul\":1958:1964   */\n  dup3\n    /* \"#utility.yul\":1951:1956   */\n  dup2\n    /* \"#utility.yul\":1944:1965   */\n  mstore\n    /* \"#utility.yul\":1996:2000   */\n  0x20\n    /* \"#utility.yul\":1989:1994   */\n  dup2\n    /* \"#utility.yul\":1985:2001   */\n  add\n    /* \"#utility.yul\":2034:2037   */\n  dup5\n    /* \"#utility.yul\":2025:2031   */\n  dup5\n    /* \"#utility.yul\":2020:2023   */\n  dup5\n    /* \"#utility.yul\":2016:2032   */\n  add\n    /* \"#utility.yul\":2013:2038   */\n  gt\n    /* \"#utility.yul\":2010:2122   */\n  iszero\n  tag_69\n  jumpi\n    /* \"#utility.yul\":2041:2120   */\n  tag_70\n  tag_16\n  jump\t// in\ntag_70:\n    /* \"#utility.yul\":2010:2122   */\ntag_69:\n    /* \"#utility.yul\":2131:2183   */\n  tag_71\n    /* \"#utility.yul\":2176:2182   */\n  dup5\n    /* \"#utility.yul\":2171:2174   */\n  dup3\n    /* \"#utility.yul\":2166:2169   */\n  dup6\n    /* \"#utility.yul\":2131:2183   */\n  tag_22\n  jump\t// in\ntag_71:\n    /* \"#utility.yul\":1850:2189   */\n  pop\n    /* \"#utility.yul\":1755:2189   */\n  swap4\n  swap3\n  pop\n  pop\n  pop\n  jump\t// out\n    /* \"#utility.yul\":2209:2564   */\ntag_24:\n    /* \"#utility.yul\":2276:2281   */\n  0x00\n    /* \"#utility.yul\":2325:2328   */\n  dup3\n    /* \"#utility.yul\":2318:2322   */\n  0x1f\n    /* \"#utility.yul\":2310:2316   */\n  dup4\n    /* \"#utility.yul\":2306:2323   */\n  add\n    /* \"#utility.yul\":2302:2329   */\n  slt\n    /* \"#utility.yul\":2292:2414   */\n  tag_73\n  jumpi\n    /* \"#utility.yul\":2333:2412   */\n  tag_74\n  tag_15\n  jump\t// in\ntag_74:\n    /* \"#utility.yul\":2292:2414   */\ntag_73:\n    /* \"#utility.yul\":2443:2449   */\n  dup2\n    /* \"#utility.yul\":2437:2450   */\n  mload\n    /* \"#utility.yul\":2468:2558   */\n  tag_75\n    /* \"#utility.yul\":2554:2557   */\n  dup5\n    /* \"#utility.yul\":2546:2552   */\n  dup3\n    /* \"#utility.yul\":2539:2543   */\n  0x20\n    /* \"#utility.yul\":2531:2537   */\n  dup7\n    /* \"#utility.yul\":2527:2544   */\n  add\n    /* \"#utility.yul\":2468:2558   */\n  tag_23\n  jump\t// in\ntag_75:\n    /* \"#utility.yul\":2459:2558   */\n  swap2\n  pop\n    /* \"#utility.yul\":2282:2564   */\n  pop\n    /* \"#utility.yul\":2209:2564   */\n  swap3\n  swap2\n  pop\n  pop\n  jump\t// out\n    /* \"#utility.yul\":2570:3423   */\ntag_3:\n    /* \"#utility.yul\":2669:2675   */\n  0x00\n    /* \"#utility.yul\":2677:2683   */\n  dup1\n    /* \"#utility.yul\":2726:2728   */\n  0x40\n    /* \"#utility.yul\":2714:2723   */\n  dup4\n    /* \"#utility.yul\":2705:2712   */\n  dup6\n    /* \"#utility.yul\":2701:2724   */\n  sub\n    /* \"#utility.yul\":2697:2729   */\n  slt\n    /* \"#utility.yul\":2694:2813   */\n  iszero\n  tag_77\n  jumpi\n    /* \"#utility.yul\":2732:2811   */\n  tag_78\n  tag_13\n  jump\t// in\ntag_78:\n    /* \"#utility.yul\":2694:2813   */\ntag_77:\n    /* \"#utility.yul\":2873:2874   */\n  0x00\n    /* \"#utility.yul\":2862:2871   */\n  dup4\n    /* \"#utility.yul\":2858:2875   */\n  add\n    /* \"#utility.yul\":2852:2876   */\n  mload\n    /* \"#utility.yul\":2903:2921   */\n  0xffffffffffffffff\n    /* \"#utility.yul\":2895:2901   */\n  dup2\n    /* \"#utility.yul\":2892:2922   */\n  gt\n    /* \"#utility.yul\":2889:3006   */\n  iszero\n  tag_79\n  jumpi\n    /* \"#utility.yul\":2925:3004   */\n  tag_80\n  tag_14\n  jump\t// in\ntag_80:\n    /* \"#utility.yul\":2889:3006   */\ntag_79:\n    /* \"#utility.yul\":3030:3104   */\n  tag_81\n    /* \"#utility.yul\":3096:3103   */\n  dup6\n    /* \"#utility.yul\":3087:3093   */\n  dup3\n    /* \"#utility.yul\":3076:3085   */\n  dup7\n    /* \"#utility.yul\":3072:3094   */\n  add\n    /* \"#utility.yul\":3030:3104   */\n  tag_24\n  jump\t// in\ntag_81:\n    /* \"#utility.yul\":3020:3104   */\n  swap3\n  pop\n    /* \"#utility.yul\":2823:3114   */\n  pop\n    /* \"#utility.yul\":3174:3176   */\n  0x20\n    /* \"#utility.yul\":3163:3172   */\n  dup4\n    /* \"#utility.yul\":3159:3177   */\n  add\n    /* \"#utility.yul\":3153:3178   */\n  mload\n    /* \"#utility.yul\":3205:3223   */\n  0xffffffffffffffff\n    /* \"#utility.yul\":3197:3203   */\n  dup2\n    /* \"#utility.yul\":3194:3224   */\n  gt\n    /* \"#utility.yul\":3191:3308   */\n  iszero\n  tag_82\n  jumpi\n    /* \"#utility.yul\":3227:3306   */\n  tag_83\n  tag_14\n  jump\t// in\ntag_83:\n    /* \"#utility.yul\":3191:3308   */\ntag_82:\n    /* \"#utility.yul\":3332:3406   */\n  tag_84\n    /* \"#utility.yul\":3398:3405   */\n  dup6\n    /* \"#utility.yul\":3389:3395   */\n  dup3\n    /* \"#utility.yul\":3378:3387   */\n  dup7\n    /* \"#utility.yul\":3374:3396   */\n  add\n    /* \"#utility.yul\":3332:3406   */\n  tag_24\n  jump\t// in\ntag_84:\n    /* \"#utility.yul\":3322:3406   */\n  swap2\n  pop\n    /* \"#utility.yul\":3124:3416   */\n  pop\n    /* \"#utility.yul\":2570:3423   */\n  swap3\n  pop\n  swap3\n  swap1\n  pop\n  jump\t// out\n    /* \"#utility.yul\":3429:3528   */\ntag_25:\n    /* \"#utility.yul\":3481:3487   */\n  0x00\n    /* \"#utility.yul\":3515:3520   */\n  dup2\n    /* \"#utility.yul\":3509:3521   */\n  mload\n    /* \"#utility.yul\":3499:3521   */\n  swap1\n  pop\n    /* \"#utility.yul\":3429:3528   */\n  swap2\n  swap1\n  pop\n  jump\t// out\n    /* \"#utility.yul\":3534:3682   */\ntag_26:\n    /* \"#utility.yul\":3636:3647   */\n  0x00\n    /* \"#utility.yul\":3673:3676   */\n  dup2\n    /* \"#utility.yul\":3658:3676   */\n  swap1\n  pop\n    /* \"#utility.yul\":3534:3682   */\n  swap3\n  swap2\n  pop\n  pop\n  jump\t// out\n    /* \"#utility.yul\":3688:4078   */\ntag_27:\n    /* \"#utility.yul\":3794:3797   */\n  0x00\n    /* \"#utility.yul\":3822:3861   */\n  tag_88\n    /* \"#utility.yul\":3855:3860   */\n  dup3\n    /* \"#utility.yul\":3822:3861   */\n  tag_25\n  jump\t// in\ntag_88:\n    /* \"#utility.yul\":3877:3966   */\n  tag_89\n    /* \"#utility.yul\":3959:3965   */\n  dup2\n    /* \"#utility.yul\":3954:3957   */\n  dup6\n    /* \"#utility.yul\":3877:3966   */\n  tag_26\n  jump\t// in\ntag_89:\n    /* \"#utility.yul\":3870:3966   */\n  swap4\n  pop\n    /* \"#utility.yul\":3975:4040   */\n  tag_90\n    /* \"#utility.yul\":4033:4039   */\n  dup2\n    /* \"#utility.yul\":4028:4031   */\n  dup6\n    /* \"#utility.yul\":4021:4025   */\n  0x20\n    /* \"#utility.yul\":4014:4019   */\n  dup7\n    /* \"#utility.yul\":4010:4026   */\n  add\n    /* \"#utility.yul\":3975:4040   */\n  tag_22\n  jump\t// in\ntag_90:\n    /* \"#utility.yul\":4065:4071   */\n  dup1\n    /* \"#utility.yul\":4060:4063   */\n  dup5\n    /* \"#utility.yul\":4056:4072   */\n  add\n    /* \"#utility.yul\":4049:4072   */\n  swap2\n  pop\n    /* \"#utility.yul\":3798:4078   */\n  pop\n    /* \"#utility.yul\":3688:4078   */\n  swap3\n  swap2\n  pop\n  pop\n  jump\t// out\n    /* \"#utility.yul\":4084:4359   */\ntag_7:\n    /* \"#utility.yul\":4216:4219   */\n  0x00\n    /* \"#utility.yul\":4238:4333   */\n  tag_92\n    /* \"#utility.yul\":4329:4332   */\n  dup3\n    /* \"#utility.yul\":4320:4326   */\n  dup5\n    /* \"#utility.yul\":4238:4333   */\n  tag_27\n  jump\t// in\ntag_92:\n    /* \"#utility.yul\":4231:4333   */\n  swap2\n  pop\n    /* \"#utility.yul\":4350:4353   */\n  dup2\n    /* \"#utility.yul\":4343:4353   */\n  swap1\n  pop\n    /* \"#utility.yul\":4084:4359   */\n  swap3\n  swap2\n  pop\n  pop\n  jump\t// out\n    /* \"#utility.yul\":4365:4545   */\ntag_28:\n    /* \"#utility.yul\":4413:4490   */\n  0x4e487b7100000000000000000000000000000000000000000000000000000000\n    /* \"#utility.yul\":4410:4411   */\n  0x00\n    /* \"#utility.yul\":4403:4491   */\n  mstore\n    /* \"#utility.yul\":4510:4514   */\n  0x22\n    /* \"#utility.yul\":4507:4508   */\n  0x04\n    /* \"#utility.yul\":4500:4515   */\n  mstore\n    /* \"#utility.yul\":4534:4538   */\n  0x24\n    /* \"#utility.yul\":4531:4532   */\n  0x00\n    /* \"#utility.yul\":4524:4539   */\n  revert\n    /* \"#utility.yul\":4551:4871   */\ntag_29:\n    /* \"#utility.yul\":4595:4601   */\n  0x00\n    /* \"#utility.yul\":4632:4633   */\n  0x02\n    /* \"#utility.yul\":4626:4630   */\n  dup3\n    /* \"#utility.yul\":4622:4634   */\n  div\n    /* \"#utility.yul\":4612:4634   */\n  swap1\n  pop\n    /* \"#utility.yul\":4679:4680   */\n  0x01\n    /* \"#utility.yul\":4673:4677   */\n  dup3\n    /* \"#utility.yul\":4669:4681   */\n  and\n    /* \"#utility.yul\":4700:4718   */\n  dup1\n    /* \"#utility.yul\":4690:4771   */\n  tag_95\n  jumpi\n    /* \"#utility.yul\":4756:4760   */\n  0x7f\n    /* \"#utility.yul\":4748:4754   */\n  dup3\n    /* \"#utility.yul\":4744:4761   */\n  and\n    /* \"#utility.yul\":4734:4761   */\n  swap2\n  pop\n    /* \"#utility.yul\":4690:4771   */\ntag_95:\n    /* \"#utility.yul\":4818:4820   */\n  0x20\n    /* \"#utility.yul\":4810:4816   */\n  dup3\n    /* \"#utility.yul\":4807:4821   */\n  lt\n    /* \"#utility.yul\":4787:4805   */\n  dup2\n    /* \"#utility.yul\":4784:4822   */\n  sub\n    /* \"#utility.yul\":4781:4865   */\n  tag_96\n  jumpi\n    /* \"#utility.yul\":4837:4855   */\n  tag_97\n  tag_28\n  jump\t// in\ntag_97:\n    /* \"#utility.yul\":4781:4865   */\ntag_96:\n    /* \"#utility.yul\":4602:4871   */\n  pop\n    /* \"#utility.yul\":4551:4871   */\n  swap2\n  swap1\n  pop\n  jump\t// out\n    /* \"#utility.yul\":4877:5018   */\ntag_30:\n    /* \"#utility.yul\":4926:4930   */\n  0x00\n    /* \"#utility.yul\":4949:4952   */\n  dup2\n    /* \"#utility.yul\":4941:4952   */\n  swap1\n  pop\n    /* \"#utility.yul\":4972:4975   */\n  dup2\n    /* \"#utility.yul\":4969:4970   */\n  0x00\n    /* \"#utility.yul\":4962:4976   */\n  mstore\n    /* \"#utility.yul\":5006:5010   */\n  0x20\n    /* \"#utility.yul\":5003:5004   */\n  0x00\n    /* \"#utility.yul\":4993:5011   */\n  keccak256\n    /* \"#utility.yul\":4985:5011   */\n  swap1\n  pop\n    /* \"#utility.yul\":4877:5018   */\n  swap2\n  swap1\n  pop\n  jump\t// out\n    /* \"#utility.yul\":5024:5117   */\ntag_31:\n    /* \"#utility.yul\":5061:5067   */\n  0x00\n    /* \"#utility.yul\":5108:5110   */\n  0x20\n    /* \"#utility.yul\":5103:5105   */\n  0x1f\n    /* \"#utility.yul\":5096:5101   */\n  dup4\n    /* \"#utility.yul\":5092:5106   */\n  add\n    /* \"#utility.yul\":5088:5111   */\n  div\n    /* \"#utility.yul\":5078:5111   */\n  swap1\n  pop\n    /* \"#utility.yul\":5024:5117   */\n  swap2\n  swap1\n  pop\n  jump\t// out\n    /* \"#utility.yul\":5123:5230   */\ntag_32:\n    /* \"#utility.yul\":5167:5175   */\n  0x00\n    /* \"#utility.yul\":5217:5222   */\n  dup3\n    /* \"#utility.yul\":5211:5215   */\n  dup3\n    /* \"#utility.yul\":5207:5223   */\n  shl\n    /* \"#utility.yul\":5186:5223   */\n  swap1\n  pop\n    /* \"#utility.yul\":5123:5230   */\n  swap3\n  swap2\n  pop\n  pop\n  jump\t// out\n    /* \"#utility.yul\":5236:5629   */\ntag_33:\n    /* \"#utility.yul\":5305:5311   */\n  0x00\n    /* \"#utility.yul\":5355:5356   */\n  0x08\n    /* \"#utility.yul\":5343:5353   */\n  dup4\n    /* \"#utility.yul\":5339:5357   */\n  mul\n    /* \"#utility.yul\":5378:5475   */\n  tag_102\n    /* \"#utility.yul\":5408:5474   */\n  0xffffffffffffffffffffffffffffffffffffffffffffffffffffffffffffffff\n    /* \"#utility.yul\":5397:5406   */\n  dup3\n    /* \"#utility.yul\":5378:5475   */\n  tag_32\n  jump\t// in\ntag_102:\n    /* \"#utility.yul\":5496:5535   */\n  tag_103\n    /* \"#utility.yul\":5526:5534   */\n  dup7\n    /* \"#utility.yul\":5515:5524   */\n  dup4\n    /* \"#utility.yul\":5496:5535   */\n  tag_32\n  jump\t// in\ntag_103:\n    /* \"#utility.yul\":5484:5535   */\n  swap6\n  pop\n    /* \"#utility.yul\":5568:5572   */\n  dup1\n    /* \"#utility.yul\":5564:5573   */\n  not\n    /* \"#utility.yul\":5557:5562   */\n  dup5\n    /* \"#utility.yul\":5553:5574   */\n  and\n    /* \"#utility.yul\":5544:5574   */\n  swap4\n  pop\n    /* \"#utility.yul\":5617:5621   */\n  dup1\n    /* \"#utility.yul\":5607:5615   */\n  dup7\n    /* \"#utility.yul\":5603:5622   */\n  and\n    /* \"#utility.yul\":5596:5601   */\n  dup5\n    /* \"#utility.yul\":5593:5623   */\n  or\n    /* \"#utility.yul\":5583:5623   */\n  swap3\n  pop\n    /* \"#utility.yul\":5312:5629   */\n  pop\n  pop\n    /* \"#utility.yul\":5236:5629   */\n  swap4\n  swap3\n  pop\n  pop\n  pop\n  jump\t// out\n    /* \"#utility.yul\":5635:5712   */\ntag_34:\n    /* \"#utility.yul\":5672:5679   */\n  0x00\n    /* \"#utility.yul\":5701:5706   */\n  dup2\n    /* \"#utility.yul\":5690:5706   */\n  swap1\n  pop\n    /* \"#utility.yul\":5635:5712   */\n  swap2\n  swap1\n  pop\n  jump\t// out\n    /* \"#utility.yul\":5718:5778   */\ntag_35:\n    /* \"#utility.yul\":5746:5749   */\n  0x00\n    /* \"#utility.yul\":5767:5772   */\n  dup2\n    /* \"#utility.yul\":5760:5772   */\n  swap1\n  pop\n    /* \"#utility.yul\":5718:5778   */\n  swap2\n  swap1\n  pop\n  jump\t// out\n    /* \"#utility.yul\":5784:5926   */\ntag_36:\n    /* \"#utility.yul\":5834:5843   */\n  0x00\n    /* \"#utility.yul\":5867:5920   */\n  tag_107\n    /* \"#utility.yul\":5885:5919   */\n  tag_108\n    /* \"#utility.yul\":5894:5918   */\n  tag_109\n    /* \"#utility.yul\":5912:5917   */\n  dup5\n    /* \"#utility.yul\":5894:5918   */\n  tag_34\n  jump\t// in\ntag_109:\n    /* \"#utility.yul\":5885:5919   */\n  tag_35\n  jump\t// in\ntag_108:\n    /* \"#utility.yul\":5867:5920   */\n  tag_34\n  jump\t// in\ntag_107:\n    /* \"#utility.yul\":5854:5920   */\n  swap1\n  pop\n    /* \"#utility.yul\":5784:5926   */\n  swap2\n  swap1\n  pop\n  jump\t// out\n    /* \"#utility.yul\":5932:6007   */\ntag_37:\n    /* \"#utility.yul\":5975:5978   */\n  0x00\n    /* \"#utility.yul\":5996:6001   */\n  dup2\n    /* \"#utility.yul\":5989:6001   */\n  swap1\n  pop\n    /* \"#utility.yul\":5932:6007   */\n  swap2\n  swap1\n  pop\n  jump\t// out\n    /* \"#utility.yul\":6013:6282   */\ntag_38:\n    /* \"#utility.yul\":6123:6162   */\n  tag_112\n    /* \"#utility.yul\":6154:6161   */\n  dup4\n    /* \"#utility.yul\":6123:6162   */\n  tag_36\n  jump\t// in\ntag_112:\n    /* \"#utility.yul\":6184:6275   */\n  tag_113\n    /* \"#utility.yul\":6233:6274   */\n  tag_114\n    /* \"#utility.yul\":6257:6273   */\n  dup3\n    /* \"#utility.yul\":6233:6274   */\n  tag_37\n  jump\t// in\ntag_114:\n    /* \"#utility.yul\":6225:6231   */\n  dup5\n    /* \"#utility.yul\":6218:6222   */\n  dup5\n    /* \"#utility.yul\":6212:6223   */\n  sload\n    /* \"#utility.yul\":6184:6275   */\n  tag_33\n  jump\t// in\ntag_113:\n    /* \"#utility.yul\":6178:6182   */\n  dup3\n    /* \"#utility.yul\":6171:6276   */\n  sstore\n    /* \"#utility.yul\":6089:6282   */\n  pop\n    /* \"#utility.yul\":6013:6282   */\n  pop\n  pop\n  pop\n  jump\t// out\n    /* \"#utility.yul\":6288:6361   */\ntag_39:\n    /* \"#utility.yul\":6333:6336   */\n  0x00\n    /* \"#utility.yul\":6288:6361   */\n  swap1\n  jump\t// out\n    /* \"#utility.yul\":6367:6556   */\ntag_40:\n    /* \"#utility.yul\":6444:6476   */\n  tag_117\n  tag_39\n  jump\t// in\ntag_117:\n    /* \"#utility.yul\":6485:6550   */\n  tag_118\n    /* \"#utility.yul\":6543:6549   */\n  dup2\n    /* \"#utility.yul\":6535:6541   */\n  dup5\n    /* \"#utility.yul\":6529:6533   */\n  dup5\n    /* \"#utility.yul\":6485:6550   */\n  tag_38\n  jump\t// in\ntag_118:\n    /* \"#utility.yul\":6420:6556   */\n  pop\n    /* \"#utility.yul\":6367:6556   */\n  pop\n  pop\n  jump\t// out\n    /* \"#utility.yul\":6562:6748   */\ntag_41:\n    /* \"#utility.yul\":6622:6742   */\ntag_120:\n    /* \"#utility.yul\":6639:6642   */\n  dup2\n    /* \"#utility.yul\":6632:6637   */\n  dup2\n    /* \"#utility.yul\":6629:6643   */\n  lt\n    /* \"#utility.yul\":6622:6742   */\n  iszero\n  tag_122\n  jumpi\n    /* \"#utility.yul\":6693:6732   */\n  tag_123\n    /* \"#utility.yul\":6730:6731   */\n  0x00\n    /* \"#utility.yul\":6723:6728   */\n  dup3\n    /* \"#utility.yul\":6693:6732   */\n  tag_40\n  jump\t// in\ntag_123:\n    /* \"#utility.yul\":6666:6667   */\n  0x01\n    /* \"#utility.yul\":6659:6664   */\n  dup2\n    /* \"#utility.yul\":6655:6668   */\n  add\n    /* \"#utility.yul\":6646:6668   */\n  swap1\n  pop\n    /* \"#utility.yul\":6622:6742   */\n  jump(tag_120)\ntag_122:\n    /* \"#utility.yul\":6562:6748   */\n  pop\n  pop\n  jump\t// out\n    /* \"#utility.yul\":6754:7297   */\ntag_42:\n    /* \"#utility.yul\":6855:6857   */\n  0x1f\n    /* \"#utility.yul\":6850:6853   */\n  dup3\n    /* \"#utility.yul\":6847:6858   */\n  gt\n    /* \"#utility.yul\":6844:7290   */\n  iszero\n  tag_125\n  jumpi\n    /* \"#utility.yul\":6889:6927   */\n  tag_126\n    /* \"#utility.yul\":6921:6926   */\n  dup2\n    /* \"#utility.yul\":6889:6927   */\n  tag_30\n  jump\t// in\ntag_126:\n    /* \"#utility.yul\":6973:7002   */\n  tag_127\n    /* \"#utility.yul\":6991:7001   */\n  dup5\n    /* \"#utility.yul\":6973:7002   */\n  tag_31\n  jump\t// in\ntag_127:\n    /* \"#utility.yul\":6963:6971   */\n  dup2\n    /* \"#utility.yul\":6959:7003   */\n  add\n    /* \"#utility.yul\":7156:7158   */\n  0x20\n    /* \"#utility.yul\":7144:7154   */\n  dup6\n    /* \"#utility.yul\":7141:7159   */\n  lt\n    /* \"#utility.yul\":7138:7187   */\n  iszero\n  tag_128\n  jumpi\n    /* \"#utility.yul\":7177:7185   */\n  dup2\n    /* \"#utility.yul\":7162:7185   */\n  swap1\n  pop\n    /* \"#utility.yul\":7138:7187   */\ntag_128:\n    /* \"#utility.yul\":7200:7280   */\n  tag_129\n    /* \"#utility.yul\":7256:7278   */\n  tag_130\n    /* \"#utility.yul\":7274:7277   */\n  dup6\n    /* \"#utility.yul\":7256:7278   */\n  tag_31\n  jump\t// in\ntag_130:\n    /* \"#utility.yul\":7246:7254   */\n  dup4\n    /* \"#utility.yul\":7242:7279   */\n  add\n    /* \"#utility.yul\":7229:7240   */\n  dup3\n    /* \"#utility.yul\":7200:7280   */\n  tag_41\n  jump\t// in\ntag_129:\n    /* \"#utility.yul\":6859:7290   */\n  pop\n  pop\n    /* \"#utility.yul\":6844:7290   */\ntag_125:\n    /* \"#utility.yul\":6754:7297   */\n  pop\n  pop\n  pop\n  jump\t// out\n    /* \"#utility.yul\":7303:7420   */\ntag_43:\n    /* \"#utility.yul\":7357:7365   */\n  0x00\n    /* \"#utility.yul\":7407:7412   */\n  dup3\n    /* \"#utility.yul\":7401:7405   */\n  dup3\n    /* \"#utility.yul\":7397:7413   */\n  shr\n    /* \"#utility.yul\":7376:7413   */\n  swap1\n  pop\n    /* \"#utility.yul\":7303:7420   */\n  swap3\n  swap2\n  pop\n  pop\n  jump\t// out\n    /* \"#utility.yul\":7426:7595   */\ntag_44:\n    /* \"#utility.yul\":7470:7476   */\n  0x00\n    /* \"#utility.yul\":7503:7554   */\n  tag_133\n    /* \"#utility.yul\":7551:7552   */\n  0x00\n    /* \"#utility.yul\":7547:7553   */\n  not\n    /* \"#utility.yul\":7539:7544   */\n  dup5\n    /* \"#utility.yul\":7536:7537   */\n  0x08\n    /* \"#utility.yul\":7532:7545   */\n  mul\n    /* \"#utility.yul\":7503:7554   */\n  tag_43\n  jump\t// in\ntag_133:\n    /* \"#utility.yul\":7499:7555   */\n  not\n    /* \"#utility.yul\":7584:7588   */\n  dup1\n    /* \"#utility.yul\":7578:7582   */\n  dup4\n    /* \"#utility.yul\":7574:7589   */\n  and\n    /* \"#utility.yul\":7564:7589   */\n  swap2\n  pop\n    /* \"#utility.yul\":7477:7595   */\n  pop\n    /* \"#utility.yul\":7426:7595   */\n  swap3\n  swap2\n  pop\n  pop\n  jump\t// out\n    /* \"#utility.yul\":7600:7895   */\ntag_45:\n    /* \"#utility.yul\":7676:7680   */\n  0x00\n    /* \"#utility.yul\":7822:7851   */\n  tag_135\n    /* \"#utility.yul\":7847:7850   */\n  dup4\n    /* \"#utility.yul\":7841:7845   */\n  dup4\n    /* \"#utility.yul\":7822:7851   */\n  tag_44\n  jump\t// in\ntag_135:\n    /* \"#utility.yul\":7814:7851   */\n  swap2\n  pop\n    /* \"#utility.yul\":7884:7887   */\n  dup3\n    /* \"#utility.yul\":7881:7882   */\n  0x02\n    /* \"#utility.yul\":7877:7888   */\n  mul\n    /* \"#utility.yul\":7871:7875   */\n  dup3\n    /* \"#utility.yul\":7868:7889   */\n  or\n    /* \"#utility.yul\":7860:7889   */\n  swap1\n  pop\n    /* \"#utility.yul\":7600:7895   */\n  swap3\n  swap2\n  pop\n  pop\n  jump\t// out\n    /* \"#utility.yul\":7900:9295   */\ntag_9:\n    /* \"#utility.yul\":8017:8054   */\n  tag_137\n    /* \"#utility.yul\":8050:8053   */\n  dup3\n    /* \"#utility.yul\":8017:8054   */\n  tag_25\n  jump\t// in\ntag_137:\n    /* \"#utility.yul\":8119:8137   */\n  0xffffffffffffffff\n    /* \"#utility.yul\":8111:8117   */\n  dup2\n    /* \"#utility.yul\":8108:8138   */\n  gt\n    /* \"#utility.yul\":8105:8161   */\n  iszero\n  tag_138\n  jumpi\n    /* \"#utility.yul\":8141:8159   */\n  tag_139\n  tag_18\n  jump\t// in\ntag_139:\n    /* \"#utility.yul\":8105:8161   */\ntag_138:\n    /* \"#utility.yul\":8185:8223   */\n  tag_140\n    /* \"#utility.yul\":8217:8221   */\n  dup3\n    /* \"#utility.yul\":8211:8222   */\n  sload\n    /* \"#utility.yul\":8185:8223   */\n  tag_29\n  jump\t// in\ntag_140:\n    /* \"#utility.yul\":8270:8337   */\n  tag_141\n    /* \"#utility.yul\":8330:8336   */\n  dup3\n    /* \"#utility.yul\":8322:8328   */\n  dup3\n    /* \"#utility.yul\":8316:8320   */\n  dup6\n    /* \"#utility.yul\":8270:8337   */\n  tag_42\n  jump\t// in\ntag_141:\n    /* \"#utility.yul\":8364:8365   */\n  0x00\n    /* \"#utility.yul\":8388:8392   */\n  0x20\n    /* \"#utility.yul\":8375:8392   */\n  swap1\n  pop\n    /* \"#utility.yul\":8420:8422   */\n  0x1f\n    /* \"#utility.yul\":8412:8418   */\n  dup4\n    /* \"#utility.yul\":8409:8423   */\n  gt\n    /* \"#utility.yul\":8437:8438   */\n  0x01\n    /* \"#utility.yul\":8432:9050   */\n  dup2\n  eq\n  tag_143\n  jumpi\n    /* \"#utility.yul\":9094:9095   */\n  0x00\n    /* \"#utility.yul\":9111:9117   */\n  dup5\n    /* \"#utility.yul\":9108:9185   */\n  iszero\n  tag_144\n  jumpi\n    /* \"#utility.yul\":9160:9169   */\n  dup3\n    /* \"#utility.yul\":9155:9158   */\n  dup8\n    /* \"#utility.yul\":9151:9170   */\n  add\n    /* \"#utility.yul\":9145:9171   */\n  mload\n    /* \"#utility.yul\":9136:9171   */\n  swap1\n  pop\n    /* \"#utility.yul\":9108:9185   */\ntag_144:\n    /* \"#utility.yul\":9211:9278   */\n  tag_145\n    /* \"#utility.yul\":9271:9277   */\n  dup6\n    /* \"#utility.yul\":9264:9269   */\n  dup3\n    /* \"#utility.yul\":9211:9278   */\n  tag_45\n  jump\t// in\ntag_145:\n    /* \"#utility.yul\":9205:9209   */\n  dup7\n    /* \"#utility.yul\":9198:9279   */\n  sstore\n    /* \"#utility.yul\":9067:9289   */\n  pop\n    /* \"#utility.yul\":8402:9289   */\n  jump(tag_142)\n    /* \"#utility.yul\":8432:9050   */\ntag_143:\n    /* \"#utility.yul\":8484:8488   */\n  0x1f\n    /* \"#utility.yul\":8480:8489   */\n  not\n    /* \"#utility.yul\":8472:8478   */\n  dup5\n    /* \"#utility.yul\":8468:8490   */\n  and\n    /* \"#utility.yul\":8518:8555   */\n  tag_146\n    /* \"#utility.yul\":8550:8554   */\n  dup7\n    /* \"#utility.yul\":8518:8555   */\n  tag_30\n  jump\t// in\ntag_146:\n    /* \"#utility.yul\":8577:8578   */\n  0x00\n    /* \"#utility.yul\":8591:8799   */\ntag_147:\n    /* \"#utility.yul\":8605:8612   */\n  dup3\n    /* \"#utility.yul\":8602:8603   */\n  dup2\n    /* \"#utility.yul\":8599:8613   */\n  lt\n    /* \"#utility.yul\":8591:8799   */\n  iszero\n  tag_149\n  jumpi\n    /* \"#utility.yul\":8684:8693   */\n  dup5\n    /* \"#utility.yul\":8679:8682   */\n  dup10\n    /* \"#utility.yul\":8675:8694   */\n  add\n    /* \"#utility.yul\":8669:8695   */\n  mload\n    /* \"#utility.yul\":8661:8667   */\n  dup3\n    /* \"#utility.yul\":8654:8696   */\n  sstore\n    /* \"#utility.yul\":8735:8736   */\n  0x01\n    /* \"#utility.yul\":8727:8733   */\n  dup3\n    /* \"#utility.yul\":8723:8737   */\n  add\n    /* \"#utility.yul\":8713:8737   */\n  swap2\n  pop\n    /* \"#utility.yul\":8782:8784   */\n  0x20\n    /* \"#utility.yul\":8771:8780   */\n  dup6\n    /* \"#utility.yul\":8767:8785   */\n  add\n    /* \"#utility.yul\":8754:8785   */\n  swap5\n  pop\n    /* \"#utility.yul\":8628:8632   */\n  0x20\n    /* \"#utility.yul\":8625:8626   */\n  dup2\n    /* \"#utility.yul\":8621:8633   */\n  add\n    /* \"#utility.yul\":8616:8633   */\n  swap1\n  pop\n    /* \"#utility.yul\":8591:8799   */\n  jump(tag_147)\ntag_149:\n    /* \"#utility.yul\":8827:8833   */\n  dup7\n    /* \"#utility.yul\":8818:8825   */\n  dup4\n    /* \"#utility.yul\":8815:8834   */\n  lt\n    /* \"#utility.yul\":8812:8991   */\n  iszero\n  tag_150\n  jumpi\n    /* \"#utility.yul\":8885:8894   */\n  dup5\n    /* \"#utility.yul\":8880:8883   */\n  dup10\n    /* \"#utility.yul\":8876:8895   */\n  add\n    /* \"#utility.yul\":8870:8896   */\n  mload\n    /* \"#utility.yul\":8928:8976   */\n  tag_151\n    /* \"#utility.yul\":8970:8974   */\n  0x1f\n    /* \"#utility.yul\":8962:8968   */\n  dup10\n    /* \"#utility.yul\":8958:8975   */\n  and\n    /* \"#utility.yul\":8947:8956   */\n  dup3\n    /* \"#utility.yul\":8928:8976   */\n  tag_44\n  jump\t// in\ntag_151:\n    /* \"#utility.yul\":8920:8926   */\n  dup4\n    /* \"#utility.yul\":8913:8977   */\n  sstore\n    /* \"#utility.yul\":8835:8991   */\n  pop\n    /* \"#utility.yul\":8812:8991   */\ntag_150:\n    /* \"#utility.yul\":9037:9038   */\n  0x01\n    /* \"#utility.yul\":9033:9034   */\n  0x02\n    /* \"#utility.yul\":9025:9031   */\n  dup9\n    /* \"#utility.yul\":9021:9035   */\n  mul\n    /* \"#utility.yul\":9017:9039   */\n  add\n    /* \"#utility.yul\":9011:9015   */\n  dup9\n    /* \"#utility.yul\":9004:9040   */\n  sstore\n    /* \"#utility.yul\":8439:9050   */\n  pop\n  pop\n  pop\n    /* \"#utility.yul\":8402:9289   */\ntag_142:\n  pop\n    /* \"#utility.yul\":7992:9295   */\n  pop\n  pop\n  pop\n    /* \"#utility.yul\":7900:9295   */\n  pop\n  pop\n  jump\t// out\n    /* \"contracts/Lock.sol\":64:6396  contract Lock {... */\ntag_11:\n  dataSize(sub_0)\n  dup1\n  dataOffset(sub_0)\n  0x00\n  codecopy\n  0x00\n  return\nstop\n\nsub_0: assembly {\n        /* \"contracts/Lock.sol\":64:6396  contract Lock {... */\n      mstore(0x40, 0x80)\n      callvalue\n      dup1\n      iszero\n      tag_1\n      jumpi\n      0x00\n      dup1\n      revert\n    tag_1:\n      pop\n      jumpi(tag_2, lt(calldatasize, 0x04))\n      shr(0xe0, calldataload(0x00))\n      dup1\n      0x9d3adf5b\n      gt\n      tag_13\n      jumpi\n      dup1\n      0x9d3adf5b\n      eq\n      tag_8\n      jumpi\n      dup1\n      0xb7ff50fc\n      eq\n      tag_9\n      jumpi\n      dup1\n      0xc7bbf8af\n      eq\n      tag_10\n      jumpi\n      dup1\n      0xe8d5940d\n      eq\n      tag_11\n      jumpi\n      dup1\n      0xf36be3dd\n      eq\n      tag_12\n      jumpi\n      jump(tag_2)\n    tag_13:\n      dup1\n      0x1f459041\n      eq\n      tag_3\n      jumpi\n      dup1\n      0x6fcf1c7d\n      eq\n      tag_4\n      jumpi\n      dup1\n      0x7fd5f268\n      eq\n      tag_5\n      jumpi\n      dup1\n      0x897de252\n      eq\n      tag_6\n      jumpi\n      dup1\n      0x928cb52e\n      eq\n      tag_7\n      jumpi\n    tag_2:\n      0x00\n      dup1\n      revert\n        /* \"contracts/Lock.sol\":1142:1263  function addAdmin(string memory _id, string memory _password) public {... */\n    tag_3:\n      tag_14\n      0x04\n      dup1\n      calldatasize\n      sub\n      dup2\n      add\n      swap1\n      tag_15\n      swap2\n      swap1\n      tag_16\n      jump\t// in\n    tag_15:\n      tag_17\n      jump\t// in\n    tag_14:\n      stop\n        /* \"contracts/Lock.sol\":6017:6394  function verifyAdmin(... */\n    tag_4:\n      tag_18\n      0x04\n      dup1\n      calldatasize\n      sub\n      dup2\n      add\n      swap1\n      tag_19\n      swap2\n      swap1\n      tag_16\n      jump\t// in\n    tag_19:\n      tag_20\n      jump\t// in\n    tag_18:\n      mload(0x40)\n      tag_21\n      swap2\n      swap1\n      tag_22\n      jump\t// in\n    tag_21:\n      mload(0x40)\n      dup1\n      swap2\n      sub\n      swap1\n      return\n        /* \"contracts/Lock.sol\":5527:6011  function getAllElections()... */\n    tag_5:\n      tag_23\n      tag_24\n      jump\t// in\n    tag_23:\n      mload(0x40)\n      tag_25\n      swap3\n      swap2\n      swap1\n      tag_26\n      jump\t// in\n    tag_25:\n      mload(0x40)\n      dup1\n      swap2\n      sub\n      swap1\n      return\n        /* \"contracts/Lock.sol\":4976:5239  function getElectionResult(... */\n    tag_6:\n      tag_27\n      0x04\n      dup1\n      calldatasize\n      sub\n      dup2\n      add\n      swap1\n      tag_28\n      swap2\n      swap1\n      tag_29\n      jump\t// in\n    tag_28:\n      tag_30\n      jump\t// in\n    tag_27:\n      mload(0x40)\n      tag_31\n      swap3\n      swap2\n      swap1\n      tag_32\n      jump\t// in\n    tag_31:\n      mload(0x40)\n      dup1\n      swap2\n      sub\n      swap1\n      return\n        /* \"contracts/Lock.sol\":5357:5521  function getElectionDetails(... */\n    tag_7:\n      tag_33\n      0x04\n      dup1\n      calldatasize\n      sub\n      dup2\n      add\n      swap1\n      tag_34\n      swap2\n      swap1\n      tag_29\n      jump\t// in\n    tag_34:\n      tag_35\n      jump\t// in\n    tag_33:\n      mload(0x40)\n      tag_36\n      swap2\n      swap1\n      tag_37\n      jump\t// in\n    tag_36:\n      mload(0x40)\n      dup1\n      swap2\n      sub\n      swap1\n      return\n        /* \"contracts/Lock.sol\":4255:4970  function getCandidateNames(... */\n    tag_8:\n      tag_38\n      0x04\n      dup1\n      calldatasize\n      sub\n      dup2\n      add\n      swap1\n      tag_39\n      swap2\n      swap1\n      tag_29\n      jump\t// in\n    tag_39:\n      tag_40\n      jump\t// in\n    tag_38:\n      mload(0x40)\n      tag_41\n      swap2\n      swap1\n      tag_42\n      jump\t// in\n    tag_41:\n      mload(0x40)\n      dup1\n      swap2\n      sub\n      swap1\n      return\n        /* \"contracts/Lock.sol\":3378:4249  function getCandidateVotes(... */\n    tag_9:\n      tag_43\n      0x04\n      dup1\n      calldatasize\n      sub\n      dup2\n      add\n      swap1\n      tag_44\n      swap2\n      swap1\n      tag_16\n      jump\t// in\n    tag_44:\n      tag_45\n      jump\t// in\n    tag_43:\n      mload(0x40)\n      tag_46\n      swap2\n      swap1\n      tag_47\n      jump\t// in\n    tag_46:\n      mload(0x40)\n      dup1\n      swap2\n      sub\n      swap1\n      return\n        /* \"contracts/Lock.sol\":1269:2475  function addElectionWithDetails(... */\n    tag_10:\n      tag_48\n      0x04\n      dup1\n      calldatasize\n      sub\n      dup2\n      add\n      swap1\n      tag_49\n      swap2\n      swap1\n      tag_50\n      jump\t// in\n    tag_49:\n      tag_51\n      jump\t// in\n    tag_48:\n      stop\n        /* \"contracts/Lock.sol\":2481:3372  function vote(... */\n    tag_11:\n      tag_52\n      0x04\n      dup1\n      calldatasize\n      sub\n      dup2\n      add\n      swap1\n      tag_53\n      swap2\n      swap1\n      tag_16\n      jump\t// in\n    tag_53:\n      tag_54\n      jump\t// in\n    tag_52:\n      stop\n        /* \"contracts/Lock.sol\":5245:5351  function getAllElectionNames() public view returns (string[] memory) {... */\n    tag_12:\n      tag_55\n      tag_56\n      jump\t// in\n    tag_55:\n      mload(0x40)\n      tag_57\n      swap2\n      swap1\n      tag_42\n      jump\t// in\n    tag_57:\n      mload(0x40)\n      dup1\n      swap2\n      sub\n      swap1\n      return\n        /* \"contracts/Lock.sol\":1142:1263  function addAdmin(string memory _id, string memory _password) public {... */\n    tag_17:\n        /* \"contracts/Lock.sol\":1235:1256  Admin(_id, _password) */\n      mload(0x40)\n      dup1\n      0x40\n      add\n      0x40\n      mstore\n      dup1\n        /* \"contracts/Lock.sol\":1241:1244  _id */\n      dup4\n        /* \"contracts/Lock.sol\":1235:1256  Admin(_id, _password) */\n      dup2\n      mstore\n      0x20\n      add\n        /* \"contracts/Lock.sol\":1246:1255  _password */\n      dup3\n        /* \"contracts/Lock.sol\":1235:1256  Admin(_id, _password) */\n      dup2\n      mstore\n      pop\n        /* \"contracts/Lock.sol\":1221:1227  admins */\n      0x01\n        /* \"contracts/Lock.sol\":1228:1231  _id */\n      dup4\n        /* \"contracts/Lock.sol\":1221:1232  admins[_id] */\n      mload(0x40)\n      tag_59\n      swap2\n      swap1\n      tag_60\n      jump\t// in\n    tag_59:\n      swap1\n      dup2\n      mstore\n      0x20\n      add\n      mload(0x40)\n      dup1\n      swap2\n      sub\n      swap1\n      keccak256\n        /* \"contracts/Lock.sol\":1221:1256  admins[_id] = Admin(_id, _password) */\n      0x00\n      dup3\n      add\n      mload\n      dup2\n      0x00\n      add\n      swap1\n      dup2\n      tag_61\n      swap2\n      swap1\n      tag_62\n      jump\t// in\n    tag_61:\n      pop\n      0x20\n      dup3\n      add\n      mload\n      dup2\n      0x01\n      add\n      swap1\n      dup2\n      tag_63\n      swap2\n      swap1\n      tag_62\n      jump\t// in\n    tag_63:\n      pop\n      swap1\n      pop\n      pop\n        /* \"contracts/Lock.sol\":1142:1263  function addAdmin(string memory _id, string memory _password) public {... */\n      pop\n      pop\n      jump\t// out\n        /* \"contracts/Lock.sol\":6017:6394  function verifyAdmin(... */\n    tag_20:\n        /* \"contracts/Lock.sol\":6125:6129  bool */\n      0x00\n        /* \"contracts/Lock.sol\":6141:6160  Admin storage admin */\n      dup1\n        /* \"contracts/Lock.sol\":6163:6169  admins */\n      0x01\n        /* \"contracts/Lock.sol\":6170:6173  _id */\n      dup5\n        /* \"contracts/Lock.sol\":6163:6174  admins[_id] */\n      mload(0x40)\n      tag_65\n      swap2\n      swap1\n      tag_60\n      jump\t// in\n    tag_65:\n      swap1\n      dup2\n      mstore\n      0x20\n      add\n      mload(0x40)\n      dup1\n      swap2\n      sub\n      swap1\n      keccak256\n        /* \"contracts/Lock.sol\":6141:6174  Admin storage admin = admins[_id] */\n      swap1\n      pop\n        /* \"contracts/Lock.sol\":6287:6296  _password */\n      dup3\n        /* \"contracts/Lock.sol\":6270:6297  abi.encodePacked(_password) */\n      add(0x20, mload(0x40))\n      tag_66\n      swap2\n      swap1\n      tag_60\n      jump\t// in\n    tag_66:\n      mload(0x40)\n      0x20\n      dup2\n      dup4\n      sub\n      sub\n      dup2\n      mstore\n      swap1\n      0x40\n      mstore\n        /* \"contracts/Lock.sol\":6260:6298  keccak256(abi.encodePacked(_password)) */\n      dup1\n      mload\n      swap1\n      0x20\n      add\n      keccak256\n        /* \"contracts/Lock.sol\":6228:6233  admin */\n      dup2\n        /* \"contracts/Lock.sol\":6228:6242  admin.password */\n      0x01\n      add\n        /* \"contracts/Lock.sol\":6211:6243  abi.encodePacked(admin.password) */\n      add(0x20, mload(0x40))\n      tag_67\n      swap2\n      swap1\n      tag_68\n      jump\t// in\n    tag_67:\n      mload(0x40)\n      0x20\n      dup2\n      dup4\n      sub\n      sub\n      dup2\n      mstore\n      swap1\n      0x40\n      mstore\n        /* \"contracts/Lock.sol\":6201:6244  keccak256(abi.encodePacked(admin.password)) */\n      dup1\n      mload\n      swap1\n      0x20\n      add\n      keccak256\n        /* \"contracts/Lock.sol\":6201:6298  keccak256(abi.encodePacked(admin.password)) ==... */\n      sub\n        /* \"contracts/Lock.sol\":6184:6388  if (... */\n      tag_69\n      jumpi\n        /* \"contracts/Lock.sol\":6330:6334  true */\n      0x01\n        /* \"contracts/Lock.sol\":6323:6334  return true */\n      swap2\n      pop\n      pop\n      jump(tag_64)\n        /* \"contracts/Lock.sol\":6184:6388  if (... */\n    tag_69:\n        /* \"contracts/Lock.sol\":6372:6377  false */\n      0x00\n        /* \"contracts/Lock.sol\":6365:6377  return false */\n      swap2\n      pop\n      pop\n        /* \"contracts/Lock.sol\":6017:6394  function verifyAdmin(... */\n    tag_64:\n      swap3\n      swap2\n      pop\n      pop\n      jump\t// out\n        /* \"contracts/Lock.sol\":5527:6011  function getAllElections()... */\n    tag_24:\n        /* \"contracts/Lock.sol\":5599:5614  string[] memory */\n      0x60\n        /* \"contracts/Lock.sol\":5616:5640  ElectionDetails[] memory */\n      dup1\n        /* \"contracts/Lock.sol\":5656:5669  uint256 count */\n      0x00\n        /* \"contracts/Lock.sol\":5672:5685  electionNames */\n      0x02\n        /* \"contracts/Lock.sol\":5672:5692  electionNames.length */\n      dup1\n      sload\n      swap1\n      pop\n        /* \"contracts/Lock.sol\":5656:5692  uint256 count = electionNames.length */\n      swap1\n      pop\n        /* \"contracts/Lock.sol\":5702:5723  string[] memory names */\n      0x00\n        /* \"contracts/Lock.sol\":5739:5744  count */\n      dup2\n        /* \"contracts/Lock.sol\":5726:5745  new string[](count) */\n      0xffffffffffffffff\n      dup2\n      gt\n      iszero\n      tag_72\n      jumpi\n      tag_73\n      tag_74\n      jump\t// in\n    tag_73:\n    tag_72:\n      mload(0x40)\n      swap1\n      dup1\n      dup3\n      mstore\n      dup1\n      0x20\n      mul\n      0x20\n      add\n      dup3\n      add\n      0x40\n      mstore\n      dup1\n      iszero\n      tag_75\n      jumpi\n      dup2\n      0x20\n      add\n    tag_76:\n      0x60\n      dup2\n      mstore\n      0x20\n      add\n      swap1\n      0x01\n      swap1\n      sub\n      swap1\n      dup2\n      tag_76\n      jumpi\n      swap1\n      pop\n    tag_75:\n      pop\n        /* \"contracts/Lock.sol\":5702:5745  string[] memory names = new string[](count) */\n      swap1\n      pop\n        /* \"contracts/Lock.sol\":5755:5787  ElectionDetails[] memory details */\n      0x00\n        /* \"contracts/Lock.sol\":5812:5817  count */\n      dup3\n        /* \"contracts/Lock.sol\":5790:5818  new ElectionDetails[](count) */\n      0xffffffffffffffff\n      dup2\n      gt\n      iszero\n      tag_77\n      jumpi\n      tag_78\n      tag_74\n      jump\t// in\n    tag_78:\n    tag_77:\n      mload(0x40)\n      swap1\n      dup1\n      dup3\n      mstore\n      dup1\n      0x20\n      mul\n      0x20\n      add\n      dup3\n      add\n      0x40\n      mstore\n      dup1\n      iszero\n      tag_79\n      jumpi\n      dup2\n      0x20\n      add\n    tag_80:\n      tag_81\n      tag_82\n      jump\t// in\n    tag_81:\n      dup2\n      mstore\n      0x20\n      add\n      swap1\n      0x01\n      swap1\n      sub\n      swap1\n      dup2\n      tag_80\n      jumpi\n      swap1\n      pop\n    tag_79:\n      pop\n        /* \"contracts/Lock.sol\":5755:5818  ElectionDetails[] memory details = new ElectionDetails[](count) */\n      swap1\n      pop\n        /* \"contracts/Lock.sol\":5834:5843  uint256 i */\n      0x00\n        /* \"contracts/Lock.sol\":5829:5971  for (uint256 i = 0; i < count; i++) {... */\n    tag_83:\n        /* \"contracts/Lock.sol\":5853:5858  count */\n      dup4\n        /* \"contracts/Lock.sol\":5849:5850  i */\n      dup2\n        /* \"contracts/Lock.sol\":5849:5858  i < count */\n      lt\n        /* \"contracts/Lock.sol\":5829:5971  for (uint256 i = 0; i < count; i++) {... */\n      iszero\n      tag_84\n      jumpi\n        /* \"contracts/Lock.sol\":5890:5903  electionNames */\n      0x02\n        /* \"contracts/Lock.sol\":5904:5905  i */\n      dup2\n        /* \"contracts/Lock.sol\":5890:5906  electionNames[i] */\n      dup2\n      sload\n      dup2\n      lt\n      tag_86\n      jumpi\n      tag_87\n      tag_88\n      jump\t// in\n    tag_87:\n    tag_86:\n      swap1\n      0x00\n      mstore\n      keccak256(0x00, 0x20)\n      add\n        /* \"contracts/Lock.sol\":5879:5906  names[i] = electionNames[i] */\n      dup1\n      sload\n      tag_90\n      swap1\n      tag_91\n      jump\t// in\n    tag_90:\n      dup1\n      0x1f\n      add\n      0x20\n      dup1\n      swap2\n      div\n      mul\n      0x20\n      add\n      mload(0x40)\n      swap1\n      dup2\n      add\n      0x40\n      mstore\n      dup1\n      swap3\n      swap2\n      swap1\n      dup2\n      dup2\n      mstore\n      0x20\n      add\n      dup3\n      dup1\n      sload\n      tag_92\n      swap1\n      tag_91\n      jump\t// in\n    tag_92:\n      dup1\n      iszero\n      tag_93\n      jumpi\n      dup1\n      0x1f\n      lt\n      tag_94\n      jumpi\n      0x0100\n      dup1\n      dup4\n      sload\n      div\n      mul\n      dup4\n      mstore\n      swap2\n      0x20\n      add\n      swap2\n      jump(tag_93)\n    tag_94:\n      dup3\n      add\n      swap2\n      swap1\n      0x00\n      mstore\n      keccak256(0x00, 0x20)\n      swap1\n    tag_95:\n      dup2\n      sload\n      dup2\n      mstore\n      swap1\n      0x01\n      add\n      swap1\n      0x20\n      add\n      dup1\n      dup4\n      gt\n      tag_95\n      jumpi\n      dup3\n      swap1\n      sub\n      0x1f\n      and\n      dup3\n      add\n      swap2\n    tag_93:\n      pop\n      pop\n      pop\n      pop\n      pop\n        /* \"contracts/Lock.sol\":5879:5884  names */\n      dup4\n        /* \"contracts/Lock.sol\":5885:5886  i */\n      dup3\n        /* \"contracts/Lock.sol\":5879:5887  names[i] */\n      dup2\n      mload\n      dup2\n      lt\n      tag_96\n      jumpi\n      tag_97\n      tag_88\n      jump\t// in\n    tag_97:\n    tag_96:\n      0x20\n      mul\n      0x20\n      add\n      add\n        /* \"contracts/Lock.sol\":5879:5906  names[i] = electionNames[i] */\n      dup2\n      swap1\n      mstore\n      pop\n        /* \"contracts/Lock.sol\":5933:5942  elections */\n      0x00\n        /* \"contracts/Lock.sol\":5943:5956  electionNames */\n      0x02\n        /* \"contracts/Lock.sol\":5957:5958  i */\n      dup3\n        /* \"contracts/Lock.sol\":5943:5959  electionNames[i] */\n      dup2\n      sload\n      dup2\n      lt\n      tag_98\n      jumpi\n      tag_99\n      tag_88\n      jump\t// in\n    tag_99:\n    tag_98:\n      swap1\n      0x00\n      mstore\n      keccak256(0x00, 0x20)\n      add\n        /* \"contracts/Lock.sol\":5933:5960  elections[electionNames[i]] */\n      mload(0x40)\n      tag_101\n      swap2\n      swap1\n      tag_68\n      jump\t// in\n    tag_101:\n      swap1\n      dup2\n      mstore\n      0x20\n      add\n      mload(0x40)\n      dup1\n      swap2\n      sub\n      swap1\n      keccak256\n        /* \"contracts/Lock.sol\":5920:5960  details[i] = elections[electionNames[i]] */\n      mload(0x40)\n      dup1\n      0x80\n      add\n      0x40\n      mstore\n      swap1\n      dup2\n      0x00\n      dup3\n      add\n      dup1\n      sload\n      tag_102\n      swap1\n      tag_91\n      jump\t// in\n    tag_102:\n      dup1\n      0x1f\n      add\n      0x20\n      dup1\n      swap2\n      div\n      mul\n      0x20\n      add\n      mload(0x40)\n      swap1\n      dup2\n      add\n      0x40\n      mstore\n      dup1\n      swap3\n      swap2\n      swap1\n      dup2\n      dup2\n      mstore\n      0x20\n      add\n      dup3\n      dup1\n      sload\n      tag_103\n      swap1\n      tag_91\n      jump\t// in\n    tag_103:\n      dup1\n      iszero\n      tag_104\n      jumpi\n      dup1\n      0x1f\n      lt\n      tag_105\n      jumpi\n      0x0100\n      dup1\n      dup4\n      sload\n      div\n      mul\n      dup4\n      mstore\n      swap2\n      0x20\n      add\n      swap2\n      jump(tag_104)\n    tag_105:\n      dup3\n      add\n      swap2\n      swap1\n      0x00\n      mstore\n      keccak256(0x00, 0x20)\n      swap1\n    tag_106:\n      dup2\n      sload\n      dup2\n      mstore\n      swap1\n      0x01\n      add\n      swap1\n      0x20\n      add\n      dup1\n      dup4\n      gt\n      tag_106\n      jumpi\n      dup3\n      swap1\n      sub\n      0x1f\n      and\n      dup3\n      add\n      swap2\n    tag_104:\n      pop\n      pop\n      pop\n      pop\n      pop\n      dup2\n      mstore\n      0x20\n      add\n      0x01\n      dup3\n      add\n      dup1\n      sload\n      dup1\n      0x20\n      mul\n      0x20\n      add\n      mload(0x40)\n      swap1\n      dup2\n      add\n      0x40\n      mstore\n      dup1\n      swap3\n      swap2\n      swap1\n      dup2\n      dup2\n      mstore\n      0x20\n      add\n      0x00\n      swap1\n    tag_107:\n      dup3\n      dup3\n      lt\n      iszero\n      tag_108\n      jumpi\n      dup4\n      dup3\n      swap1\n      0x00\n      mstore\n      keccak256(0x00, 0x20)\n      swap1\n      0x05\n      mul\n      add\n      mload(0x40)\n      dup1\n      0xa0\n      add\n      0x40\n      mstore\n      swap1\n      dup2\n      0x00\n      dup3\n      add\n      dup1\n      sload\n      tag_110\n      swap1\n      tag_91\n      jump\t// in\n    tag_110:\n      dup1\n      0x1f\n      add\n      0x20\n      dup1\n      swap2\n      div\n      mul\n      0x20\n      add\n      mload(0x40)\n      swap1\n      dup2\n      add\n      0x40\n      mstore\n      dup1\n      swap3\n      swap2\n      swap1\n      dup2\n      dup2\n      mstore\n      0x20\n      add\n      dup3\n      dup1\n      sload\n      tag_111\n      swap1\n      tag_91\n      jump\t// in\n    tag_111:\n      dup1\n      iszero\n      tag_112\n      jumpi\n      dup1\n      0x1f\n      lt\n      tag_113\n      jumpi\n      0x0100\n      dup1\n      dup4\n      sload\n      div\n      mul\n      dup4\n      mstore\n      swap2\n      0x20\n      add\n      swap2\n      jump(tag_112)\n    tag_113:\n      dup3\n      add\n      swap2\n      swap1\n      0x00\n      mstore\n      keccak256(0x00, 0x20)\n      swap1\n    tag_114:\n      dup2\n      sload\n      dup2\n      mstore\n      swap1\n      0x01\n      add\n      swap1\n      0x20\n      add\n      dup1\n      dup4\n      gt\n      tag_114\n      jumpi\n      dup3\n      swap1\n      sub\n      0x1f\n      and\n      dup3\n      add\n      swap2\n    tag_112:\n      pop\n      pop\n      pop\n      pop\n      pop\n      dup2\n      mstore\n      0x20\n      add\n      0x01\n      dup3\n      add\n      dup1\n      sload\n      tag_115\n      swap1\n      tag_91\n      jump\t// in\n    tag_115:\n      dup1\n      0x1f\n      add\n      0x20\n      dup1\n      swap2\n      div\n      mul\n      0x20\n      add\n      mload(0x40)\n      swap1\n      dup2\n      add\n      0x40\n      mstore\n      dup1\n      swap3\n      swap2\n      swap1\n      dup2\n      dup2\n      mstore\n      0x20\n      add\n      dup3\n      dup1\n      sload\n      tag_116\n      swap1\n      tag_91\n      jump\t// in\n    tag_116:\n      dup1\n      iszero\n      tag_117\n      jumpi\n      dup1\n      0x1f\n      lt\n      tag_118\n      jumpi\n      0x0100\n      dup1\n      dup4\n      sload\n      div\n      mul\n      dup4\n      mstore\n      swap2\n      0x20\n      add\n      swap2\n      jump(tag_117)\n    tag_118:\n      dup3\n      add\n      swap2\n      swap1\n      0x00\n      mstore\n      keccak256(0x00, 0x20)\n      swap1\n    tag_119:\n      dup2\n      sload\n      dup2\n      mstore\n      swap1\n      0x01\n      add\n      swap1\n      0x20\n      add\n      dup1\n      dup4\n      gt\n      tag_119\n      jumpi\n      dup3\n      swap1\n      sub\n      0x1f\n      and\n      dup3\n      add\n      swap2\n    tag_117:\n      pop\n      pop\n      pop\n      pop\n      pop\n      dup2\n      mstore\n      0x20\n      add\n      0x02\n      dup3\n      add\n      dup1\n      sload\n      tag_120\n      swap1\n      tag_91\n      jump\t// in\n    tag_120:\n      dup1\n      0x1f\n      add\n      0x20\n      dup1\n      swap2\n      div\n      mul\n      0x20\n      add\n      mload(0x40)\n      swap1\n      dup2\n      add\n      0x40\n      mstore\n      dup1\n      swap3\n      swap2\n      swap1\n      dup2\n      dup2\n      mstore\n      0x20\n      add\n      dup3\n      dup1\n      sload\n      tag_121\n      swap1\n      tag_91\n      jump\t// in\n    tag_121:\n      dup1\n      iszero\n      tag_122\n      jumpi\n      dup1\n      0x1f\n      lt\n      tag_123\n      jumpi\n      0x0100\n      dup1\n      dup4\n      sload\n      div\n      mul\n      dup4\n      mstore\n      swap2\n      0x20\n      add\n      swap2\n      jump(tag_122)\n    tag_123:\n      dup3\n      add\n      swap2\n      swap1\n      0x00\n      mstore\n      keccak256(0x00, 0x20)\n      swap1\n    tag_124:\n      dup2\n      sload\n      dup2\n      mstore\n      swap1\n      0x01\n      add\n      swap1\n      0x20\n      add\n      dup1\n      dup4\n      gt\n      tag_124\n      jumpi\n      dup3\n      swap1\n      sub\n      0x1f\n      and\n      dup3\n      add\n      swap2\n    tag_122:\n      pop\n      pop\n      pop\n      pop\n      pop\n      dup2\n      mstore\n      0x20\n      add\n      0x03\n      dup3\n      add\n      dup1\n      sload\n      tag_125\n      swap1\n      tag_91\n      jump\t// in\n    tag_125:\n      dup1\n      0x1f\n      add\n      0x20\n      dup1\n      swap2\n      div\n      mul\n      0x20\n      add\n      mload(0x40)\n      swap1\n      dup2\n      add\n      0x40\n      mstore\n      dup1\n      swap3\n      swap2\n      swap1\n      dup2\n      dup2\n      mstore\n      0x20\n      add\n      dup3\n      dup1\n      sload\n      tag_126\n      swap1\n      tag_91\n      jump\t// in\n    tag_126:\n      dup1\n      iszero\n      tag_127\n      jumpi\n      dup1\n      0x1f\n      lt\n      tag_128\n      jumpi\n      0x0100\n      dup1\n      dup4\n      sload\n      div\n      mul\n      dup4\n      mstore\n      swap2\n      0x20\n      add\n      swap2\n      jump(tag_127)\n    tag_128:\n      dup3\n      add\n      swap2\n      swap1\n      0x00\n      mstore\n      keccak256(0x00, 0x20)\n      swap1\n    tag_129:\n      dup2\n      sload\n      dup2\n      mstore\n      swap1\n      0x01\n      add\n      swap1\n      0x20\n      add\n      dup1\n      dup4\n      gt\n      tag_129\n      jumpi\n      dup3\n      swap1\n      sub\n      0x1f\n      and\n      dup3\n      add\n      swap2\n    tag_127:\n      pop\n      pop\n      pop\n      pop\n      pop\n      dup2\n      mstore\n      0x20\n      add\n      0x04\n      dup3\n      add\n      sload\n      dup2\n      mstore\n      pop\n      pop\n      dup2\n      mstore\n      0x20\n      add\n      swap1\n      0x01\n      add\n      swap1\n      jump(tag_107)\n    tag_108:\n      pop\n      pop\n      pop\n      pop\n      dup2\n      mstore\n      0x20\n      add\n      0x02\n      dup3\n      add\n      sload\n      dup2\n      mstore\n      0x20\n      add\n      0x03\n      dup3\n      add\n      sload\n      dup2\n      mstore\n      pop\n      pop\n        /* \"contracts/Lock.sol\":5920:5927  details */\n      dup3\n        /* \"contracts/Lock.sol\":5928:5929  i */\n      dup3\n        /* \"contracts/Lock.sol\":5920:5930  details[i] */\n      dup2\n      mload\n      dup2\n      lt\n      tag_130\n      jumpi\n      tag_131\n      tag_88\n      jump\t// in\n    tag_131:\n    tag_130:\n      0x20\n      mul\n      0x20\n      add\n      add\n        /* \"contracts/Lock.sol\":5920:5960  details[i] = elections[electionNames[i]] */\n      dup2\n      swap1\n      mstore\n      pop\n        /* \"contracts/Lock.sol\":5860:5863  i++ */\n      dup1\n      dup1\n      0x01\n      add\n      swap2\n      pop\n      pop\n        /* \"contracts/Lock.sol\":5829:5971  for (uint256 i = 0; i < count; i++) {... */\n      jump(tag_83)\n    tag_84:\n      pop\n        /* \"contracts/Lock.sol\":5989:5994  names */\n      dup2\n        /* \"contracts/Lock.sol\":5996:6003  details */\n      dup2\n        /* \"contracts/Lock.sol\":5981:6004  return (names, details) */\n      swap5\n      pop\n      swap5\n      pop\n      pop\n      pop\n      pop\n        /* \"contracts/Lock.sol\":5527:6011  function getAllElections()... */\n      swap1\n      swap2\n      jump\t// out\n        /* \"contracts/Lock.sol\":4976:5239  function getElectionResult(... */\n    tag_30:\n        /* \"contracts/Lock.sol\":5067:5080  string memory */\n      0x60\n        /* \"contracts/Lock.sol\":5082:5100  Candidate[] memory */\n      dup1\n        /* \"contracts/Lock.sol\":5112:5144  ElectionDetails storage election */\n      0x00\n        /* \"contracts/Lock.sol\":5147:5156  elections */\n      dup1\n        /* \"contracts/Lock.sol\":5157:5170  _electionName */\n      dup5\n        /* \"contracts/Lock.sol\":5147:5171  elections[_electionName] */\n      mload(0x40)\n      tag_133\n      swap2\n      swap1\n      tag_60\n      jump\t// in\n    tag_133:\n      swap1\n      dup2\n      mstore\n      0x20\n      add\n      mload(0x40)\n      dup1\n      swap2\n      sub\n      swap1\n      keccak256\n        /* \"contracts/Lock.sol\":5112:5171  ElectionDetails storage election = elections[_electionName] */\n      swap1\n      pop\n        /* \"contracts/Lock.sol\":5189:5197  election */\n      dup1\n        /* \"contracts/Lock.sol\":5189:5210  election.electionName */\n      0x00\n      add\n        /* \"contracts/Lock.sol\":5212:5220  election */\n      dup2\n        /* \"contracts/Lock.sol\":5212:5231  election.candidates */\n      0x01\n      add\n        /* \"contracts/Lock.sol\":5181:5232  return (election.electionName, election.candidates) */\n      dup2\n      dup1\n      sload\n      tag_134\n      swap1\n      tag_91\n      jump\t// in\n    tag_134:\n      dup1\n      0x1f\n      add\n      0x20\n      dup1\n      swap2\n      div\n      mul\n      0x20\n      add\n      mload(0x40)\n      swap1\n      dup2\n      add\n      0x40\n      mstore\n      dup1\n      swap3\n      swap2\n      swap1\n      dup2\n      dup2\n      mstore\n      0x20\n      add\n      dup3\n      dup1\n      sload\n      tag_135\n      swap1\n      tag_91\n      jump\t// in\n    tag_135:\n      dup1\n      iszero\n      tag_136\n      jumpi\n      dup1\n      0x1f\n      lt\n      tag_137\n      jumpi\n      0x0100\n      dup1\n      dup4\n      sload\n      div\n      mul\n      dup4\n      mstore\n      swap2\n      0x20\n      add\n      swap2\n      jump(tag_136)\n    tag_137:\n      dup3\n      add\n      swap2\n      swap1\n      0x00\n      mstore\n      keccak256(0x00, 0x20)\n      swap1\n    tag_138:\n      dup2\n      sload\n      dup2\n      mstore\n      swap1\n      0x01\n      add\n      swap1\n      0x20\n      add\n      dup1\n      dup4\n      gt\n      tag_138\n      jumpi\n      dup3\n      swap1\n      sub\n      0x1f\n      and\n      dup3\n      add\n      swap2\n    tag_136:\n      pop\n      pop\n      pop\n      pop\n      pop\n      swap2\n      pop\n      dup1\n      dup1\n      sload\n      dup1\n      0x20\n      mul\n      0x20\n      add\n      mload(0x40)\n      swap1\n      dup2\n      add\n      0x40\n      mstore\n      dup1\n      swap3\n      swap2\n      swap1\n      dup2\n      dup2\n      mstore\n      0x20\n      add\n      0x00\n      swap1\n    tag_139:\n      dup3\n      dup3\n      lt\n      iszero\n      tag_140\n      jumpi\n      dup4\n      dup3\n      swap1\n      0x00\n      mstore\n      keccak256(0x00, 0x20)\n      swap1\n      0x05\n      mul\n      add\n      mload(0x40)\n      dup1\n      0xa0\n      add\n      0x40\n      mstore\n      swap1\n      dup2\n      0x00\n      dup3\n      add\n      dup1\n      sload\n      tag_142\n      swap1\n      tag_91\n      jump\t// in\n    tag_142:\n      dup1\n      0x1f\n      add\n      0x20\n      dup1\n      swap2\n      div\n      mul\n      0x20\n      add\n      mload(0x40)\n      swap1\n      dup2\n      add\n      0x40\n      mstore\n      dup1\n      swap3\n      swap2\n      swap1\n      dup2\n      dup2\n      mstore\n      0x20\n      add\n      dup3\n      dup1\n      sload\n      tag_143\n      swap1\n      tag_91\n      jump\t// in\n    tag_143:\n      dup1\n      iszero\n      tag_144\n      jumpi\n      dup1\n      0x1f\n      lt\n      tag_145\n      jumpi\n      0x0100\n      dup1\n      dup4\n      sload\n      div\n      mul\n      dup4\n      mstore\n      swap2\n      0x20\n      add\n      swap2\n      jump(tag_144)\n    tag_145:\n      dup3\n      add\n      swap2\n      swap1\n      0x00\n      mstore\n      keccak256(0x00, 0x20)\n      swap1\n    tag_146:\n      dup2\n      sload\n      dup2\n      mstore\n      swap1\n      0x01\n      add\n      swap1\n      0x20\n      add\n      dup1\n      dup4\n      gt\n      tag_146\n      jumpi\n      dup3\n      swap1\n      sub\n      0x1f\n      and\n      dup3\n      add\n      swap2\n    tag_144:\n      pop\n      pop\n      pop\n      pop\n      pop\n      dup2\n      mstore\n      0x20\n      add\n      0x01\n      dup3\n      add\n      dup1\n      sload\n      tag_147\n      swap1\n      tag_91\n      jump\t// in\n    tag_147:\n      dup1\n      0x1f\n      add\n      0x20\n      dup1\n      swap2\n      div\n      mul\n      0x20\n      add\n      mload(0x40)\n      swap1\n      dup2\n      add\n      0x40\n      mstore\n      dup1\n      swap3\n      swap2\n      swap1\n      dup2\n      dup2\n      mstore\n      0x20\n      add\n      dup3\n      dup1\n      sload\n      tag_148\n      swap1\n      tag_91\n      jump\t// in\n    tag_148:\n      dup1\n      iszero\n      tag_149\n      jumpi\n      dup1\n      0x1f\n      lt\n      tag_150\n      jumpi\n      0x0100\n      dup1\n      dup4\n      sload\n      div\n      mul\n      dup4\n      mstore\n      swap2\n      0x20\n      add\n      swap2\n      jump(tag_149)\n    tag_150:\n      dup3\n      add\n      swap2\n      swap1\n      0x00\n      mstore\n      keccak256(0x00, 0x20)\n      swap1\n    tag_151:\n      dup2\n      sload\n      dup2\n      mstore\n      swap1\n      0x01\n      add\n      swap1\n      0x20\n      add\n      dup1\n      dup4\n      gt\n      tag_151\n      jumpi\n      dup3\n      swap1\n      sub\n      0x1f\n      and\n      dup3\n      add\n      swap2\n    tag_149:\n      pop\n      pop\n      pop\n      pop\n      pop\n      dup2\n      mstore\n      0x20\n      add\n      0x02\n      dup3\n      add\n      dup1\n      sload\n      tag_152\n      swap1\n      tag_91\n      jump\t// in\n    tag_152:\n      dup1\n      0x1f\n      add\n      0x20\n      dup1\n      swap2\n      div\n      mul\n      0x20\n      add\n      mload(0x40)\n      swap1\n      dup2\n      add\n      0x40\n      mstore\n      dup1\n      swap3\n      swap2\n      swap1\n      dup2\n      dup2\n      mstore\n      0x20\n      add\n      dup3\n      dup1\n      sload\n      tag_153\n      swap1\n      tag_91\n      jump\t// in\n    tag_153:\n      dup1\n      iszero\n      tag_154\n      jumpi\n      dup1\n      0x1f\n      lt\n      tag_155\n      jumpi\n      0x0100\n      dup1\n      dup4\n      sload\n      div\n      mul\n      dup4\n      mstore\n      swap2\n      0x20\n      add\n      swap2\n      jump(tag_154)\n    tag_155:\n      dup3\n      add\n      swap2\n      swap1\n      0x00\n      mstore\n      keccak256(0x00, 0x20)\n      swap1\n    tag_156:\n      dup2\n      sload\n      dup2\n      mstore\n      swap1\n      0x01\n      add\n      swap1\n      0x20\n      add\n      dup1\n      dup4\n      gt\n      tag_156\n      jumpi\n      dup3\n      swap1\n      sub\n      0x1f\n      and\n      dup3\n      add\n      swap2\n    tag_154:\n      pop\n      pop\n      pop\n      pop\n      pop\n      dup2\n      mstore\n      0x20\n      add\n      0x03\n      dup3\n      add\n      dup1\n      sload\n      tag_157\n      swap1\n      tag_91\n      jump\t// in\n    tag_157:\n      dup1\n      0x1f\n      add\n      0x20\n      dup1\n      swap2\n      div\n      mul\n      0x20\n      add\n      mload(0x40)\n      swap1\n      dup2\n      add\n      0x40\n      mstore\n      dup1\n      swap3\n      swap2\n      swap1\n      dup2\n      dup2\n      mstore\n      0x20\n      add\n      dup3\n      dup1\n      sload\n      tag_158\n      swap1\n      tag_91\n      jump\t// in\n    tag_158:\n      dup1\n      iszero\n      tag_159\n      jumpi\n      dup1\n      0x1f\n      lt\n      tag_160\n      jumpi\n      0x0100\n      dup1\n      dup4\n      sload\n      div\n      mul\n      dup4\n      mstore\n      swap2\n      0x20\n      add\n      swap2\n      jump(tag_159)\n    tag_160:\n      dup3\n      add\n      swap2\n      swap1\n      0x00\n      mstore\n      keccak256(0x00, 0x20)\n      swap1\n    tag_161:\n      dup2\n      sload\n      dup2\n      mstore\n      swap1\n      0x01\n      add\n      swap1\n      0x20\n      add\n      dup1\n      dup4\n      gt\n      tag_161\n      jumpi\n      dup3\n      swap1\n      sub\n      0x1f\n      and\n      dup3\n      add\n      swap2\n    tag_159:\n      pop\n      pop\n      pop\n      pop\n      pop\n      dup2\n      mstore\n      0x20\n      add\n      0x04\n      dup3\n      add\n      sload\n      dup2\n      mstore\n      pop\n      pop\n      dup2\n      mstore\n      0x20\n      add\n      swap1\n      0x01\n      add\n      swap1\n      jump(tag_139)\n    tag_140:\n      pop\n      pop\n      pop\n      pop\n      swap1\n      pop\n      swap3\n      pop\n      swap3\n      pop\n      pop\n        /* \"contracts/Lock.sol\":4976:5239  function getElectionResult(... */\n      swap2\n      pop\n      swap2\n      jump\t// out\n        /* \"contracts/Lock.sol\":5357:5521  function getElectionDetails(... */\n    tag_35:\n        /* \"contracts/Lock.sol\":5449:5471  ElectionDetails memory */\n      tag_162\n      tag_82\n      jump\t// in\n    tag_162:\n        /* \"contracts/Lock.sol\":5490:5499  elections */\n      0x00\n        /* \"contracts/Lock.sol\":5500:5513  _electionName */\n      dup3\n        /* \"contracts/Lock.sol\":5490:5514  elections[_electionName] */\n      mload(0x40)\n      tag_164\n      swap2\n      swap1\n      tag_60\n      jump\t// in\n    tag_164:\n      swap1\n      dup2\n      mstore\n      0x20\n      add\n      mload(0x40)\n      dup1\n      swap2\n      sub\n      swap1\n      keccak256\n        /* \"contracts/Lock.sol\":5483:5514  return elections[_electionName] */\n      mload(0x40)\n      dup1\n      0x80\n      add\n      0x40\n      mstore\n      swap1\n      dup2\n      0x00\n      dup3\n      add\n      dup1\n      sload\n      tag_165\n      swap1\n      tag_91\n      jump\t// in\n    tag_165:\n      dup1\n      0x1f\n      add\n      0x20\n      dup1\n      swap2\n      div\n      mul\n      0x20\n      add\n      mload(0x40)\n      swap1\n      dup2\n      add\n      0x40\n      mstore\n      dup1\n      swap3\n      swap2\n      swap1\n      dup2\n      dup2\n      mstore\n      0x20\n      add\n      dup3\n      dup1\n      sload\n      tag_166\n      swap1\n      tag_91\n      jump\t// in\n    tag_166:\n      dup1\n      iszero\n      tag_167\n      jumpi\n      dup1\n      0x1f\n      lt\n      tag_168\n      jumpi\n      0x0100\n      dup1\n      dup4\n      sload\n      div\n      mul\n      dup4\n      mstore\n      swap2\n      0x20\n      add\n      swap2\n      jump(tag_167)\n    tag_168:\n      dup3\n      add\n      swap2\n      swap1\n      0x00\n      mstore\n      keccak256(0x00, 0x20)\n      swap1\n    tag_169:\n      dup2\n      sload\n      dup2\n      mstore\n      swap1\n      0x01\n      add\n      swap1\n      0x20\n      add\n      dup1\n      dup4\n      gt\n      tag_169\n      jumpi\n      dup3\n      swap1\n      sub\n      0x1f\n      and\n      dup3\n      add\n      swap2\n    tag_167:\n      pop\n      pop\n      pop\n      pop\n      pop\n      dup2\n      mstore\n      0x20\n      add\n      0x01\n      dup3\n      add\n      dup1\n      sload\n      dup1\n      0x20\n      mul\n      0x20\n      add\n      mload(0x40)\n      swap1\n      dup2\n      add\n      0x40\n      mstore\n      dup1\n      swap3\n      swap2\n      swap1\n      dup2\n      dup2\n      mstore\n      0x20\n      add\n      0x00\n      swap1\n    tag_170:\n      dup3\n      dup3\n      lt\n      iszero\n      tag_171\n      jumpi\n      dup4\n      dup3\n      swap1\n      0x00\n      mstore\n      keccak256(0x00, 0x20)\n      swap1\n      0x05\n      mul\n      add\n      mload(0x40)\n      dup1\n      0xa0\n      add\n      0x40\n      mstore\n      swap1\n      dup2\n      0x00\n      dup3\n      add\n      dup1\n      sload\n      tag_173\n      swap1\n      tag_91\n      jump\t// in\n    tag_173:\n      dup1\n      0x1f\n      add\n      0x20\n      dup1\n      swap2\n      div\n      mul\n      0x20\n      add\n      mload(0x40)\n      swap1\n      dup2\n      add\n      0x40\n      mstore\n      dup1\n      swap3\n      swap2\n      swap1\n      dup2\n      dup2\n      mstore\n      0x20\n      add\n      dup3\n      dup1\n      sload\n      tag_174\n      swap1\n      tag_91\n      jump\t// in\n    tag_174:\n      dup1\n      iszero\n      tag_175\n      jumpi\n      dup1\n      0x1f\n      lt\n      tag_176\n      jumpi\n      0x0100\n      dup1\n      dup4\n      sload\n      div\n      mul\n      dup4\n      mstore\n      swap2\n      0x20\n      add\n      swap2\n      jump(tag_175)\n    tag_176:\n      dup3\n      add\n      swap2\n      swap1\n      0x00\n      mstore\n      keccak256(0x00, 0x20)\n      swap1\n    tag_177:\n      dup2\n      sload\n      dup2\n      mstore\n      swap1\n      0x01\n      add\n      swap1\n      0x20\n      add\n      dup1\n      dup4\n      gt\n      tag_177\n      jumpi\n      dup3\n      swap1\n      sub\n      0x1f\n      and\n      dup3\n      add\n      swap2\n    tag_175:\n      pop\n      pop\n      pop\n      pop\n      pop\n      dup2\n      mstore\n      0x20\n      add\n      0x01\n      dup3\n      add\n      dup1\n      sload\n      tag_178\n      swap1\n      tag_91\n      jump\t// in\n    tag_178:\n      dup1\n      0x1f\n      add\n      0x20\n      dup1\n      swap2\n      div\n      mul\n      0x20\n      add\n      mload(0x40)\n      swap1\n      dup2\n      add\n      0x40\n      mstore\n      dup1\n      swap3\n      swap2\n      swap1\n      dup2\n      dup2\n      mstore\n      0x20\n      add\n      dup3\n      dup1\n      sload\n      tag_179\n      swap1\n      tag_91\n      jump\t// in\n    tag_179:\n      dup1\n      iszero\n      tag_180\n      jumpi\n      dup1\n      0x1f\n      lt\n      tag_181\n      jumpi\n      0x0100\n      dup1\n      dup4\n      sload\n      div\n      mul\n      dup4\n      mstore\n      swap2\n      0x20\n      add\n      swap2\n      jump(tag_180)\n    tag_181:\n      dup3\n      add\n      swap2\n      swap1\n      0x00\n      mstore\n      keccak256(0x00, 0x20)\n      swap1\n    tag_182:\n      dup2\n      sload\n      dup2\n      mstore\n      swap1\n      0x01\n      add\n      swap1\n      0x20\n      add\n      dup1\n      dup4\n      gt\n      tag_182\n      jumpi\n      dup3\n      swap1\n      sub\n      0x1f\n      and\n      dup3\n      add\n      swap2\n    tag_180:\n      pop\n      pop\n      pop\n      pop\n      pop\n      dup2\n      mstore\n      0x20\n      add\n      0x02\n      dup3\n      add\n      dup1\n      sload\n      tag_183\n      swap1\n      tag_91\n      jump\t// in\n    tag_183:\n      dup1\n      0x1f\n      add\n      0x20\n      dup1\n      swap2\n      div\n      mul\n      0x20\n      add\n      mload(0x40)\n      swap1\n      dup2\n      add\n      0x40\n      mstore\n      dup1\n      swap3\n      swap2\n      swap1\n      dup2\n      dup2\n      mstore\n      0x20\n      add\n      dup3\n      dup1\n      sload\n      tag_184\n      swap1\n      tag_91\n      jump\t// in\n    tag_184:\n      dup1\n      iszero\n      tag_185\n      jumpi\n      dup1\n      0x1f\n      lt\n      tag_186\n      jumpi\n      0x0100\n      dup1\n      dup4\n      sload\n      div\n      mul\n      dup4\n      mstore\n      swap2\n      0x20\n      add\n      swap2\n      jump(tag_185)\n    tag_186:\n      dup3\n      add\n      swap2\n      swap1\n      0x00\n      mstore\n      keccak256(0x00, 0x20)\n      swap1\n    tag_187:\n      dup2\n      sload\n      dup2\n      mstore\n      swap1\n      0x01\n      add\n      swap1\n      0x20\n      add\n      dup1\n      dup4\n      gt\n      tag_187\n      jumpi\n      dup3\n      swap1\n      sub\n      0x1f\n      and\n      dup3\n      add\n      swap2\n    tag_185:\n      pop\n      pop\n      pop\n      pop\n      pop\n      dup2\n      mstore\n      0x20\n      add\n      0x03\n      dup3\n      add\n      dup1\n      sload\n      tag_188\n      swap1\n      tag_91\n      jump\t// in\n    tag_188:\n      dup1\n      0x1f\n      add\n      0x20\n      dup1\n      swap2\n      div\n      mul\n      0x20\n      add\n      mload(0x40)\n      swap1\n      dup2\n      add\n      0x40\n      mstore\n      dup1\n      swap3\n      swap2\n      swap1\n      dup2\n      dup2\n      mstore\n      0x20\n      add\n      dup3\n      dup1\n      sload\n      tag_189\n      swap1\n      tag_91\n      jump\t// in\n    tag_189:\n      dup1\n      iszero\n      tag_190\n      jumpi\n      dup1\n      0x1f\n      lt\n      tag_191\n      jumpi\n      0x0100\n      dup1\n      dup4\n      sload\n      div\n      mul\n      dup4\n      mstore\n      swap2\n      0x20\n      add\n      swap2\n      jump(tag_190)\n    tag_191:\n      dup3\n      add\n      swap2\n      swap1\n      0x00\n      mstore\n      keccak256(0x00, 0x20)\n      swap1\n    tag_192:\n      dup2\n      sload\n      dup2\n      mstore\n      swap1\n      0x01\n      add\n      swap1\n      0x20\n      add\n      dup1\n      dup4\n      gt\n      tag_192\n      jumpi\n      dup3\n      swap1\n      sub\n      0x1f\n      and\n      dup3\n      add\n      swap2\n    tag_190:\n      pop\n      pop\n      pop\n      pop\n      pop\n      dup2\n      mstore\n      0x20\n      add\n      0x04\n      dup3\n      add\n      sload\n      dup2\n      mstore\n      pop\n      pop\n      dup2\n      mstore\n      0x20\n      add\n      swap1\n      0x01\n      add\n      swap1\n      jump(tag_170)\n    tag_171:\n      pop\n      pop\n      pop\n      pop\n      dup2\n      mstore\n      0x20\n      add\n      0x02\n      dup3\n      add\n      sload\n      dup2\n      mstore\n      0x20\n      add\n      0x03\n      dup3\n      add\n      sload\n      dup2\n      mstore\n      pop\n      pop\n      swap1\n      pop\n        /* \"contracts/Lock.sol\":5357:5521  function getElectionDetails(... */\n      swap2\n      swap1\n      pop\n      jump\t// out\n        /* \"contracts/Lock.sol\":4255:4970  function getCandidateNames(... */\n    tag_40:\n        /* \"contracts/Lock.sol\":4346:4361  string[] memory */\n      0x60\n        /* \"contracts/Lock.sol\":4373:4405  ElectionDetails storage election */\n      0x00\n        /* \"contracts/Lock.sol\":4408:4417  elections */\n      dup1\n        /* \"contracts/Lock.sol\":4418:4431  _electionName */\n      dup4\n        /* \"contracts/Lock.sol\":4408:4432  elections[_electionName] */\n      mload(0x40)\n      tag_194\n      swap2\n      swap1\n      tag_60\n      jump\t// in\n    tag_194:\n      swap1\n      dup2\n      mstore\n      0x20\n      add\n      mload(0x40)\n      dup1\n      swap2\n      sub\n      swap1\n      keccak256\n        /* \"contracts/Lock.sol\":4373:4432  ElectionDetails storage election = elections[_electionName] */\n      swap1\n      pop\n        /* \"contracts/Lock.sol\":4442:4472  string[] memory candidateNames */\n      0x00\n        /* \"contracts/Lock.sol\":4501:4509  election */\n      dup2\n        /* \"contracts/Lock.sol\":4501:4520  election.candidates */\n      0x01\n      add\n        /* \"contracts/Lock.sol\":4501:4527  election.candidates.length */\n      dup1\n      sload\n      swap1\n      pop\n        /* \"contracts/Lock.sol\":4475:4537  new string[](... */\n      0xffffffffffffffff\n      dup2\n      gt\n      iszero\n      tag_195\n      jumpi\n      tag_196\n      tag_74\n      jump\t// in\n    tag_196:\n    tag_195:\n      mload(0x40)\n      swap1\n      dup1\n      dup3\n      mstore\n      dup1\n      0x20\n      mul\n      0x20\n      add\n      dup3\n      add\n      0x40\n      mstore\n      dup1\n      iszero\n      tag_197\n      jumpi\n      dup2\n      0x20\n      add\n    tag_198:\n      0x60\n      dup2\n      mstore\n      0x20\n      add\n      swap1\n      0x01\n      swap1\n      sub\n      swap1\n      dup2\n      tag_198\n      jumpi\n      swap1\n      pop\n    tag_197:\n      pop\n        /* \"contracts/Lock.sol\":4442:4537  string[] memory candidateNames = new string[](... */\n      swap1\n      pop\n        /* \"contracts/Lock.sol\":4552:4561  uint256 i */\n      0x00\n        /* \"contracts/Lock.sol\":4547:4933  for (uint256 i = 0; i < election.candidates.length; i++) {... */\n    tag_199:\n        /* \"contracts/Lock.sol\":4571:4579  election */\n      dup3\n        /* \"contracts/Lock.sol\":4571:4590  election.candidates */\n      0x01\n      add\n        /* \"contracts/Lock.sol\":4571:4597  election.candidates.length */\n      dup1\n      sload\n      swap1\n      pop\n        /* \"contracts/Lock.sol\":4567:4568  i */\n      dup2\n        /* \"contracts/Lock.sol\":4567:4597  i < election.candidates.length */\n      lt\n        /* \"contracts/Lock.sol\":4547:4933  for (uint256 i = 0; i < election.candidates.length; i++) {... */\n      iszero\n      tag_200\n      jumpi\n        /* \"contracts/Lock.sol\":4700:4708  election */\n      dup3\n        /* \"contracts/Lock.sol\":4700:4719  election.candidates */\n      0x01\n      add\n        /* \"contracts/Lock.sol\":4720:4721  i */\n      dup2\n        /* \"contracts/Lock.sol\":4700:4722  election.candidates[i] */\n      dup2\n      sload\n      dup2\n      lt\n      tag_202\n      jumpi\n      tag_203\n      tag_88\n      jump\t// in\n    tag_203:\n    tag_202:\n      swap1\n      0x00\n      mstore\n      keccak256(0x00, 0x20)\n      swap1\n      0x05\n      mul\n      add\n        /* \"contracts/Lock.sol\":4700:4732  election.candidates[i].firstName */\n      0x00\n      add\n        /* \"contracts/Lock.sol\":4779:4787  election */\n      dup4\n        /* \"contracts/Lock.sol\":4779:4798  election.candidates */\n      0x01\n      add\n        /* \"contracts/Lock.sol\":4799:4800  i */\n      dup3\n        /* \"contracts/Lock.sol\":4779:4801  election.candidates[i] */\n      dup2\n      sload\n      dup2\n      lt\n      tag_205\n      jumpi\n      tag_206\n      tag_88\n      jump\t// in\n    tag_206:\n    tag_205:\n      swap1\n      0x00\n      mstore\n      keccak256(0x00, 0x20)\n      swap1\n      0x05\n      mul\n      add\n        /* \"contracts/Lock.sol\":4779:4812  election.candidates[i].middleName */\n      0x01\n      add\n        /* \"contracts/Lock.sol\":4859:4867  election */\n      dup5\n        /* \"contracts/Lock.sol\":4859:4878  election.candidates */\n      0x01\n      add\n        /* \"contracts/Lock.sol\":4879:4880  i */\n      dup4\n        /* \"contracts/Lock.sol\":4859:4881  election.candidates[i] */\n      dup2\n      sload\n      dup2\n      lt\n      tag_208\n      jumpi\n      tag_209\n      tag_88\n      jump\t// in\n    tag_209:\n    tag_208:\n      swap1\n      0x00\n      mstore\n      keccak256(0x00, 0x20)\n      swap1\n      0x05\n      mul\n      add\n        /* \"contracts/Lock.sol\":4859:4890  election.candidates[i].lastName */\n      0x02\n      add\n        /* \"contracts/Lock.sol\":4662:4908  abi.encodePacked(... */\n      add(0x20, mload(0x40))\n      tag_211\n      swap4\n      swap3\n      swap2\n      swap1\n      tag_212\n      jump\t// in\n    tag_211:\n      mload(0x40)\n      0x20\n      dup2\n      dup4\n      sub\n      sub\n      dup2\n      mstore\n      swap1\n      0x40\n      mstore\n        /* \"contracts/Lock.sol\":4618:4632  candidateNames */\n      dup3\n        /* \"contracts/Lock.sol\":4633:4634  i */\n      dup3\n        /* \"contracts/Lock.sol\":4618:4635  candidateNames[i] */\n      dup2\n      mload\n      dup2\n      lt\n      tag_213\n      jumpi\n      tag_214\n      tag_88\n      jump\t// in\n    tag_214:\n    tag_213:\n      0x20\n      mul\n      0x20\n      add\n      add\n        /* \"contracts/Lock.sol\":4618:4922  candidateNames[i] = string(... */\n      dup2\n      swap1\n      mstore\n      pop\n        /* \"contracts/Lock.sol\":4599:4602  i++ */\n      dup1\n      dup1\n      0x01\n      add\n      swap2\n      pop\n      pop\n        /* \"contracts/Lock.sol\":4547:4933  for (uint256 i = 0; i < election.candidates.length; i++) {... */\n      jump(tag_199)\n    tag_200:\n      pop\n        /* \"contracts/Lock.sol\":4949:4963  candidateNames */\n      dup1\n        /* \"contracts/Lock.sol\":4942:4963  return candidateNames */\n      swap3\n      pop\n      pop\n      pop\n        /* \"contracts/Lock.sol\":4255:4970  function getCandidateNames(... */\n      swap2\n      swap1\n      pop\n      jump\t// out\n        /* \"contracts/Lock.sol\":3378:4249  function getCandidateVotes(... */\n    tag_45:\n        /* \"contracts/Lock.sol\":3511:3518  uint256 */\n      0x00\n        /* \"contracts/Lock.sol\":3530:3562  ElectionDetails storage election */\n      dup1\n        /* \"contracts/Lock.sol\":3565:3574  elections */\n      0x00\n        /* \"contracts/Lock.sol\":3575:3588  _electionName */\n      dup5\n        /* \"contracts/Lock.sol\":3565:3589  elections[_electionName] */\n      mload(0x40)\n      tag_216\n      swap2\n      swap1\n      tag_60\n      jump\t// in\n    tag_216:\n      swap1\n      dup2\n      mstore\n      0x20\n      add\n      mload(0x40)\n      dup1\n      swap2\n      sub\n      swap1\n      keccak256\n        /* \"contracts/Lock.sol\":3530:3589  ElectionDetails storage election = elections[_electionName] */\n      swap1\n      pop\n        /* \"contracts/Lock.sol\":3604:3613  uint256 i */\n      0x00\n        /* \"contracts/Lock.sol\":3599:4225  for (uint256 i = 0; i < election.candidates.length; i++) {... */\n    tag_217:\n        /* \"contracts/Lock.sol\":3623:3631  election */\n      dup2\n        /* \"contracts/Lock.sol\":3623:3642  election.candidates */\n      0x01\n      add\n        /* \"contracts/Lock.sol\":3623:3649  election.candidates.length */\n      dup1\n      sload\n      swap1\n      pop\n        /* \"contracts/Lock.sol\":3619:3620  i */\n      dup2\n        /* \"contracts/Lock.sol\":3619:3649  i < election.candidates.length */\n      lt\n        /* \"contracts/Lock.sol\":3599:4225  for (uint256 i = 0; i < election.candidates.length; i++) {... */\n      iszero\n      tag_218\n      jumpi\n        /* \"contracts/Lock.sol\":3670:3697  Candidate storage candidate */\n      0x00\n        /* \"contracts/Lock.sol\":3700:3708  election */\n      dup3\n        /* \"contracts/Lock.sol\":3700:3719  election.candidates */\n      0x01\n      add\n        /* \"contracts/Lock.sol\":3720:3721  i */\n      dup3\n        /* \"contracts/Lock.sol\":3700:3722  election.candidates[i] */\n      dup2\n      sload\n      dup2\n      lt\n      tag_220\n      jumpi\n      tag_221\n      tag_88\n      jump\t// in\n    tag_221:\n    tag_220:\n      swap1\n      0x00\n      mstore\n      keccak256(0x00, 0x20)\n      swap1\n      0x05\n      mul\n      add\n        /* \"contracts/Lock.sol\":3670:3722  Candidate storage candidate = election.candidates[i] */\n      swap1\n      pop\n        /* \"contracts/Lock.sol\":3736:3758  string memory fullName */\n      0x00\n        /* \"contracts/Lock.sol\":3823:3832  candidate */\n      dup2\n        /* \"contracts/Lock.sol\":3823:3842  candidate.firstName */\n      0x00\n      add\n        /* \"contracts/Lock.sol\":3889:3898  candidate */\n      dup3\n        /* \"contracts/Lock.sol\":3889:3909  candidate.middleName */\n      0x01\n      add\n        /* \"contracts/Lock.sol\":3956:3965  candidate */\n      dup4\n        /* \"contracts/Lock.sol\":3956:3974  candidate.lastName */\n      0x02\n      add\n        /* \"contracts/Lock.sol\":3785:3992  abi.encodePacked(... */\n      add(0x20, mload(0x40))\n      tag_223\n      swap4\n      swap3\n      swap2\n      swap1\n      tag_212\n      jump\t// in\n    tag_223:\n      mload(0x40)\n      0x20\n      dup2\n      dup4\n      sub\n      sub\n      dup2\n      mstore\n      swap1\n      0x40\n      mstore\n        /* \"contracts/Lock.sol\":3736:4006  string memory fullName = string(... */\n      swap1\n      pop\n        /* \"contracts/Lock.sol\":4125:4143  _candidateFullName */\n      dup6\n        /* \"contracts/Lock.sol\":4108:4144  abi.encodePacked(_candidateFullName) */\n      add(0x20, mload(0x40))\n      tag_224\n      swap2\n      swap1\n      tag_60\n      jump\t// in\n    tag_224:\n      mload(0x40)\n      0x20\n      dup2\n      dup4\n      sub\n      sub\n      dup2\n      mstore\n      swap1\n      0x40\n      mstore\n        /* \"contracts/Lock.sol\":4098:4145  keccak256(abi.encodePacked(_candidateFullName)) */\n      dup1\n      mload\n      swap1\n      0x20\n      add\n      keccak256\n        /* \"contracts/Lock.sol\":4068:4076  fullName */\n      dup2\n        /* \"contracts/Lock.sol\":4051:4077  abi.encodePacked(fullName) */\n      add(0x20, mload(0x40))\n      tag_225\n      swap2\n      swap1\n      tag_60\n      jump\t// in\n    tag_225:\n      mload(0x40)\n      0x20\n      dup2\n      dup4\n      sub\n      sub\n      dup2\n      mstore\n      swap1\n      0x40\n      mstore\n        /* \"contracts/Lock.sol\":4041:4078  keccak256(abi.encodePacked(fullName)) */\n      dup1\n      mload\n      swap1\n      0x20\n      add\n      keccak256\n        /* \"contracts/Lock.sol\":4041:4145  keccak256(abi.encodePacked(fullName)) ==... */\n      sub\n        /* \"contracts/Lock.sol\":4020:4215  if (... */\n      tag_226\n      jumpi\n        /* \"contracts/Lock.sol\":4185:4194  candidate */\n      dup2\n        /* \"contracts/Lock.sol\":4185:4200  candidate.votes */\n      0x04\n      add\n      sload\n        /* \"contracts/Lock.sol\":4178:4200  return candidate.votes */\n      swap5\n      pop\n      pop\n      pop\n      pop\n      pop\n      jump(tag_215)\n        /* \"contracts/Lock.sol\":4020:4215  if (... */\n    tag_226:\n        /* \"contracts/Lock.sol\":3656:4225  {... */\n      pop\n      pop\n        /* \"contracts/Lock.sol\":3651:3654  i++ */\n      dup1\n      dup1\n      0x01\n      add\n      swap2\n      pop\n      pop\n        /* \"contracts/Lock.sol\":3599:4225  for (uint256 i = 0; i < election.candidates.length; i++) {... */\n      jump(tag_217)\n    tag_218:\n      pop\n        /* \"contracts/Lock.sol\":4241:4242  0 */\n      0x00\n        /* \"contracts/Lock.sol\":4234:4242  return 0 */\n      swap2\n      pop\n      pop\n        /* \"contracts/Lock.sol\":3378:4249  function getCandidateVotes(... */\n    tag_215:\n      swap3\n      swap2\n      pop\n      pop\n      jump\t// out\n        /* \"contracts/Lock.sol\":1269:2475  function addElectionWithDetails(... */\n    tag_51:\n        /* \"contracts/Lock.sol\":1525:1533  _adminId */\n      dup2\n        /* \"contracts/Lock.sol\":1535:1549  _adminPassword */\n      dup2\n        /* \"contracts/Lock.sol\":851:860  _password */\n      dup1\n        /* \"contracts/Lock.sol\":834:861  abi.encodePacked(_password) */\n      add(0x20, mload(0x40))\n      tag_228\n      swap2\n      swap1\n      tag_60\n      jump\t// in\n    tag_228:\n      mload(0x40)\n      0x20\n      dup2\n      dup4\n      sub\n      sub\n      dup2\n      mstore\n      swap1\n      0x40\n      mstore\n        /* \"contracts/Lock.sol\":824:862  keccak256(abi.encodePacked(_password)) */\n      dup1\n      mload\n      swap1\n      0x20\n      add\n      keccak256\n        /* \"contracts/Lock.sol\":782:788  admins */\n      0x01\n        /* \"contracts/Lock.sol\":789:792  _id */\n      dup4\n        /* \"contracts/Lock.sol\":782:793  admins[_id] */\n      mload(0x40)\n      tag_229\n      swap2\n      swap1\n      tag_60\n      jump\t// in\n    tag_229:\n      swap1\n      dup2\n      mstore\n      0x20\n      add\n      mload(0x40)\n      dup1\n      swap2\n      sub\n      swap1\n      keccak256\n        /* \"contracts/Lock.sol\":782:802  admins[_id].password */\n      0x01\n      add\n        /* \"contracts/Lock.sol\":765:803  abi.encodePacked(admins[_id].password) */\n      add(0x20, mload(0x40))\n      tag_230\n      swap2\n      swap1\n      tag_68\n      jump\t// in\n    tag_230:\n      mload(0x40)\n      0x20\n      dup2\n      dup4\n      sub\n      sub\n      dup2\n      mstore\n      swap1\n      0x40\n      mstore\n        /* \"contracts/Lock.sol\":755:804  keccak256(abi.encodePacked(admins[_id].password)) */\n      dup1\n      mload\n      swap1\n      0x20\n      add\n      keccak256\n        /* \"contracts/Lock.sol\":755:862  keccak256(abi.encodePacked(admins[_id].password)) ==... */\n      eq\n        /* \"contracts/Lock.sol\":734:922  require(... */\n      tag_231\n      jumpi\n      mload(0x40)\n      0x08c379a000000000000000000000000000000000000000000000000000000000\n      dup2\n      mstore\n      0x04\n      add\n      tag_232\n      swap1\n      tag_233\n      jump\t// in\n    tag_232:\n      mload(0x40)\n      dup1\n      swap2\n      sub\n      swap1\n      revert\n    tag_231:\n        /* \"contracts/Lock.sol\":1612:1613  0 */\n      0x00\n        /* \"contracts/Lock.sol\":1588:1601  _electionName */\n      dup9\n        /* \"contracts/Lock.sol\":1582:1609  bytes(_electionName).length */\n      mload\n        /* \"contracts/Lock.sol\":1582:1613  bytes(_electionName).length > 0 */\n      gt\n        /* \"contracts/Lock.sol\":1561:1668  require(... */\n      tag_235\n      jumpi\n      mload(0x40)\n      0x08c379a000000000000000000000000000000000000000000000000000000000\n      dup2\n      mstore\n      0x04\n      add\n      tag_236\n      swap1\n      tag_237\n      jump\t// in\n    tag_236:\n      mload(0x40)\n      dup1\n      swap2\n      sub\n      swap1\n      revert\n    tag_235:\n        /* \"contracts/Lock.sol\":1737:1738  0 */\n      0x00\n        /* \"contracts/Lock.sol\":1699:1708  elections */\n      dup1\n        /* \"contracts/Lock.sol\":1709:1722  _electionName */\n      dup10\n        /* \"contracts/Lock.sol\":1699:1723  elections[_electionName] */\n      mload(0x40)\n      tag_238\n      swap2\n      swap1\n      tag_60\n      jump\t// in\n    tag_238:\n      swap1\n      dup2\n      mstore\n      0x20\n      add\n      mload(0x40)\n      dup1\n      swap2\n      sub\n      swap1\n      keccak256\n        /* \"contracts/Lock.sol\":1699:1733  elections[_electionName].startTime */\n      0x02\n      add\n      sload\n        /* \"contracts/Lock.sol\":1699:1738  elections[_electionName].startTime == 0 */\n      eq\n        /* \"contracts/Lock.sol\":1678:1787  require(... */\n      tag_239\n      jumpi\n      mload(0x40)\n      0x08c379a000000000000000000000000000000000000000000000000000000000\n      dup2\n      mstore\n      0x04\n      add\n      tag_240\n      swap1\n      tag_241\n      jump\t// in\n    tag_240:\n      mload(0x40)\n      dup1\n      swap2\n      sub\n      swap1\n      revert\n    tag_239:\n        /* \"contracts/Lock.sol\":1798:1833  ElectionDetails storage newElection */\n      0x00\n        /* \"contracts/Lock.sol\":1836:1845  elections */\n      dup1\n        /* \"contracts/Lock.sol\":1846:1859  _electionName */\n      dup10\n        /* \"contracts/Lock.sol\":1836:1860  elections[_electionName] */\n      mload(0x40)\n      tag_242\n      swap2\n      swap1\n      tag_60\n      jump\t// in\n    tag_242:\n      swap1\n      dup2\n      mstore\n      0x20\n      add\n      mload(0x40)\n      dup1\n      swap2\n      sub\n      swap1\n      keccak256\n        /* \"contracts/Lock.sol\":1798:1860  ElectionDetails storage newElection = elections[_electionName] */\n      swap1\n      pop\n        /* \"contracts/Lock.sol\":1897:1910  _electionName */\n      dup9\n        /* \"contracts/Lock.sol\":1870:1881  newElection */\n      dup2\n        /* \"contracts/Lock.sol\":1870:1894  newElection.electionName */\n      0x00\n      add\n        /* \"contracts/Lock.sol\":1870:1910  newElection.electionName = _electionName */\n      swap1\n      dup2\n      tag_243\n      swap2\n      swap1\n      tag_62\n      jump\t// in\n    tag_243:\n      pop\n        /* \"contracts/Lock.sol\":1944:1954  _startTime */\n      dup7\n        /* \"contracts/Lock.sol\":1920:1931  newElection */\n      dup2\n        /* \"contracts/Lock.sol\":1920:1941  newElection.startTime */\n      0x02\n      add\n        /* \"contracts/Lock.sol\":1920:1954  newElection.startTime = _startTime */\n      dup2\n      swap1\n      sstore\n      pop\n        /* \"contracts/Lock.sol\":1986:1994  _endTime */\n      dup6\n        /* \"contracts/Lock.sol\":1964:1975  newElection */\n      dup2\n        /* \"contracts/Lock.sol\":1964:1983  newElection.endTime */\n      0x03\n      add\n        /* \"contracts/Lock.sol\":1964:1994  newElection.endTime = _endTime */\n      dup2\n      swap1\n      sstore\n      pop\n        /* \"contracts/Lock.sol\":2010:2019  uint256 i */\n      0x00\n        /* \"contracts/Lock.sol\":2005:2425  for (uint256 i = 0; i < _candidates.length; i++) {... */\n    tag_244:\n        /* \"contracts/Lock.sol\":2029:2040  _candidates */\n      dup9\n        /* \"contracts/Lock.sol\":2029:2047  _candidates.length */\n      mload\n        /* \"contracts/Lock.sol\":2025:2026  i */\n      dup2\n        /* \"contracts/Lock.sol\":2025:2047  i < _candidates.length */\n      lt\n        /* \"contracts/Lock.sol\":2005:2425  for (uint256 i = 0; i < _candidates.length; i++) {... */\n      iszero\n      tag_245\n      jumpi\n        /* \"contracts/Lock.sol\":2068:2079  newElection */\n      dup2\n        /* \"contracts/Lock.sol\":2068:2090  newElection.candidates */\n      0x01\n      add\n        /* \"contracts/Lock.sol\":2113:2400  Candidate({... */\n      mload(0x40)\n      dup1\n      0xa0\n      add\n      0x40\n      mstore\n      dup1\n        /* \"contracts/Lock.sol\":2156:2167  _candidates */\n      dup12\n        /* \"contracts/Lock.sol\":2168:2169  i */\n      dup5\n        /* \"contracts/Lock.sol\":2156:2170  _candidates[i] */\n      dup2\n      mload\n      dup2\n      lt\n      tag_247\n      jumpi\n      tag_248\n      tag_88\n      jump\t// in\n    tag_248:\n    tag_247:\n      0x20\n      mul\n      0x20\n      add\n      add\n      mload\n        /* \"contracts/Lock.sol\":2156:2180  _candidates[i].firstName */\n      0x00\n      add\n      mload\n        /* \"contracts/Lock.sol\":2113:2400  Candidate({... */\n      dup2\n      mstore\n      0x20\n      add\n        /* \"contracts/Lock.sol\":2214:2225  _candidates */\n      dup12\n        /* \"contracts/Lock.sol\":2226:2227  i */\n      dup5\n        /* \"contracts/Lock.sol\":2214:2228  _candidates[i] */\n      dup2\n      mload\n      dup2\n      lt\n      tag_249\n      jumpi\n      tag_250\n      tag_88\n      jump\t// in\n    tag_250:\n    tag_249:\n      0x20\n      mul\n      0x20\n      add\n      add\n      mload\n        /* \"contracts/Lock.sol\":2214:2239  _candidates[i].middleName */\n      0x20\n      add\n      mload\n        /* \"contracts/Lock.sol\":2113:2400  Candidate({... */\n      dup2\n      mstore\n      0x20\n      add\n        /* \"contracts/Lock.sol\":2271:2282  _candidates */\n      dup12\n        /* \"contracts/Lock.sol\":2283:2284  i */\n      dup5\n        /* \"contracts/Lock.sol\":2271:2285  _candidates[i] */\n      dup2\n      mload\n      dup2\n      lt\n      tag_251\n      jumpi\n      tag_252\n      tag_88\n      jump\t// in\n    tag_252:\n    tag_251:\n      0x20\n      mul\n      0x20\n      add\n      add\n      mload\n        /* \"contracts/Lock.sol\":2271:2294  _candidates[i].lastName */\n      0x40\n      add\n      mload\n        /* \"contracts/Lock.sol\":2113:2400  Candidate({... */\n      dup2\n      mstore\n      0x20\n      add\n        /* \"contracts/Lock.sol\":2327:2338  _candidates */\n      dup12\n        /* \"contracts/Lock.sol\":2339:2340  i */\n      dup5\n        /* \"contracts/Lock.sol\":2327:2341  _candidates[i] */\n      dup2\n      mload\n      dup2\n      lt\n      tag_253\n      jumpi\n      tag_254\n      tag_88\n      jump\t// in\n    tag_254:\n    tag_253:\n      0x20\n      mul\n      0x20\n      add\n      add\n      mload\n        /* \"contracts/Lock.sol\":2327:2351  _candidates[i].partyName */\n      0x60\n      add\n      mload\n        /* \"contracts/Lock.sol\":2113:2400  Candidate({... */\n      dup2\n      mstore\n      0x20\n      add\n        /* \"contracts/Lock.sol\":2380:2381  0 */\n      0x00\n        /* \"contracts/Lock.sol\":2113:2400  Candidate({... */\n      dup2\n      mstore\n      pop\n        /* \"contracts/Lock.sol\":2068:2414  newElection.candidates.push(... */\n      swap1\n      dup1\n      0x01\n      dup2\n      sload\n      add\n      dup1\n      dup3\n      sstore\n      dup1\n      swap2\n      pop\n      pop\n      0x01\n      swap1\n      sub\n      swap1\n      0x00\n      mstore\n      keccak256(0x00, 0x20)\n      swap1\n      0x05\n      mul\n      add\n      0x00\n      swap1\n      swap2\n      swap1\n      swap2\n      swap1\n      swap2\n      pop\n      0x00\n      dup3\n      add\n      mload\n      dup2\n      0x00\n      add\n      swap1\n      dup2\n      tag_256\n      swap2\n      swap1\n      tag_62\n      jump\t// in\n    tag_256:\n      pop\n      0x20\n      dup3\n      add\n      mload\n      dup2\n      0x01\n      add\n      swap1\n      dup2\n      tag_257\n      swap2\n      swap1\n      tag_62\n      jump\t// in\n    tag_257:\n      pop\n      0x40\n      dup3\n      add\n      mload\n      dup2\n      0x02\n      add\n      swap1\n      dup2\n      tag_258\n      swap2\n      swap1\n      tag_62\n      jump\t// in\n    tag_258:\n      pop\n      0x60\n      dup3\n      add\n      mload\n      dup2\n      0x03\n      add\n      swap1\n      dup2\n      tag_259\n      swap2\n      swap1\n      tag_62\n      jump\t// in\n    tag_259:\n      pop\n      0x80\n      dup3\n      add\n      mload\n      dup2\n      0x04\n      add\n      sstore\n      pop\n      pop\n        /* \"contracts/Lock.sol\":2049:2052  i++ */\n      dup1\n      dup1\n      0x01\n      add\n      swap2\n      pop\n      pop\n        /* \"contracts/Lock.sol\":2005:2425  for (uint256 i = 0; i < _candidates.length; i++) {... */\n      jump(tag_244)\n    tag_245:\n      pop\n        /* \"contracts/Lock.sol\":2435:2448  electionNames */\n      0x02\n        /* \"contracts/Lock.sol\":2454:2467  _electionName */\n      dup10\n        /* \"contracts/Lock.sol\":2435:2468  electionNames.push(_electionName) */\n      swap1\n      dup1\n      0x01\n      dup2\n      sload\n      add\n      dup1\n      dup3\n      sstore\n      dup1\n      swap2\n      pop\n      pop\n      0x01\n      swap1\n      sub\n      swap1\n      0x00\n      mstore\n      keccak256(0x00, 0x20)\n      add\n      0x00\n      swap1\n      swap2\n      swap1\n      swap2\n      swap1\n      swap2\n      pop\n      swap1\n      dup2\n      tag_261\n      swap2\n      swap1\n      tag_62\n      jump\t// in\n    tag_261:\n      pop\n        /* \"contracts/Lock.sol\":1551:2475  {... */\n      pop\n        /* \"contracts/Lock.sol\":1269:2475  function addElectionWithDetails(... */\n      pop\n      pop\n      pop\n      pop\n      pop\n      pop\n      pop\n      pop\n      jump\t// out\n        /* \"contracts/Lock.sol\":2481:3372  function vote(... */\n    tag_54:\n        /* \"contracts/Lock.sol\":2597:2629  ElectionDetails storage election */\n      0x00\n        /* \"contracts/Lock.sol\":2632:2641  elections */\n      dup1\n        /* \"contracts/Lock.sol\":2642:2655  _electionName */\n      dup4\n        /* \"contracts/Lock.sol\":2632:2656  elections[_electionName] */\n      mload(0x40)\n      tag_263\n      swap2\n      swap1\n      tag_60\n      jump\t// in\n    tag_263:\n      swap1\n      dup2\n      mstore\n      0x20\n      add\n      mload(0x40)\n      dup1\n      swap2\n      sub\n      swap1\n      keccak256\n        /* \"contracts/Lock.sol\":2597:2656  ElectionDetails storage election = elections[_electionName] */\n      swap1\n      pop\n        /* \"contracts/Lock.sol\":2671:2680  uint256 i */\n      0x00\n        /* \"contracts/Lock.sol\":2666:3366  for (uint256 i = 0; i < election.candidates.length; i++) {... */\n    tag_264:\n        /* \"contracts/Lock.sol\":2690:2698  election */\n      dup2\n        /* \"contracts/Lock.sol\":2690:2709  election.candidates */\n      0x01\n      add\n        /* \"contracts/Lock.sol\":2690:2716  election.candidates.length */\n      dup1\n      sload\n      swap1\n      pop\n        /* \"contracts/Lock.sol\":2686:2687  i */\n      dup2\n        /* \"contracts/Lock.sol\":2686:2716  i < election.candidates.length */\n      lt\n        /* \"contracts/Lock.sol\":2666:3366  for (uint256 i = 0; i < election.candidates.length; i++) {... */\n      iszero\n      tag_265\n      jumpi\n        /* \"contracts/Lock.sol\":2737:2764  Candidate storage candidate */\n      0x00\n        /* \"contracts/Lock.sol\":2767:2775  election */\n      dup3\n        /* \"contracts/Lock.sol\":2767:2786  election.candidates */\n      0x01\n      add\n        /* \"contracts/Lock.sol\":2787:2788  i */\n      dup3\n        /* \"contracts/Lock.sol\":2767:2789  election.candidates[i] */\n      dup2\n      sload\n      dup2\n      lt\n      tag_267\n      jumpi\n      tag_268\n      tag_88\n      jump\t// in\n    tag_268:\n    tag_267:\n      swap1\n      0x00\n      mstore\n      keccak256(0x00, 0x20)\n      swap1\n      0x05\n      mul\n      add\n        /* \"contracts/Lock.sol\":2737:2789  Candidate storage candidate = election.candidates[i] */\n      swap1\n      pop\n        /* \"contracts/Lock.sol\":2803:2825  string memory fullName */\n      0x00\n        /* \"contracts/Lock.sol\":2890:2899  candidate */\n      dup2\n        /* \"contracts/Lock.sol\":2890:2909  candidate.firstName */\n      0x00\n      add\n        /* \"contracts/Lock.sol\":2956:2965  candidate */\n      dup3\n        /* \"contracts/Lock.sol\":2956:2976  candidate.middleName */\n      0x01\n      add\n        /* \"contracts/Lock.sol\":3023:3032  candidate */\n      dup4\n        /* \"contracts/Lock.sol\":3023:3041  candidate.lastName */\n      0x02\n      add\n        /* \"contracts/Lock.sol\":2852:3059  abi.encodePacked(... */\n      add(0x20, mload(0x40))\n      tag_270\n      swap4\n      swap3\n      swap2\n      swap1\n      tag_212\n      jump\t// in\n    tag_270:\n      mload(0x40)\n      0x20\n      dup2\n      dup4\n      sub\n      sub\n      dup2\n      mstore\n      swap1\n      0x40\n      mstore\n        /* \"contracts/Lock.sol\":2803:3073  string memory fullName = string(... */\n      swap1\n      pop\n        /* \"contracts/Lock.sol\":3192:3210  _candidateFullName */\n      dup5\n        /* \"contracts/Lock.sol\":3175:3211  abi.encodePacked(_candidateFullName) */\n      add(0x20, mload(0x40))\n      tag_271\n      swap2\n      swap1\n      tag_60\n      jump\t// in\n    tag_271:\n      mload(0x40)\n      0x20\n      dup2\n      dup4\n      sub\n      sub\n      dup2\n      mstore\n      swap1\n      0x40\n      mstore\n        /* \"contracts/Lock.sol\":3165:3212  keccak256(abi.encodePacked(_candidateFullName)) */\n      dup1\n      mload\n      swap1\n      0x20\n      add\n      keccak256\n        /* \"contracts/Lock.sol\":3135:3143  fullName */\n      dup2\n        /* \"contracts/Lock.sol\":3118:3144  abi.encodePacked(fullName) */\n      add(0x20, mload(0x40))\n      tag_272\n      swap2\n      swap1\n      tag_60\n      jump\t// in\n    tag_272:\n      mload(0x40)\n      0x20\n      dup2\n      dup4\n      sub\n      sub\n      dup2\n      mstore\n      swap1\n      0x40\n      mstore\n        /* \"contracts/Lock.sol\":3108:3145  keccak256(abi.encodePacked(fullName)) */\n      dup1\n      mload\n      swap1\n      0x20\n      add\n      keccak256\n        /* \"contracts/Lock.sol\":3108:3212  keccak256(abi.encodePacked(fullName)) ==... */\n      sub\n        /* \"contracts/Lock.sol\":3087:3356  if (... */\n      tag_273\n      jumpi\n        /* \"contracts/Lock.sol\":3245:3254  candidate */\n      dup2\n        /* \"contracts/Lock.sol\":3245:3260  candidate.votes */\n      0x04\n      add\n      0x00\n        /* \"contracts/Lock.sol\":3245:3262  candidate.votes++ */\n      dup2\n      sload\n      dup1\n      swap3\n      swap2\n      swap1\n      tag_274\n      swap1\n      tag_275\n      jump\t// in\n    tag_274:\n      swap2\n      swap1\n      pop\n      sstore\n      pop\n        /* \"contracts/Lock.sol\":3285:3318  VoteCast(_electionName, fullName) */\n      0x137ad23732468494166ec34d1367743690ffa17f6ceac8429cba8fc35d088b6e\n        /* \"contracts/Lock.sol\":3294:3307  _electionName */\n      dup7\n        /* \"contracts/Lock.sol\":3309:3317  fullName */\n      dup3\n        /* \"contracts/Lock.sol\":3285:3318  VoteCast(_electionName, fullName) */\n      mload(0x40)\n      tag_276\n      swap3\n      swap2\n      swap1\n      tag_277\n      jump\t// in\n    tag_276:\n      mload(0x40)\n      dup1\n      swap2\n      sub\n      swap1\n      log1\n        /* \"contracts/Lock.sol\":3336:3341  break */\n      pop\n      pop\n      jump(tag_265)\n        /* \"contracts/Lock.sol\":3087:3356  if (... */\n    tag_273:\n        /* \"contracts/Lock.sol\":2723:3366  {... */\n      pop\n      pop\n        /* \"contracts/Lock.sol\":2718:2721  i++ */\n      dup1\n      dup1\n      0x01\n      add\n      swap2\n      pop\n      pop\n        /* \"contracts/Lock.sol\":2666:3366  for (uint256 i = 0; i < election.candidates.length; i++) {... */\n      jump(tag_264)\n    tag_265:\n      pop\n        /* \"contracts/Lock.sol\":2587:3372  {... */\n      pop\n        /* \"contracts/Lock.sol\":2481:3372  function vote(... */\n      pop\n      pop\n      jump\t// out\n        /* \"contracts/Lock.sol\":5245:5351  function getAllElectionNames() public view returns (string[] memory) {... */\n    tag_56:\n        /* \"contracts/Lock.sol\":5297:5312  string[] memory */\n      0x60\n        /* \"contracts/Lock.sol\":5331:5344  electionNames */\n      0x02\n        /* \"contracts/Lock.sol\":5324:5344  return electionNames */\n      dup1\n      sload\n      dup1\n      0x20\n      mul\n      0x20\n      add\n      mload(0x40)\n      swap1\n      dup2\n      add\n      0x40\n      mstore\n      dup1\n      swap3\n      swap2\n      swap1\n      dup2\n      dup2\n      mstore\n      0x20\n      add\n      0x00\n      swap1\n    tag_279:\n      dup3\n      dup3\n      lt\n      iszero\n      tag_280\n      jumpi\n      dup4\n      dup3\n      swap1\n      0x00\n      mstore\n      keccak256(0x00, 0x20)\n      add\n      dup1\n      sload\n      tag_282\n      swap1\n      tag_91\n      jump\t// in\n    tag_282:\n      dup1\n      0x1f\n      add\n      0x20\n      dup1\n      swap2\n      div\n      mul\n      0x20\n      add\n      mload(0x40)\n      swap1\n      dup2\n      add\n      0x40\n      mstore\n      dup1\n      swap3\n      swap2\n      swap1\n      dup2\n      dup2\n      mstore\n      0x20\n      add\n      dup3\n      dup1\n      sload\n      tag_283\n      swap1\n      tag_91\n      jump\t// in\n    tag_283:\n      dup1\n      iszero\n      tag_284\n      jumpi\n      dup1\n      0x1f\n      lt\n      tag_285\n      jumpi\n      0x0100\n      dup1\n      dup4\n      sload\n      div\n      mul\n      dup4\n      mstore\n      swap2\n      0x20\n      add\n      swap2\n      jump(tag_284)\n    tag_285:\n      dup3\n      add\n      swap2\n      swap1\n      0x00\n      mstore\n      keccak256(0x00, 0x20)\n      swap1\n    tag_286:\n      dup2\n      sload\n      dup2\n      mstore\n      swap1\n      0x01\n      add\n      swap1\n      0x20\n      add\n      dup1\n      dup4\n      gt\n      tag_286\n      jumpi\n      dup3\n      swap1\n      sub\n      0x1f\n      and\n      dup3\n      add\n      swap2\n    tag_284:\n      pop\n      pop\n      pop\n      pop\n      pop\n      dup2\n      mstore\n      0x20\n      add\n      swap1\n      0x01\n      add\n      swap1\n      jump(tag_279)\n    tag_280:\n      pop\n      pop\n      pop\n      pop\n      swap1\n      pop\n        /* \"contracts/Lock.sol\":5245:5351  function getAllElectionNames() public view returns (string[] memory) {... */\n      swap1\n      jump\t// out\n    tag_82:\n      mload(0x40)\n      dup1\n      0x80\n      add\n      0x40\n      mstore\n      dup1\n      0x60\n      dup2\n      mstore\n      0x20\n      add\n      0x60\n      dup2\n      mstore\n      0x20\n      add\n      0x00\n      dup2\n      mstore\n      0x20\n      add\n      0x00\n      dup2\n      mstore\n      pop\n      swap1\n      jump\t// out\n        /* \"#utility.yul\":7:82   */\n    tag_287:\n        /* \"#utility.yul\":40:46   */\n      0x00\n        /* \"#utility.yul\":73:75   */\n      0x40\n        /* \"#utility.yul\":67:76   */\n      mload\n        /* \"#utility.yul\":57:76   */\n      swap1\n      pop\n        /* \"#utility.yul\":7:82   */\n      swap1\n      jump\t// out\n        /* \"#utility.yul\":88:205   */\n    tag_288:\n        /* \"#utility.yul\":197:198   */\n      0x00\n        /* \"#utility.yul\":194:195   */\n      dup1\n        /* \"#utility.yul\":187:199   */\n      revert\n        /* \"#utility.yul\":211:328   */\n    tag_289:\n        /* \"#utility.yul\":320:321   */\n      0x00\n        /* \"#utility.yul\":317:318   */\n      dup1\n        /* \"#utility.yul\":310:322   */\n      revert\n        /* \"#utility.yul\":334:451   */\n    tag_290:\n        /* \"#utility.yul\":443:444   */\n      0x00\n        /* \"#utility.yul\":440:441   */\n      dup1\n        /* \"#utility.yul\":433:445   */\n      revert\n        /* \"#utility.yul\":457:574   */\n    tag_291:\n        /* \"#utility.yul\":566:567   */\n      0x00\n        /* \"#utility.yul\":563:564   */\n      dup1\n        /* \"#utility.yul\":556:568   */\n      revert\n        /* \"#utility.yul\":580:682   */\n    tag_292:\n        /* \"#utility.yul\":621:627   */\n      0x00\n        /* \"#utility.yul\":672:674   */\n      0x1f\n        /* \"#utility.yul\":668:675   */\n      not\n        /* \"#utility.yul\":663:665   */\n      0x1f\n        /* \"#utility.yul\":656:661   */\n      dup4\n        /* \"#utility.yul\":652:666   */\n      add\n        /* \"#utility.yul\":648:676   */\n      and\n        /* \"#utility.yul\":638:676   */\n      swap1\n      pop\n        /* \"#utility.yul\":580:682   */\n      swap2\n      swap1\n      pop\n      jump\t// out\n        /* \"#utility.yul\":688:868   */\n    tag_74:\n        /* \"#utility.yul\":736:813   */\n      0x4e487b7100000000000000000000000000000000000000000000000000000000\n        /* \"#utility.yul\":733:734   */\n      0x00\n        /* \"#utility.yul\":726:814   */\n      mstore\n        /* \"#utility.yul\":833:837   */\n      0x41\n        /* \"#utility.yul\":830:831   */\n      0x04\n        /* \"#utility.yul\":823:838   */\n      mstore\n        /* \"#utility.yul\":857:861   */\n      0x24\n        /* \"#utility.yul\":854:855   */\n      0x00\n        /* \"#utility.yul\":847:862   */\n      revert\n        /* \"#utility.yul\":874:1155   */\n    tag_293:\n        /* \"#utility.yul\":957:984   */\n      tag_379\n        /* \"#utility.yul\":979:983   */\n      dup3\n        /* \"#utility.yul\":957:984   */\n      tag_292\n      jump\t// in\n    tag_379:\n        /* \"#utility.yul\":949:955   */\n      dup2\n        /* \"#utility.yul\":945:985   */\n      add\n        /* \"#utility.yul\":1087:1093   */\n      dup2\n        /* \"#utility.yul\":1075:1085   */\n      dup2\n        /* \"#utility.yul\":1072:1094   */\n      lt\n        /* \"#utility.yul\":1051:1069   */\n      0xffffffffffffffff\n        /* \"#utility.yul\":1039:1049   */\n      dup3\n        /* \"#utility.yul\":1036:1070   */\n      gt\n        /* \"#utility.yul\":1033:1095   */\n      or\n        /* \"#utility.yul\":1030:1118   */\n      iszero\n      tag_380\n      jumpi\n        /* \"#utility.yul\":1098:1116   */\n      tag_381\n      tag_74\n      jump\t// in\n    tag_381:\n        /* \"#utility.yul\":1030:1118   */\n    tag_380:\n        /* \"#utility.yul\":1138:1148   */\n      dup1\n        /* \"#utility.yul\":1134:1136   */\n      0x40\n        /* \"#utility.yul\":1127:1149   */\n      mstore\n        /* \"#utility.yul\":917:1155   */\n      pop\n        /* \"#utility.yul\":874:1155   */\n      pop\n      pop\n      jump\t// out\n        /* \"#utility.yul\":1161:1290   */\n    tag_294:\n        /* \"#utility.yul\":1195:1201   */\n      0x00\n        /* \"#utility.yul\":1222:1242   */\n      tag_383\n      tag_287\n      jump\t// in\n    tag_383:\n        /* \"#utility.yul\":1212:1242   */\n      swap1\n      pop\n        /* \"#utility.yul\":1251:1284   */\n      tag_384\n        /* \"#utility.yul\":1279:1283   */\n      dup3\n        /* \"#utility.yul\":1271:1277   */\n      dup3\n        /* \"#utility.yul\":1251:1284   */\n      tag_293\n      jump\t// in\n    tag_384:\n        /* \"#utility.yul\":1161:1290   */\n      swap2\n      swap1\n      pop\n      jump\t// out\n        /* \"#utility.yul\":1296:1604   */\n    tag_295:\n        /* \"#utility.yul\":1358:1362   */\n      0x00\n        /* \"#utility.yul\":1448:1466   */\n      0xffffffffffffffff\n        /* \"#utility.yul\":1440:1446   */\n      dup3\n        /* \"#utility.yul\":1437:1467   */\n      gt\n        /* \"#utility.yul\":1434:1490   */\n      iszero\n      tag_386\n      jumpi\n        /* \"#utility.yul\":1470:1488   */\n      tag_387\n      tag_74\n      jump\t// in\n    tag_387:\n        /* \"#utility.yul\":1434:1490   */\n    tag_386:\n        /* \"#utility.yul\":1508:1537   */\n      tag_388\n        /* \"#utility.yul\":1530:1536   */\n      dup3\n        /* \"#utility.yul\":1508:1537   */\n      tag_292\n      jump\t// in\n    tag_388:\n        /* \"#utility.yul\":1500:1537   */\n      swap1\n      pop\n        /* \"#utility.yul\":1592:1596   */\n      0x20\n        /* \"#utility.yul\":1586:1590   */\n      dup2\n        /* \"#utility.yul\":1582:1597   */\n      add\n        /* \"#utility.yul\":1574:1597   */\n      swap1\n      pop\n        /* \"#utility.yul\":1296:1604   */\n      swap2\n      swap1\n      pop\n      jump\t// out\n        /* \"#utility.yul\":1610:1758   */\n    tag_296:\n        /* \"#utility.yul\":1708:1714   */\n      dup3\n        /* \"#utility.yul\":1703:1706   */\n      dup2\n        /* \"#utility.yul\":1698:1701   */\n      dup4\n        /* \"#utility.yul\":1685:1715   */\n      calldatacopy\n        /* \"#utility.yul\":1749:1750   */\n      0x00\n        /* \"#utility.yul\":1740:1746   */\n      dup4\n        /* \"#utility.yul\":1735:1738   */\n      dup4\n        /* \"#utility.yul\":1731:1747   */\n      add\n        /* \"#utility.yul\":1724:1751   */\n      mstore\n        /* \"#utility.yul\":1610:1758   */\n      pop\n      pop\n      pop\n      jump\t// out\n        /* \"#utility.yul\":1764:2189   */\n    tag_297:\n        /* \"#utility.yul\":1842:1847   */\n      0x00\n        /* \"#utility.yul\":1867:1933   */\n      tag_391\n        /* \"#utility.yul\":1883:1932   */\n      tag_392\n        /* \"#utility.yul\":1925:1931   */\n      dup5\n        /* \"#utility.yul\":1883:1932   */\n      tag_295\n      jump\t// in\n    tag_392:\n        /* \"#utility.yul\":1867:1933   */\n      tag_294\n      jump\t// in\n    tag_391:\n        /* \"#utility.yul\":1858:1933   */\n      swap1\n      pop\n        /* \"#utility.yul\":1956:1962   */\n      dup3\n        /* \"#utility.yul\":1949:1954   */\n      dup2\n        /* \"#utility.yul\":1942:1963   */\n      mstore\n        /* \"#utility.yul\":1994:1998   */\n      0x20\n        /* \"#utility.yul\":1987:1992   */\n      dup2\n        /* \"#utility.yul\":1983:1999   */\n      add\n        /* \"#utility.yul\":2032:2035   */\n      dup5\n        /* \"#utility.yul\":2023:2029   */\n      dup5\n        /* \"#utility.yul\":2018:2021   */\n      dup5\n        /* \"#utility.yul\":2014:2030   */\n      add\n        /* \"#utility.yul\":2011:2036   */\n      gt\n        /* \"#utility.yul\":2008:2120   */\n      iszero\n      tag_393\n      jumpi\n        /* \"#utility.yul\":2039:2118   */\n      tag_394\n      tag_291\n      jump\t// in\n    tag_394:\n        /* \"#utility.yul\":2008:2120   */\n    tag_393:\n        /* \"#utility.yul\":2129:2183   */\n      tag_395\n        /* \"#utility.yul\":2176:2182   */\n      dup5\n        /* \"#utility.yul\":2171:2174   */\n      dup3\n        /* \"#utility.yul\":2166:2169   */\n      dup6\n        /* \"#utility.yul\":2129:2183   */\n      tag_296\n      jump\t// in\n    tag_395:\n        /* \"#utility.yul\":1848:2189   */\n      pop\n        /* \"#utility.yul\":1764:2189   */\n      swap4\n      swap3\n      pop\n      pop\n      pop\n      jump\t// out\n        /* \"#utility.yul\":2209:2549   */\n    tag_298:\n        /* \"#utility.yul\":2265:2270   */\n      0x00\n        /* \"#utility.yul\":2314:2317   */\n      dup3\n        /* \"#utility.yul\":2307:2311   */\n      0x1f\n        /* \"#utility.yul\":2299:2305   */\n      dup4\n        /* \"#utility.yul\":2295:2312   */\n      add\n        /* \"#utility.yul\":2291:2318   */\n      slt\n        /* \"#utility.yul\":2281:2403   */\n      tag_397\n      jumpi\n        /* \"#utility.yul\":2322:2401   */\n      tag_398\n      tag_290\n      jump\t// in\n    tag_398:\n        /* \"#utility.yul\":2281:2403   */\n    tag_397:\n        /* \"#utility.yul\":2439:2445   */\n      dup2\n        /* \"#utility.yul\":2426:2446   */\n      calldataload\n        /* \"#utility.yul\":2464:2543   */\n      tag_399\n        /* \"#utility.yul\":2539:2542   */\n      dup5\n        /* \"#utility.yul\":2531:2537   */\n      dup3\n        /* \"#utility.yul\":2524:2528   */\n      0x20\n        /* \"#utility.yul\":2516:2522   */\n      dup7\n        /* \"#utility.yul\":2512:2529   */\n      add\n        /* \"#utility.yul\":2464:2543   */\n      tag_297\n      jump\t// in\n    tag_399:\n        /* \"#utility.yul\":2455:2543   */\n      swap2\n      pop\n        /* \"#utility.yul\":2271:2549   */\n      pop\n        /* \"#utility.yul\":2209:2549   */\n      swap3\n      swap2\n      pop\n      pop\n      jump\t// out\n        /* \"#utility.yul\":2555:3389   */\n    tag_16:\n        /* \"#utility.yul\":2643:2649   */\n      0x00\n        /* \"#utility.yul\":2651:2657   */\n      dup1\n        /* \"#utility.yul\":2700:2702   */\n      0x40\n        /* \"#utility.yul\":2688:2697   */\n      dup4\n        /* \"#utility.yul\":2679:2686   */\n      dup6\n        /* \"#utility.yul\":2675:2698   */\n      sub\n        /* \"#utility.yul\":2671:2703   */\n      slt\n        /* \"#utility.yul\":2668:2787   */\n      iszero\n      tag_401\n      jumpi\n        /* \"#utility.yul\":2706:2785   */\n      tag_402\n      tag_288\n      jump\t// in\n    tag_402:\n        /* \"#utility.yul\":2668:2787   */\n    tag_401:\n        /* \"#utility.yul\":2854:2855   */\n      0x00\n        /* \"#utility.yul\":2843:2852   */\n      dup4\n        /* \"#utility.yul\":2839:2856   */\n      add\n        /* \"#utility.yul\":2826:2857   */\n      calldataload\n        /* \"#utility.yul\":2884:2902   */\n      0xffffffffffffffff\n        /* \"#utility.yul\":2876:2882   */\n      dup2\n        /* \"#utility.yul\":2873:2903   */\n      gt\n        /* \"#utility.yul\":2870:2987   */\n      iszero\n      tag_403\n      jumpi\n        /* \"#utility.yul\":2906:2985   */\n      tag_404\n      tag_289\n      jump\t// in\n    tag_404:\n        /* \"#utility.yul\":2870:2987   */\n    tag_403:\n        /* \"#utility.yul\":3011:3074   */\n      tag_405\n        /* \"#utility.yul\":3066:3073   */\n      dup6\n        /* \"#utility.yul\":3057:3063   */\n      dup3\n        /* \"#utility.yul\":3046:3055   */\n      dup7\n        /* \"#utility.yul\":3042:3064   */\n      add\n        /* \"#utility.yul\":3011:3074   */\n      tag_298\n      jump\t// in\n    tag_405:\n        /* \"#utility.yul\":3001:3074   */\n      swap3\n      pop\n        /* \"#utility.yul\":2797:3084   */\n      pop\n        /* \"#utility.yul\":3151:3153   */\n      0x20\n        /* \"#utility.yul\":3140:3149   */\n      dup4\n        /* \"#utility.yul\":3136:3154   */\n      add\n        /* \"#utility.yul\":3123:3155   */\n      calldataload\n        /* \"#utility.yul\":3182:3200   */\n      0xffffffffffffffff\n        /* \"#utility.yul\":3174:3180   */\n      dup2\n        /* \"#utility.yul\":3171:3201   */\n      gt\n        /* \"#utility.yul\":3168:3285   */\n      iszero\n      tag_406\n      jumpi\n        /* \"#utility.yul\":3204:3283   */\n      tag_407\n      tag_289\n      jump\t// in\n    tag_407:\n        /* \"#utility.yul\":3168:3285   */\n    tag_406:\n        /* \"#utility.yul\":3309:3372   */\n      tag_408\n        /* \"#utility.yul\":3364:3371   */\n      dup6\n        /* \"#utility.yul\":3355:3361   */\n      dup3\n        /* \"#utility.yul\":3344:3353   */\n      dup7\n        /* \"#utility.yul\":3340:3362   */\n      add\n        /* \"#utility.yul\":3309:3372   */\n      tag_298\n      jump\t// in\n    tag_408:\n        /* \"#utility.yul\":3299:3372   */\n      swap2\n      pop\n        /* \"#utility.yul\":3094:3382   */\n      pop\n        /* \"#utility.yul\":2555:3389   */\n      swap3\n      pop\n      swap3\n      swap1\n      pop\n      jump\t// out\n        /* \"#utility.yul\":3395:3485   */\n    tag_299:\n        /* \"#utility.yul\":3429:3436   */\n      0x00\n        /* \"#utility.yul\":3472:3477   */\n      dup2\n        /* \"#utility.yul\":3465:3478   */\n      iszero\n        /* \"#utility.yul\":3458:3479   */\n      iszero\n        /* \"#utility.yul\":3447:3479   */\n      swap1\n      pop\n        /* \"#utility.yul\":3395:3485   */\n      swap2\n      swap1\n      pop\n      jump\t// out\n        /* \"#utility.yul\":3491:3600   */\n    tag_300:\n        /* \"#utility.yul\":3572:3593   */\n      tag_411\n        /* \"#utility.yul\":3587:3592   */\n      dup2\n        /* \"#utility.yul\":3572:3593   */\n      tag_299\n      jump\t// in\n    tag_411:\n        /* \"#utility.yul\":3567:3570   */\n      dup3\n        /* \"#utility.yul\":3560:3594   */\n      mstore\n        /* \"#utility.yul\":3491:3600   */\n      pop\n      pop\n      jump\t// out\n        /* \"#utility.yul\":3606:3816   */\n    tag_22:\n        /* \"#utility.yul\":3693:3697   */\n      0x00\n        /* \"#utility.yul\":3731:3733   */\n      0x20\n        /* \"#utility.yul\":3720:3729   */\n      dup3\n        /* \"#utility.yul\":3716:3734   */\n      add\n        /* \"#utility.yul\":3708:3734   */\n      swap1\n      pop\n        /* \"#utility.yul\":3744:3809   */\n      tag_413\n        /* \"#utility.yul\":3806:3807   */\n      0x00\n        /* \"#utility.yul\":3795:3804   */\n      dup4\n        /* \"#utility.yul\":3791:3808   */\n      add\n        /* \"#utility.yul\":3782:3788   */\n      dup5\n        /* \"#utility.yul\":3744:3809   */\n      tag_300\n      jump\t// in\n    tag_413:\n        /* \"#utility.yul\":3606:3816   */\n      swap3\n      swap2\n      pop\n      pop\n      jump\t// out\n        /* \"#utility.yul\":3822:3946   */\n    tag_301:\n        /* \"#utility.yul\":3899:3905   */\n      0x00\n        /* \"#utility.yul\":3933:3938   */\n      dup2\n        /* \"#utility.yul\":3927:3939   */\n      mload\n        /* \"#utility.yul\":3917:3939   */\n      swap1\n      pop\n        /* \"#utility.yul\":3822:3946   */\n      swap2\n      swap1\n      pop\n      jump\t// out\n        /* \"#utility.yul\":3952:4146   */\n    tag_302:\n        /* \"#utility.yul\":4061:4072   */\n      0x00\n        /* \"#utility.yul\":4095:4101   */\n      dup3\n        /* \"#utility.yul\":4090:4093   */\n      dup3\n        /* \"#utility.yul\":4083:4102   */\n      mstore\n        /* \"#utility.yul\":4135:4139   */\n      0x20\n        /* \"#utility.yul\":4130:4133   */\n      dup3\n        /* \"#utility.yul\":4126:4140   */\n      add\n        /* \"#utility.yul\":4111:4140   */\n      swap1\n      pop\n        /* \"#utility.yul\":3952:4146   */\n      swap3\n      swap2\n      pop\n      pop\n      jump\t// out\n        /* \"#utility.yul\":4152:4294   */\n    tag_303:\n        /* \"#utility.yul\":4229:4233   */\n      0x00\n        /* \"#utility.yul\":4252:4255   */\n      dup2\n        /* \"#utility.yul\":4244:4255   */\n      swap1\n      pop\n        /* \"#utility.yul\":4282:4286   */\n      0x20\n        /* \"#utility.yul\":4277:4280   */\n      dup3\n        /* \"#utility.yul\":4273:4287   */\n      add\n        /* \"#utility.yul\":4265:4287   */\n      swap1\n      pop\n        /* \"#utility.yul\":4152:4294   */\n      swap2\n      swap1\n      pop\n      jump\t// out\n        /* \"#utility.yul\":4300:4399   */\n    tag_304:\n        /* \"#utility.yul\":4352:4358   */\n      0x00\n        /* \"#utility.yul\":4386:4391   */\n      dup2\n        /* \"#utility.yul\":4380:4392   */\n      mload\n        /* \"#utility.yul\":4370:4392   */\n      swap1\n      pop\n        /* \"#utility.yul\":4300:4399   */\n      swap2\n      swap1\n      pop\n      jump\t// out\n        /* \"#utility.yul\":4405:4564   */\n    tag_305:\n        /* \"#utility.yul\":4479:4490   */\n      0x00\n        /* \"#utility.yul\":4513:4519   */\n      dup3\n        /* \"#utility.yul\":4508:4511   */\n      dup3\n        /* \"#utility.yul\":4501:4520   */\n      mstore\n        /* \"#utility.yul\":4553:4557   */\n      0x20\n        /* \"#utility.yul\":4548:4551   */\n      dup3\n        /* \"#utility.yul\":4544:4558   */\n      add\n        /* \"#utility.yul\":4529:4558   */\n      swap1\n      pop\n        /* \"#utility.yul\":4405:4564   */\n      swap3\n      swap2\n      pop\n      pop\n      jump\t// out\n        /* \"#utility.yul\":4570:4709   */\n    tag_306:\n        /* \"#utility.yul\":4659:4665   */\n      dup3\n        /* \"#utility.yul\":4654:4657   */\n      dup2\n        /* \"#utility.yul\":4649:4652   */\n      dup4\n        /* \"#utility.yul\":4643:4666   */\n      mcopy\n        /* \"#utility.yul\":4700:4701   */\n      0x00\n        /* \"#utility.yul\":4691:4697   */\n      dup4\n        /* \"#utility.yul\":4686:4689   */\n      dup4\n        /* \"#utility.yul\":4682:4698   */\n      add\n        /* \"#utility.yul\":4675:4702   */\n      mstore\n        /* \"#utility.yul\":4570:4709   */\n      pop\n      pop\n      pop\n      jump\t// out\n        /* \"#utility.yul\":4715:5072   */\n    tag_307:\n        /* \"#utility.yul\":4793:4796   */\n      0x00\n        /* \"#utility.yul\":4821:4860   */\n      tag_421\n        /* \"#utility.yul\":4854:4859   */\n      dup3\n        /* \"#utility.yul\":4821:4860   */\n      tag_304\n      jump\t// in\n    tag_421:\n        /* \"#utility.yul\":4876:4937   */\n      tag_422\n        /* \"#utility.yul\":4930:4936   */\n      dup2\n        /* \"#utility.yul\":4925:4928   */\n      dup6\n        /* \"#utility.yul\":4876:4937   */\n      tag_305\n      jump\t// in\n    tag_422:\n        /* \"#utility.yul\":4869:4937   */\n      swap4\n      pop\n        /* \"#utility.yul\":4946:5011   */\n      tag_423\n        /* \"#utility.yul\":5004:5010   */\n      dup2\n        /* \"#utility.yul\":4999:5002   */\n      dup6\n        /* \"#utility.yul\":4992:4996   */\n      0x20\n        /* \"#utility.yul\":4985:4990   */\n      dup7\n        /* \"#utility.yul\":4981:4997   */\n      add\n        /* \"#utility.yul\":4946:5011   */\n      tag_306\n      jump\t// in\n    tag_423:\n        /* \"#utility.yul\":5036:5065   */\n      tag_424\n        /* \"#utility.yul\":5058:5064   */\n      dup2\n        /* \"#utility.yul\":5036:5065   */\n      tag_292\n      jump\t// in\n    tag_424:\n        /* \"#utility.yul\":5031:5034   */\n      dup5\n        /* \"#utility.yul\":5027:5066   */\n      add\n        /* \"#utility.yul\":5020:5066   */\n      swap2\n      pop\n        /* \"#utility.yul\":4797:5072   */\n      pop\n        /* \"#utility.yul\":4715:5072   */\n      swap3\n      swap2\n      pop\n      pop\n      jump\t// out\n        /* \"#utility.yul\":5078:5274   */\n    tag_308:\n        /* \"#utility.yul\":5167:5177   */\n      0x00\n        /* \"#utility.yul\":5202:5268   */\n      tag_426\n        /* \"#utility.yul\":5264:5267   */\n      dup4\n        /* \"#utility.yul\":5256:5262   */\n      dup4\n        /* \"#utility.yul\":5202:5268   */\n      tag_307\n      jump\t// in\n    tag_426:\n        /* \"#utility.yul\":5188:5268   */\n      swap1\n      pop\n        /* \"#utility.yul\":5078:5274   */\n      swap3\n      swap2\n      pop\n      pop\n      jump\t// out\n        /* \"#utility.yul\":5280:5403   */\n    tag_309:\n        /* \"#utility.yul\":5360:5364   */\n      0x00\n        /* \"#utility.yul\":5392:5396   */\n      0x20\n        /* \"#utility.yul\":5387:5390   */\n      dup3\n        /* \"#utility.yul\":5383:5397   */\n      add\n        /* \"#utility.yul\":5375:5397   */\n      swap1\n      pop\n        /* \"#utility.yul\":5280:5403   */\n      swap2\n      swap1\n      pop\n      jump\t// out\n        /* \"#utility.yul\":5437:6428   */\n    tag_310:\n        /* \"#utility.yul\":5576:5579   */\n      0x00\n        /* \"#utility.yul\":5605:5669   */\n      tag_429\n        /* \"#utility.yul\":5663:5668   */\n      dup3\n        /* \"#utility.yul\":5605:5669   */\n      tag_301\n      jump\t// in\n    tag_429:\n        /* \"#utility.yul\":5685:5781   */\n      tag_430\n        /* \"#utility.yul\":5774:5780   */\n      dup2\n        /* \"#utility.yul\":5769:5772   */\n      dup6\n        /* \"#utility.yul\":5685:5781   */\n      tag_302\n      jump\t// in\n    tag_430:\n        /* \"#utility.yul\":5678:5781   */\n      swap4\n      pop\n        /* \"#utility.yul\":5807:5810   */\n      dup4\n        /* \"#utility.yul\":5852:5856   */\n      0x20\n        /* \"#utility.yul\":5844:5850   */\n      dup3\n        /* \"#utility.yul\":5840:5857   */\n      mul\n        /* \"#utility.yul\":5835:5838   */\n      dup6\n        /* \"#utility.yul\":5831:5858   */\n      add\n        /* \"#utility.yul\":5882:5948   */\n      tag_431\n        /* \"#utility.yul\":5942:5947   */\n      dup6\n        /* \"#utility.yul\":5882:5948   */\n      tag_303\n      jump\t// in\n    tag_431:\n        /* \"#utility.yul\":5971:5978   */\n      dup1\n        /* \"#utility.yul\":6002:6003   */\n      0x00\n        /* \"#utility.yul\":5987:6383   */\n    tag_432:\n        /* \"#utility.yul\":6012:6018   */\n      dup6\n        /* \"#utility.yul\":6009:6010   */\n      dup2\n        /* \"#utility.yul\":6006:6019   */\n      lt\n        /* \"#utility.yul\":5987:6383   */\n      iszero\n      tag_434\n      jumpi\n        /* \"#utility.yul\":6083:6092   */\n      dup5\n        /* \"#utility.yul\":6077:6081   */\n      dup5\n        /* \"#utility.yul\":6073:6093   */\n      sub\n        /* \"#utility.yul\":6068:6071   */\n      dup10\n        /* \"#utility.yul\":6061:6094   */\n      mstore\n        /* \"#utility.yul\":6134:6140   */\n      dup2\n        /* \"#utility.yul\":6128:6141   */\n      mload\n        /* \"#utility.yul\":6162:6246   */\n      tag_435\n        /* \"#utility.yul\":6241:6245   */\n      dup6\n        /* \"#utility.yul\":6226:6239   */\n      dup3\n        /* \"#utility.yul\":6162:6246   */\n      tag_308\n      jump\t// in\n    tag_435:\n        /* \"#utility.yul\":6154:6246   */\n      swap5\n      pop\n        /* \"#utility.yul\":6269:6339   */\n      tag_436\n        /* \"#utility.yul\":6332:6338   */\n      dup4\n        /* \"#utility.yul\":6269:6339   */\n      tag_309\n      jump\t// in\n    tag_436:\n        /* \"#utility.yul\":6259:6339   */\n      swap3\n      pop\n        /* \"#utility.yul\":6368:6372   */\n      0x20\n        /* \"#utility.yul\":6363:6366   */\n      dup11\n        /* \"#utility.yul\":6359:6373   */\n      add\n        /* \"#utility.yul\":6352:6373   */\n      swap10\n      pop\n        /* \"#utility.yul\":6047:6383   */\n      pop\n        /* \"#utility.yul\":6034:6035   */\n      0x01\n        /* \"#utility.yul\":6031:6032   */\n      dup2\n        /* \"#utility.yul\":6027:6036   */\n      add\n        /* \"#utility.yul\":6022:6036   */\n      swap1\n      pop\n        /* \"#utility.yul\":5987:6383   */\n      jump(tag_432)\n    tag_434:\n        /* \"#utility.yul\":5991:6005   */\n      pop\n        /* \"#utility.yul\":6399:6403   */\n      dup3\n        /* \"#utility.yul\":6392:6403   */\n      swap8\n      pop\n        /* \"#utility.yul\":6419:6422   */\n      dup8\n        /* \"#utility.yul\":6412:6422   */\n      swap6\n      pop\n        /* \"#utility.yul\":5581:6428   */\n      pop\n      pop\n      pop\n      pop\n      pop\n        /* \"#utility.yul\":5437:6428   */\n      swap3\n      swap2\n      pop\n      pop\n      jump\t// out\n        /* \"#utility.yul\":6434:6579   */\n    tag_311:\n        /* \"#utility.yul\":6532:6538   */\n      0x00\n        /* \"#utility.yul\":6566:6571   */\n      dup2\n        /* \"#utility.yul\":6560:6572   */\n      mload\n        /* \"#utility.yul\":6550:6572   */\n      swap1\n      pop\n        /* \"#utility.yul\":6434:6579   */\n      swap2\n      swap1\n      pop\n      jump\t// out\n        /* \"#utility.yul\":6585:6800   */\n    tag_312:\n        /* \"#utility.yul\":6715:6726   */\n      0x00\n        /* \"#utility.yul\":6749:6755   */\n      dup3\n        /* \"#utility.yul\":6744:6747   */\n      dup3\n        /* \"#utility.yul\":6737:6756   */\n      mstore\n        /* \"#utility.yul\":6789:6793   */\n      0x20\n        /* \"#utility.yul\":6784:6787   */\n      dup3\n        /* \"#utility.yul\":6780:6794   */\n      add\n        /* \"#utility.yul\":6765:6794   */\n      swap1\n      pop\n        /* \"#utility.yul\":6585:6800   */\n      swap3\n      swap2\n      pop\n      pop\n      jump\t// out\n        /* \"#utility.yul\":6806:6969   */\n    tag_313:\n        /* \"#utility.yul\":6904:6908   */\n      0x00\n        /* \"#utility.yul\":6927:6930   */\n      dup2\n        /* \"#utility.yul\":6919:6930   */\n      swap1\n      pop\n        /* \"#utility.yul\":6957:6961   */\n      0x20\n        /* \"#utility.yul\":6952:6955   */\n      dup3\n        /* \"#utility.yul\":6948:6962   */\n      add\n        /* \"#utility.yul\":6940:6962   */\n      swap1\n      pop\n        /* \"#utility.yul\":6806:6969   */\n      swap2\n      swap1\n      pop\n      jump\t// out\n        /* \"#utility.yul\":6975:7114   */\n    tag_314:\n        /* \"#utility.yul\":7067:7073   */\n      0x00\n        /* \"#utility.yul\":7101:7106   */\n      dup2\n        /* \"#utility.yul\":7095:7107   */\n      mload\n        /* \"#utility.yul\":7085:7107   */\n      swap1\n      pop\n        /* \"#utility.yul\":6975:7114   */\n      swap2\n      swap1\n      pop\n      jump\t// out\n        /* \"#utility.yul\":7120:7319   */\n    tag_315:\n        /* \"#utility.yul\":7234:7245   */\n      0x00\n        /* \"#utility.yul\":7268:7274   */\n      dup3\n        /* \"#utility.yul\":7263:7266   */\n      dup3\n        /* \"#utility.yul\":7256:7275   */\n      mstore\n        /* \"#utility.yul\":7308:7312   */\n      0x20\n        /* \"#utility.yul\":7303:7306   */\n      dup3\n        /* \"#utility.yul\":7299:7313   */\n      add\n        /* \"#utility.yul\":7284:7313   */\n      swap1\n      pop\n        /* \"#utility.yul\":7120:7319   */\n      swap3\n      swap2\n      pop\n      pop\n      jump\t// out\n        /* \"#utility.yul\":7325:7482   */\n    tag_316:\n        /* \"#utility.yul\":7417:7421   */\n      0x00\n        /* \"#utility.yul\":7440:7443   */\n      dup2\n        /* \"#utility.yul\":7432:7443   */\n      swap1\n      pop\n        /* \"#utility.yul\":7470:7474   */\n      0x20\n        /* \"#utility.yul\":7465:7468   */\n      dup3\n        /* \"#utility.yul\":7461:7475   */\n      add\n        /* \"#utility.yul\":7453:7475   */\n      swap1\n      pop\n        /* \"#utility.yul\":7325:7482   */\n      swap2\n      swap1\n      pop\n      jump\t// out\n        /* \"#utility.yul\":7488:7565   */\n    tag_317:\n        /* \"#utility.yul\":7525:7532   */\n      0x00\n        /* \"#utility.yul\":7554:7559   */\n      dup2\n        /* \"#utility.yul\":7543:7559   */\n      swap1\n      pop\n        /* \"#utility.yul\":7488:7565   */\n      swap2\n      swap1\n      pop\n      jump\t// out\n        /* \"#utility.yul\":7571:7679   */\n    tag_318:\n        /* \"#utility.yul\":7648:7672   */\n      tag_445\n        /* \"#utility.yul\":7666:7671   */\n      dup2\n        /* \"#utility.yul\":7648:7672   */\n      tag_317\n      jump\t// in\n    tag_445:\n        /* \"#utility.yul\":7643:7646   */\n      dup3\n        /* \"#utility.yul\":7636:7673   */\n      mstore\n        /* \"#utility.yul\":7571:7679   */\n      pop\n      pop\n      jump\t// out\n        /* \"#utility.yul\":7739:9091   */\n    tag_319:\n        /* \"#utility.yul\":7848:7851   */\n      0x00\n        /* \"#utility.yul\":7884:7888   */\n      0xa0\n        /* \"#utility.yul\":7879:7882   */\n      dup4\n        /* \"#utility.yul\":7875:7889   */\n      add\n        /* \"#utility.yul\":7976:7980   */\n      0x00\n        /* \"#utility.yul\":7969:7974   */\n      dup4\n        /* \"#utility.yul\":7965:7981   */\n      add\n        /* \"#utility.yul\":7959:7982   */\n      mload\n        /* \"#utility.yul\":8029:8032   */\n      dup5\n        /* \"#utility.yul\":8023:8027   */\n      dup3\n        /* \"#utility.yul\":8019:8033   */\n      sub\n        /* \"#utility.yul\":8012:8016   */\n      0x00\n        /* \"#utility.yul\":8007:8010   */\n      dup7\n        /* \"#utility.yul\":8003:8017   */\n      add\n        /* \"#utility.yul\":7996:8034   */\n      mstore\n        /* \"#utility.yul\":8055:8128   */\n      tag_447\n        /* \"#utility.yul\":8123:8127   */\n      dup3\n        /* \"#utility.yul\":8109:8121   */\n      dup3\n        /* \"#utility.yul\":8055:8128   */\n      tag_307\n      jump\t// in\n    tag_447:\n        /* \"#utility.yul\":8047:8128   */\n      swap2\n      pop\n        /* \"#utility.yul\":7899:8139   */\n      pop\n        /* \"#utility.yul\":8227:8231   */\n      0x20\n        /* \"#utility.yul\":8220:8225   */\n      dup4\n        /* \"#utility.yul\":8216:8232   */\n      add\n        /* \"#utility.yul\":8210:8233   */\n      mload\n        /* \"#utility.yul\":8280:8283   */\n      dup5\n        /* \"#utility.yul\":8274:8278   */\n      dup3\n        /* \"#utility.yul\":8270:8284   */\n      sub\n        /* \"#utility.yul\":8263:8267   */\n      0x20\n        /* \"#utility.yul\":8258:8261   */\n      dup7\n        /* \"#utility.yul\":8254:8268   */\n      add\n        /* \"#utility.yul\":8247:8285   */\n      mstore\n        /* \"#utility.yul\":8306:8379   */\n      tag_448\n        /* \"#utility.yul\":8374:8378   */\n      dup3\n        /* \"#utility.yul\":8360:8372   */\n      dup3\n        /* \"#utility.yul\":8306:8379   */\n      tag_307\n      jump\t// in\n    tag_448:\n        /* \"#utility.yul\":8298:8379   */\n      swap2\n      pop\n        /* \"#utility.yul\":8149:8390   */\n      pop\n        /* \"#utility.yul\":8476:8480   */\n      0x40\n        /* \"#utility.yul\":8469:8474   */\n      dup4\n        /* \"#utility.yul\":8465:8481   */\n      add\n        /* \"#utility.yul\":8459:8482   */\n      mload\n        /* \"#utility.yul\":8529:8532   */\n      dup5\n        /* \"#utility.yul\":8523:8527   */\n      dup3\n        /* \"#utility.yul\":8519:8533   */\n      sub\n        /* \"#utility.yul\":8512:8516   */\n      0x40\n        /* \"#utility.yul\":8507:8510   */\n      dup7\n        /* \"#utility.yul\":8503:8517   */\n      add\n        /* \"#utility.yul\":8496:8534   */\n      mstore\n        /* \"#utility.yul\":8555:8628   */\n      tag_449\n        /* \"#utility.yul\":8623:8627   */\n      dup3\n        /* \"#utility.yul\":8609:8621   */\n      dup3\n        /* \"#utility.yul\":8555:8628   */\n      tag_307\n      jump\t// in\n    tag_449:\n        /* \"#utility.yul\":8547:8628   */\n      swap2\n      pop\n        /* \"#utility.yul\":8400:8639   */\n      pop\n        /* \"#utility.yul\":8726:8730   */\n      0x60\n        /* \"#utility.yul\":8719:8724   */\n      dup4\n        /* \"#utility.yul\":8715:8731   */\n      add\n        /* \"#utility.yul\":8709:8732   */\n      mload\n        /* \"#utility.yul\":8779:8782   */\n      dup5\n        /* \"#utility.yul\":8773:8777   */\n      dup3\n        /* \"#utility.yul\":8769:8783   */\n      sub\n        /* \"#utility.yul\":8762:8766   */\n      0x60\n        /* \"#utility.yul\":8757:8760   */\n      dup7\n        /* \"#utility.yul\":8753:8767   */\n      add\n        /* \"#utility.yul\":8746:8784   */\n      mstore\n        /* \"#utility.yul\":8805:8878   */\n      tag_450\n        /* \"#utility.yul\":8873:8877   */\n      dup3\n        /* \"#utility.yul\":8859:8871   */\n      dup3\n        /* \"#utility.yul\":8805:8878   */\n      tag_307\n      jump\t// in\n    tag_450:\n        /* \"#utility.yul\":8797:8878   */\n      swap2\n      pop\n        /* \"#utility.yul\":8649:8889   */\n      pop\n        /* \"#utility.yul\":8972:8976   */\n      0x80\n        /* \"#utility.yul\":8965:8970   */\n      dup4\n        /* \"#utility.yul\":8961:8977   */\n      add\n        /* \"#utility.yul\":8955:8978   */\n      mload\n        /* \"#utility.yul\":8991:9054   */\n      tag_451\n        /* \"#utility.yul\":9048:9052   */\n      0x80\n        /* \"#utility.yul\":9043:9046   */\n      dup7\n        /* \"#utility.yul\":9039:9053   */\n      add\n        /* \"#utility.yul\":9025:9037   */\n      dup3\n        /* \"#utility.yul\":8991:9054   */\n      tag_318\n      jump\t// in\n    tag_451:\n        /* \"#utility.yul\":8899:9064   */\n      pop\n        /* \"#utility.yul\":9081:9085   */\n      dup1\n        /* \"#utility.yul\":9074:9085   */\n      swap2\n      pop\n        /* \"#utility.yul\":7853:9091   */\n      pop\n        /* \"#utility.yul\":7739:9091   */\n      swap3\n      swap2\n      pop\n      pop\n      jump\t// out\n        /* \"#utility.yul\":9097:9353   */\n    tag_320:\n        /* \"#utility.yul\":9216:9226   */\n      0x00\n        /* \"#utility.yul\":9251:9347   */\n      tag_453\n        /* \"#utility.yul\":9343:9346   */\n      dup4\n        /* \"#utility.yul\":9335:9341   */\n      dup4\n        /* \"#utility.yul\":9251:9347   */\n      tag_319\n      jump\t// in\n    tag_453:\n        /* \"#utility.yul\":9237:9347   */\n      swap1\n      pop\n        /* \"#utility.yul\":9097:9353   */\n      swap3\n      swap2\n      pop\n      pop\n      jump\t// out\n        /* \"#utility.yul\":9359:9497   */\n    tag_321:\n        /* \"#utility.yul\":9454:9458   */\n      0x00\n        /* \"#utility.yul\":9486:9490   */\n      0x20\n        /* \"#utility.yul\":9481:9484   */\n      dup3\n        /* \"#utility.yul\":9477:9491   */\n      add\n        /* \"#utility.yul\":9469:9491   */\n      swap1\n      pop\n        /* \"#utility.yul\":9359:9497   */\n      swap2\n      swap1\n      pop\n      jump\t// out\n        /* \"#utility.yul\":9561:10652   */\n    tag_322:\n        /* \"#utility.yul\":9720:9723   */\n      0x00\n        /* \"#utility.yul\":9749:9828   */\n      tag_456\n        /* \"#utility.yul\":9822:9827   */\n      dup3\n        /* \"#utility.yul\":9749:9828   */\n      tag_314\n      jump\t// in\n    tag_456:\n        /* \"#utility.yul\":9844:9945   */\n      tag_457\n        /* \"#utility.yul\":9938:9944   */\n      dup2\n        /* \"#utility.yul\":9933:9936   */\n      dup6\n        /* \"#utility.yul\":9844:9945   */\n      tag_315\n      jump\t// in\n    tag_457:\n        /* \"#utility.yul\":9837:9945   */\n      swap4\n      pop\n        /* \"#utility.yul\":9971:9974   */\n      dup4\n        /* \"#utility.yul\":10016:10020   */\n      0x20\n        /* \"#utility.yul\":10008:10014   */\n      dup3\n        /* \"#utility.yul\":10004:10021   */\n      mul\n        /* \"#utility.yul\":9999:10002   */\n      dup6\n        /* \"#utility.yul\":9995:10022   */\n      add\n        /* \"#utility.yul\":10046:10127   */\n      tag_458\n        /* \"#utility.yul\":10121:10126   */\n      dup6\n        /* \"#utility.yul\":10046:10127   */\n      tag_316\n      jump\t// in\n    tag_458:\n        /* \"#utility.yul\":10150:10157   */\n      dup1\n        /* \"#utility.yul\":10181:10182   */\n      0x00\n        /* \"#utility.yul\":10166:10607   */\n    tag_459:\n        /* \"#utility.yul\":10191:10197   */\n      dup6\n        /* \"#utility.yul\":10188:10189   */\n      dup2\n        /* \"#utility.yul\":10185:10198   */\n      lt\n        /* \"#utility.yul\":10166:10607   */\n      iszero\n      tag_461\n      jumpi\n        /* \"#utility.yul\":10262:10271   */\n      dup5\n        /* \"#utility.yul\":10256:10260   */\n      dup5\n        /* \"#utility.yul\":10252:10272   */\n      sub\n        /* \"#utility.yul\":10247:10250   */\n      dup10\n        /* \"#utility.yul\":10240:10273   */\n      mstore\n        /* \"#utility.yul\":10313:10319   */\n      dup2\n        /* \"#utility.yul\":10307:10320   */\n      mload\n        /* \"#utility.yul\":10341:10455   */\n      tag_462\n        /* \"#utility.yul\":10450:10454   */\n      dup6\n        /* \"#utility.yul\":10435:10448   */\n      dup3\n        /* \"#utility.yul\":10341:10455   */\n      tag_320\n      jump\t// in\n    tag_462:\n        /* \"#utility.yul\":10333:10455   */\n      swap5\n      pop\n        /* \"#utility.yul\":10478:10563   */\n      tag_463\n        /* \"#utility.yul\":10556:10562   */\n      dup4\n        /* \"#utility.yul\":10478:10563   */\n      tag_321\n      jump\t// in\n    tag_463:\n        /* \"#utility.yul\":10468:10563   */\n      swap3\n      pop\n        /* \"#utility.yul\":10592:10596   */\n      0x20\n        /* \"#utility.yul\":10587:10590   */\n      dup11\n        /* \"#utility.yul\":10583:10597   */\n      add\n        /* \"#utility.yul\":10576:10597   */\n      swap10\n      pop\n        /* \"#utility.yul\":10226:10607   */\n      pop\n        /* \"#utility.yul\":10213:10214   */\n      0x01\n        /* \"#utility.yul\":10210:10211   */\n      dup2\n        /* \"#utility.yul\":10206:10215   */\n      add\n        /* \"#utility.yul\":10201:10215   */\n      swap1\n      pop\n        /* \"#utility.yul\":10166:10607   */\n      jump(tag_459)\n    tag_461:\n        /* \"#utility.yul\":10170:10184   */\n      pop\n        /* \"#utility.yul\":10623:10627   */\n      dup3\n        /* \"#utility.yul\":10616:10627   */\n      swap8\n      pop\n        /* \"#utility.yul\":10643:10646   */\n      dup8\n        /* \"#utility.yul\":10636:10646   */\n      swap6\n      pop\n        /* \"#utility.yul\":9725:10652   */\n      pop\n      pop\n      pop\n      pop\n      pop\n        /* \"#utility.yul\":9561:10652   */\n      swap3\n      swap2\n      pop\n      pop\n      jump\t// out\n        /* \"#utility.yul\":10724:11853   */\n    tag_323:\n        /* \"#utility.yul\":10845:10848   */\n      0x00\n        /* \"#utility.yul\":10881:10885   */\n      0x80\n        /* \"#utility.yul\":10876:10879   */\n      dup4\n        /* \"#utility.yul\":10872:10886   */\n      add\n        /* \"#utility.yul\":10976:10980   */\n      0x00\n        /* \"#utility.yul\":10969:10974   */\n      dup4\n        /* \"#utility.yul\":10965:10981   */\n      add\n        /* \"#utility.yul\":10959:10982   */\n      mload\n        /* \"#utility.yul\":11029:11032   */\n      dup5\n        /* \"#utility.yul\":11023:11027   */\n      dup3\n        /* \"#utility.yul\":11019:11033   */\n      sub\n        /* \"#utility.yul\":11012:11016   */\n      0x00\n        /* \"#utility.yul\":11007:11010   */\n      dup7\n        /* \"#utility.yul\":11003:11017   */\n      add\n        /* \"#utility.yul\":10996:11034   */\n      mstore\n        /* \"#utility.yul\":11055:11128   */\n      tag_465\n        /* \"#utility.yul\":11123:11127   */\n      dup3\n        /* \"#utility.yul\":11109:11121   */\n      dup3\n        /* \"#utility.yul\":11055:11128   */\n      tag_307\n      jump\t// in\n    tag_465:\n        /* \"#utility.yul\":11047:11128   */\n      swap2\n      pop\n        /* \"#utility.yul\":10896:11139   */\n      pop\n        /* \"#utility.yul\":11227:11231   */\n      0x20\n        /* \"#utility.yul\":11220:11225   */\n      dup4\n        /* \"#utility.yul\":11216:11232   */\n      add\n        /* \"#utility.yul\":11210:11233   */\n      mload\n        /* \"#utility.yul\":11280:11283   */\n      dup5\n        /* \"#utility.yul\":11274:11278   */\n      dup3\n        /* \"#utility.yul\":11270:11284   */\n      sub\n        /* \"#utility.yul\":11263:11267   */\n      0x20\n        /* \"#utility.yul\":11258:11261   */\n      dup7\n        /* \"#utility.yul\":11254:11268   */\n      add\n        /* \"#utility.yul\":11247:11285   */\n      mstore\n        /* \"#utility.yul\":11306:11459   */\n      tag_466\n        /* \"#utility.yul\":11454:11458   */\n      dup3\n        /* \"#utility.yul\":11440:11452   */\n      dup3\n        /* \"#utility.yul\":11306:11459   */\n      tag_322\n      jump\t// in\n    tag_466:\n        /* \"#utility.yul\":11298:11459   */\n      swap2\n      pop\n        /* \"#utility.yul\":11149:11470   */\n      pop\n        /* \"#utility.yul\":11557:11561   */\n      0x40\n        /* \"#utility.yul\":11550:11555   */\n      dup4\n        /* \"#utility.yul\":11546:11562   */\n      add\n        /* \"#utility.yul\":11540:11563   */\n      mload\n        /* \"#utility.yul\":11576:11639   */\n      tag_467\n        /* \"#utility.yul\":11633:11637   */\n      0x40\n        /* \"#utility.yul\":11628:11631   */\n      dup7\n        /* \"#utility.yul\":11624:11638   */\n      add\n        /* \"#utility.yul\":11610:11622   */\n      dup3\n        /* \"#utility.yul\":11576:11639   */\n      tag_318\n      jump\t// in\n    tag_467:\n        /* \"#utility.yul\":11480:11649   */\n      pop\n        /* \"#utility.yul\":11734:11738   */\n      0x60\n        /* \"#utility.yul\":11727:11732   */\n      dup4\n        /* \"#utility.yul\":11723:11739   */\n      add\n        /* \"#utility.yul\":11717:11740   */\n      mload\n        /* \"#utility.yul\":11753:11816   */\n      tag_468\n        /* \"#utility.yul\":11810:11814   */\n      0x60\n        /* \"#utility.yul\":11805:11808   */\n      dup7\n        /* \"#utility.yul\":11801:11815   */\n      add\n        /* \"#utility.yul\":11787:11799   */\n      dup3\n        /* \"#utility.yul\":11753:11816   */\n      tag_318\n      jump\t// in\n    tag_468:\n        /* \"#utility.yul\":11659:11826   */\n      pop\n        /* \"#utility.yul\":11843:11847   */\n      dup1\n        /* \"#utility.yul\":11836:11847   */\n      swap2\n      pop\n        /* \"#utility.yul\":10850:11853   */\n      pop\n        /* \"#utility.yul\":10724:11853   */\n      swap3\n      swap2\n      pop\n      pop\n      jump\t// out\n        /* \"#utility.yul\":11859:12139   */\n    tag_324:\n        /* \"#utility.yul\":11990:12000   */\n      0x00\n        /* \"#utility.yul\":12025:12133   */\n      tag_470\n        /* \"#utility.yul\":12129:12132   */\n      dup4\n        /* \"#utility.yul\":12121:12127   */\n      dup4\n        /* \"#utility.yul\":12025:12133   */\n      tag_323\n      jump\t// in\n    tag_470:\n        /* \"#utility.yul\":12011:12133   */\n      swap1\n      pop\n        /* \"#utility.yul\":11859:12139   */\n      swap3\n      swap2\n      pop\n      pop\n      jump\t// out\n        /* \"#utility.yul\":12145:12289   */\n    tag_325:\n        /* \"#utility.yul\":12246:12250   */\n      0x00\n        /* \"#utility.yul\":12278:12282   */\n      0x20\n        /* \"#utility.yul\":12273:12276   */\n      dup3\n        /* \"#utility.yul\":12269:12283   */\n      add\n        /* \"#utility.yul\":12261:12283   */\n      swap1\n      pop\n        /* \"#utility.yul\":12145:12289   */\n      swap2\n      swap1\n      pop\n      jump\t// out\n        /* \"#utility.yul\":12365:13524   */\n    tag_326:\n        /* \"#utility.yul\":12546:12549   */\n      0x00\n        /* \"#utility.yul\":12575:12660   */\n      tag_473\n        /* \"#utility.yul\":12654:12659   */\n      dup3\n        /* \"#utility.yul\":12575:12660   */\n      tag_311\n      jump\t// in\n    tag_473:\n        /* \"#utility.yul\":12676:12793   */\n      tag_474\n        /* \"#utility.yul\":12786:12792   */\n      dup2\n        /* \"#utility.yul\":12781:12784   */\n      dup6\n        /* \"#utility.yul\":12676:12793   */\n      tag_312\n      jump\t// in\n    tag_474:\n        /* \"#utility.yul\":12669:12793   */\n      swap4\n      pop\n        /* \"#utility.yul\":12819:12822   */\n      dup4\n        /* \"#utility.yul\":12864:12868   */\n      0x20\n        /* \"#utility.yul\":12856:12862   */\n      dup3\n        /* \"#utility.yul\":12852:12869   */\n      mul\n        /* \"#utility.yul\":12847:12850   */\n      dup6\n        /* \"#utility.yul\":12843:12870   */\n      add\n        /* \"#utility.yul\":12894:12981   */\n      tag_475\n        /* \"#utility.yul\":12975:12980   */\n      dup6\n        /* \"#utility.yul\":12894:12981   */\n      tag_313\n      jump\t// in\n    tag_475:\n        /* \"#utility.yul\":13004:13011   */\n      dup1\n        /* \"#utility.yul\":13035:13036   */\n      0x00\n        /* \"#utility.yul\":13020:13479   */\n    tag_476:\n        /* \"#utility.yul\":13045:13051   */\n      dup6\n        /* \"#utility.yul\":13042:13043   */\n      dup2\n        /* \"#utility.yul\":13039:13052   */\n      lt\n        /* \"#utility.yul\":13020:13479   */\n      iszero\n      tag_478\n      jumpi\n        /* \"#utility.yul\":13116:13125   */\n      dup5\n        /* \"#utility.yul\":13110:13114   */\n      dup5\n        /* \"#utility.yul\":13106:13126   */\n      sub\n        /* \"#utility.yul\":13101:13104   */\n      dup10\n        /* \"#utility.yul\":13094:13127   */\n      mstore\n        /* \"#utility.yul\":13167:13173   */\n      dup2\n        /* \"#utility.yul\":13161:13174   */\n      mload\n        /* \"#utility.yul\":13195:13321   */\n      tag_479\n        /* \"#utility.yul\":13316:13320   */\n      dup6\n        /* \"#utility.yul\":13301:13314   */\n      dup3\n        /* \"#utility.yul\":13195:13321   */\n      tag_324\n      jump\t// in\n    tag_479:\n        /* \"#utility.yul\":13187:13321   */\n      swap5\n      pop\n        /* \"#utility.yul\":13344:13435   */\n      tag_480\n        /* \"#utility.yul\":13428:13434   */\n      dup4\n        /* \"#utility.yul\":13344:13435   */\n      tag_325\n      jump\t// in\n    tag_480:\n        /* \"#utility.yul\":13334:13435   */\n      swap3\n      pop\n        /* \"#utility.yul\":13464:13468   */\n      0x20\n        /* \"#utility.yul\":13459:13462   */\n      dup11\n        /* \"#utility.yul\":13455:13469   */\n      add\n        /* \"#utility.yul\":13448:13469   */\n      swap10\n      pop\n        /* \"#utility.yul\":13080:13479   */\n      pop\n        /* \"#utility.yul\":13067:13068   */\n      0x01\n        /* \"#utility.yul\":13064:13065   */\n      dup2\n        /* \"#utility.yul\":13060:13069   */\n      add\n        /* \"#utility.yul\":13055:13069   */\n      swap1\n      pop\n        /* \"#utility.yul\":13020:13479   */\n      jump(tag_476)\n    tag_478:\n        /* \"#utility.yul\":13024:13038   */\n      pop\n        /* \"#utility.yul\":13495:13499   */\n      dup3\n        /* \"#utility.yul\":13488:13499   */\n      swap8\n      pop\n        /* \"#utility.yul\":13515:13518   */\n      dup8\n        /* \"#utility.yul\":13508:13518   */\n      swap6\n      pop\n        /* \"#utility.yul\":12551:13524   */\n      pop\n      pop\n      pop\n      pop\n      pop\n        /* \"#utility.yul\":12365:13524   */\n      swap3\n      swap2\n      pop\n      pop\n      jump\t// out\n        /* \"#utility.yul\":13530:14328   */\n    tag_26:\n        /* \"#utility.yul\":13833:13837   */\n      0x00\n        /* \"#utility.yul\":13871:13873   */\n      0x40\n        /* \"#utility.yul\":13860:13869   */\n      dup3\n        /* \"#utility.yul\":13856:13874   */\n      add\n        /* \"#utility.yul\":13848:13874   */\n      swap1\n      pop\n        /* \"#utility.yul\":13920:13929   */\n      dup2\n        /* \"#utility.yul\":13914:13918   */\n      dup2\n        /* \"#utility.yul\":13910:13930   */\n      sub\n        /* \"#utility.yul\":13906:13907   */\n      0x00\n        /* \"#utility.yul\":13895:13904   */\n      dup4\n        /* \"#utility.yul\":13891:13908   */\n      add\n        /* \"#utility.yul\":13884:13931   */\n      mstore\n        /* \"#utility.yul\":13948:14076   */\n      tag_482\n        /* \"#utility.yul\":14071:14075   */\n      dup2\n        /* \"#utility.yul\":14062:14068   */\n      dup6\n        /* \"#utility.yul\":13948:14076   */\n      tag_310\n      jump\t// in\n    tag_482:\n        /* \"#utility.yul\":13940:14076   */\n      swap1\n      pop\n        /* \"#utility.yul\":14123:14132   */\n      dup2\n        /* \"#utility.yul\":14117:14121   */\n      dup2\n        /* \"#utility.yul\":14113:14133   */\n      sub\n        /* \"#utility.yul\":14108:14110   */\n      0x20\n        /* \"#utility.yul\":14097:14106   */\n      dup4\n        /* \"#utility.yul\":14093:14111   */\n      add\n        /* \"#utility.yul\":14086:14134   */\n      mstore\n        /* \"#utility.yul\":14151:14321   */\n      tag_483\n        /* \"#utility.yul\":14316:14320   */\n      dup2\n        /* \"#utility.yul\":14307:14313   */\n      dup5\n        /* \"#utility.yul\":14151:14321   */\n      tag_326\n      jump\t// in\n    tag_483:\n        /* \"#utility.yul\":14143:14321   */\n      swap1\n      pop\n        /* \"#utility.yul\":13530:14328   */\n      swap4\n      swap3\n      pop\n      pop\n      pop\n      jump\t// out\n        /* \"#utility.yul\":14334:14843   */\n    tag_29:\n        /* \"#utility.yul\":14403:14409   */\n      0x00\n        /* \"#utility.yul\":14452:14454   */\n      0x20\n        /* \"#utility.yul\":14440:14449   */\n      dup3\n        /* \"#utility.yul\":14431:14438   */\n      dup5\n        /* \"#utility.yul\":14427:14450   */\n      sub\n        /* \"#utility.yul\":14423:14455   */\n      slt\n        /* \"#utility.yul\":14420:14539   */\n      iszero\n      tag_485\n      jumpi\n        /* \"#utility.yul\":14458:14537   */\n      tag_486\n      tag_288\n      jump\t// in\n    tag_486:\n        /* \"#utility.yul\":14420:14539   */\n    tag_485:\n        /* \"#utility.yul\":14606:14607   */\n      0x00\n        /* \"#utility.yul\":14595:14604   */\n      dup3\n        /* \"#utility.yul\":14591:14608   */\n      add\n        /* \"#utility.yul\":14578:14609   */\n      calldataload\n        /* \"#utility.yul\":14636:14654   */\n      0xffffffffffffffff\n        /* \"#utility.yul\":14628:14634   */\n      dup2\n        /* \"#utility.yul\":14625:14655   */\n      gt\n        /* \"#utility.yul\":14622:14739   */\n      iszero\n      tag_487\n      jumpi\n        /* \"#utility.yul\":14658:14737   */\n      tag_488\n      tag_289\n      jump\t// in\n    tag_488:\n        /* \"#utility.yul\":14622:14739   */\n    tag_487:\n        /* \"#utility.yul\":14763:14826   */\n      tag_489\n        /* \"#utility.yul\":14818:14825   */\n      dup5\n        /* \"#utility.yul\":14809:14815   */\n      dup3\n        /* \"#utility.yul\":14798:14807   */\n      dup6\n        /* \"#utility.yul\":14794:14816   */\n      add\n        /* \"#utility.yul\":14763:14826   */\n      tag_298\n      jump\t// in\n    tag_489:\n        /* \"#utility.yul\":14753:14826   */\n      swap2\n      pop\n        /* \"#utility.yul\":14549:14836   */\n      pop\n        /* \"#utility.yul\":14334:14843   */\n      swap3\n      swap2\n      pop\n      pop\n      jump\t// out\n        /* \"#utility.yul\":14849:15018   */\n    tag_327:\n        /* \"#utility.yul\":14933:14944   */\n      0x00\n        /* \"#utility.yul\":14967:14973   */\n      dup3\n        /* \"#utility.yul\":14962:14965   */\n      dup3\n        /* \"#utility.yul\":14955:14974   */\n      mstore\n        /* \"#utility.yul\":15007:15011   */\n      0x20\n        /* \"#utility.yul\":15002:15005   */\n      dup3\n        /* \"#utility.yul\":14998:15012   */\n      add\n        /* \"#utility.yul\":14983:15012   */\n      swap1\n      pop\n        /* \"#utility.yul\":14849:15018   */\n      swap3\n      swap2\n      pop\n      pop\n      jump\t// out\n        /* \"#utility.yul\":15024:15401   */\n    tag_328:\n        /* \"#utility.yul\":15112:15115   */\n      0x00\n        /* \"#utility.yul\":15140:15179   */\n      tag_492\n        /* \"#utility.yul\":15173:15178   */\n      dup3\n        /* \"#utility.yul\":15140:15179   */\n      tag_304\n      jump\t// in\n    tag_492:\n        /* \"#utility.yul\":15195:15266   */\n      tag_493\n        /* \"#utility.yul\":15259:15265   */\n      dup2\n        /* \"#utility.yul\":15254:15257   */\n      dup6\n        /* \"#utility.yul\":15195:15266   */\n      tag_327\n      jump\t// in\n    tag_493:\n        /* \"#utility.yul\":15188:15266   */\n      swap4\n      pop\n        /* \"#utility.yul\":15275:15340   */\n      tag_494\n        /* \"#utility.yul\":15333:15339   */\n      dup2\n        /* \"#utility.yul\":15328:15331   */\n      dup6\n        /* \"#utility.yul\":15321:15325   */\n      0x20\n        /* \"#utility.yul\":15314:15319   */\n      dup7\n        /* \"#utility.yul\":15310:15326   */\n      add\n        /* \"#utility.yul\":15275:15340   */\n      tag_306\n      jump\t// in\n    tag_494:\n        /* \"#utility.yul\":15365:15394   */\n      tag_495\n        /* \"#utility.yul\":15387:15393   */\n      dup2\n        /* \"#utility.yul\":15365:15394   */\n      tag_292\n      jump\t// in\n    tag_495:\n        /* \"#utility.yul\":15360:15363   */\n      dup5\n        /* \"#utility.yul\":15356:15395   */\n      add\n        /* \"#utility.yul\":15349:15395   */\n      swap2\n      pop\n        /* \"#utility.yul\":15116:15401   */\n      pop\n        /* \"#utility.yul\":15024:15401   */\n      swap3\n      swap2\n      pop\n      pop\n      jump\t// out\n        /* \"#utility.yul\":15407:15616   */\n    tag_329:\n        /* \"#utility.yul\":15531:15542   */\n      0x00\n        /* \"#utility.yul\":15565:15571   */\n      dup3\n        /* \"#utility.yul\":15560:15563   */\n      dup3\n        /* \"#utility.yul\":15553:15572   */\n      mstore\n        /* \"#utility.yul\":15605:15609   */\n      0x20\n        /* \"#utility.yul\":15600:15603   */\n      dup3\n        /* \"#utility.yul\":15596:15610   */\n      add\n        /* \"#utility.yul\":15581:15610   */\n      swap1\n      pop\n        /* \"#utility.yul\":15407:15616   */\n      swap3\n      swap2\n      pop\n      pop\n      jump\t// out\n        /* \"#utility.yul\":15680:16791   */\n    tag_330:\n        /* \"#utility.yul\":15849:15852   */\n      0x00\n        /* \"#utility.yul\":15878:15957   */\n      tag_498\n        /* \"#utility.yul\":15951:15956   */\n      dup3\n        /* \"#utility.yul\":15878:15957   */\n      tag_314\n      jump\t// in\n    tag_498:\n        /* \"#utility.yul\":15973:16084   */\n      tag_499\n        /* \"#utility.yul\":16077:16083   */\n      dup2\n        /* \"#utility.yul\":16072:16075   */\n      dup6\n        /* \"#utility.yul\":15973:16084   */\n      tag_329\n      jump\t// in\n    tag_499:\n        /* \"#utility.yul\":15966:16084   */\n      swap4\n      pop\n        /* \"#utility.yul\":16110:16113   */\n      dup4\n        /* \"#utility.yul\":16155:16159   */\n      0x20\n        /* \"#utility.yul\":16147:16153   */\n      dup3\n        /* \"#utility.yul\":16143:16160   */\n      mul\n        /* \"#utility.yul\":16138:16141   */\n      dup6\n        /* \"#utility.yul\":16134:16161   */\n      add\n        /* \"#utility.yul\":16185:16266   */\n      tag_500\n        /* \"#utility.yul\":16260:16265   */\n      dup6\n        /* \"#utility.yul\":16185:16266   */\n      tag_316\n      jump\t// in\n    tag_500:\n        /* \"#utility.yul\":16289:16296   */\n      dup1\n        /* \"#utility.yul\":16320:16321   */\n      0x00\n        /* \"#utility.yul\":16305:16746   */\n    tag_501:\n        /* \"#utility.yul\":16330:16336   */\n      dup6\n        /* \"#utility.yul\":16327:16328   */\n      dup2\n        /* \"#utility.yul\":16324:16337   */\n      lt\n        /* \"#utility.yul\":16305:16746   */\n      iszero\n      tag_503\n      jumpi\n        /* \"#utility.yul\":16401:16410   */\n      dup5\n        /* \"#utility.yul\":16395:16399   */\n      dup5\n        /* \"#utility.yul\":16391:16411   */\n      sub\n        /* \"#utility.yul\":16386:16389   */\n      dup10\n        /* \"#utility.yul\":16379:16412   */\n      mstore\n        /* \"#utility.yul\":16452:16458   */\n      dup2\n        /* \"#utility.yul\":16446:16459   */\n      mload\n        /* \"#utility.yul\":16480:16594   */\n      tag_504\n        /* \"#utility.yul\":16589:16593   */\n      dup6\n        /* \"#utility.yul\":16574:16587   */\n      dup3\n        /* \"#utility.yul\":16480:16594   */\n      tag_320\n      jump\t// in\n    tag_504:\n        /* \"#utility.yul\":16472:16594   */\n      swap5\n      pop\n        /* \"#utility.yul\":16617:16702   */\n      tag_505\n        /* \"#utility.yul\":16695:16701   */\n      dup4\n        /* \"#utility.yul\":16617:16702   */\n      tag_321\n      jump\t// in\n    tag_505:\n        /* \"#utility.yul\":16607:16702   */\n      swap3\n      pop\n        /* \"#utility.yul\":16731:16735   */\n      0x20\n        /* \"#utility.yul\":16726:16729   */\n      dup11\n        /* \"#utility.yul\":16722:16736   */\n      add\n        /* \"#utility.yul\":16715:16736   */\n      swap10\n      pop\n        /* \"#utility.yul\":16365:16746   */\n      pop\n        /* \"#utility.yul\":16352:16353   */\n      0x01\n        /* \"#utility.yul\":16349:16350   */\n      dup2\n        /* \"#utility.yul\":16345:16354   */\n      add\n        /* \"#utility.yul\":16340:16354   */\n      swap1\n      pop\n        /* \"#utility.yul\":16305:16746   */\n      jump(tag_501)\n    tag_503:\n        /* \"#utility.yul\":16309:16323   */\n      pop\n        /* \"#utility.yul\":16762:16766   */\n      dup3\n        /* \"#utility.yul\":16755:16766   */\n      swap8\n      pop\n        /* \"#utility.yul\":16782:16785   */\n      dup8\n        /* \"#utility.yul\":16775:16785   */\n      swap6\n      pop\n        /* \"#utility.yul\":15854:16791   */\n      pop\n      pop\n      pop\n      pop\n      pop\n        /* \"#utility.yul\":15680:16791   */\n      swap3\n      swap2\n      pop\n      pop\n      jump\t// out\n        /* \"#utility.yul\":16797:17471   */\n    tag_32:\n        /* \"#utility.yul\":17038:17042   */\n      0x00\n        /* \"#utility.yul\":17076:17078   */\n      0x40\n        /* \"#utility.yul\":17065:17074   */\n      dup3\n        /* \"#utility.yul\":17061:17079   */\n      add\n        /* \"#utility.yul\":17053:17079   */\n      swap1\n      pop\n        /* \"#utility.yul\":17125:17134   */\n      dup2\n        /* \"#utility.yul\":17119:17123   */\n      dup2\n        /* \"#utility.yul\":17115:17135   */\n      sub\n        /* \"#utility.yul\":17111:17112   */\n      0x00\n        /* \"#utility.yul\":17100:17109   */\n      dup4\n        /* \"#utility.yul\":17096:17113   */\n      add\n        /* \"#utility.yul\":17089:17136   */\n      mstore\n        /* \"#utility.yul\":17153:17231   */\n      tag_507\n        /* \"#utility.yul\":17226:17230   */\n      dup2\n        /* \"#utility.yul\":17217:17223   */\n      dup6\n        /* \"#utility.yul\":17153:17231   */\n      tag_328\n      jump\t// in\n    tag_507:\n        /* \"#utility.yul\":17145:17231   */\n      swap1\n      pop\n        /* \"#utility.yul\":17278:17287   */\n      dup2\n        /* \"#utility.yul\":17272:17276   */\n      dup2\n        /* \"#utility.yul\":17268:17288   */\n      sub\n        /* \"#utility.yul\":17263:17265   */\n      0x20\n        /* \"#utility.yul\":17252:17261   */\n      dup4\n        /* \"#utility.yul\":17248:17266   */\n      add\n        /* \"#utility.yul\":17241:17289   */\n      mstore\n        /* \"#utility.yul\":17306:17464   */\n      tag_508\n        /* \"#utility.yul\":17459:17463   */\n      dup2\n        /* \"#utility.yul\":17450:17456   */\n      dup5\n        /* \"#utility.yul\":17306:17464   */\n      tag_330\n      jump\t// in\n    tag_508:\n        /* \"#utility.yul\":17298:17464   */\n      swap1\n      pop\n        /* \"#utility.yul\":16797:17471   */\n      swap4\n      swap3\n      pop\n      pop\n      pop\n      jump\t// out\n        /* \"#utility.yul\":17543:18682   */\n    tag_331:\n        /* \"#utility.yul\":17674:17677   */\n      0x00\n        /* \"#utility.yul\":17710:17714   */\n      0x80\n        /* \"#utility.yul\":17705:17708   */\n      dup4\n        /* \"#utility.yul\":17701:17715   */\n      add\n        /* \"#utility.yul\":17805:17809   */\n      0x00\n        /* \"#utility.yul\":17798:17803   */\n      dup4\n        /* \"#utility.yul\":17794:17810   */\n      add\n        /* \"#utility.yul\":17788:17811   */\n      mload\n        /* \"#utility.yul\":17858:17861   */\n      dup5\n        /* \"#utility.yul\":17852:17856   */\n      dup3\n        /* \"#utility.yul\":17848:17862   */\n      sub\n        /* \"#utility.yul\":17841:17845   */\n      0x00\n        /* \"#utility.yul\":17836:17839   */\n      dup7\n        /* \"#utility.yul\":17832:17846   */\n      add\n        /* \"#utility.yul\":17825:17863   */\n      mstore\n        /* \"#utility.yul\":17884:17957   */\n      tag_510\n        /* \"#utility.yul\":17952:17956   */\n      dup3\n        /* \"#utility.yul\":17938:17950   */\n      dup3\n        /* \"#utility.yul\":17884:17957   */\n      tag_307\n      jump\t// in\n    tag_510:\n        /* \"#utility.yul\":17876:17957   */\n      swap2\n      pop\n        /* \"#utility.yul\":17725:17968   */\n      pop\n        /* \"#utility.yul\":18056:18060   */\n      0x20\n        /* \"#utility.yul\":18049:18054   */\n      dup4\n        /* \"#utility.yul\":18045:18061   */\n      add\n        /* \"#utility.yul\":18039:18062   */\n      mload\n        /* \"#utility.yul\":18109:18112   */\n      dup5\n        /* \"#utility.yul\":18103:18107   */\n      dup3\n        /* \"#utility.yul\":18099:18113   */\n      sub\n        /* \"#utility.yul\":18092:18096   */\n      0x20\n        /* \"#utility.yul\":18087:18090   */\n      dup7\n        /* \"#utility.yul\":18083:18097   */\n      add\n        /* \"#utility.yul\":18076:18114   */\n      mstore\n        /* \"#utility.yul\":18135:18288   */\n      tag_511\n        /* \"#utility.yul\":18283:18287   */\n      dup3\n        /* \"#utility.yul\":18269:18281   */\n      dup3\n        /* \"#utility.yul\":18135:18288   */\n      tag_322\n      jump\t// in\n    tag_511:\n        /* \"#utility.yul\":18127:18288   */\n      swap2\n      pop\n        /* \"#utility.yul\":17978:18299   */\n      pop\n        /* \"#utility.yul\":18386:18390   */\n      0x40\n        /* \"#utility.yul\":18379:18384   */\n      dup4\n        /* \"#utility.yul\":18375:18391   */\n      add\n        /* \"#utility.yul\":18369:18392   */\n      mload\n        /* \"#utility.yul\":18405:18468   */\n      tag_512\n        /* \"#utility.yul\":18462:18466   */\n      0x40\n        /* \"#utility.yul\":18457:18460   */\n      dup7\n        /* \"#utility.yul\":18453:18467   */\n      add\n        /* \"#utility.yul\":18439:18451   */\n      dup3\n        /* \"#utility.yul\":18405:18468   */\n      tag_318\n      jump\t// in\n    tag_512:\n        /* \"#utility.yul\":18309:18478   */\n      pop\n        /* \"#utility.yul\":18563:18567   */\n      0x60\n        /* \"#utility.yul\":18556:18561   */\n      dup4\n        /* \"#utility.yul\":18552:18568   */\n      add\n        /* \"#utility.yul\":18546:18569   */\n      mload\n        /* \"#utility.yul\":18582:18645   */\n      tag_513\n        /* \"#utility.yul\":18639:18643   */\n      0x60\n        /* \"#utility.yul\":18634:18637   */\n      dup7\n        /* \"#utility.yul\":18630:18644   */\n      add\n        /* \"#utility.yul\":18616:18628   */\n      dup3\n        /* \"#utility.yul\":18582:18645   */\n      tag_318\n      jump\t// in\n    tag_513:\n        /* \"#utility.yul\":18488:18655   */\n      pop\n        /* \"#utility.yul\":18672:18676   */\n      dup1\n        /* \"#utility.yul\":18665:18676   */\n      swap2\n      pop\n        /* \"#utility.yul\":17679:18682   */\n      pop\n        /* \"#utility.yul\":17543:18682   */\n      swap3\n      swap2\n      pop\n      pop\n      jump\t// out\n        /* \"#utility.yul\":18688:19085   */\n    tag_37:\n        /* \"#utility.yul\":18843:18847   */\n      0x00\n        /* \"#utility.yul\":18881:18883   */\n      0x20\n        /* \"#utility.yul\":18870:18879   */\n      dup3\n        /* \"#utility.yul\":18866:18884   */\n      add\n        /* \"#utility.yul\":18858:18884   */\n      swap1\n      pop\n        /* \"#utility.yul\":18930:18939   */\n      dup2\n        /* \"#utility.yul\":18924:18928   */\n      dup2\n        /* \"#utility.yul\":18920:18940   */\n      sub\n        /* \"#utility.yul\":18916:18917   */\n      0x00\n        /* \"#utility.yul\":18905:18914   */\n      dup4\n        /* \"#utility.yul\":18901:18918   */\n      add\n        /* \"#utility.yul\":18894:18941   */\n      mstore\n        /* \"#utility.yul\":18958:19078   */\n      tag_515\n        /* \"#utility.yul\":19073:19077   */\n      dup2\n        /* \"#utility.yul\":19064:19070   */\n      dup5\n        /* \"#utility.yul\":18958:19078   */\n      tag_331\n      jump\t// in\n    tag_515:\n        /* \"#utility.yul\":18950:19078   */\n      swap1\n      pop\n        /* \"#utility.yul\":18688:19085   */\n      swap3\n      swap2\n      pop\n      pop\n      jump\t// out\n        /* \"#utility.yul\":19091:19504   */\n    tag_42:\n        /* \"#utility.yul\":19254:19258   */\n      0x00\n        /* \"#utility.yul\":19292:19294   */\n      0x20\n        /* \"#utility.yul\":19281:19290   */\n      dup3\n        /* \"#utility.yul\":19277:19295   */\n      add\n        /* \"#utility.yul\":19269:19295   */\n      swap1\n      pop\n        /* \"#utility.yul\":19341:19350   */\n      dup2\n        /* \"#utility.yul\":19335:19339   */\n      dup2\n        /* \"#utility.yul\":19331:19351   */\n      sub\n        /* \"#utility.yul\":19327:19328   */\n      0x00\n        /* \"#utility.yul\":19316:19325   */\n      dup4\n        /* \"#utility.yul\":19312:19329   */\n      add\n        /* \"#utility.yul\":19305:19352   */\n      mstore\n        /* \"#utility.yul\":19369:19497   */\n      tag_517\n        /* \"#utility.yul\":19492:19496   */\n      dup2\n        /* \"#utility.yul\":19483:19489   */\n      dup5\n        /* \"#utility.yul\":19369:19497   */\n      tag_310\n      jump\t// in\n    tag_517:\n        /* \"#utility.yul\":19361:19497   */\n      swap1\n      pop\n        /* \"#utility.yul\":19091:19504   */\n      swap3\n      swap2\n      pop\n      pop\n      jump\t// out\n        /* \"#utility.yul\":19510:19628   */\n    tag_332:\n        /* \"#utility.yul\":19597:19621   */\n      tag_519\n        /* \"#utility.yul\":19615:19620   */\n      dup2\n        /* \"#utility.yul\":19597:19621   */\n      tag_317\n      jump\t// in\n    tag_519:\n        /* \"#utility.yul\":19592:19595   */\n      dup3\n        /* \"#utility.yul\":19585:19622   */\n      mstore\n        /* \"#utility.yul\":19510:19628   */\n      pop\n      pop\n      jump\t// out\n        /* \"#utility.yul\":19634:19856   */\n    tag_47:\n        /* \"#utility.yul\":19727:19731   */\n      0x00\n        /* \"#utility.yul\":19765:19767   */\n      0x20\n        /* \"#utility.yul\":19754:19763   */\n      dup3\n        /* \"#utility.yul\":19750:19768   */\n      add\n        /* \"#utility.yul\":19742:19768   */\n      swap1\n      pop\n        /* \"#utility.yul\":19778:19849   */\n      tag_521\n        /* \"#utility.yul\":19846:19847   */\n      0x00\n        /* \"#utility.yul\":19835:19844   */\n      dup4\n        /* \"#utility.yul\":19831:19848   */\n      add\n        /* \"#utility.yul\":19822:19828   */\n      dup5\n        /* \"#utility.yul\":19778:19849   */\n      tag_332\n      jump\t// in\n    tag_521:\n        /* \"#utility.yul\":19634:19856   */\n      swap3\n      swap2\n      pop\n      pop\n      jump\t// out\n        /* \"#utility.yul\":19862:20198   */\n    tag_333:\n        /* \"#utility.yul\":19964:19968   */\n      0x00\n        /* \"#utility.yul\":20054:20072   */\n      0xffffffffffffffff\n        /* \"#utility.yul\":20046:20052   */\n      dup3\n        /* \"#utility.yul\":20043:20073   */\n      gt\n        /* \"#utility.yul\":20040:20096   */\n      iszero\n      tag_523\n      jumpi\n        /* \"#utility.yul\":20076:20094   */\n      tag_524\n      tag_74\n      jump\t// in\n    tag_524:\n        /* \"#utility.yul\":20040:20096   */\n    tag_523:\n        /* \"#utility.yul\":20126:20130   */\n      0x20\n        /* \"#utility.yul\":20118:20124   */\n      dup3\n        /* \"#utility.yul\":20114:20131   */\n      mul\n        /* \"#utility.yul\":20106:20131   */\n      swap1\n      pop\n        /* \"#utility.yul\":20186:20190   */\n      0x20\n        /* \"#utility.yul\":20180:20184   */\n      dup2\n        /* \"#utility.yul\":20176:20191   */\n      add\n        /* \"#utility.yul\":20168:20191   */\n      swap1\n      pop\n        /* \"#utility.yul\":19862:20198   */\n      swap2\n      swap1\n      pop\n      jump\t// out\n        /* \"#utility.yul\":20204:20321   */\n    tag_334:\n        /* \"#utility.yul\":20313:20314   */\n      0x00\n        /* \"#utility.yul\":20310:20311   */\n      dup1\n        /* \"#utility.yul\":20303:20315   */\n      revert\n        /* \"#utility.yul\":20327:20444   */\n    tag_335:\n        /* \"#utility.yul\":20436:20437   */\n      0x00\n        /* \"#utility.yul\":20433:20434   */\n      dup1\n        /* \"#utility.yul\":20426:20438   */\n      revert\n        /* \"#utility.yul\":20450:20567   */\n    tag_336:\n        /* \"#utility.yul\":20559:20560   */\n      0x00\n        /* \"#utility.yul\":20556:20557   */\n      dup1\n        /* \"#utility.yul\":20549:20561   */\n      revert\n        /* \"#utility.yul\":20573:20695   */\n    tag_337:\n        /* \"#utility.yul\":20646:20670   */\n      tag_529\n        /* \"#utility.yul\":20664:20669   */\n      dup2\n        /* \"#utility.yul\":20646:20670   */\n      tag_317\n      jump\t// in\n    tag_529:\n        /* \"#utility.yul\":20639:20644   */\n      dup2\n        /* \"#utility.yul\":20636:20671   */\n      eq\n        /* \"#utility.yul\":20626:20689   */\n      tag_530\n      jumpi\n        /* \"#utility.yul\":20685:20686   */\n      0x00\n        /* \"#utility.yul\":20682:20683   */\n      dup1\n        /* \"#utility.yul\":20675:20687   */\n      revert\n        /* \"#utility.yul\":20626:20689   */\n    tag_530:\n        /* \"#utility.yul\":20573:20695   */\n      pop\n      jump\t// out\n        /* \"#utility.yul\":20701:20840   */\n    tag_338:\n        /* \"#utility.yul\":20747:20752   */\n      0x00\n        /* \"#utility.yul\":20785:20791   */\n      dup2\n        /* \"#utility.yul\":20772:20792   */\n      calldataload\n        /* \"#utility.yul\":20763:20792   */\n      swap1\n      pop\n        /* \"#utility.yul\":20801:20834   */\n      tag_532\n        /* \"#utility.yul\":20828:20833   */\n      dup2\n        /* \"#utility.yul\":20801:20834   */\n      tag_337\n      jump\t// in\n    tag_532:\n        /* \"#utility.yul\":20701:20840   */\n      swap3\n      swap2\n      pop\n      pop\n      jump\t// out\n        /* \"#utility.yul\":20875:22634   */\n    tag_339:\n        /* \"#utility.yul\":20949:20954   */\n      0x00\n        /* \"#utility.yul\":20993:20997   */\n      0xa0\n        /* \"#utility.yul\":20981:20990   */\n      dup3\n        /* \"#utility.yul\":20976:20979   */\n      dup5\n        /* \"#utility.yul\":20972:20991   */\n      sub\n        /* \"#utility.yul\":20968:20998   */\n      slt\n        /* \"#utility.yul\":20965:21082   */\n      iszero\n      tag_534\n      jumpi\n        /* \"#utility.yul\":21001:21080   */\n      tag_535\n      tag_335\n      jump\t// in\n    tag_535:\n        /* \"#utility.yul\":20965:21082   */\n    tag_534:\n        /* \"#utility.yul\":21100:21121   */\n      tag_536\n        /* \"#utility.yul\":21116:21120   */\n      0xa0\n        /* \"#utility.yul\":21100:21121   */\n      tag_294\n      jump\t// in\n    tag_536:\n        /* \"#utility.yul\":21091:21121   */\n      swap1\n      pop\n        /* \"#utility.yul\":21213:21214   */\n      0x00\n        /* \"#utility.yul\":21202:21211   */\n      dup3\n        /* \"#utility.yul\":21198:21215   */\n      add\n        /* \"#utility.yul\":21185:21216   */\n      calldataload\n        /* \"#utility.yul\":21243:21261   */\n      0xffffffffffffffff\n        /* \"#utility.yul\":21235:21241   */\n      dup2\n        /* \"#utility.yul\":21232:21262   */\n      gt\n        /* \"#utility.yul\":21229:21346   */\n      iszero\n      tag_537\n      jumpi\n        /* \"#utility.yul\":21265:21344   */\n      tag_538\n      tag_336\n      jump\t// in\n    tag_538:\n        /* \"#utility.yul\":21229:21346   */\n    tag_537:\n        /* \"#utility.yul\":21385:21444   */\n      tag_539\n        /* \"#utility.yul\":21440:21443   */\n      dup5\n        /* \"#utility.yul\":21431:21437   */\n      dup3\n        /* \"#utility.yul\":21420:21429   */\n      dup6\n        /* \"#utility.yul\":21416:21438   */\n      add\n        /* \"#utility.yul\":21385:21444   */\n      tag_298\n      jump\t// in\n    tag_539:\n        /* \"#utility.yul\":21378:21382   */\n      0x00\n        /* \"#utility.yul\":21371:21376   */\n      dup4\n        /* \"#utility.yul\":21367:21383   */\n      add\n        /* \"#utility.yul\":21360:21445   */\n      mstore\n        /* \"#utility.yul\":21131:21456   */\n      pop\n        /* \"#utility.yul\":21549:21551   */\n      0x20\n        /* \"#utility.yul\":21538:21547   */\n      dup3\n        /* \"#utility.yul\":21534:21552   */\n      add\n        /* \"#utility.yul\":21521:21553   */\n      calldataload\n        /* \"#utility.yul\":21580:21598   */\n      0xffffffffffffffff\n        /* \"#utility.yul\":21572:21578   */\n      dup2\n        /* \"#utility.yul\":21569:21599   */\n      gt\n        /* \"#utility.yul\":21566:21683   */\n      iszero\n      tag_540\n      jumpi\n        /* \"#utility.yul\":21602:21681   */\n      tag_541\n      tag_336\n      jump\t// in\n    tag_541:\n        /* \"#utility.yul\":21566:21683   */\n    tag_540:\n        /* \"#utility.yul\":21722:21781   */\n      tag_542\n        /* \"#utility.yul\":21777:21780   */\n      dup5\n        /* \"#utility.yul\":21768:21774   */\n      dup3\n        /* \"#utility.yul\":21757:21766   */\n      dup6\n        /* \"#utility.yul\":21753:21775   */\n      add\n        /* \"#utility.yul\":21722:21781   */\n      tag_298\n      jump\t// in\n    tag_542:\n        /* \"#utility.yul\":21715:21719   */\n      0x20\n        /* \"#utility.yul\":21708:21713   */\n      dup4\n        /* \"#utility.yul\":21704:21720   */\n      add\n        /* \"#utility.yul\":21697:21782   */\n      mstore\n        /* \"#utility.yul\":21466:21793   */\n      pop\n        /* \"#utility.yul\":21884:21886   */\n      0x40\n        /* \"#utility.yul\":21873:21882   */\n      dup3\n        /* \"#utility.yul\":21869:21887   */\n      add\n        /* \"#utility.yul\":21856:21888   */\n      calldataload\n        /* \"#utility.yul\":21915:21933   */\n      0xffffffffffffffff\n        /* \"#utility.yul\":21907:21913   */\n      dup2\n        /* \"#utility.yul\":21904:21934   */\n      gt\n        /* \"#utility.yul\":21901:22018   */\n      iszero\n      tag_543\n      jumpi\n        /* \"#utility.yul\":21937:22016   */\n      tag_544\n      tag_336\n      jump\t// in\n    tag_544:\n        /* \"#utility.yul\":21901:22018   */\n    tag_543:\n        /* \"#utility.yul\":22057:22116   */\n      tag_545\n        /* \"#utility.yul\":22112:22115   */\n      dup5\n        /* \"#utility.yul\":22103:22109   */\n      dup3\n        /* \"#utility.yul\":22092:22101   */\n      dup6\n        /* \"#utility.yul\":22088:22110   */\n      add\n        /* \"#utility.yul\":22057:22116   */\n      tag_298\n      jump\t// in\n    tag_545:\n        /* \"#utility.yul\":22050:22054   */\n      0x40\n        /* \"#utility.yul\":22043:22048   */\n      dup4\n        /* \"#utility.yul\":22039:22055   */\n      add\n        /* \"#utility.yul\":22032:22117   */\n      mstore\n        /* \"#utility.yul\":21803:22128   */\n      pop\n        /* \"#utility.yul\":22220:22222   */\n      0x60\n        /* \"#utility.yul\":22209:22218   */\n      dup3\n        /* \"#utility.yul\":22205:22223   */\n      add\n        /* \"#utility.yul\":22192:22224   */\n      calldataload\n        /* \"#utility.yul\":22251:22269   */\n      0xffffffffffffffff\n        /* \"#utility.yul\":22243:22249   */\n      dup2\n        /* \"#utility.yul\":22240:22270   */\n      gt\n        /* \"#utility.yul\":22237:22354   */\n      iszero\n      tag_546\n      jumpi\n        /* \"#utility.yul\":22273:22352   */\n      tag_547\n      tag_336\n      jump\t// in\n    tag_547:\n        /* \"#utility.yul\":22237:22354   */\n    tag_546:\n        /* \"#utility.yul\":22393:22452   */\n      tag_548\n        /* \"#utility.yul\":22448:22451   */\n      dup5\n        /* \"#utility.yul\":22439:22445   */\n      dup3\n        /* \"#utility.yul\":22428:22437   */\n      dup6\n        /* \"#utility.yul\":22424:22446   */\n      add\n        /* \"#utility.yul\":22393:22452   */\n      tag_298\n      jump\t// in\n    tag_548:\n        /* \"#utility.yul\":22386:22390   */\n      0x60\n        /* \"#utility.yul\":22379:22384   */\n      dup4\n        /* \"#utility.yul\":22375:22391   */\n      add\n        /* \"#utility.yul\":22368:22453   */\n      mstore\n        /* \"#utility.yul\":22138:22464   */\n      pop\n        /* \"#utility.yul\":22524:22527   */\n      0x80\n        /* \"#utility.yul\":22566:22615   */\n      tag_549\n        /* \"#utility.yul\":22611:22614   */\n      dup5\n        /* \"#utility.yul\":22602:22608   */\n      dup3\n        /* \"#utility.yul\":22591:22600   */\n      dup6\n        /* \"#utility.yul\":22587:22609   */\n      add\n        /* \"#utility.yul\":22566:22615   */\n      tag_338\n      jump\t// in\n    tag_549:\n        /* \"#utility.yul\":22559:22563   */\n      0x80\n        /* \"#utility.yul\":22552:22557   */\n      dup4\n        /* \"#utility.yul\":22548:22564   */\n      add\n        /* \"#utility.yul\":22541:22616   */\n      mstore\n        /* \"#utility.yul\":22474:22627   */\n      pop\n        /* \"#utility.yul\":20875:22634   */\n      swap3\n      swap2\n      pop\n      pop\n      jump\t// out\n        /* \"#utility.yul\":22671:23661   */\n    tag_340:\n        /* \"#utility.yul\":22792:22797   */\n      0x00\n        /* \"#utility.yul\":22817:22923   */\n      tag_551\n        /* \"#utility.yul\":22833:22922   */\n      tag_552\n        /* \"#utility.yul\":22915:22921   */\n      dup5\n        /* \"#utility.yul\":22833:22922   */\n      tag_333\n      jump\t// in\n    tag_552:\n        /* \"#utility.yul\":22817:22923   */\n      tag_294\n      jump\t// in\n    tag_551:\n        /* \"#utility.yul\":22808:22923   */\n      swap1\n      pop\n        /* \"#utility.yul\":22943:22948   */\n      dup1\n        /* \"#utility.yul\":22972:22978   */\n      dup4\n        /* \"#utility.yul\":22965:22970   */\n      dup3\n        /* \"#utility.yul\":22958:22979   */\n      mstore\n        /* \"#utility.yul\":23006:23010   */\n      0x20\n        /* \"#utility.yul\":22999:23004   */\n      dup3\n        /* \"#utility.yul\":22995:23011   */\n      add\n        /* \"#utility.yul\":22988:23011   */\n      swap1\n      pop\n        /* \"#utility.yul\":23059:23063   */\n      0x20\n        /* \"#utility.yul\":23051:23057   */\n      dup5\n        /* \"#utility.yul\":23047:23064   */\n      mul\n        /* \"#utility.yul\":23039:23045   */\n      dup4\n        /* \"#utility.yul\":23035:23065   */\n      add\n        /* \"#utility.yul\":23088:23091   */\n      dup6\n        /* \"#utility.yul\":23080:23086   */\n      dup2\n        /* \"#utility.yul\":23077:23092   */\n      gt\n        /* \"#utility.yul\":23074:23196   */\n      iszero\n      tag_553\n      jumpi\n        /* \"#utility.yul\":23107:23186   */\n      tag_554\n      tag_334\n      jump\t// in\n    tag_554:\n        /* \"#utility.yul\":23074:23196   */\n    tag_553:\n        /* \"#utility.yul\":23222:23228   */\n      dup4\n        /* \"#utility.yul\":23205:23655   */\n    tag_555:\n        /* \"#utility.yul\":23239:23245   */\n      dup2\n        /* \"#utility.yul\":23234:23237   */\n      dup2\n        /* \"#utility.yul\":23231:23246   */\n      lt\n        /* \"#utility.yul\":23205:23655   */\n      iszero\n      tag_557\n      jumpi\n        /* \"#utility.yul\":23328:23331   */\n      dup1\n        /* \"#utility.yul\":23315:23332   */\n      calldataload\n        /* \"#utility.yul\":23364:23382   */\n      0xffffffffffffffff\n        /* \"#utility.yul\":23351:23362   */\n      dup2\n        /* \"#utility.yul\":23348:23383   */\n      gt\n        /* \"#utility.yul\":23345:23467   */\n      iszero\n      tag_558\n      jumpi\n        /* \"#utility.yul\":23386:23465   */\n      tag_559\n      tag_290\n      jump\t// in\n    tag_559:\n        /* \"#utility.yul\":23345:23467   */\n    tag_558:\n        /* \"#utility.yul\":23510:23521   */\n      dup1\n        /* \"#utility.yul\":23502:23508   */\n      dup7\n        /* \"#utility.yul\":23498:23522   */\n      add\n        /* \"#utility.yul\":23548:23610   */\n      tag_560\n        /* \"#utility.yul\":23606:23609   */\n      dup10\n        /* \"#utility.yul\":23594:23604   */\n      dup3\n        /* \"#utility.yul\":23548:23610   */\n      tag_339\n      jump\t// in\n    tag_560:\n        /* \"#utility.yul\":23543:23546   */\n      dup6\n        /* \"#utility.yul\":23536:23611   */\n      mstore\n        /* \"#utility.yul\":23640:23644   */\n      0x20\n        /* \"#utility.yul\":23635:23638   */\n      dup6\n        /* \"#utility.yul\":23631:23645   */\n      add\n        /* \"#utility.yul\":23624:23645   */\n      swap5\n      pop\n        /* \"#utility.yul\":23281:23655   */\n      pop\n      pop\n        /* \"#utility.yul\":23265:23269   */\n      0x20\n        /* \"#utility.yul\":23260:23263   */\n      dup2\n        /* \"#utility.yul\":23256:23270   */\n      add\n        /* \"#utility.yul\":23249:23270   */\n      swap1\n      pop\n        /* \"#utility.yul\":23205:23655   */\n      jump(tag_555)\n    tag_557:\n        /* \"#utility.yul\":23209:23230   */\n      pop\n        /* \"#utility.yul\":22798:23661   */\n      pop\n      pop\n        /* \"#utility.yul\":22671:23661   */\n      swap4\n      swap3\n      pop\n      pop\n      pop\n      jump\t// out\n        /* \"#utility.yul\":23698:24118   */\n    tag_341:\n        /* \"#utility.yul\":23794:23799   */\n      0x00\n        /* \"#utility.yul\":23843:23846   */\n      dup3\n        /* \"#utility.yul\":23836:23840   */\n      0x1f\n        /* \"#utility.yul\":23828:23834   */\n      dup4\n        /* \"#utility.yul\":23824:23841   */\n      add\n        /* \"#utility.yul\":23820:23847   */\n      slt\n        /* \"#utility.yul\":23810:23932   */\n      tag_562\n      jumpi\n        /* \"#utility.yul\":23851:23930   */\n      tag_563\n      tag_290\n      jump\t// in\n    tag_563:\n        /* \"#utility.yul\":23810:23932   */\n    tag_562:\n        /* \"#utility.yul\":23968:23974   */\n      dup2\n        /* \"#utility.yul\":23955:23975   */\n      calldataload\n        /* \"#utility.yul\":23993:24112   */\n      tag_564\n        /* \"#utility.yul\":24108:24111   */\n      dup5\n        /* \"#utility.yul\":24100:24106   */\n      dup3\n        /* \"#utility.yul\":24093:24097   */\n      0x20\n        /* \"#utility.yul\":24085:24091   */\n      dup7\n        /* \"#utility.yul\":24081:24098   */\n      add\n        /* \"#utility.yul\":23993:24112   */\n      tag_340\n      jump\t// in\n    tag_564:\n        /* \"#utility.yul\":23984:24112   */\n      swap2\n      pop\n        /* \"#utility.yul\":23800:24118   */\n      pop\n        /* \"#utility.yul\":23698:24118   */\n      swap3\n      swap2\n      pop\n      pop\n      jump\t// out\n        /* \"#utility.yul\":24124:25981   */\n    tag_50:\n        /* \"#utility.yul\":24308:24314   */\n      0x00\n        /* \"#utility.yul\":24316:24322   */\n      dup1\n        /* \"#utility.yul\":24324:24330   */\n      0x00\n        /* \"#utility.yul\":24332:24338   */\n      dup1\n        /* \"#utility.yul\":24340:24346   */\n      0x00\n        /* \"#utility.yul\":24348:24354   */\n      dup1\n        /* \"#utility.yul\":24397:24400   */\n      0xc0\n        /* \"#utility.yul\":24385:24394   */\n      dup8\n        /* \"#utility.yul\":24376:24383   */\n      dup10\n        /* \"#utility.yul\":24372:24395   */\n      sub\n        /* \"#utility.yul\":24368:24401   */\n      slt\n        /* \"#utility.yul\":24365:24485   */\n      iszero\n      tag_566\n      jumpi\n        /* \"#utility.yul\":24404:24483   */\n      tag_567\n      tag_288\n      jump\t// in\n    tag_567:\n        /* \"#utility.yul\":24365:24485   */\n    tag_566:\n        /* \"#utility.yul\":24552:24553   */\n      0x00\n        /* \"#utility.yul\":24541:24550   */\n      dup8\n        /* \"#utility.yul\":24537:24554   */\n      add\n        /* \"#utility.yul\":24524:24555   */\n      calldataload\n        /* \"#utility.yul\":24582:24600   */\n      0xffffffffffffffff\n        /* \"#utility.yul\":24574:24580   */\n      dup2\n        /* \"#utility.yul\":24571:24601   */\n      gt\n        /* \"#utility.yul\":24568:24685   */\n      iszero\n      tag_568\n      jumpi\n        /* \"#utility.yul\":24604:24683   */\n      tag_569\n      tag_289\n      jump\t// in\n    tag_569:\n        /* \"#utility.yul\":24568:24685   */\n    tag_568:\n        /* \"#utility.yul\":24709:24772   */\n      tag_570\n        /* \"#utility.yul\":24764:24771   */\n      dup10\n        /* \"#utility.yul\":24755:24761   */\n      dup3\n        /* \"#utility.yul\":24744:24753   */\n      dup11\n        /* \"#utility.yul\":24740:24762   */\n      add\n        /* \"#utility.yul\":24709:24772   */\n      tag_298\n      jump\t// in\n    tag_570:\n        /* \"#utility.yul\":24699:24772   */\n      swap7\n      pop\n        /* \"#utility.yul\":24495:24782   */\n      pop\n        /* \"#utility.yul\":24849:24851   */\n      0x20\n        /* \"#utility.yul\":24838:24847   */\n      dup8\n        /* \"#utility.yul\":24834:24852   */\n      add\n        /* \"#utility.yul\":24821:24853   */\n      calldataload\n        /* \"#utility.yul\":24880:24898   */\n      0xffffffffffffffff\n        /* \"#utility.yul\":24872:24878   */\n      dup2\n        /* \"#utility.yul\":24869:24899   */\n      gt\n        /* \"#utility.yul\":24866:24983   */\n      iszero\n      tag_571\n      jumpi\n        /* \"#utility.yul\":24902:24981   */\n      tag_572\n      tag_289\n      jump\t// in\n    tag_572:\n        /* \"#utility.yul\":24866:24983   */\n    tag_571:\n        /* \"#utility.yul\":25007:25110   */\n      tag_573\n        /* \"#utility.yul\":25102:25109   */\n      dup10\n        /* \"#utility.yul\":25093:25099   */\n      dup3\n        /* \"#utility.yul\":25082:25091   */\n      dup11\n        /* \"#utility.yul\":25078:25100   */\n      add\n        /* \"#utility.yul\":25007:25110   */\n      tag_341\n      jump\t// in\n    tag_573:\n        /* \"#utility.yul\":24997:25110   */\n      swap6\n      pop\n        /* \"#utility.yul\":24792:25120   */\n      pop\n        /* \"#utility.yul\":25159:25161   */\n      0x40\n        /* \"#utility.yul\":25185:25238   */\n      tag_574\n        /* \"#utility.yul\":25230:25237   */\n      dup10\n        /* \"#utility.yul\":25221:25227   */\n      dup3\n        /* \"#utility.yul\":25210:25219   */\n      dup11\n        /* \"#utility.yul\":25206:25228   */\n      add\n        /* \"#utility.yul\":25185:25238   */\n      tag_338\n      jump\t// in\n    tag_574:\n        /* \"#utility.yul\":25175:25238   */\n      swap5\n      pop\n        /* \"#utility.yul\":25130:25248   */\n      pop\n        /* \"#utility.yul\":25287:25289   */\n      0x60\n        /* \"#utility.yul\":25313:25366   */\n      tag_575\n        /* \"#utility.yul\":25358:25365   */\n      dup10\n        /* \"#utility.yul\":25349:25355   */\n      dup3\n        /* \"#utility.yul\":25338:25347   */\n      dup11\n        /* \"#utility.yul\":25334:25356   */\n      add\n        /* \"#utility.yul\":25313:25366   */\n      tag_338\n      jump\t// in\n    tag_575:\n        /* \"#utility.yul\":25303:25366   */\n      swap4\n      pop\n        /* \"#utility.yul\":25258:25376   */\n      pop\n        /* \"#utility.yul\":25443:25446   */\n      0x80\n        /* \"#utility.yul\":25432:25441   */\n      dup8\n        /* \"#utility.yul\":25428:25447   */\n      add\n        /* \"#utility.yul\":25415:25448   */\n      calldataload\n        /* \"#utility.yul\":25475:25493   */\n      0xffffffffffffffff\n        /* \"#utility.yul\":25467:25473   */\n      dup2\n        /* \"#utility.yul\":25464:25494   */\n      gt\n        /* \"#utility.yul\":25461:25578   */\n      iszero\n      tag_576\n      jumpi\n        /* \"#utility.yul\":25497:25576   */\n      tag_577\n      tag_289\n      jump\t// in\n    tag_577:\n        /* \"#utility.yul\":25461:25578   */\n    tag_576:\n        /* \"#utility.yul\":25602:25665   */\n      tag_578\n        /* \"#utility.yul\":25657:25664   */\n      dup10\n        /* \"#utility.yul\":25648:25654   */\n      dup3\n        /* \"#utility.yul\":25637:25646   */\n      dup11\n        /* \"#utility.yul\":25633:25655   */\n      add\n        /* \"#utility.yul\":25602:25665   */\n      tag_298\n      jump\t// in\n    tag_578:\n        /* \"#utility.yul\":25592:25665   */\n      swap3\n      pop\n        /* \"#utility.yul\":25386:25675   */\n      pop\n        /* \"#utility.yul\":25742:25745   */\n      0xa0\n        /* \"#utility.yul\":25731:25740   */\n      dup8\n        /* \"#utility.yul\":25727:25746   */\n      add\n        /* \"#utility.yul\":25714:25747   */\n      calldataload\n        /* \"#utility.yul\":25774:25792   */\n      0xffffffffffffffff\n        /* \"#utility.yul\":25766:25772   */\n      dup2\n        /* \"#utility.yul\":25763:25793   */\n      gt\n        /* \"#utility.yul\":25760:25877   */\n      iszero\n      tag_579\n      jumpi\n        /* \"#utility.yul\":25796:25875   */\n      tag_580\n      tag_289\n      jump\t// in\n    tag_580:\n        /* \"#utility.yul\":25760:25877   */\n    tag_579:\n        /* \"#utility.yul\":25901:25964   */\n      tag_581\n        /* \"#utility.yul\":25956:25963   */\n      dup10\n        /* \"#utility.yul\":25947:25953   */\n      dup3\n        /* \"#utility.yul\":25936:25945   */\n      dup11\n        /* \"#utility.yul\":25932:25954   */\n      add\n        /* \"#utility.yul\":25901:25964   */\n      tag_298\n      jump\t// in\n    tag_581:\n        /* \"#utility.yul\":25891:25964   */\n      swap2\n      pop\n        /* \"#utility.yul\":25685:25974   */\n      pop\n        /* \"#utility.yul\":24124:25981   */\n      swap3\n      swap6\n      pop\n      swap3\n      swap6\n      pop\n      swap3\n      swap6\n      jump\t// out\n        /* \"#utility.yul\":25987:26135   */\n    tag_342:\n        /* \"#utility.yul\":26089:26100   */\n      0x00\n        /* \"#utility.yul\":26126:26129   */\n      dup2\n        /* \"#utility.yul\":26111:26129   */\n      swap1\n      pop\n        /* \"#utility.yul\":25987:26135   */\n      swap3\n      swap2\n      pop\n      pop\n      jump\t// out\n        /* \"#utility.yul\":26141:26531   */\n    tag_343:\n        /* \"#utility.yul\":26247:26250   */\n      0x00\n        /* \"#utility.yul\":26275:26314   */\n      tag_584\n        /* \"#utility.yul\":26308:26313   */\n      dup3\n        /* \"#utility.yul\":26275:26314   */\n      tag_304\n      jump\t// in\n    tag_584:\n        /* \"#utility.yul\":26330:26419   */\n      tag_585\n        /* \"#utility.yul\":26412:26418   */\n      dup2\n        /* \"#utility.yul\":26407:26410   */\n      dup6\n        /* \"#utility.yul\":26330:26419   */\n      tag_342\n      jump\t// in\n    tag_585:\n        /* \"#utility.yul\":26323:26419   */\n      swap4\n      pop\n        /* \"#utility.yul\":26428:26493   */\n      tag_586\n        /* \"#utility.yul\":26486:26492   */\n      dup2\n        /* \"#utility.yul\":26481:26484   */\n      dup6\n        /* \"#utility.yul\":26474:26478   */\n      0x20\n        /* \"#utility.yul\":26467:26472   */\n      dup7\n        /* \"#utility.yul\":26463:26479   */\n      add\n        /* \"#utility.yul\":26428:26493   */\n      tag_306\n      jump\t// in\n    tag_586:\n        /* \"#utility.yul\":26518:26524   */\n      dup1\n        /* \"#utility.yul\":26513:26516   */\n      dup5\n        /* \"#utility.yul\":26509:26525   */\n      add\n        /* \"#utility.yul\":26502:26525   */\n      swap2\n      pop\n        /* \"#utility.yul\":26251:26531   */\n      pop\n        /* \"#utility.yul\":26141:26531   */\n      swap3\n      swap2\n      pop\n      pop\n      jump\t// out\n        /* \"#utility.yul\":26537:26812   */\n    tag_60:\n        /* \"#utility.yul\":26669:26672   */\n      0x00\n        /* \"#utility.yul\":26691:26786   */\n      tag_588\n        /* \"#utility.yul\":26782:26785   */\n      dup3\n        /* \"#utility.yul\":26773:26779   */\n      dup5\n        /* \"#utility.yul\":26691:26786   */\n      tag_343\n      jump\t// in\n    tag_588:\n        /* \"#utility.yul\":26684:26786   */\n      swap2\n      pop\n        /* \"#utility.yul\":26803:26806   */\n      dup2\n        /* \"#utility.yul\":26796:26806   */\n      swap1\n      pop\n        /* \"#utility.yul\":26537:26812   */\n      swap3\n      swap2\n      pop\n      pop\n      jump\t// out\n        /* \"#utility.yul\":26818:26998   */\n    tag_344:\n        /* \"#utility.yul\":26866:26943   */\n      0x4e487b7100000000000000000000000000000000000000000000000000000000\n        /* \"#utility.yul\":26863:26864   */\n      0x00\n        /* \"#utility.yul\":26856:26944   */\n      mstore\n        /* \"#utility.yul\":26963:26967   */\n      0x22\n        /* \"#utility.yul\":26960:26961   */\n      0x04\n        /* \"#utility.yul\":26953:26968   */\n      mstore\n        /* \"#utility.yul\":26987:26991   */\n      0x24\n        /* \"#utility.yul\":26984:26985   */\n      0x00\n        /* \"#utility.yul\":26977:26992   */\n      revert\n        /* \"#utility.yul\":27004:27324   */\n    tag_91:\n        /* \"#utility.yul\":27048:27054   */\n      0x00\n        /* \"#utility.yul\":27085:27086   */\n      0x02\n        /* \"#utility.yul\":27079:27083   */\n      dup3\n        /* \"#utility.yul\":27075:27087   */\n      div\n        /* \"#utility.yul\":27065:27087   */\n      swap1\n      pop\n        /* \"#utility.yul\":27132:27133   */\n      0x01\n        /* \"#utility.yul\":27126:27130   */\n      dup3\n        /* \"#utility.yul\":27122:27134   */\n      and\n        /* \"#utility.yul\":27153:27171   */\n      dup1\n        /* \"#utility.yul\":27143:27224   */\n      tag_591\n      jumpi\n        /* \"#utility.yul\":27209:27213   */\n      0x7f\n        /* \"#utility.yul\":27201:27207   */\n      dup3\n        /* \"#utility.yul\":27197:27214   */\n      and\n        /* \"#utility.yul\":27187:27214   */\n      swap2\n      pop\n        /* \"#utility.yul\":27143:27224   */\n    tag_591:\n        /* \"#utility.yul\":27271:27273   */\n      0x20\n        /* \"#utility.yul\":27263:27269   */\n      dup3\n        /* \"#utility.yul\":27260:27274   */\n      lt\n        /* \"#utility.yul\":27240:27258   */\n      dup2\n        /* \"#utility.yul\":27237:27275   */\n      sub\n        /* \"#utility.yul\":27234:27318   */\n      tag_592\n      jumpi\n        /* \"#utility.yul\":27290:27308   */\n      tag_593\n      tag_344\n      jump\t// in\n    tag_593:\n        /* \"#utility.yul\":27234:27318   */\n    tag_592:\n        /* \"#utility.yul\":27055:27324   */\n      pop\n        /* \"#utility.yul\":27004:27324   */\n      swap2\n      swap1\n      pop\n      jump\t// out\n        /* \"#utility.yul\":27330:27471   */\n    tag_345:\n        /* \"#utility.yul\":27379:27383   */\n      0x00\n        /* \"#utility.yul\":27402:27405   */\n      dup2\n        /* \"#utility.yul\":27394:27405   */\n      swap1\n      pop\n        /* \"#utility.yul\":27425:27428   */\n      dup2\n        /* \"#utility.yul\":27422:27423   */\n      0x00\n        /* \"#utility.yul\":27415:27429   */\n      mstore\n        /* \"#utility.yul\":27459:27463   */\n      0x20\n        /* \"#utility.yul\":27456:27457   */\n      0x00\n        /* \"#utility.yul\":27446:27464   */\n      keccak256\n        /* \"#utility.yul\":27438:27464   */\n      swap1\n      pop\n        /* \"#utility.yul\":27330:27471   */\n      swap2\n      swap1\n      pop\n      jump\t// out\n        /* \"#utility.yul\":27477:27570   */\n    tag_346:\n        /* \"#utility.yul\":27514:27520   */\n      0x00\n        /* \"#utility.yul\":27561:27563   */\n      0x20\n        /* \"#utility.yul\":27556:27558   */\n      0x1f\n        /* \"#utility.yul\":27549:27554   */\n      dup4\n        /* \"#utility.yul\":27545:27559   */\n      add\n        /* \"#utility.yul\":27541:27564   */\n      div\n        /* \"#utility.yul\":27531:27564   */\n      swap1\n      pop\n        /* \"#utility.yul\":27477:27570   */\n      swap2\n      swap1\n      pop\n      jump\t// out\n        /* \"#utility.yul\":27576:27683   */\n    tag_347:\n        /* \"#utility.yul\":27620:27628   */\n      0x00\n        /* \"#utility.yul\":27670:27675   */\n      dup3\n        /* \"#utility.yul\":27664:27668   */\n      dup3\n        /* \"#utility.yul\":27660:27676   */\n      shl\n        /* \"#utility.yul\":27639:27676   */\n      swap1\n      pop\n        /* \"#utility.yul\":27576:27683   */\n      swap3\n      swap2\n      pop\n      pop\n      jump\t// out\n        /* \"#utility.yul\":27689:28082   */\n    tag_348:\n        /* \"#utility.yul\":27758:27764   */\n      0x00\n        /* \"#utility.yul\":27808:27809   */\n      0x08\n        /* \"#utility.yul\":27796:27806   */\n      dup4\n        /* \"#utility.yul\":27792:27810   */\n      mul\n        /* \"#utility.yul\":27831:27928   */\n      tag_598\n        /* \"#utility.yul\":27861:27927   */\n      0xffffffffffffffffffffffffffffffffffffffffffffffffffffffffffffffff\n        /* \"#utility.yul\":27850:27859   */\n      dup3\n        /* \"#utility.yul\":27831:27928   */\n      tag_347\n      jump\t// in\n    tag_598:\n        /* \"#utility.yul\":27949:27988   */\n      tag_599\n        /* \"#utility.yul\":27979:27987   */\n      dup7\n        /* \"#utility.yul\":27968:27977   */\n      dup4\n        /* \"#utility.yul\":27949:27988   */\n      tag_347\n      jump\t// in\n    tag_599:\n        /* \"#utility.yul\":27937:27988   */\n      swap6\n      pop\n        /* \"#utility.yul\":28021:28025   */\n      dup1\n        /* \"#utility.yul\":28017:28026   */\n      not\n        /* \"#utility.yul\":28010:28015   */\n      dup5\n        /* \"#utility.yul\":28006:28027   */\n      and\n        /* \"#utility.yul\":27997:28027   */\n      swap4\n      pop\n        /* \"#utility.yul\":28070:28074   */\n      dup1\n        /* \"#utility.yul\":28060:28068   */\n      dup7\n        /* \"#utility.yul\":28056:28075   */\n      and\n        /* \"#utility.yul\":28049:28054   */\n      dup5\n        /* \"#utility.yul\":28046:28076   */\n      or\n        /* \"#utility.yul\":28036:28076   */\n      swap3\n      pop\n        /* \"#utility.yul\":27765:28082   */\n      pop\n      pop\n        /* \"#utility.yul\":27689:28082   */\n      swap4\n      swap3\n      pop\n      pop\n      pop\n      jump\t// out\n        /* \"#utility.yul\":28088:28148   */\n    tag_349:\n        /* \"#utility.yul\":28116:28119   */\n      0x00\n        /* \"#utility.yul\":28137:28142   */\n      dup2\n        /* \"#utility.yul\":28130:28142   */\n      swap1\n      pop\n        /* \"#utility.yul\":28088:28148   */\n      swap2\n      swap1\n      pop\n      jump\t// out\n        /* \"#utility.yul\":28154:28296   */\n    tag_350:\n        /* \"#utility.yul\":28204:28213   */\n      0x00\n        /* \"#utility.yul\":28237:28290   */\n      tag_602\n        /* \"#utility.yul\":28255:28289   */\n      tag_603\n        /* \"#utility.yul\":28264:28288   */\n      tag_604\n        /* \"#utility.yul\":28282:28287   */\n      dup5\n        /* \"#utility.yul\":28264:28288   */\n      tag_317\n      jump\t// in\n    tag_604:\n        /* \"#utility.yul\":28255:28289   */\n      tag_349\n      jump\t// in\n    tag_603:\n        /* \"#utility.yul\":28237:28290   */\n      tag_317\n      jump\t// in\n    tag_602:\n        /* \"#utility.yul\":28224:28290   */\n      swap1\n      pop\n        /* \"#utility.yul\":28154:28296   */\n      swap2\n      swap1\n      pop\n      jump\t// out\n        /* \"#utility.yul\":28302:28377   */\n    tag_351:\n        /* \"#utility.yul\":28345:28348   */\n      0x00\n        /* \"#utility.yul\":28366:28371   */\n      dup2\n        /* \"#utility.yul\":28359:28371   */\n      swap1\n      pop\n        /* \"#utility.yul\":28302:28377   */\n      swap2\n      swap1\n      pop\n      jump\t// out\n        /* \"#utility.yul\":28383:28652   */\n    tag_352:\n        /* \"#utility.yul\":28493:28532   */\n      tag_607\n        /* \"#utility.yul\":28524:28531   */\n      dup4\n        /* \"#utility.yul\":28493:28532   */\n      tag_350\n      jump\t// in\n    tag_607:\n        /* \"#utility.yul\":28554:28645   */\n      tag_608\n        /* \"#utility.yul\":28603:28644   */\n      tag_609\n        /* \"#utility.yul\":28627:28643   */\n      dup3\n        /* \"#utility.yul\":28603:28644   */\n      tag_351\n      jump\t// in\n    tag_609:\n        /* \"#utility.yul\":28595:28601   */\n      dup5\n        /* \"#utility.yul\":28588:28592   */\n      dup5\n        /* \"#utility.yul\":28582:28593   */\n      sload\n        /* \"#utility.yul\":28554:28645   */\n      tag_348\n      jump\t// in\n    tag_608:\n        /* \"#utility.yul\":28548:28552   */\n      dup3\n        /* \"#utility.yul\":28541:28646   */\n      sstore\n        /* \"#utility.yul\":28459:28652   */\n      pop\n        /* \"#utility.yul\":28383:28652   */\n      pop\n      pop\n      pop\n      jump\t// out\n        /* \"#utility.yul\":28658:28731   */\n    tag_353:\n        /* \"#utility.yul\":28703:28706   */\n      0x00\n        /* \"#utility.yul\":28658:28731   */\n      swap1\n      jump\t// out\n        /* \"#utility.yul\":28737:28926   */\n    tag_354:\n        /* \"#utility.yul\":28814:28846   */\n      tag_612\n      tag_353\n      jump\t// in\n    tag_612:\n        /* \"#utility.yul\":28855:28920   */\n      tag_613\n        /* \"#utility.yul\":28913:28919   */\n      dup2\n        /* \"#utility.yul\":28905:28911   */\n      dup5\n        /* \"#utility.yul\":28899:28903   */\n      dup5\n        /* \"#utility.yul\":28855:28920   */\n      tag_352\n      jump\t// in\n    tag_613:\n        /* \"#utility.yul\":28790:28926   */\n      pop\n        /* \"#utility.yul\":28737:28926   */\n      pop\n      pop\n      jump\t// out\n        /* \"#utility.yul\":28932:29118   */\n    tag_355:\n        /* \"#utility.yul\":28992:29112   */\n    tag_615:\n        /* \"#utility.yul\":29009:29012   */\n      dup2\n        /* \"#utility.yul\":29002:29007   */\n      dup2\n        /* \"#utility.yul\":28999:29013   */\n      lt\n        /* \"#utility.yul\":28992:29112   */\n      iszero\n      tag_617\n      jumpi\n        /* \"#utility.yul\":29063:29102   */\n      tag_618\n        /* \"#utility.yul\":29100:29101   */\n      0x00\n        /* \"#utility.yul\":29093:29098   */\n      dup3\n        /* \"#utility.yul\":29063:29102   */\n      tag_354\n      jump\t// in\n    tag_618:\n        /* \"#utility.yul\":29036:29037   */\n      0x01\n        /* \"#utility.yul\":29029:29034   */\n      dup2\n        /* \"#utility.yul\":29025:29038   */\n      add\n        /* \"#utility.yul\":29016:29038   */\n      swap1\n      pop\n        /* \"#utility.yul\":28992:29112   */\n      jump(tag_615)\n    tag_617:\n        /* \"#utility.yul\":28932:29118   */\n      pop\n      pop\n      jump\t// out\n        /* \"#utility.yul\":29124:29667   */\n    tag_356:\n        /* \"#utility.yul\":29225:29227   */\n      0x1f\n        /* \"#utility.yul\":29220:29223   */\n      dup3\n        /* \"#utility.yul\":29217:29228   */\n      gt\n        /* \"#utility.yul\":29214:29660   */\n      iszero\n      tag_620\n      jumpi\n        /* \"#utility.yul\":29259:29297   */\n      tag_621\n        /* \"#utility.yul\":29291:29296   */\n      dup2\n        /* \"#utility.yul\":29259:29297   */\n      tag_345\n      jump\t// in\n    tag_621:\n        /* \"#utility.yul\":29343:29372   */\n      tag_622\n        /* \"#utility.yul\":29361:29371   */\n      dup5\n        /* \"#utility.yul\":29343:29372   */\n      tag_346\n      jump\t// in\n    tag_622:\n        /* \"#utility.yul\":29333:29341   */\n      dup2\n        /* \"#utility.yul\":29329:29373   */\n      add\n        /* \"#utility.yul\":29526:29528   */\n      0x20\n        /* \"#utility.yul\":29514:29524   */\n      dup6\n        /* \"#utility.yul\":29511:29529   */\n      lt\n        /* \"#utility.yul\":29508:29557   */\n      iszero\n      tag_623\n      jumpi\n        /* \"#utility.yul\":29547:29555   */\n      dup2\n        /* \"#utility.yul\":29532:29555   */\n      swap1\n      pop\n        /* \"#utility.yul\":29508:29557   */\n    tag_623:\n        /* \"#utility.yul\":29570:29650   */\n      tag_624\n        /* \"#utility.yul\":29626:29648   */\n      tag_625\n        /* \"#utility.yul\":29644:29647   */\n      dup6\n        /* \"#utility.yul\":29626:29648   */\n      tag_346\n      jump\t// in\n    tag_625:\n        /* \"#utility.yul\":29616:29624   */\n      dup4\n        /* \"#utility.yul\":29612:29649   */\n      add\n        /* \"#utility.yul\":29599:29610   */\n      dup3\n        /* \"#utility.yul\":29570:29650   */\n      tag_355\n      jump\t// in\n    tag_624:\n        /* \"#utility.yul\":29229:29660   */\n      pop\n      pop\n        /* \"#utility.yul\":29214:29660   */\n    tag_620:\n        /* \"#utility.yul\":29124:29667   */\n      pop\n      pop\n      pop\n      jump\t// out\n        /* \"#utility.yul\":29673:29790   */\n    tag_357:\n        /* \"#utility.yul\":29727:29735   */\n      0x00\n        /* \"#utility.yul\":29777:29782   */\n      dup3\n        /* \"#utility.yul\":29771:29775   */\n      dup3\n        /* \"#utility.yul\":29767:29783   */\n      shr\n        /* \"#utility.yul\":29746:29783   */\n      swap1\n      pop\n        /* \"#utility.yul\":29673:29790   */\n      swap3\n      swap2\n      pop\n      pop\n      jump\t// out\n        /* \"#utility.yul\":29796:29965   */\n    tag_358:\n        /* \"#utility.yul\":29840:29846   */\n      0x00\n        /* \"#utility.yul\":29873:29924   */\n      tag_628\n        /* \"#utility.yul\":29921:29922   */\n      0x00\n        /* \"#utility.yul\":29917:29923   */\n      not\n        /* \"#utility.yul\":29909:29914   */\n      dup5\n        /* \"#utility.yul\":29906:29907   */\n      0x08\n        /* \"#utility.yul\":29902:29915   */\n      mul\n        /* \"#utility.yul\":29873:29924   */\n      tag_357\n      jump\t// in\n    tag_628:\n        /* \"#utility.yul\":29869:29925   */\n      not\n        /* \"#utility.yul\":29954:29958   */\n      dup1\n        /* \"#utility.yul\":29948:29952   */\n      dup4\n        /* \"#utility.yul\":29944:29959   */\n      and\n        /* \"#utility.yul\":29934:29959   */\n      swap2\n      pop\n        /* \"#utility.yul\":29847:29965   */\n      pop\n        /* \"#utility.yul\":29796:29965   */\n      swap3\n      swap2\n      pop\n      pop\n      jump\t// out\n        /* \"#utility.yul\":29970:30265   */\n    tag_359:\n        /* \"#utility.yul\":30046:30050   */\n      0x00\n        /* \"#utility.yul\":30192:30221   */\n      tag_630\n        /* \"#utility.yul\":30217:30220   */\n      dup4\n        /* \"#utility.yul\":30211:30215   */\n      dup4\n        /* \"#utility.yul\":30192:30221   */\n      tag_358\n      jump\t// in\n    tag_630:\n        /* \"#utility.yul\":30184:30221   */\n      swap2\n      pop\n        /* \"#utility.yul\":30254:30257   */\n      dup3\n        /* \"#utility.yul\":30251:30252   */\n      0x02\n        /* \"#utility.yul\":30247:30258   */\n      mul\n        /* \"#utility.yul\":30241:30245   */\n      dup3\n        /* \"#utility.yul\":30238:30259   */\n      or\n        /* \"#utility.yul\":30230:30259   */\n      swap1\n      pop\n        /* \"#utility.yul\":29970:30265   */\n      swap3\n      swap2\n      pop\n      pop\n      jump\t// out\n        /* \"#utility.yul\":30270:31665   */\n    tag_62:\n        /* \"#utility.yul\":30387:30424   */\n      tag_632\n        /* \"#utility.yul\":30420:30423   */\n      dup3\n        /* \"#utility.yul\":30387:30424   */\n      tag_304\n      jump\t// in\n    tag_632:\n        /* \"#utility.yul\":30489:30507   */\n      0xffffffffffffffff\n        /* \"#utility.yul\":30481:30487   */\n      dup2\n        /* \"#utility.yul\":30478:30508   */\n      gt\n        /* \"#utility.yul\":30475:30531   */\n      iszero\n      tag_633\n      jumpi\n        /* \"#utility.yul\":30511:30529   */\n      tag_634\n      tag_74\n      jump\t// in\n    tag_634:\n        /* \"#utility.yul\":30475:30531   */\n    tag_633:\n        /* \"#utility.yul\":30555:30593   */\n      tag_635\n        /* \"#utility.yul\":30587:30591   */\n      dup3\n        /* \"#utility.yul\":30581:30592   */\n      sload\n        /* \"#utility.yul\":30555:30593   */\n      tag_91\n      jump\t// in\n    tag_635:\n        /* \"#utility.yul\":30640:30707   */\n      tag_636\n        /* \"#utility.yul\":30700:30706   */\n      dup3\n        /* \"#utility.yul\":30692:30698   */\n      dup3\n        /* \"#utility.yul\":30686:30690   */\n      dup6\n        /* \"#utility.yul\":30640:30707   */\n      tag_356\n      jump\t// in\n    tag_636:\n        /* \"#utility.yul\":30734:30735   */\n      0x00\n        /* \"#utility.yul\":30758:30762   */\n      0x20\n        /* \"#utility.yul\":30745:30762   */\n      swap1\n      pop\n        /* \"#utility.yul\":30790:30792   */\n      0x1f\n        /* \"#utility.yul\":30782:30788   */\n      dup4\n        /* \"#utility.yul\":30779:30793   */\n      gt\n        /* \"#utility.yul\":30807:30808   */\n      0x01\n        /* \"#utility.yul\":30802:31420   */\n      dup2\n      eq\n      tag_638\n      jumpi\n        /* \"#utility.yul\":31464:31465   */\n      0x00\n        /* \"#utility.yul\":31481:31487   */\n      dup5\n        /* \"#utility.yul\":31478:31555   */\n      iszero\n      tag_639\n      jumpi\n        /* \"#utility.yul\":31530:31539   */\n      dup3\n        /* \"#utility.yul\":31525:31528   */\n      dup8\n        /* \"#utility.yul\":31521:31540   */\n      add\n        /* \"#utility.yul\":31515:31541   */\n      mload\n        /* \"#utility.yul\":31506:31541   */\n      swap1\n      pop\n        /* \"#utility.yul\":31478:31555   */\n    tag_639:\n        /* \"#utility.yul\":31581:31648   */\n      tag_640\n        /* \"#utility.yul\":31641:31647   */\n      dup6\n        /* \"#utility.yul\":31634:31639   */\n      dup3\n        /* \"#utility.yul\":31581:31648   */\n      tag_359\n      jump\t// in\n    tag_640:\n        /* \"#utility.yul\":31575:31579   */\n      dup7\n        /* \"#utility.yul\":31568:31649   */\n      sstore\n        /* \"#utility.yul\":31437:31659   */\n      pop\n        /* \"#utility.yul\":30772:31659   */\n      jump(tag_637)\n        /* \"#utility.yul\":30802:31420   */\n    tag_638:\n        /* \"#utility.yul\":30854:30858   */\n      0x1f\n        /* \"#utility.yul\":30850:30859   */\n      not\n        /* \"#utility.yul\":30842:30848   */\n      dup5\n        /* \"#utility.yul\":30838:30860   */\n      and\n        /* \"#utility.yul\":30888:30925   */\n      tag_641\n        /* \"#utility.yul\":30920:30924   */\n      dup7\n        /* \"#utility.yul\":30888:30925   */\n      tag_345\n      jump\t// in\n    tag_641:\n        /* \"#utility.yul\":30947:30948   */\n      0x00\n        /* \"#utility.yul\":30961:31169   */\n    tag_642:\n        /* \"#utility.yul\":30975:30982   */\n      dup3\n        /* \"#utility.yul\":30972:30973   */\n      dup2\n        /* \"#utility.yul\":30969:30983   */\n      lt\n        /* \"#utility.yul\":30961:31169   */\n      iszero\n      tag_644\n      jumpi\n        /* \"#utility.yul\":31054:31063   */\n      dup5\n        /* \"#utility.yul\":31049:31052   */\n      dup10\n        /* \"#utility.yul\":31045:31064   */\n      add\n        /* \"#utility.yul\":31039:31065   */\n      mload\n        /* \"#utility.yul\":31031:31037   */\n      dup3\n        /* \"#utility.yul\":31024:31066   */\n      sstore\n        /* \"#utility.yul\":31105:31106   */\n      0x01\n        /* \"#utility.yul\":31097:31103   */\n      dup3\n        /* \"#utility.yul\":31093:31107   */\n      add\n        /* \"#utility.yul\":31083:31107   */\n      swap2\n      pop\n        /* \"#utility.yul\":31152:31154   */\n      0x20\n        /* \"#utility.yul\":31141:31150   */\n      dup6\n        /* \"#utility.yul\":31137:31155   */\n      add\n        /* \"#utility.yul\":31124:31155   */\n      swap5\n      pop\n        /* \"#utility.yul\":30998:31002   */\n      0x20\n        /* \"#utility.yul\":30995:30996   */\n      dup2\n        /* \"#utility.yul\":30991:31003   */\n      add\n        /* \"#utility.yul\":30986:31003   */\n      swap1\n      pop\n        /* \"#utility.yul\":30961:31169   */\n      jump(tag_642)\n    tag_644:\n        /* \"#utility.yul\":31197:31203   */\n      dup7\n        /* \"#utility.yul\":31188:31195   */\n      dup4\n        /* \"#utility.yul\":31185:31204   */\n      lt\n        /* \"#utility.yul\":31182:31361   */\n      iszero\n      tag_645\n      jumpi\n        /* \"#utility.yul\":31255:31264   */\n      dup5\n        /* \"#utility.yul\":31250:31253   */\n      dup10\n        /* \"#utility.yul\":31246:31265   */\n      add\n        /* \"#utility.yul\":31240:31266   */\n      mload\n        /* \"#utility.yul\":31298:31346   */\n      tag_646\n        /* \"#utility.yul\":31340:31344   */\n      0x1f\n        /* \"#utility.yul\":31332:31338   */\n      dup10\n        /* \"#utility.yul\":31328:31345   */\n      and\n        /* \"#utility.yul\":31317:31326   */\n      dup3\n        /* \"#utility.yul\":31298:31346   */\n      tag_358\n      jump\t// in\n    tag_646:\n        /* \"#utility.yul\":31290:31296   */\n      dup4\n        /* \"#utility.yul\":31283:31347   */\n      sstore\n        /* \"#utility.yul\":31205:31361   */\n      pop\n        /* \"#utility.yul\":31182:31361   */\n    tag_645:\n        /* \"#utility.yul\":31407:31408   */\n      0x01\n        /* \"#utility.yul\":31403:31404   */\n      0x02\n        /* \"#utility.yul\":31395:31401   */\n      dup9\n        /* \"#utility.yul\":31391:31405   */\n      mul\n        /* \"#utility.yul\":31387:31409   */\n      add\n        /* \"#utility.yul\":31381:31385   */\n      dup9\n        /* \"#utility.yul\":31374:31410   */\n      sstore\n        /* \"#utility.yul\":30809:31420   */\n      pop\n      pop\n      pop\n        /* \"#utility.yul\":30772:31659   */\n    tag_637:\n      pop\n        /* \"#utility.yul\":30362:31665   */\n      pop\n      pop\n      pop\n        /* \"#utility.yul\":30270:31665   */\n      pop\n      pop\n      jump\t// out\n        /* \"#utility.yul\":31695:32569   */\n    tag_360:\n        /* \"#utility.yul\":31798:31801   */\n      0x00\n        /* \"#utility.yul\":31835:31840   */\n      dup2\n        /* \"#utility.yul\":31829:31841   */\n      sload\n        /* \"#utility.yul\":31864:31900   */\n      tag_648\n        /* \"#utility.yul\":31890:31899   */\n      dup2\n        /* \"#utility.yul\":31864:31900   */\n      tag_91\n      jump\t// in\n    tag_648:\n        /* \"#utility.yul\":31916:32005   */\n      tag_649\n        /* \"#utility.yul\":31998:32004   */\n      dup2\n        /* \"#utility.yul\":31993:31996   */\n      dup7\n        /* \"#utility.yul\":31916:32005   */\n      tag_342\n      jump\t// in\n    tag_649:\n        /* \"#utility.yul\":31909:32005   */\n      swap5\n      pop\n        /* \"#utility.yul\":32036:32037   */\n      0x01\n        /* \"#utility.yul\":32025:32034   */\n      dup3\n        /* \"#utility.yul\":32021:32038   */\n      and\n        /* \"#utility.yul\":32052:32053   */\n      0x00\n        /* \"#utility.yul\":32047:32213   */\n      dup2\n      eq\n      tag_651\n      jumpi\n        /* \"#utility.yul\":32227:32228   */\n      0x01\n        /* \"#utility.yul\":32222:32563   */\n      dup2\n      eq\n      tag_652\n      jumpi\n        /* \"#utility.yul\":32014:32563   */\n      jump(tag_650)\n        /* \"#utility.yul\":32047:32213   */\n    tag_651:\n        /* \"#utility.yul\":32131:32135   */\n      0xff\n        /* \"#utility.yul\":32127:32136   */\n      not\n        /* \"#utility.yul\":32116:32125   */\n      dup4\n        /* \"#utility.yul\":32112:32137   */\n      and\n        /* \"#utility.yul\":32107:32110   */\n      dup7\n        /* \"#utility.yul\":32100:32138   */\n      mstore\n        /* \"#utility.yul\":32193:32199   */\n      dup2\n        /* \"#utility.yul\":32186:32200   */\n      iszero\n        /* \"#utility.yul\":32179:32201   */\n      iszero\n        /* \"#utility.yul\":32171:32177   */\n      dup3\n        /* \"#utility.yul\":32167:32202   */\n      mul\n        /* \"#utility.yul\":32162:32165   */\n      dup7\n        /* \"#utility.yul\":32158:32203   */\n      add\n        /* \"#utility.yul\":32151:32203   */\n      swap4\n      pop\n        /* \"#utility.yul\":32047:32213   */\n      jump(tag_650)\n        /* \"#utility.yul\":32222:32563   */\n    tag_652:\n        /* \"#utility.yul\":32289:32327   */\n      tag_653\n        /* \"#utility.yul\":32321:32326   */\n      dup6\n        /* \"#utility.yul\":32289:32327   */\n      tag_345\n      jump\t// in\n    tag_653:\n        /* \"#utility.yul\":32349:32350   */\n      0x00\n        /* \"#utility.yul\":32363:32517   */\n    tag_654:\n        /* \"#utility.yul\":32377:32383   */\n      dup4\n        /* \"#utility.yul\":32374:32375   */\n      dup2\n        /* \"#utility.yul\":32371:32384   */\n      lt\n        /* \"#utility.yul\":32363:32517   */\n      iszero\n      tag_656\n      jumpi\n        /* \"#utility.yul\":32451:32458   */\n      dup2\n        /* \"#utility.yul\":32445:32459   */\n      sload\n        /* \"#utility.yul\":32441:32442   */\n      dup2\n        /* \"#utility.yul\":32436:32439   */\n      dup10\n        /* \"#utility.yul\":32432:32443   */\n      add\n        /* \"#utility.yul\":32425:32460   */\n      mstore\n        /* \"#utility.yul\":32501:32502   */\n      0x01\n        /* \"#utility.yul\":32492:32499   */\n      dup3\n        /* \"#utility.yul\":32488:32503   */\n      add\n        /* \"#utility.yul\":32477:32503   */\n      swap2\n      pop\n        /* \"#utility.yul\":32399:32403   */\n      0x20\n        /* \"#utility.yul\":32396:32397   */\n      dup2\n        /* \"#utility.yul\":32392:32404   */\n      add\n        /* \"#utility.yul\":32387:32404   */\n      swap1\n      pop\n        /* \"#utility.yul\":32363:32517   */\n      jump(tag_654)\n    tag_656:\n        /* \"#utility.yul\":32546:32552   */\n      dup4\n        /* \"#utility.yul\":32541:32544   */\n      dup9\n        /* \"#utility.yul\":32537:32553   */\n      add\n        /* \"#utility.yul\":32530:32553   */\n      swap6\n      pop\n        /* \"#utility.yul\":32229:32563   */\n      pop\n      pop\n        /* \"#utility.yul\":32014:32563   */\n    tag_650:\n      pop\n        /* \"#utility.yul\":31802:32569   */\n      pop\n      pop\n        /* \"#utility.yul\":31695:32569   */\n      swap3\n      swap2\n      pop\n      pop\n      jump\t// out\n        /* \"#utility.yul\":32575:32844   */\n    tag_68:\n        /* \"#utility.yul\":32704:32707   */\n      0x00\n        /* \"#utility.yul\":32726:32818   */\n      tag_658\n        /* \"#utility.yul\":32814:32817   */\n      dup3\n        /* \"#utility.yul\":32805:32811   */\n      dup5\n        /* \"#utility.yul\":32726:32818   */\n      tag_360\n      jump\t// in\n    tag_658:\n        /* \"#utility.yul\":32719:32818   */\n      swap2\n      pop\n        /* \"#utility.yul\":32835:32838   */\n      dup2\n        /* \"#utility.yul\":32828:32838   */\n      swap1\n      pop\n        /* \"#utility.yul\":32575:32844   */\n      swap3\n      swap2\n      pop\n      pop\n      jump\t// out\n        /* \"#utility.yul\":32850:33030   */\n    tag_88:\n        /* \"#utility.yul\":32898:32975   */\n      0x4e487b7100000000000000000000000000000000000000000000000000000000\n        /* \"#utility.yul\":32895:32896   */\n      0x00\n        /* \"#utility.yul\":32888:32976   */\n      mstore\n        /* \"#utility.yul\":32995:32999   */\n      0x32\n        /* \"#utility.yul\":32992:32993   */\n      0x04\n        /* \"#utility.yul\":32985:33000   */\n      mstore\n        /* \"#utility.yul\":33019:33023   */\n      0x24\n        /* \"#utility.yul\":33016:33017   */\n      0x00\n        /* \"#utility.yul\":33009:33024   */\n      revert\n        /* \"#utility.yul\":33036:33187   */\n    tag_361:\n        /* \"#utility.yul\":33176:33179   */\n      0x2000000000000000000000000000000000000000000000000000000000000000\n        /* \"#utility.yul\":33172:33173   */\n      0x00\n        /* \"#utility.yul\":33164:33170   */\n      dup3\n        /* \"#utility.yul\":33160:33174   */\n      add\n        /* \"#utility.yul\":33153:33180   */\n      mstore\n        /* \"#utility.yul\":33036:33187   */\n      pop\n      jump\t// out\n        /* \"#utility.yul\":33193:33593   */\n    tag_362:\n        /* \"#utility.yul\":33353:33356   */\n      0x00\n        /* \"#utility.yul\":33374:33458   */\n      tag_662\n        /* \"#utility.yul\":33456:33457   */\n      0x01\n        /* \"#utility.yul\":33451:33454   */\n      dup4\n        /* \"#utility.yul\":33374:33458   */\n      tag_342\n      jump\t// in\n    tag_662:\n        /* \"#utility.yul\":33367:33458   */\n      swap2\n      pop\n        /* \"#utility.yul\":33467:33560   */\n      tag_663\n        /* \"#utility.yul\":33556:33559   */\n      dup3\n        /* \"#utility.yul\":33467:33560   */\n      tag_361\n      jump\t// in\n    tag_663:\n        /* \"#utility.yul\":33585:33586   */\n      0x01\n        /* \"#utility.yul\":33580:33583   */\n      dup3\n        /* \"#utility.yul\":33576:33587   */\n      add\n        /* \"#utility.yul\":33569:33587   */\n      swap1\n      pop\n        /* \"#utility.yul\":33193:33593   */\n      swap2\n      swap1\n      pop\n      jump\t// out\n        /* \"#utility.yul\":33599:34708   */\n    tag_212:\n        /* \"#utility.yul\":34020:34023   */\n      0x00\n        /* \"#utility.yul\":34042:34134   */\n      tag_665\n        /* \"#utility.yul\":34130:34133   */\n      dup3\n        /* \"#utility.yul\":34121:34127   */\n      dup7\n        /* \"#utility.yul\":34042:34134   */\n      tag_360\n      jump\t// in\n    tag_665:\n        /* \"#utility.yul\":34035:34134   */\n      swap2\n      pop\n        /* \"#utility.yul\":34151:34299   */\n      tag_666\n        /* \"#utility.yul\":34295:34298   */\n      dup3\n        /* \"#utility.yul\":34151:34299   */\n      tag_362\n      jump\t// in\n    tag_666:\n        /* \"#utility.yul\":34144:34299   */\n      swap2\n      pop\n        /* \"#utility.yul\":34316:34408   */\n      tag_667\n        /* \"#utility.yul\":34404:34407   */\n      dup3\n        /* \"#utility.yul\":34395:34401   */\n      dup6\n        /* \"#utility.yul\":34316:34408   */\n      tag_360\n      jump\t// in\n    tag_667:\n        /* \"#utility.yul\":34309:34408   */\n      swap2\n      pop\n        /* \"#utility.yul\":34425:34573   */\n      tag_668\n        /* \"#utility.yul\":34569:34572   */\n      dup3\n        /* \"#utility.yul\":34425:34573   */\n      tag_362\n      jump\t// in\n    tag_668:\n        /* \"#utility.yul\":34418:34573   */\n      swap2\n      pop\n        /* \"#utility.yul\":34590:34682   */\n      tag_669\n        /* \"#utility.yul\":34678:34681   */\n      dup3\n        /* \"#utility.yul\":34669:34675   */\n      dup5\n        /* \"#utility.yul\":34590:34682   */\n      tag_360\n      jump\t// in\n    tag_669:\n        /* \"#utility.yul\":34583:34682   */\n      swap2\n      pop\n        /* \"#utility.yul\":34699:34702   */\n      dup2\n        /* \"#utility.yul\":34692:34702   */\n      swap1\n      pop\n        /* \"#utility.yul\":33599:34708   */\n      swap5\n      swap4\n      pop\n      pop\n      pop\n      pop\n      jump\t// out\n        /* \"#utility.yul\":34714:34935   */\n    tag_363:\n        /* \"#utility.yul\":34854:34888   */\n      0x4e6f7420616e2061646d696e206f7220696e636f72726563742070617373776f\n        /* \"#utility.yul\":34850:34851   */\n      0x00\n        /* \"#utility.yul\":34842:34848   */\n      dup3\n        /* \"#utility.yul\":34838:34852   */\n      add\n        /* \"#utility.yul\":34831:34889   */\n      mstore\n        /* \"#utility.yul\":34923:34927   */\n      0x7264000000000000000000000000000000000000000000000000000000000000\n        /* \"#utility.yul\":34918:34920   */\n      0x20\n        /* \"#utility.yul\":34910:34916   */\n      dup3\n        /* \"#utility.yul\":34906:34921   */\n      add\n        /* \"#utility.yul\":34899:34928   */\n      mstore\n        /* \"#utility.yul\":34714:34935   */\n      pop\n      jump\t// out\n        /* \"#utility.yul\":34941:35307   */\n    tag_364:\n        /* \"#utility.yul\":35083:35086   */\n      0x00\n        /* \"#utility.yul\":35104:35171   */\n      tag_672\n        /* \"#utility.yul\":35168:35170   */\n      0x22\n        /* \"#utility.yul\":35163:35166   */\n      dup4\n        /* \"#utility.yul\":35104:35171   */\n      tag_327\n      jump\t// in\n    tag_672:\n        /* \"#utility.yul\":35097:35171   */\n      swap2\n      pop\n        /* \"#utility.yul\":35180:35273   */\n      tag_673\n        /* \"#utility.yul\":35269:35272   */\n      dup3\n        /* \"#utility.yul\":35180:35273   */\n      tag_363\n      jump\t// in\n    tag_673:\n        /* \"#utility.yul\":35298:35300   */\n      0x40\n        /* \"#utility.yul\":35293:35296   */\n      dup3\n        /* \"#utility.yul\":35289:35301   */\n      add\n        /* \"#utility.yul\":35282:35301   */\n      swap1\n      pop\n        /* \"#utility.yul\":34941:35307   */\n      swap2\n      swap1\n      pop\n      jump\t// out\n        /* \"#utility.yul\":35313:35732   */\n    tag_233:\n        /* \"#utility.yul\":35479:35483   */\n      0x00\n        /* \"#utility.yul\":35517:35519   */\n      0x20\n        /* \"#utility.yul\":35506:35515   */\n      dup3\n        /* \"#utility.yul\":35502:35520   */\n      add\n        /* \"#utility.yul\":35494:35520   */\n      swap1\n      pop\n        /* \"#utility.yul\":35566:35575   */\n      dup2\n        /* \"#utility.yul\":35560:35564   */\n      dup2\n        /* \"#utility.yul\":35556:35576   */\n      sub\n        /* \"#utility.yul\":35552:35553   */\n      0x00\n        /* \"#utility.yul\":35541:35550   */\n      dup4\n        /* \"#utility.yul\":35537:35554   */\n      add\n        /* \"#utility.yul\":35530:35577   */\n      mstore\n        /* \"#utility.yul\":35594:35725   */\n      tag_675\n        /* \"#utility.yul\":35720:35724   */\n      dup2\n        /* \"#utility.yul\":35594:35725   */\n      tag_364\n      jump\t// in\n    tag_675:\n        /* \"#utility.yul\":35586:35725   */\n      swap1\n      pop\n        /* \"#utility.yul\":35313:35732   */\n      swap2\n      swap1\n      pop\n      jump\t// out\n        /* \"#utility.yul\":35738:35917   */\n    tag_365:\n        /* \"#utility.yul\":35878:35909   */\n      0x456c656374696f6e206e616d652063616e6e6f7420626520656d707479000000\n        /* \"#utility.yul\":35874:35875   */\n      0x00\n        /* \"#utility.yul\":35866:35872   */\n      dup3\n        /* \"#utility.yul\":35862:35876   */\n      add\n        /* \"#utility.yul\":35855:35910   */\n      mstore\n        /* \"#utility.yul\":35738:35917   */\n      pop\n      jump\t// out\n        /* \"#utility.yul\":35923:36289   */\n    tag_366:\n        /* \"#utility.yul\":36065:36068   */\n      0x00\n        /* \"#utility.yul\":36086:36153   */\n      tag_678\n        /* \"#utility.yul\":36150:36152   */\n      0x1d\n        /* \"#utility.yul\":36145:36148   */\n      dup4\n        /* \"#utility.yul\":36086:36153   */\n      tag_327\n      jump\t// in\n    tag_678:\n        /* \"#utility.yul\":36079:36153   */\n      swap2\n      pop\n        /* \"#utility.yul\":36162:36255   */\n      tag_679\n        /* \"#utility.yul\":36251:36254   */\n      dup3\n        /* \"#utility.yul\":36162:36255   */\n      tag_365\n      jump\t// in\n    tag_679:\n        /* \"#utility.yul\":36280:36282   */\n      0x20\n        /* \"#utility.yul\":36275:36278   */\n      dup3\n        /* \"#utility.yul\":36271:36283   */\n      add\n        /* \"#utility.yul\":36264:36283   */\n      swap1\n      pop\n        /* \"#utility.yul\":35923:36289   */\n      swap2\n      swap1\n      pop\n      jump\t// out\n        /* \"#utility.yul\":36295:36714   */\n    tag_237:\n        /* \"#utility.yul\":36461:36465   */\n      0x00\n        /* \"#utility.yul\":36499:36501   */\n      0x20\n        /* \"#utility.yul\":36488:36497   */\n      dup3\n        /* \"#utility.yul\":36484:36502   */\n      add\n        /* \"#utility.yul\":36476:36502   */\n      swap1\n      pop\n        /* \"#utility.yul\":36548:36557   */\n      dup2\n        /* \"#utility.yul\":36542:36546   */\n      dup2\n        /* \"#utility.yul\":36538:36558   */\n      sub\n        /* \"#utility.yul\":36534:36535   */\n      0x00\n        /* \"#utility.yul\":36523:36532   */\n      dup4\n        /* \"#utility.yul\":36519:36536   */\n      add\n        /* \"#utility.yul\":36512:36559   */\n      mstore\n        /* \"#utility.yul\":36576:36707   */\n      tag_681\n        /* \"#utility.yul\":36702:36706   */\n      dup2\n        /* \"#utility.yul\":36576:36707   */\n      tag_366\n      jump\t// in\n    tag_681:\n        /* \"#utility.yul\":36568:36707   */\n      swap1\n      pop\n        /* \"#utility.yul\":36295:36714   */\n      swap2\n      swap1\n      pop\n      jump\t// out\n        /* \"#utility.yul\":36720:36893   */\n    tag_367:\n        /* \"#utility.yul\":36860:36885   */\n      0x456c656374696f6e20616c726561647920657869737473000000000000000000\n        /* \"#utility.yul\":36856:36857   */\n      0x00\n        /* \"#utility.yul\":36848:36854   */\n      dup3\n        /* \"#utility.yul\":36844:36858   */\n      add\n        /* \"#utility.yul\":36837:36886   */\n      mstore\n        /* \"#utility.yul\":36720:36893   */\n      pop\n      jump\t// out\n        /* \"#utility.yul\":36899:37265   */\n    tag_368:\n        /* \"#utility.yul\":37041:37044   */\n      0x00\n        /* \"#utility.yul\":37062:37129   */\n      tag_684\n        /* \"#utility.yul\":37126:37128   */\n      0x17\n        /* \"#utility.yul\":37121:37124   */\n      dup4\n        /* \"#utility.yul\":37062:37129   */\n      tag_327\n      jump\t// in\n    tag_684:\n        /* \"#utility.yul\":37055:37129   */\n      swap2\n      pop\n        /* \"#utility.yul\":37138:37231   */\n      tag_685\n        /* \"#utility.yul\":37227:37230   */\n      dup3\n        /* \"#utility.yul\":37138:37231   */\n      tag_367\n      jump\t// in\n    tag_685:\n        /* \"#utility.yul\":37256:37258   */\n      0x20\n        /* \"#utility.yul\":37251:37254   */\n      dup3\n        /* \"#utility.yul\":37247:37259   */\n      add\n        /* \"#utility.yul\":37240:37259   */\n      swap1\n      pop\n        /* \"#utility.yul\":36899:37265   */\n      swap2\n      swap1\n      pop\n      jump\t// out\n        /* \"#utility.yul\":37271:37690   */\n    tag_241:\n        /* \"#utility.yul\":37437:37441   */\n      0x00\n        /* \"#utility.yul\":37475:37477   */\n      0x20\n        /* \"#utility.yul\":37464:37473   */\n      dup3\n        /* \"#utility.yul\":37460:37478   */\n      add\n        /* \"#utility.yul\":37452:37478   */\n      swap1\n      pop\n        /* \"#utility.yul\":37524:37533   */\n      dup2\n        /* \"#utility.yul\":37518:37522   */\n      dup2\n        /* \"#utility.yul\":37514:37534   */\n      sub\n        /* \"#utility.yul\":37510:37511   */\n      0x00\n        /* \"#utility.yul\":37499:37508   */\n      dup4\n        /* \"#utility.yul\":37495:37512   */\n      add\n        /* \"#utility.yul\":37488:37535   */\n      mstore\n        /* \"#utility.yul\":37552:37683   */\n      tag_687\n        /* \"#utility.yul\":37678:37682   */\n      dup2\n        /* \"#utility.yul\":37552:37683   */\n      tag_368\n      jump\t// in\n    tag_687:\n        /* \"#utility.yul\":37544:37683   */\n      swap1\n      pop\n        /* \"#utility.yul\":37271:37690   */\n      swap2\n      swap1\n      pop\n      jump\t// out\n        /* \"#utility.yul\":37696:37876   */\n    tag_369:\n        /* \"#utility.yul\":37744:37821   */\n      0x4e487b7100000000000000000000000000000000000000000000000000000000\n        /* \"#utility.yul\":37741:37742   */\n      0x00\n        /* \"#utility.yul\":37734:37822   */\n      mstore\n        /* \"#utility.yul\":37841:37845   */\n      0x11\n        /* \"#utility.yul\":37838:37839   */\n      0x04\n        /* \"#utility.yul\":37831:37846   */\n      mstore\n        /* \"#utility.yul\":37865:37869   */\n      0x24\n        /* \"#utility.yul\":37862:37863   */\n      0x00\n        /* \"#utility.yul\":37855:37870   */\n      revert\n        /* \"#utility.yul\":37882:38115   */\n    tag_275:\n        /* \"#utility.yul\":37921:37924   */\n      0x00\n        /* \"#utility.yul\":37944:37968   */\n      tag_690\n        /* \"#utility.yul\":37962:37967   */\n      dup3\n        /* \"#utility.yul\":37944:37968   */\n      tag_317\n      jump\t// in\n    tag_690:\n        /* \"#utility.yul\":37935:37968   */\n      swap2\n      pop\n        /* \"#utility.yul\":37990:38056   */\n      0xffffffffffffffffffffffffffffffffffffffffffffffffffffffffffffffff\n        /* \"#utility.yul\":37983:37988   */\n      dup3\n        /* \"#utility.yul\":37980:38057   */\n      sub\n        /* \"#utility.yul\":37977:38080   */\n      tag_691\n      jumpi\n        /* \"#utility.yul\":38060:38078   */\n      tag_692\n      tag_369\n      jump\t// in\n    tag_692:\n        /* \"#utility.yul\":37977:38080   */\n    tag_691:\n        /* \"#utility.yul\":38107:38108   */\n      0x01\n        /* \"#utility.yul\":38100:38105   */\n      dup3\n        /* \"#utility.yul\":38096:38109   */\n      add\n        /* \"#utility.yul\":38089:38109   */\n      swap1\n      pop\n        /* \"#utility.yul\":37882:38115   */\n      swap2\n      swap1\n      pop\n      jump\t// out\n        /* \"#utility.yul\":38121:38635   */\n    tag_277:\n        /* \"#utility.yul\":38282:38286   */\n      0x00\n        /* \"#utility.yul\":38320:38322   */\n      0x40\n        /* \"#utility.yul\":38309:38318   */\n      dup3\n        /* \"#utility.yul\":38305:38323   */\n      add\n        /* \"#utility.yul\":38297:38323   */\n      swap1\n      pop\n        /* \"#utility.yul\":38369:38378   */\n      dup2\n        /* \"#utility.yul\":38363:38367   */\n      dup2\n        /* \"#utility.yul\":38359:38379   */\n      sub\n        /* \"#utility.yul\":38355:38356   */\n      0x00\n        /* \"#utility.yul\":38344:38353   */\n      dup4\n        /* \"#utility.yul\":38340:38357   */\n      add\n        /* \"#utility.yul\":38333:38380   */\n      mstore\n        /* \"#utility.yul\":38397:38475   */\n      tag_694\n        /* \"#utility.yul\":38470:38474   */\n      dup2\n        /* \"#utility.yul\":38461:38467   */\n      dup6\n        /* \"#utility.yul\":38397:38475   */\n      tag_328\n      jump\t// in\n    tag_694:\n        /* \"#utility.yul\":38389:38475   */\n      swap1\n      pop\n        /* \"#utility.yul\":38522:38531   */\n      dup2\n        /* \"#utility.yul\":38516:38520   */\n      dup2\n        /* \"#utility.yul\":38512:38532   */\n      sub\n        /* \"#utility.yul\":38507:38509   */\n      0x20\n        /* \"#utility.yul\":38496:38505   */\n      dup4\n        /* \"#utility.yul\":38492:38510   */\n      add\n        /* \"#utility.yul\":38485:38533   */\n      mstore\n        /* \"#utility.yul\":38550:38628   */\n      tag_695\n        /* \"#utility.yul\":38623:38627   */\n      dup2\n        /* \"#utility.yul\":38614:38620   */\n      dup5\n        /* \"#utility.yul\":38550:38628   */\n      tag_328\n      jump\t// in\n    tag_695:\n        /* \"#utility.yul\":38542:38628   */\n      swap1\n      pop\n        /* \"#utility.yul\":38121:38635   */\n      swap4\n      swap3\n      pop\n      pop\n      pop\n      jump\t// out\n\n    auxdata: 0xa264697066735822122099ec0340899a5e9ce448de42fa165aeb9ef7fc6b54b6ac9438fe9d63068e72b464736f6c634300081a0033\n}\n",
				"bytecode": {
					"linkReferences": {},
					"object": "608060405234801561000f575f80fd5b50604051612dfa380380612dfa833981810160405281019061003191906101e5565b604051806040016040528083815260200182815250600183604051610056919061029f565b90815260200160405180910390205f820151815f01908161007791906104b8565b50602082015181600101908161008d91906104b8565b509050505050610587565b5f604051905090565b5f80fd5b5f80fd5b5f80fd5b5f80fd5b5f601f19601f8301169050919050565b7f4e487b71000000000000000000000000000000000000000000000000000000005f52604160045260245ffd5b6100f7826100b1565b810181811067ffffffffffffffff82111715610116576101156100c1565b5b80604052505050565b5f610128610098565b905061013482826100ee565b919050565b5f67ffffffffffffffff821115610153576101526100c1565b5b61015c826100b1565b9050602081019050919050565b8281835e5f83830152505050565b5f61018961018484610139565b61011f565b9050828152602081018484840111156101a5576101a46100ad565b5b6101b0848285610169565b509392505050565b5f82601f8301126101cc576101cb6100a9565b5b81516101dc848260208601610177565b91505092915050565b5f80604083850312156101fb576101fa6100a1565b5b5f83015167ffffffffffffffff811115610218576102176100a5565b5b610224858286016101b8565b925050602083015167ffffffffffffffff811115610245576102446100a5565b5b610251858286016101b8565b9150509250929050565b5f81519050919050565b5f81905092915050565b5f6102798261025b565b6102838185610265565b9350610293818560208601610169565b80840191505092915050565b5f6102aa828461026f565b915081905092915050565b7f4e487b71000000000000000000000000000000000000000000000000000000005f52602260045260245ffd5b5f60028204905060018216806102f957607f821691505b60208210810361030c5761030b6102b5565b5b50919050565b5f819050815f5260205f209050919050565b5f6020601f8301049050919050565b5f82821b905092915050565b5f6008830261036e7fffffffffffffffffffffffffffffffffffffffffffffffffffffffffffffffff82610333565b6103788683610333565b95508019841693508086168417925050509392505050565b5f819050919050565b5f819050919050565b5f6103bc6103b76103b284610390565b610399565b610390565b9050919050565b5f819050919050565b6103d5836103a2565b6103e96103e1826103c3565b84845461033f565b825550505050565b5f90565b6103fd6103f1565b6104088184846103cc565b505050565b5b8181101561042b576104205f826103f5565b60018101905061040e565b5050565b601f8211156104705761044181610312565b61044a84610324565b81016020851015610459578190505b61046d61046585610324565b83018261040d565b50505b505050565b5f82821c905092915050565b5f6104905f1984600802610475565b1980831691505092915050565b5f6104a88383610481565b9150826002028217905092915050565b6104c18261025b565b67ffffffffffffffff8111156104da576104d96100c1565b5b6104e482546102e2565b6104ef82828561042f565b5f60209050601f831160018114610520575f841561050e578287015190505b610518858261049d565b86555061057f565b601f19841661052e86610312565b5f5b8281101561055557848901518255600182019150602085019450602081019050610530565b86831015610572578489015161056e601f891682610481565b8355505b6001600288020188555050505b505050505050565b612866806105945f395ff3fe608060405234801561000f575f80fd5b506004361061009c575f3560e01c80639d3adf5b116100645780639d3adf5b1461016c578063b7ff50fc1461019c578063c7bbf8af146101cc578063e8d5940d146101e8578063f36be3dd146102045761009c565b80631f459041146100a05780636fcf1c7d146100bc5780637fd5f268146100ec578063897de2521461010b578063928cb52e1461013c575b5f80fd5b6100ba60048036038101906100b5919061182b565b610222565b005b6100d660048036038101906100d1919061182b565b610286565b6040516100e391906118bb565b60405180910390f35b6100f4610313565b604051610102929190611c6c565b60405180910390f35b61012560048036038101906101209190611ca1565b610856565b604051610133929190611db3565b60405180910390f35b61015660048036038101906101519190611ca1565b610bb3565b6040516101639190611e4f565b60405180910390f35b61018660048036038101906101819190611ca1565b610f32565b6040516101939190611e6f565b60405180910390f35b6101b660048036038101906101b1919061182b565b611082565b6040516101c39190611e9e565b60405180910390f35b6101e660048036038101906101e191906120c4565b611186565b005b61020260048036038101906101fd919061182b565b61149e565b005b61020c6115e4565b6040516102199190611e6f565b60405180910390f35b60405180604001604052808381526020018281525060018360405161024791906121f7565b90815260200160405180910390205f820151815f0190816102689190612407565b50602082015181600101908161027e9190612407565b509050505050565b5f8060018460405161029891906121f7565b90815260200160405180910390209050826040516020016102b991906121f7565b60405160208183030381529060405280519060200120816001016040516020016102e39190612556565b604051602081830303815290604052805190602001200361030857600191505061030d565b5f9150505b92915050565b6060805f60028054905090505f8167ffffffffffffffff81111561033a57610339611707565b5b60405190808252806020026020018201604052801561036d57816020015b60608152602001906001900390816103585790505b5090505f8267ffffffffffffffff81111561038b5761038a611707565b5b6040519080825280602002602001820160405280156103c457816020015b6103b16116b8565b8152602001906001900390816103a95790505b5090505f5b8381101561084857600281815481106103e5576103e461256c565b5b905f5260205f200180546103f89061223a565b80601f01602080910402602001604051908101604052809291908181526020018280546104249061223a565b801561046f5780601f106104465761010080835404028352916020019161046f565b820191905f5260205f20905b81548152906001019060200180831161045257829003601f168201915b50505050508382815181106104875761048661256c565b5b60200260200101819052505f600282815481106104a7576104a661256c565b5b905f5260205f20016040516104bc9190612556565b90815260200160405180910390206040518060800160405290815f820180546104e49061223a565b80601f01602080910402602001604051908101604052809291908181526020018280546105109061223a565b801561055b5780601f106105325761010080835404028352916020019161055b565b820191905f5260205f20905b81548152906001019060200180831161053e57829003601f168201915b5050505050815260200160018201805480602002602001604051908101604052809291908181526020015f905b82821015610801578382905f5260205f2090600502016040518060a00160405290815f820180546105b89061223a565b80601f01602080910402602001604051908101604052809291908181526020018280546105e49061223a565b801561062f5780601f106106065761010080835404028352916020019161062f565b820191905f5260205f20905b81548152906001019060200180831161061257829003601f168201915b505050505081526020016001820180546106489061223a565b80601f01602080910402602001604051908101604052809291908181526020018280546106749061223a565b80156106bf5780601f10610696576101008083540402835291602001916106bf565b820191905f5260205f20905b8154815290600101906020018083116106a257829003601f168201915b505050505081526020016002820180546106d89061223a565b80601f01602080910402602001604051908101604052809291908181526020018280546107049061223a565b801561074f5780601f106107265761010080835404028352916020019161074f565b820191905f5260205f20905b81548152906001019060200180831161073257829003601f168201915b505050505081526020016003820180546107689061223a565b80601f01602080910402602001604051908101604052809291908181526020018280546107949061223a565b80156107df5780601f106107b6576101008083540402835291602001916107df565b820191905f5260205f20905b8154815290600101906020018083116107c257829003601f168201915b5050505050815260200160048201548152505081526020019060010190610588565b505050508152602001600282015481526020016003820154815250508282815181106108305761082f61256c565b5b602002602001018190525080806001019150506103c9565b508181945094505050509091565b6060805f808460405161086991906121f7565b90815260200160405180910390209050805f018160010181805461088c9061223a565b80601f01602080910402602001604051908101604052809291908181526020018280546108b89061223a565b80156109035780601f106108da57610100808354040283529160200191610903565b820191905f5260205f20905b8154815290600101906020018083116108e657829003601f168201915b5050505050915080805480602002602001604051908101604052809291908181526020015f905b82821015610ba3578382905f5260205f2090600502016040518060a00160405290815f8201805461095a9061223a565b80601f01602080910402602001604051908101604052809291908181526020018280546109869061223a565b80156109d15780601f106109a8576101008083540402835291602001916109d1565b820191905f5260205f20905b8154815290600101906020018083116109b457829003601f168201915b505050505081526020016001820180546109ea9061223a565b80601f0160208091040260200160405190810160405280929190818152602001828054610a169061223a565b8015610a615780601f10610a3857610100808354040283529160200191610a61565b820191905f5260205f20905b815481529060010190602001808311610a4457829003601f168201915b50505050508152602001600282018054610a7a9061223a565b80601f0160208091040260200160405190810160405280929190818152602001828054610aa69061223a565b8015610af15780601f10610ac857610100808354040283529160200191610af1565b820191905f5260205f20905b815481529060010190602001808311610ad457829003601f168201915b50505050508152602001600382018054610b0a9061223a565b80601f0160208091040260200160405190810160405280929190818152602001828054610b369061223a565b8015610b815780601f10610b5857610100808354040283529160200191610b81565b820191905f5260205f20905b815481529060010190602001808311610b6457829003601f168201915b505050505081526020016004820154815250508152602001906001019061092a565b5050505090509250925050915091565b610bbb6116b8565b5f82604051610bca91906121f7565b90815260200160405180910390206040518060800160405290815f82018054610bf29061223a565b80601f0160208091040260200160405190810160405280929190818152602001828054610c1e9061223a565b8015610c695780601f10610c4057610100808354040283529160200191610c69565b820191905f5260205f20905b815481529060010190602001808311610c4c57829003601f168201915b5050505050815260200160018201805480602002602001604051908101604052809291908181526020015f905b82821015610f0f578382905f5260205f2090600502016040518060a00160405290815f82018054610cc69061223a565b80601f0160208091040260200160405190810160405280929190818152602001828054610cf29061223a565b8015610d3d5780601f10610d1457610100808354040283529160200191610d3d565b820191905f5260205f20905b815481529060010190602001808311610d2057829003601f168201915b50505050508152602001600182018054610d569061223a565b80601f0160208091040260200160405190810160405280929190818152602001828054610d829061223a565b8015610dcd5780601f10610da457610100808354040283529160200191610dcd565b820191905f5260205f20905b815481529060010190602001808311610db057829003601f168201915b50505050508152602001600282018054610de69061223a565b80601f0160208091040260200160405190810160405280929190818152602001828054610e129061223a565b8015610e5d5780601f10610e3457610100808354040283529160200191610e5d565b820191905f5260205f20905b815481529060010190602001808311610e4057829003601f168201915b50505050508152602001600382018054610e769061223a565b80601f0160208091040260200160405190810160405280929190818152602001828054610ea29061223a565b8015610eed5780601f10610ec457610100808354040283529160200191610eed565b820191905f5260205f20905b815481529060010190602001808311610ed057829003601f168201915b5050505050815260200160048201548152505081526020019060010190610c96565b505050508152602001600282015481526020016003820154815250509050919050565b60605f8083604051610f4491906121f7565b908152602001604051809103902090505f816001018054905067ffffffffffffffff811115610f7657610f75611707565b5b604051908082528060200260200182016040528015610fa957816020015b6060815260200190600190039081610f945790505b5090505f5b826001018054905081101561107757826001018181548110610fd357610fd261256c565b5b905f5260205f2090600502015f01836001018281548110610ff757610ff661256c565b5b905f5260205f20906005020160010184600101838154811061101c5761101b61256c565b5b905f5260205f20906005020160020160405160200161103d939291906125e3565b60405160208183030381529060405282828151811061105f5761105e61256c565b5b60200260200101819052508080600101915050610fae565b508092505050919050565b5f805f8460405161109391906121f7565b908152602001604051809103902090505f5b816001018054905081101561117a575f8260010182815481106110cb576110ca61256c565b5b905f5260205f20906005020190505f815f0182600101836002016040516020016110f7939291906125e3565b60405160208183030381529060405290508560405160200161111991906121f7565b604051602081830303815290604052805190602001208160405160200161114091906121f7565b604051602081830303815290604052805190602001200361116b578160040154945050505050611180565b505080806001019150506110a5565b505f9150505b92915050565b81818060405160200161119991906121f7565b604051602081830303815290604052805190602001206001836040516111bf91906121f7565b90815260200160405180910390206001016040516020016111e09190612556565b6040516020818303038152906040528051906020012014611236576040517f08c379a000000000000000000000000000000000000000000000000000000000815260040161122d90612699565b60405180910390fd5b5f885111611279576040517f08c379a000000000000000000000000000000000000000000000000000000000815260040161127090612701565b60405180910390fd5b5f808960405161128991906121f7565b908152602001604051809103902060020154146112db576040517f08c379a00000000000000000000000000000000000000000000000000000000081526004016112d290612769565b60405180910390fd5b5f80896040516112eb91906121f7565b9081526020016040518091039020905088815f01908161130b9190612407565b508681600201819055508581600301819055505f5b885181101561146057816001016040518060a001604052808b848151811061134b5761134a61256c565b5b60200260200101515f015181526020018b848151811061136e5761136d61256c565b5b60200260200101516020015181526020018b84815181106113925761139161256c565b5b60200260200101516040015181526020018b84815181106113b6576113b561256c565b5b60200260200101516060015181526020015f815250908060018154018082558091505060019003905f5260205f2090600502015f909190919091505f820151815f0190816114049190612407565b50602082015181600101908161141a9190612407565b5060408201518160020190816114309190612407565b5060608201518160030190816114469190612407565b506080820151816004015550508080600101915050611320565b50600289908060018154018082558091505060019003905f5260205f20015f9091909190915090816114929190612407565b50505050505050505050565b5f80836040516114ae91906121f7565b908152602001604051809103902090505f5b81600101805490508110156115de575f8260010182815481106114e6576114e561256c565b5b905f5260205f20906005020190505f815f018260010183600201604051602001611512939291906125e3565b60405160208183030381529060405290508460405160200161153491906121f7565b604051602081830303815290604052805190602001208160405160200161155b91906121f7565b60405160208183030381529060405280519060200120036115cf57816004015f81548092919061158a906127b4565b91905055507f137ad23732468494166ec34d1367743690ffa17f6ceac8429cba8fc35d088b6e86826040516115c09291906127fb565b60405180910390a150506115de565b505080806001019150506114c0565b50505050565b60606002805480602002602001604051908101604052809291908181526020015f905b828210156116af578382905f5260205f200180546116249061223a565b80601f01602080910402602001604051908101604052809291908181526020018280546116509061223a565b801561169b5780601f106116725761010080835404028352916020019161169b565b820191905f5260205f20905b81548152906001019060200180831161167e57829003601f168201915b505050505081526020019060010190611607565b50505050905090565b604051806080016040528060608152602001606081526020015f81526020015f81525090565b5f604051905090565b5f80fd5b5f80fd5b5f80fd5b5f80fd5b5f601f19601f8301169050919050565b7f4e487b71000000000000000000000000000000000000000000000000000000005f52604160045260245ffd5b61173d826116f7565b810181811067ffffffffffffffff8211171561175c5761175b611707565b5b80604052505050565b5f61176e6116de565b905061177a8282611734565b919050565b5f67ffffffffffffffff82111561179957611798611707565b5b6117a2826116f7565b9050602081019050919050565b828183375f83830152505050565b5f6117cf6117ca8461177f565b611765565b9050828152602081018484840111156117eb576117ea6116f3565b5b6117f68482856117af565b509392505050565b5f82601f830112611812576118116116ef565b5b81356118228482602086016117bd565b91505092915050565b5f8060408385031215611841576118406116e7565b5b5f83013567ffffffffffffffff81111561185e5761185d6116eb565b5b61186a858286016117fe565b925050602083013567ffffffffffffffff81111561188b5761188a6116eb565b5b611897858286016117fe565b9150509250929050565b5f8115159050919050565b6118b5816118a1565b82525050565b5f6020820190506118ce5f8301846118ac565b92915050565b5f81519050919050565b5f82825260208201905092915050565b5f819050602082019050919050565b5f81519050919050565b5f82825260208201905092915050565b8281835e5f83830152505050565b5f61192f826118fd565b6119398185611907565b9350611949818560208601611917565b611952816116f7565b840191505092915050565b5f6119688383611925565b905092915050565b5f602082019050919050565b5f611986826118d4565b61199081856118de565b9350836020820285016119a2856118ee565b805f5b858110156119dd57848403895281516119be858261195d565b94506119c983611970565b925060208a019950506001810190506119a5565b50829750879550505050505092915050565b5f81519050919050565b5f82825260208201905092915050565b5f819050602082019050919050565b5f81519050919050565b5f82825260208201905092915050565b5f819050602082019050919050565b5f819050919050565b611a5381611a41565b82525050565b5f60a083015f8301518482035f860152611a738282611925565b91505060208301518482036020860152611a8d8282611925565b91505060408301518482036040860152611aa78282611925565b91505060608301518482036060860152611ac18282611925565b9150506080830151611ad66080860182611a4a565b508091505092915050565b5f611aec8383611a59565b905092915050565b5f602082019050919050565b5f611b0a82611a18565b611b148185611a22565b935083602082028501611b2685611a32565b805f5b85811015611b615784840389528151611b428582611ae1565b9450611b4d83611af4565b925060208a01995050600181019050611b29565b50829750879550505050505092915050565b5f608083015f8301518482035f860152611b8d8282611925565b91505060208301518482036020860152611ba78282611b00565b9150506040830151611bbc6040860182611a4a565b506060830151611bcf6060860182611a4a565b508091505092915050565b5f611be58383611b73565b905092915050565b5f602082019050919050565b5f611c03826119ef565b611c0d81856119f9565b935083602082028501611c1f85611a09565b805f5b85811015611c5a5784840389528151611c3b8582611bda565b9450611c4683611bed565b925060208a01995050600181019050611c22565b50829750879550505050505092915050565b5f6040820190508181035f830152611c84818561197c565b90508181036020830152611c988184611bf9565b90509392505050565b5f60208284031215611cb657611cb56116e7565b5b5f82013567ffffffffffffffff811115611cd357611cd26116eb565b5b611cdf848285016117fe565b91505092915050565b5f82825260208201905092915050565b5f611d02826118fd565b611d0c8185611ce8565b9350611d1c818560208601611917565b611d25816116f7565b840191505092915050565b5f82825260208201905092915050565b5f611d4a82611a18565b611d548185611d30565b935083602082028501611d6685611a32565b805f5b85811015611da15784840389528151611d828582611ae1565b9450611d8d83611af4565b925060208a01995050600181019050611d69565b50829750879550505050505092915050565b5f6040820190508181035f830152611dcb8185611cf8565b90508181036020830152611ddf8184611d40565b90509392505050565b5f608083015f8301518482035f860152611e028282611925565b91505060208301518482036020860152611e1c8282611b00565b9150506040830151611e316040860182611a4a565b506060830151611e446060860182611a4a565b508091505092915050565b5f6020820190508181035f830152611e678184611de8565b905092915050565b5f6020820190508181035f830152611e87818461197c565b905092915050565b611e9881611a41565b82525050565b5f602082019050611eb15f830184611e8f565b92915050565b5f67ffffffffffffffff821115611ed157611ed0611707565b5b602082029050602081019050919050565b5f80fd5b5f80fd5b5f80fd5b611ef781611a41565b8114611f01575f80fd5b50565b5f81359050611f1281611eee565b92915050565b5f60a08284031215611f2d57611f2c611ee6565b5b611f3760a0611765565b90505f82013567ffffffffffffffff811115611f5657611f55611eea565b5b611f62848285016117fe565b5f83015250602082013567ffffffffffffffff811115611f8557611f84611eea565b5b611f91848285016117fe565b602083015250604082013567ffffffffffffffff811115611fb557611fb4611eea565b5b611fc1848285016117fe565b604083015250606082013567ffffffffffffffff811115611fe557611fe4611eea565b5b611ff1848285016117fe565b606083015250608061200584828501611f04565b60808301525092915050565b5f61202361201e84611eb7565b611765565b9050808382526020820190506020840283018581111561204657612045611ee2565b5b835b8181101561208d57803567ffffffffffffffff81111561206b5761206a6116ef565b5b8086016120788982611f18565b85526020850194505050602081019050612048565b5050509392505050565b5f82601f8301126120ab576120aa6116ef565b5b81356120bb848260208601612011565b91505092915050565b5f805f805f8060c087890312156120de576120dd6116e7565b5b5f87013567ffffffffffffffff8111156120fb576120fa6116eb565b5b61210789828a016117fe565b965050602087013567ffffffffffffffff811115612128576121276116eb565b5b61213489828a01612097565b955050604061214589828a01611f04565b945050606061215689828a01611f04565b935050608087013567ffffffffffffffff811115612177576121766116eb565b5b61218389828a016117fe565b92505060a087013567ffffffffffffffff8111156121a4576121a36116eb565b5b6121b089828a016117fe565b9150509295509295509295565b5f81905092915050565b5f6121d1826118fd565b6121db81856121bd565b93506121eb818560208601611917565b80840191505092915050565b5f61220282846121c7565b915081905092915050565b7f4e487b71000000000000000000000000000000000000000000000000000000005f52602260045260245ffd5b5f600282049050600182168061225157607f821691505b6020821081036122645761226361220d565b5b50919050565b5f819050815f5260205f209050919050565b5f6020601f8301049050919050565b5f82821b905092915050565b5f600883026122c67fffffffffffffffffffffffffffffffffffffffffffffffffffffffffffffffff8261228b565b6122d0868361228b565b95508019841693508086168417925050509392505050565b5f819050919050565b5f61230b61230661230184611a41565b6122e8565b611a41565b9050919050565b5f819050919050565b612324836122f1565b61233861233082612312565b848454612297565b825550505050565b5f90565b61234c612340565b61235781848461231b565b505050565b5b8181101561237a5761236f5f82612344565b60018101905061235d565b5050565b601f8211156123bf576123908161226a565b6123998461227c565b810160208510156123a8578190505b6123bc6123b48561227c565b83018261235c565b50505b505050565b5f82821c905092915050565b5f6123df5f19846008026123c4565b1980831691505092915050565b5f6123f783836123d0565b9150826002028217905092915050565b612410826118fd565b67ffffffffffffffff81111561242957612428611707565b5b612433825461223a565b61243e82828561237e565b5f60209050601f83116001811461246f575f841561245d578287015190505b61246785826123ec565b8655506124ce565b601f19841661247d8661226a565b5f5b828110156124a45784890151825560018201915060208501945060208101905061247f565b868310156124c157848901516124bd601f8916826123d0565b8355505b6001600288020188555050505b505050505050565b5f81546124e28161223a565b6124ec81866121bd565b9450600182165f8114612506576001811461251b5761254d565b60ff198316865281151582028601935061254d565b6125248561226a565b5f5b8381101561254557815481890152600182019150602081019050612526565b838801955050505b50505092915050565b5f61256182846124d6565b915081905092915050565b7f4e487b71000000000000000000000000000000000000000000000000000000005f52603260045260245ffd5b7f20000000000000000000000000000000000000000000000000000000000000005f82015250565b5f6125cd6001836121bd565b91506125d882612599565b600182019050919050565b5f6125ee82866124d6565b91506125f9826125c1565b915061260582856124d6565b9150612610826125c1565b915061261c82846124d6565b9150819050949350505050565b7f4e6f7420616e2061646d696e206f7220696e636f72726563742070617373776f5f8201527f7264000000000000000000000000000000000000000000000000000000000000602082015250565b5f612683602283611ce8565b915061268e82612629565b604082019050919050565b5f6020820190508181035f8301526126b081612677565b9050919050565b7f456c656374696f6e206e616d652063616e6e6f7420626520656d7074790000005f82015250565b5f6126eb601d83611ce8565b91506126f6826126b7565b602082019050919050565b5f6020820190508181035f830152612718816126df565b9050919050565b7f456c656374696f6e20616c7265616479206578697374730000000000000000005f82015250565b5f612753601783611ce8565b915061275e8261271f565b602082019050919050565b5f6020820190508181035f83015261278081612747565b9050919050565b7f4e487b71000000000000000000000000000000000000000000000000000000005f52601160045260245ffd5b5f6127be82611a41565b91507fffffffffffffffffffffffffffffffffffffffffffffffffffffffffffffffff82036127f0576127ef612787565b5b600182019050919050565b5f6040820190508181035f8301526128138185611cf8565b905081810360208301526128278184611cf8565b9050939250505056fea264697066735822122099ec0340899a5e9ce448de42fa165aeb9ef7fc6b54b6ac9438fe9d63068e72b464736f6c634300081a0033",
					"opcodes": "PUSH1 0x80 PUSH1 0x40 MSTORE CALLVALUE DUP1 ISZERO PUSH2 0xF JUMPI PUSH0 DUP1 REVERT JUMPDEST POP PUSH1 0x40 MLOAD PUSH2 0x2DFA CODESIZE SUB DUP1 PUSH2 0x2DFA DUP4 CODECOPY DUP2 DUP2 ADD PUSH1 0x40 MSTORE DUP2 ADD SWAP1 PUSH2 0x31 SWAP2 SWAP1 PUSH2 0x1E5 JUMP JUMPDEST PUSH1 0x40 MLOAD DUP1 PUSH1 0x40 ADD PUSH1 0x40 MSTORE DUP1 DUP4 DUP2 MSTORE PUSH1 0x20 ADD DUP3 DUP2 MSTORE POP PUSH1 0x1 DUP4 PUSH1 0x40 MLOAD PUSH2 0x56 SWAP2 SWAP1 PUSH2 0x29F JUMP JUMPDEST SWAP1 DUP2 MSTORE PUSH1 0x20 ADD PUSH1 0x40 MLOAD DUP1 SWAP2 SUB SWAP1 KECCAK256 PUSH0 DUP3 ADD MLOAD DUP2 PUSH0 ADD SWAP1 DUP2 PUSH2 0x77 SWAP2 SWAP1 PUSH2 0x4B8 JUMP JUMPDEST POP PUSH1 0x20 DUP3 ADD MLOAD DUP2 PUSH1 0x1 ADD SWAP1 DUP2 PUSH2 0x8D SWAP2 SWAP1 PUSH2 0x4B8 JUMP JUMPDEST POP SWAP1 POP POP POP POP PUSH2 0x587 JUMP JUMPDEST PUSH0 PUSH1 0x40 MLOAD SWAP1 POP SWAP1 JUMP JUMPDEST PUSH0 DUP1 REVERT JUMPDEST PUSH0 DUP1 REVERT JUMPDEST PUSH0 DUP1 REVERT JUMPDEST PUSH0 DUP1 REVERT JUMPDEST PUSH0 PUSH1 0x1F NOT PUSH1 0x1F DUP4 ADD AND SWAP1 POP SWAP2 SWAP1 POP JUMP JUMPDEST PUSH32 0x4E487B7100000000000000000000000000000000000000000000000000000000 PUSH0 MSTORE PUSH1 0x41 PUSH1 0x4 MSTORE PUSH1 0x24 PUSH0 REVERT JUMPDEST PUSH2 0xF7 DUP3 PUSH2 0xB1 JUMP JUMPDEST DUP2 ADD DUP2 DUP2 LT PUSH8 0xFFFFFFFFFFFFFFFF DUP3 GT OR ISZERO PUSH2 0x116 JUMPI PUSH2 0x115 PUSH2 0xC1 JUMP JUMPDEST JUMPDEST DUP1 PUSH1 0x40 MSTORE POP POP POP JUMP JUMPDEST PUSH0 PUSH2 0x128 PUSH2 0x98 JUMP JUMPDEST SWAP1 POP PUSH2 0x134 DUP3 DUP3 PUSH2 0xEE JUMP JUMPDEST SWAP2 SWAP1 POP JUMP JUMPDEST PUSH0 PUSH8 0xFFFFFFFFFFFFFFFF DUP3 GT ISZERO PUSH2 0x153 JUMPI PUSH2 0x152 PUSH2 0xC1 JUMP JUMPDEST JUMPDEST PUSH2 0x15C DUP3 PUSH2 0xB1 JUMP JUMPDEST SWAP1 POP PUSH1 0x20 DUP2 ADD SWAP1 POP SWAP2 SWAP1 POP JUMP JUMPDEST DUP3 DUP2 DUP4 MCOPY PUSH0 DUP4 DUP4 ADD MSTORE POP POP POP JUMP JUMPDEST PUSH0 PUSH2 0x189 PUSH2 0x184 DUP5 PUSH2 0x139 JUMP JUMPDEST PUSH2 0x11F JUMP JUMPDEST SWAP1 POP DUP3 DUP2 MSTORE PUSH1 0x20 DUP2 ADD DUP5 DUP5 DUP5 ADD GT ISZERO PUSH2 0x1A5 JUMPI PUSH2 0x1A4 PUSH2 0xAD JUMP JUMPDEST JUMPDEST PUSH2 0x1B0 DUP5 DUP3 DUP6 PUSH2 0x169 JUMP JUMPDEST POP SWAP4 SWAP3 POP POP POP JUMP JUMPDEST PUSH0 DUP3 PUSH1 0x1F DUP4 ADD SLT PUSH2 0x1CC JUMPI PUSH2 0x1CB PUSH2 0xA9 JUMP JUMPDEST JUMPDEST DUP2 MLOAD PUSH2 0x1DC DUP5 DUP3 PUSH1 0x20 DUP7 ADD PUSH2 0x177 JUMP JUMPDEST SWAP2 POP POP SWAP3 SWAP2 POP POP JUMP JUMPDEST PUSH0 DUP1 PUSH1 0x40 DUP4 DUP6 SUB SLT ISZERO PUSH2 0x1FB JUMPI PUSH2 0x1FA PUSH2 0xA1 JUMP JUMPDEST JUMPDEST PUSH0 DUP4 ADD MLOAD PUSH8 0xFFFFFFFFFFFFFFFF DUP2 GT ISZERO PUSH2 0x218 JUMPI PUSH2 0x217 PUSH2 0xA5 JUMP JUMPDEST JUMPDEST PUSH2 0x224 DUP6 DUP3 DUP7 ADD PUSH2 0x1B8 JUMP JUMPDEST SWAP3 POP POP PUSH1 0x20 DUP4 ADD MLOAD PUSH8 0xFFFFFFFFFFFFFFFF DUP2 GT ISZERO PUSH2 0x245 JUMPI PUSH2 0x244 PUSH2 0xA5 JUMP JUMPDEST JUMPDEST PUSH2 0x251 DUP6 DUP3 DUP7 ADD PUSH2 0x1B8 JUMP JUMPDEST SWAP2 POP POP SWAP3 POP SWAP3 SWAP1 POP JUMP JUMPDEST PUSH0 DUP2 MLOAD SWAP1 POP SWAP2 SWAP1 POP JUMP JUMPDEST PUSH0 DUP2 SWAP1 POP SWAP3 SWAP2 POP POP JUMP JUMPDEST PUSH0 PUSH2 0x279 DUP3 PUSH2 0x25B JUMP JUMPDEST PUSH2 0x283 DUP2 DUP6 PUSH2 0x265 JUMP JUMPDEST SWAP4 POP PUSH2 0x293 DUP2 DUP6 PUSH1 0x20 DUP7 ADD PUSH2 0x169 JUMP JUMPDEST DUP1 DUP5 ADD SWAP2 POP POP SWAP3 SWAP2 POP POP JUMP JUMPDEST PUSH0 PUSH2 0x2AA DUP3 DUP5 PUSH2 0x26F JUMP JUMPDEST SWAP2 POP DUP2 SWAP1 POP SWAP3 SWAP2 POP POP JUMP JUMPDEST PUSH32 0x4E487B7100000000000000000000000000000000000000000000000000000000 PUSH0 MSTORE PUSH1 0x22 PUSH1 0x4 MSTORE PUSH1 0x24 PUSH0 REVERT JUMPDEST PUSH0 PUSH1 0x2 DUP3 DIV SWAP1 POP PUSH1 0x1 DUP3 AND DUP1 PUSH2 0x2F9 JUMPI PUSH1 0x7F DUP3 AND SWAP2 POP JUMPDEST PUSH1 0x20 DUP3 LT DUP2 SUB PUSH2 0x30C JUMPI PUSH2 0x30B PUSH2 0x2B5 JUMP JUMPDEST JUMPDEST POP SWAP2 SWAP1 POP JUMP JUMPDEST PUSH0 DUP2 SWAP1 POP DUP2 PUSH0 MSTORE PUSH1 0x20 PUSH0 KECCAK256 SWAP1 POP SWAP2 SWAP1 POP JUMP JUMPDEST PUSH0 PUSH1 0x20 PUSH1 0x1F DUP4 ADD DIV SWAP1 POP SWAP2 SWAP1 POP JUMP JUMPDEST PUSH0 DUP3 DUP3 SHL SWAP1 POP SWAP3 SWAP2 POP POP JUMP JUMPDEST PUSH0 PUSH1 0x8 DUP4 MUL PUSH2 0x36E PUSH32 0xFFFFFFFFFFFFFFFFFFFFFFFFFFFFFFFFFFFFFFFFFFFFFFFFFFFFFFFFFFFFFFFF DUP3 PUSH2 0x333 JUMP JUMPDEST PUSH2 0x378 DUP7 DUP4 PUSH2 0x333 JUMP JUMPDEST SWAP6 POP DUP1 NOT DUP5 AND SWAP4 POP DUP1 DUP7 AND DUP5 OR SWAP3 POP POP POP SWAP4 SWAP3 POP POP POP JUMP JUMPDEST PUSH0 DUP2 SWAP1 POP SWAP2 SWAP1 POP JUMP JUMPDEST PUSH0 DUP2 SWAP1 POP SWAP2 SWAP1 POP JUMP JUMPDEST PUSH0 PUSH2 0x3BC PUSH2 0x3B7 PUSH2 0x3B2 DUP5 PUSH2 0x390 JUMP JUMPDEST PUSH2 0x399 JUMP JUMPDEST PUSH2 0x390 JUMP JUMPDEST SWAP1 POP SWAP2 SWAP1 POP JUMP JUMPDEST PUSH0 DUP2 SWAP1 POP SWAP2 SWAP1 POP JUMP JUMPDEST PUSH2 0x3D5 DUP4 PUSH2 0x3A2 JUMP JUMPDEST PUSH2 0x3E9 PUSH2 0x3E1 DUP3 PUSH2 0x3C3 JUMP JUMPDEST DUP5 DUP5 SLOAD PUSH2 0x33F JUMP JUMPDEST DUP3 SSTORE POP POP POP POP JUMP JUMPDEST PUSH0 SWAP1 JUMP JUMPDEST PUSH2 0x3FD PUSH2 0x3F1 JUMP JUMPDEST PUSH2 0x408 DUP2 DUP5 DUP5 PUSH2 0x3CC JUMP JUMPDEST POP POP POP JUMP JUMPDEST JUMPDEST DUP2 DUP2 LT ISZERO PUSH2 0x42B JUMPI PUSH2 0x420 PUSH0 DUP3 PUSH2 0x3F5 JUMP JUMPDEST PUSH1 0x1 DUP2 ADD SWAP1 POP PUSH2 0x40E JUMP JUMPDEST POP POP JUMP JUMPDEST PUSH1 0x1F DUP3 GT ISZERO PUSH2 0x470 JUMPI PUSH2 0x441 DUP2 PUSH2 0x312 JUMP JUMPDEST PUSH2 0x44A DUP5 PUSH2 0x324 JUMP JUMPDEST DUP2 ADD PUSH1 0x20 DUP6 LT ISZERO PUSH2 0x459 JUMPI DUP2 SWAP1 POP JUMPDEST PUSH2 0x46D PUSH2 0x465 DUP6 PUSH2 0x324 JUMP JUMPDEST DUP4 ADD DUP3 PUSH2 0x40D JUMP JUMPDEST POP POP JUMPDEST POP POP POP JUMP JUMPDEST PUSH0 DUP3 DUP3 SHR SWAP1 POP SWAP3 SWAP2 POP POP JUMP JUMPDEST PUSH0 PUSH2 0x490 PUSH0 NOT DUP5 PUSH1 0x8 MUL PUSH2 0x475 JUMP JUMPDEST NOT DUP1 DUP4 AND SWAP2 POP POP SWAP3 SWAP2 POP POP JUMP JUMPDEST PUSH0 PUSH2 0x4A8 DUP4 DUP4 PUSH2 0x481 JUMP JUMPDEST SWAP2 POP DUP3 PUSH1 0x2 MUL DUP3 OR SWAP1 POP SWAP3 SWAP2 POP POP JUMP JUMPDEST PUSH2 0x4C1 DUP3 PUSH2 0x25B JUMP JUMPDEST PUSH8 0xFFFFFFFFFFFFFFFF DUP2 GT ISZERO PUSH2 0x4DA JUMPI PUSH2 0x4D9 PUSH2 0xC1 JUMP JUMPDEST JUMPDEST PUSH2 0x4E4 DUP3 SLOAD PUSH2 0x2E2 JUMP JUMPDEST PUSH2 0x4EF DUP3 DUP3 DUP6 PUSH2 0x42F JUMP JUMPDEST PUSH0 PUSH1 0x20 SWAP1 POP PUSH1 0x1F DUP4 GT PUSH1 0x1 DUP2 EQ PUSH2 0x520 JUMPI PUSH0 DUP5 ISZERO PUSH2 0x50E JUMPI DUP3 DUP8 ADD MLOAD SWAP1 POP JUMPDEST PUSH2 0x518 DUP6 DUP3 PUSH2 0x49D JUMP JUMPDEST DUP7 SSTORE POP PUSH2 0x57F JUMP JUMPDEST PUSH1 0x1F NOT DUP5 AND PUSH2 0x52E DUP7 PUSH2 0x312 JUMP JUMPDEST PUSH0 JUMPDEST DUP3 DUP2 LT ISZERO PUSH2 0x555 JUMPI DUP5 DUP10 ADD MLOAD DUP3 SSTORE PUSH1 0x1 DUP3 ADD SWAP2 POP PUSH1 0x20 DUP6 ADD SWAP5 POP PUSH1 0x20 DUP2 ADD SWAP1 POP PUSH2 0x530 JUMP JUMPDEST DUP7 DUP4 LT ISZERO PUSH2 0x572 JUMPI DUP5 DUP10 ADD MLOAD PUSH2 0x56E PUSH1 0x1F DUP10 AND DUP3 PUSH2 0x481 JUMP JUMPDEST DUP4 SSTORE POP JUMPDEST PUSH1 0x1 PUSH1 0x2 DUP9 MUL ADD DUP9 SSTORE POP POP POP JUMPDEST POP POP POP POP POP POP JUMP JUMPDEST PUSH2 0x2866 DUP1 PUSH2 0x594 PUSH0 CODECOPY PUSH0 RETURN INVALID PUSH1 0x80 PUSH1 0x40 MSTORE CALLVALUE DUP1 ISZERO PUSH2 0xF JUMPI PUSH0 DUP1 REVERT JUMPDEST POP PUSH1 0x4 CALLDATASIZE LT PUSH2 0x9C JUMPI PUSH0 CALLDATALOAD PUSH1 0xE0 SHR DUP1 PUSH4 0x9D3ADF5B GT PUSH2 0x64 JUMPI DUP1 PUSH4 0x9D3ADF5B EQ PUSH2 0x16C JUMPI DUP1 PUSH4 0xB7FF50FC EQ PUSH2 0x19C JUMPI DUP1 PUSH4 0xC7BBF8AF EQ PUSH2 0x1CC JUMPI DUP1 PUSH4 0xE8D5940D EQ PUSH2 0x1E8 JUMPI DUP1 PUSH4 0xF36BE3DD EQ PUSH2 0x204 JUMPI PUSH2 0x9C JUMP JUMPDEST DUP1 PUSH4 0x1F459041 EQ PUSH2 0xA0 JUMPI DUP1 PUSH4 0x6FCF1C7D EQ PUSH2 0xBC JUMPI DUP1 PUSH4 0x7FD5F268 EQ PUSH2 0xEC JUMPI DUP1 PUSH4 0x897DE252 EQ PUSH2 0x10B JUMPI DUP1 PUSH4 0x928CB52E EQ PUSH2 0x13C JUMPI JUMPDEST PUSH0 DUP1 REVERT JUMPDEST PUSH2 0xBA PUSH1 0x4 DUP1 CALLDATASIZE SUB DUP2 ADD SWAP1 PUSH2 0xB5 SWAP2 SWAP1 PUSH2 0x182B JUMP JUMPDEST PUSH2 0x222 JUMP JUMPDEST STOP JUMPDEST PUSH2 0xD6 PUSH1 0x4 DUP1 CALLDATASIZE SUB DUP2 ADD SWAP1 PUSH2 0xD1 SWAP2 SWAP1 PUSH2 0x182B JUMP JUMPDEST PUSH2 0x286 JUMP JUMPDEST PUSH1 0x40 MLOAD PUSH2 0xE3 SWAP2 SWAP1 PUSH2 0x18BB JUMP JUMPDEST PUSH1 0x40 MLOAD DUP1 SWAP2 SUB SWAP1 RETURN JUMPDEST PUSH2 0xF4 PUSH2 0x313 JUMP JUMPDEST PUSH1 0x40 MLOAD PUSH2 0x102 SWAP3 SWAP2 SWAP1 PUSH2 0x1C6C JUMP JUMPDEST PUSH1 0x40 MLOAD DUP1 SWAP2 SUB SWAP1 RETURN JUMPDEST PUSH2 0x125 PUSH1 0x4 DUP1 CALLDATASIZE SUB DUP2 ADD SWAP1 PUSH2 0x120 SWAP2 SWAP1 PUSH2 0x1CA1 JUMP JUMPDEST PUSH2 0x856 JUMP JUMPDEST PUSH1 0x40 MLOAD PUSH2 0x133 SWAP3 SWAP2 SWAP1 PUSH2 0x1DB3 JUMP JUMPDEST PUSH1 0x40 MLOAD DUP1 SWAP2 SUB SWAP1 RETURN JUMPDEST PUSH2 0x156 PUSH1 0x4 DUP1 CALLDATASIZE SUB DUP2 ADD SWAP1 PUSH2 0x151 SWAP2 SWAP1 PUSH2 0x1CA1 JUMP JUMPDEST PUSH2 0xBB3 JUMP JUMPDEST PUSH1 0x40 MLOAD PUSH2 0x163 SWAP2 SWAP1 PUSH2 0x1E4F JUMP JUMPDEST PUSH1 0x40 MLOAD DUP1 SWAP2 SUB SWAP1 RETURN JUMPDEST PUSH2 0x186 PUSH1 0x4 DUP1 CALLDATASIZE SUB DUP2 ADD SWAP1 PUSH2 0x181 SWAP2 SWAP1 PUSH2 0x1CA1 JUMP JUMPDEST PUSH2 0xF32 JUMP JUMPDEST PUSH1 0x40 MLOAD PUSH2 0x193 SWAP2 SWAP1 PUSH2 0x1E6F JUMP JUMPDEST PUSH1 0x40 MLOAD DUP1 SWAP2 SUB SWAP1 RETURN JUMPDEST PUSH2 0x1B6 PUSH1 0x4 DUP1 CALLDATASIZE SUB DUP2 ADD SWAP1 PUSH2 0x1B1 SWAP2 SWAP1 PUSH2 0x182B JUMP JUMPDEST PUSH2 0x1082 JUMP JUMPDEST PUSH1 0x40 MLOAD PUSH2 0x1C3 SWAP2 SWAP1 PUSH2 0x1E9E JUMP JUMPDEST PUSH1 0x40 MLOAD DUP1 SWAP2 SUB SWAP1 RETURN JUMPDEST PUSH2 0x1E6 PUSH1 0x4 DUP1 CALLDATASIZE SUB DUP2 ADD SWAP1 PUSH2 0x1E1 SWAP2 SWAP1 PUSH2 0x20C4 JUMP JUMPDEST PUSH2 0x1186 JUMP JUMPDEST STOP JUMPDEST PUSH2 0x202 PUSH1 0x4 DUP1 CALLDATASIZE SUB DUP2 ADD SWAP1 PUSH2 0x1FD SWAP2 SWAP1 PUSH2 0x182B JUMP JUMPDEST PUSH2 0x149E JUMP JUMPDEST STOP JUMPDEST PUSH2 0x20C PUSH2 0x15E4 JUMP JUMPDEST PUSH1 0x40 MLOAD PUSH2 0x219 SWAP2 SWAP1 PUSH2 0x1E6F JUMP JUMPDEST PUSH1 0x40 MLOAD DUP1 SWAP2 SUB SWAP1 RETURN JUMPDEST PUSH1 0x40 MLOAD DUP1 PUSH1 0x40 ADD PUSH1 0x40 MSTORE DUP1 DUP4 DUP2 MSTORE PUSH1 0x20 ADD DUP3 DUP2 MSTORE POP PUSH1 0x1 DUP4 PUSH1 0x40 MLOAD PUSH2 0x247 SWAP2 SWAP1 PUSH2 0x21F7 JUMP JUMPDEST SWAP1 DUP2 MSTORE PUSH1 0x20 ADD PUSH1 0x40 MLOAD DUP1 SWAP2 SUB SWAP1 KECCAK256 PUSH0 DUP3 ADD MLOAD DUP2 PUSH0 ADD SWAP1 DUP2 PUSH2 0x268 SWAP2 SWAP1 PUSH2 0x2407 JUMP JUMPDEST POP PUSH1 0x20 DUP3 ADD MLOAD DUP2 PUSH1 0x1 ADD SWAP1 DUP2 PUSH2 0x27E SWAP2 SWAP1 PUSH2 0x2407 JUMP JUMPDEST POP SWAP1 POP POP POP POP JUMP JUMPDEST PUSH0 DUP1 PUSH1 0x1 DUP5 PUSH1 0x40 MLOAD PUSH2 0x298 SWAP2 SWAP1 PUSH2 0x21F7 JUMP JUMPDEST SWAP1 DUP2 MSTORE PUSH1 0x20 ADD PUSH1 0x40 MLOAD DUP1 SWAP2 SUB SWAP1 KECCAK256 SWAP1 POP DUP3 PUSH1 0x40 MLOAD PUSH1 0x20 ADD PUSH2 0x2B9 SWAP2 SWAP1 PUSH2 0x21F7 JUMP JUMPDEST PUSH1 0x40 MLOAD PUSH1 0x20 DUP2 DUP4 SUB SUB DUP2 MSTORE SWAP1 PUSH1 0x40 MSTORE DUP1 MLOAD SWAP1 PUSH1 0x20 ADD KECCAK256 DUP2 PUSH1 0x1 ADD PUSH1 0x40 MLOAD PUSH1 0x20 ADD PUSH2 0x2E3 SWAP2 SWAP1 PUSH2 0x2556 JUMP JUMPDEST PUSH1 0x40 MLOAD PUSH1 0x20 DUP2 DUP4 SUB SUB DUP2 MSTORE SWAP1 PUSH1 0x40 MSTORE DUP1 MLOAD SWAP1 PUSH1 0x20 ADD KECCAK256 SUB PUSH2 0x308 JUMPI PUSH1 0x1 SWAP2 POP POP PUSH2 0x30D JUMP JUMPDEST PUSH0 SWAP2 POP POP JUMPDEST SWAP3 SWAP2 POP POP JUMP JUMPDEST PUSH1 0x60 DUP1 PUSH0 PUSH1 0x2 DUP1 SLOAD SWAP1 POP SWAP1 POP PUSH0 DUP2 PUSH8 0xFFFFFFFFFFFFFFFF DUP2 GT ISZERO PUSH2 0x33A JUMPI PUSH2 0x339 PUSH2 0x1707 JUMP JUMPDEST JUMPDEST PUSH1 0x40 MLOAD SWAP1 DUP1 DUP3 MSTORE DUP1 PUSH1 0x20 MUL PUSH1 0x20 ADD DUP3 ADD PUSH1 0x40 MSTORE DUP1 ISZERO PUSH2 0x36D JUMPI DUP2 PUSH1 0x20 ADD JUMPDEST PUSH1 0x60 DUP2 MSTORE PUSH1 0x20 ADD SWAP1 PUSH1 0x1 SWAP1 SUB SWAP1 DUP2 PUSH2 0x358 JUMPI SWAP1 POP JUMPDEST POP SWAP1 POP PUSH0 DUP3 PUSH8 0xFFFFFFFFFFFFFFFF DUP2 GT ISZERO PUSH2 0x38B JUMPI PUSH2 0x38A PUSH2 0x1707 JUMP JUMPDEST JUMPDEST PUSH1 0x40 MLOAD SWAP1 DUP1 DUP3 MSTORE DUP1 PUSH1 0x20 MUL PUSH1 0x20 ADD DUP3 ADD PUSH1 0x40 MSTORE DUP1 ISZERO PUSH2 0x3C4 JUMPI DUP2 PUSH1 0x20 ADD JUMPDEST PUSH2 0x3B1 PUSH2 0x16B8 JUMP JUMPDEST DUP2 MSTORE PUSH1 0x20 ADD SWAP1 PUSH1 0x1 SWAP1 SUB SWAP1 DUP2 PUSH2 0x3A9 JUMPI SWAP1 POP JUMPDEST POP SWAP1 POP PUSH0 JUMPDEST DUP4 DUP2 LT ISZERO PUSH2 0x848 JUMPI PUSH1 0x2 DUP2 DUP2 SLOAD DUP2 LT PUSH2 0x3E5 JUMPI PUSH2 0x3E4 PUSH2 0x256C JUMP JUMPDEST JUMPDEST SWAP1 PUSH0 MSTORE PUSH1 0x20 PUSH0 KECCAK256 ADD DUP1 SLOAD PUSH2 0x3F8 SWAP1 PUSH2 0x223A JUMP JUMPDEST DUP1 PUSH1 0x1F ADD PUSH1 0x20 DUP1 SWAP2 DIV MUL PUSH1 0x20 ADD PUSH1 0x40 MLOAD SWAP1 DUP2 ADD PUSH1 0x40 MSTORE DUP1 SWAP3 SWAP2 SWAP1 DUP2 DUP2 MSTORE PUSH1 0x20 ADD DUP3 DUP1 SLOAD PUSH2 0x424 SWAP1 PUSH2 0x223A JUMP JUMPDEST DUP1 ISZERO PUSH2 0x46F JUMPI DUP1 PUSH1 0x1F LT PUSH2 0x446 JUMPI PUSH2 0x100 DUP1 DUP4 SLOAD DIV MUL DUP4 MSTORE SWAP2 PUSH1 0x20 ADD SWAP2 PUSH2 0x46F JUMP JUMPDEST DUP3 ADD SWAP2 SWAP1 PUSH0 MSTORE PUSH1 0x20 PUSH0 KECCAK256 SWAP1 JUMPDEST DUP2 SLOAD DUP2 MSTORE SWAP1 PUSH1 0x1 ADD SWAP1 PUSH1 0x20 ADD DUP1 DUP4 GT PUSH2 0x452 JUMPI DUP3 SWAP1 SUB PUSH1 0x1F AND DUP3 ADD SWAP2 JUMPDEST POP POP POP POP POP DUP4 DUP3 DUP2 MLOAD DUP2 LT PUSH2 0x487 JUMPI PUSH2 0x486 PUSH2 0x256C JUMP JUMPDEST JUMPDEST PUSH1 0x20 MUL PUSH1 0x20 ADD ADD DUP2 SWAP1 MSTORE POP PUSH0 PUSH1 0x2 DUP3 DUP2 SLOAD DUP2 LT PUSH2 0x4A7 JUMPI PUSH2 0x4A6 PUSH2 0x256C JUMP JUMPDEST JUMPDEST SWAP1 PUSH0 MSTORE PUSH1 0x20 PUSH0 KECCAK256 ADD PUSH1 0x40 MLOAD PUSH2 0x4BC SWAP2 SWAP1 PUSH2 0x2556 JUMP JUMPDEST SWAP1 DUP2 MSTORE PUSH1 0x20 ADD PUSH1 0x40 MLOAD DUP1 SWAP2 SUB SWAP1 KECCAK256 PUSH1 0x40 MLOAD DUP1 PUSH1 0x80 ADD PUSH1 0x40 MSTORE SWAP1 DUP2 PUSH0 DUP3 ADD DUP1 SLOAD PUSH2 0x4E4 SWAP1 PUSH2 0x223A JUMP JUMPDEST DUP1 PUSH1 0x1F ADD PUSH1 0x20 DUP1 SWAP2 DIV MUL PUSH1 0x20 ADD PUSH1 0x40 MLOAD SWAP1 DUP2 ADD PUSH1 0x40 MSTORE DUP1 SWAP3 SWAP2 SWAP1 DUP2 DUP2 MSTORE PUSH1 0x20 ADD DUP3 DUP1 SLOAD PUSH2 0x510 SWAP1 PUSH2 0x223A JUMP JUMPDEST DUP1 ISZERO PUSH2 0x55B JUMPI DUP1 PUSH1 0x1F LT PUSH2 0x532 JUMPI PUSH2 0x100 DUP1 DUP4 SLOAD DIV MUL DUP4 MSTORE SWAP2 PUSH1 0x20 ADD SWAP2 PUSH2 0x55B JUMP JUMPDEST DUP3 ADD SWAP2 SWAP1 PUSH0 MSTORE PUSH1 0x20 PUSH0 KECCAK256 SWAP1 JUMPDEST DUP2 SLOAD DUP2 MSTORE SWAP1 PUSH1 0x1 ADD SWAP1 PUSH1 0x20 ADD DUP1 DUP4 GT PUSH2 0x53E JUMPI DUP3 SWAP1 SUB PUSH1 0x1F AND DUP3 ADD SWAP2 JUMPDEST POP POP POP POP POP DUP2 MSTORE PUSH1 0x20 ADD PUSH1 0x1 DUP3 ADD DUP1 SLOAD DUP1 PUSH1 0x20 MUL PUSH1 0x20 ADD PUSH1 0x40 MLOAD SWAP1 DUP2 ADD PUSH1 0x40 MSTORE DUP1 SWAP3 SWAP2 SWAP1 DUP2 DUP2 MSTORE PUSH1 0x20 ADD PUSH0 SWAP1 JUMPDEST DUP3 DUP3 LT ISZERO PUSH2 0x801 JUMPI DUP4 DUP3 SWAP1 PUSH0 MSTORE PUSH1 0x20 PUSH0 KECCAK256 SWAP1 PUSH1 0x5 MUL ADD PUSH1 0x40 MLOAD DUP1 PUSH1 0xA0 ADD PUSH1 0x40 MSTORE SWAP1 DUP2 PUSH0 DUP3 ADD DUP1 SLOAD PUSH2 0x5B8 SWAP1 PUSH2 0x223A JUMP JUMPDEST DUP1 PUSH1 0x1F ADD PUSH1 0x20 DUP1 SWAP2 DIV MUL PUSH1 0x20 ADD PUSH1 0x40 MLOAD SWAP1 DUP2 ADD PUSH1 0x40 MSTORE DUP1 SWAP3 SWAP2 SWAP1 DUP2 DUP2 MSTORE PUSH1 0x20 ADD DUP3 DUP1 SLOAD PUSH2 0x5E4 SWAP1 PUSH2 0x223A JUMP JUMPDEST DUP1 ISZERO PUSH2 0x62F JUMPI DUP1 PUSH1 0x1F LT PUSH2 0x606 JUMPI PUSH2 0x100 DUP1 DUP4 SLOAD DIV MUL DUP4 MSTORE SWAP2 PUSH1 0x20 ADD SWAP2 PUSH2 0x62F JUMP JUMPDEST DUP3 ADD SWAP2 SWAP1 PUSH0 MSTORE PUSH1 0x20 PUSH0 KECCAK256 SWAP1 JUMPDEST DUP2 SLOAD DUP2 MSTORE SWAP1 PUSH1 0x1 ADD SWAP1 PUSH1 0x20 ADD DUP1 DUP4 GT PUSH2 0x612 JUMPI DUP3 SWAP1 SUB PUSH1 0x1F AND DUP3 ADD SWAP2 JUMPDEST POP POP POP POP POP DUP2 MSTORE PUSH1 0x20 ADD PUSH1 0x1 DUP3 ADD DUP1 SLOAD PUSH2 0x648 SWAP1 PUSH2 0x223A JUMP JUMPDEST DUP1 PUSH1 0x1F ADD PUSH1 0x20 DUP1 SWAP2 DIV MUL PUSH1 0x20 ADD PUSH1 0x40 MLOAD SWAP1 DUP2 ADD PUSH1 0x40 MSTORE DUP1 SWAP3 SWAP2 SWAP1 DUP2 DUP2 MSTORE PUSH1 0x20 ADD DUP3 DUP1 SLOAD PUSH2 0x674 SWAP1 PUSH2 0x223A JUMP JUMPDEST DUP1 ISZERO PUSH2 0x6BF JUMPI DUP1 PUSH1 0x1F LT PUSH2 0x696 JUMPI PUSH2 0x100 DUP1 DUP4 SLOAD DIV MUL DUP4 MSTORE SWAP2 PUSH1 0x20 ADD SWAP2 PUSH2 0x6BF JUMP JUMPDEST DUP3 ADD SWAP2 SWAP1 PUSH0 MSTORE PUSH1 0x20 PUSH0 KECCAK256 SWAP1 JUMPDEST DUP2 SLOAD DUP2 MSTORE SWAP1 PUSH1 0x1 ADD SWAP1 PUSH1 0x20 ADD DUP1 DUP4 GT PUSH2 0x6A2 JUMPI DUP3 SWAP1 SUB PUSH1 0x1F AND DUP3 ADD SWAP2 JUMPDEST POP POP POP POP POP DUP2 MSTORE PUSH1 0x20 ADD PUSH1 0x2 DUP3 ADD DUP1 SLOAD PUSH2 0x6D8 SWAP1 PUSH2 0x223A JUMP JUMPDEST DUP1 PUSH1 0x1F ADD PUSH1 0x20 DUP1 SWAP2 DIV MUL PUSH1 0x20 ADD PUSH1 0x40 MLOAD SWAP1 DUP2 ADD PUSH1 0x40 MSTORE DUP1 SWAP3 SWAP2 SWAP1 DUP2 DUP2 MSTORE PUSH1 0x20 ADD DUP3 DUP1 SLOAD PUSH2 0x704 SWAP1 PUSH2 0x223A JUMP JUMPDEST DUP1 ISZERO PUSH2 0x74F JUMPI DUP1 PUSH1 0x1F LT PUSH2 0x726 JUMPI PUSH2 0x100 DUP1 DUP4 SLOAD DIV MUL DUP4 MSTORE SWAP2 PUSH1 0x20 ADD SWAP2 PUSH2 0x74F JUMP JUMPDEST DUP3 ADD SWAP2 SWAP1 PUSH0 MSTORE PUSH1 0x20 PUSH0 KECCAK256 SWAP1 JUMPDEST DUP2 SLOAD DUP2 MSTORE SWAP1 PUSH1 0x1 ADD SWAP1 PUSH1 0x20 ADD DUP1 DUP4 GT PUSH2 0x732 JUMPI DUP3 SWAP1 SUB PUSH1 0x1F AND DUP3 ADD SWAP2 JUMPDEST POP POP POP POP POP DUP2 MSTORE PUSH1 0x20 ADD PUSH1 0x3 DUP3 ADD DUP1 SLOAD PUSH2 0x768 SWAP1 PUSH2 0x223A JUMP JUMPDEST DUP1 PUSH1 0x1F ADD PUSH1 0x20 DUP1 SWAP2 DIV MUL PUSH1 0x20 ADD PUSH1 0x40 MLOAD SWAP1 DUP2 ADD PUSH1 0x40 MSTORE DUP1 SWAP3 SWAP2 SWAP1 DUP2 DUP2 MSTORE PUSH1 0x20 ADD DUP3 DUP1 SLOAD PUSH2 0x794 SWAP1 PUSH2 0x223A JUMP JUMPDEST DUP1 ISZERO PUSH2 0x7DF JUMPI DUP1 PUSH1 0x1F LT PUSH2 0x7B6 JUMPI PUSH2 0x100 DUP1 DUP4 SLOAD DIV MUL DUP4 MSTORE SWAP2 PUSH1 0x20 ADD SWAP2 PUSH2 0x7DF JUMP JUMPDEST DUP3 ADD SWAP2 SWAP1 PUSH0 MSTORE PUSH1 0x20 PUSH0 KECCAK256 SWAP1 JUMPDEST DUP2 SLOAD DUP2 MSTORE SWAP1 PUSH1 0x1 ADD SWAP1 PUSH1 0x20 ADD DUP1 DUP4 GT PUSH2 0x7C2 JUMPI DUP3 SWAP1 SUB PUSH1 0x1F AND DUP3 ADD SWAP2 JUMPDEST POP POP POP POP POP DUP2 MSTORE PUSH1 0x20 ADD PUSH1 0x4 DUP3 ADD SLOAD DUP2 MSTORE POP POP DUP2 MSTORE PUSH1 0x20 ADD SWAP1 PUSH1 0x1 ADD SWAP1 PUSH2 0x588 JUMP JUMPDEST POP POP POP POP DUP2 MSTORE PUSH1 0x20 ADD PUSH1 0x2 DUP3 ADD SLOAD DUP2 MSTORE PUSH1 0x20 ADD PUSH1 0x3 DUP3 ADD SLOAD DUP2 MSTORE POP POP DUP3 DUP3 DUP2 MLOAD DUP2 LT PUSH2 0x830 JUMPI PUSH2 0x82F PUSH2 0x256C JUMP JUMPDEST JUMPDEST PUSH1 0x20 MUL PUSH1 0x20 ADD ADD DUP2 SWAP1 MSTORE POP DUP1 DUP1 PUSH1 0x1 ADD SWAP2 POP POP PUSH2 0x3C9 JUMP JUMPDEST POP DUP2 DUP2 SWAP5 POP SWAP5 POP POP POP POP SWAP1 SWAP2 JUMP JUMPDEST PUSH1 0x60 DUP1 PUSH0 DUP1 DUP5 PUSH1 0x40 MLOAD PUSH2 0x869 SWAP2 SWAP1 PUSH2 0x21F7 JUMP JUMPDEST SWAP1 DUP2 MSTORE PUSH1 0x20 ADD PUSH1 0x40 MLOAD DUP1 SWAP2 SUB SWAP1 KECCAK256 SWAP1 POP DUP1 PUSH0 ADD DUP2 PUSH1 0x1 ADD DUP2 DUP1 SLOAD PUSH2 0x88C SWAP1 PUSH2 0x223A JUMP JUMPDEST DUP1 PUSH1 0x1F ADD PUSH1 0x20 DUP1 SWAP2 DIV MUL PUSH1 0x20 ADD PUSH1 0x40 MLOAD SWAP1 DUP2 ADD PUSH1 0x40 MSTORE DUP1 SWAP3 SWAP2 SWAP1 DUP2 DUP2 MSTORE PUSH1 0x20 ADD DUP3 DUP1 SLOAD PUSH2 0x8B8 SWAP1 PUSH2 0x223A JUMP JUMPDEST DUP1 ISZERO PUSH2 0x903 JUMPI DUP1 PUSH1 0x1F LT PUSH2 0x8DA JUMPI PUSH2 0x100 DUP1 DUP4 SLOAD DIV MUL DUP4 MSTORE SWAP2 PUSH1 0x20 ADD SWAP2 PUSH2 0x903 JUMP JUMPDEST DUP3 ADD SWAP2 SWAP1 PUSH0 MSTORE PUSH1 0x20 PUSH0 KECCAK256 SWAP1 JUMPDEST DUP2 SLOAD DUP2 MSTORE SWAP1 PUSH1 0x1 ADD SWAP1 PUSH1 0x20 ADD DUP1 DUP4 GT PUSH2 0x8E6 JUMPI DUP3 SWAP1 SUB PUSH1 0x1F AND DUP3 ADD SWAP2 JUMPDEST POP POP POP POP POP SWAP2 POP DUP1 DUP1 SLOAD DUP1 PUSH1 0x20 MUL PUSH1 0x20 ADD PUSH1 0x40 MLOAD SWAP1 DUP2 ADD PUSH1 0x40 MSTORE DUP1 SWAP3 SWAP2 SWAP1 DUP2 DUP2 MSTORE PUSH1 0x20 ADD PUSH0 SWAP1 JUMPDEST DUP3 DUP3 LT ISZERO PUSH2 0xBA3 JUMPI DUP4 DUP3 SWAP1 PUSH0 MSTORE PUSH1 0x20 PUSH0 KECCAK256 SWAP1 PUSH1 0x5 MUL ADD PUSH1 0x40 MLOAD DUP1 PUSH1 0xA0 ADD PUSH1 0x40 MSTORE SWAP1 DUP2 PUSH0 DUP3 ADD DUP1 SLOAD PUSH2 0x95A SWAP1 PUSH2 0x223A JUMP JUMPDEST DUP1 PUSH1 0x1F ADD PUSH1 0x20 DUP1 SWAP2 DIV MUL PUSH1 0x20 ADD PUSH1 0x40 MLOAD SWAP1 DUP2 ADD PUSH1 0x40 MSTORE DUP1 SWAP3 SWAP2 SWAP1 DUP2 DUP2 MSTORE PUSH1 0x20 ADD DUP3 DUP1 SLOAD PUSH2 0x986 SWAP1 PUSH2 0x223A JUMP JUMPDEST DUP1 ISZERO PUSH2 0x9D1 JUMPI DUP1 PUSH1 0x1F LT PUSH2 0x9A8 JUMPI PUSH2 0x100 DUP1 DUP4 SLOAD DIV MUL DUP4 MSTORE SWAP2 PUSH1 0x20 ADD SWAP2 PUSH2 0x9D1 JUMP JUMPDEST DUP3 ADD SWAP2 SWAP1 PUSH0 MSTORE PUSH1 0x20 PUSH0 KECCAK256 SWAP1 JUMPDEST DUP2 SLOAD DUP2 MSTORE SWAP1 PUSH1 0x1 ADD SWAP1 PUSH1 0x20 ADD DUP1 DUP4 GT PUSH2 0x9B4 JUMPI DUP3 SWAP1 SUB PUSH1 0x1F AND DUP3 ADD SWAP2 JUMPDEST POP POP POP POP POP DUP2 MSTORE PUSH1 0x20 ADD PUSH1 0x1 DUP3 ADD DUP1 SLOAD PUSH2 0x9EA SWAP1 PUSH2 0x223A JUMP JUMPDEST DUP1 PUSH1 0x1F ADD PUSH1 0x20 DUP1 SWAP2 DIV MUL PUSH1 0x20 ADD PUSH1 0x40 MLOAD SWAP1 DUP2 ADD PUSH1 0x40 MSTORE DUP1 SWAP3 SWAP2 SWAP1 DUP2 DUP2 MSTORE PUSH1 0x20 ADD DUP3 DUP1 SLOAD PUSH2 0xA16 SWAP1 PUSH2 0x223A JUMP JUMPDEST DUP1 ISZERO PUSH2 0xA61 JUMPI DUP1 PUSH1 0x1F LT PUSH2 0xA38 JUMPI PUSH2 0x100 DUP1 DUP4 SLOAD DIV MUL DUP4 MSTORE SWAP2 PUSH1 0x20 ADD SWAP2 PUSH2 0xA61 JUMP JUMPDEST DUP3 ADD SWAP2 SWAP1 PUSH0 MSTORE PUSH1 0x20 PUSH0 KECCAK256 SWAP1 JUMPDEST DUP2 SLOAD DUP2 MSTORE SWAP1 PUSH1 0x1 ADD SWAP1 PUSH1 0x20 ADD DUP1 DUP4 GT PUSH2 0xA44 JUMPI DUP3 SWAP1 SUB PUSH1 0x1F AND DUP3 ADD SWAP2 JUMPDEST POP POP POP POP POP DUP2 MSTORE PUSH1 0x20 ADD PUSH1 0x2 DUP3 ADD DUP1 SLOAD PUSH2 0xA7A SWAP1 PUSH2 0x223A JUMP JUMPDEST DUP1 PUSH1 0x1F ADD PUSH1 0x20 DUP1 SWAP2 DIV MUL PUSH1 0x20 ADD PUSH1 0x40 MLOAD SWAP1 DUP2 ADD PUSH1 0x40 MSTORE DUP1 SWAP3 SWAP2 SWAP1 DUP2 DUP2 MSTORE PUSH1 0x20 ADD DUP3 DUP1 SLOAD PUSH2 0xAA6 SWAP1 PUSH2 0x223A JUMP JUMPDEST DUP1 ISZERO PUSH2 0xAF1 JUMPI DUP1 PUSH1 0x1F LT PUSH2 0xAC8 JUMPI PUSH2 0x100 DUP1 DUP4 SLOAD DIV MUL DUP4 MSTORE SWAP2 PUSH1 0x20 ADD SWAP2 PUSH2 0xAF1 JUMP JUMPDEST DUP3 ADD SWAP2 SWAP1 PUSH0 MSTORE PUSH1 0x20 PUSH0 KECCAK256 SWAP1 JUMPDEST DUP2 SLOAD DUP2 MSTORE SWAP1 PUSH1 0x1 ADD SWAP1 PUSH1 0x20 ADD DUP1 DUP4 GT PUSH2 0xAD4 JUMPI DUP3 SWAP1 SUB PUSH1 0x1F AND DUP3 ADD SWAP2 JUMPDEST POP POP POP POP POP DUP2 MSTORE PUSH1 0x20 ADD PUSH1 0x3 DUP3 ADD DUP1 SLOAD PUSH2 0xB0A SWAP1 PUSH2 0x223A JUMP JUMPDEST DUP1 PUSH1 0x1F ADD PUSH1 0x20 DUP1 SWAP2 DIV MUL PUSH1 0x20 ADD PUSH1 0x40 MLOAD SWAP1 DUP2 ADD PUSH1 0x40 MSTORE DUP1 SWAP3 SWAP2 SWAP1 DUP2 DUP2 MSTORE PUSH1 0x20 ADD DUP3 DUP1 SLOAD PUSH2 0xB36 SWAP1 PUSH2 0x223A JUMP JUMPDEST DUP1 ISZERO PUSH2 0xB81 JUMPI DUP1 PUSH1 0x1F LT PUSH2 0xB58 JUMPI PUSH2 0x100 DUP1 DUP4 SLOAD DIV MUL DUP4 MSTORE SWAP2 PUSH1 0x20 ADD SWAP2 PUSH2 0xB81 JUMP JUMPDEST DUP3 ADD SWAP2 SWAP1 PUSH0 MSTORE PUSH1 0x20 PUSH0 KECCAK256 SWAP1 JUMPDEST DUP2 SLOAD DUP2 MSTORE SWAP1 PUSH1 0x1 ADD SWAP1 PUSH1 0x20 ADD DUP1 DUP4 GT PUSH2 0xB64 JUMPI DUP3 SWAP1 SUB PUSH1 0x1F AND DUP3 ADD SWAP2 JUMPDEST POP POP POP POP POP DUP2 MSTORE PUSH1 0x20 ADD PUSH1 0x4 DUP3 ADD SLOAD DUP2 MSTORE POP POP DUP2 MSTORE PUSH1 0x20 ADD SWAP1 PUSH1 0x1 ADD SWAP1 PUSH2 0x92A JUMP JUMPDEST POP POP POP POP SWAP1 POP SWAP3 POP SWAP3 POP POP SWAP2 POP SWAP2 JUMP JUMPDEST PUSH2 0xBBB PUSH2 0x16B8 JUMP JUMPDEST PUSH0 DUP3 PUSH1 0x40 MLOAD PUSH2 0xBCA SWAP2 SWAP1 PUSH2 0x21F7 JUMP JUMPDEST SWAP1 DUP2 MSTORE PUSH1 0x20 ADD PUSH1 0x40 MLOAD DUP1 SWAP2 SUB SWAP1 KECCAK256 PUSH1 0x40 MLOAD DUP1 PUSH1 0x80 ADD PUSH1 0x40 MSTORE SWAP1 DUP2 PUSH0 DUP3 ADD DUP1 SLOAD PUSH2 0xBF2 SWAP1 PUSH2 0x223A JUMP JUMPDEST DUP1 PUSH1 0x1F ADD PUSH1 0x20 DUP1 SWAP2 DIV MUL PUSH1 0x20 ADD PUSH1 0x40 MLOAD SWAP1 DUP2 ADD PUSH1 0x40 MSTORE DUP1 SWAP3 SWAP2 SWAP1 DUP2 DUP2 MSTORE PUSH1 0x20 ADD DUP3 DUP1 SLOAD PUSH2 0xC1E SWAP1 PUSH2 0x223A JUMP JUMPDEST DUP1 ISZERO PUSH2 0xC69 JUMPI DUP1 PUSH1 0x1F LT PUSH2 0xC40 JUMPI PUSH2 0x100 DUP1 DUP4 SLOAD DIV MUL DUP4 MSTORE SWAP2 PUSH1 0x20 ADD SWAP2 PUSH2 0xC69 JUMP JUMPDEST DUP3 ADD SWAP2 SWAP1 PUSH0 MSTORE PUSH1 0x20 PUSH0 KECCAK256 SWAP1 JUMPDEST DUP2 SLOAD DUP2 MSTORE SWAP1 PUSH1 0x1 ADD SWAP1 PUSH1 0x20 ADD DUP1 DUP4 GT PUSH2 0xC4C JUMPI DUP3 SWAP1 SUB PUSH1 0x1F AND DUP3 ADD SWAP2 JUMPDEST POP POP POP POP POP DUP2 MSTORE PUSH1 0x20 ADD PUSH1 0x1 DUP3 ADD DUP1 SLOAD DUP1 PUSH1 0x20 MUL PUSH1 0x20 ADD PUSH1 0x40 MLOAD SWAP1 DUP2 ADD PUSH1 0x40 MSTORE DUP1 SWAP3 SWAP2 SWAP1 DUP2 DUP2 MSTORE PUSH1 0x20 ADD PUSH0 SWAP1 JUMPDEST DUP3 DUP3 LT ISZERO PUSH2 0xF0F JUMPI DUP4 DUP3 SWAP1 PUSH0 MSTORE PUSH1 0x20 PUSH0 KECCAK256 SWAP1 PUSH1 0x5 MUL ADD PUSH1 0x40 MLOAD DUP1 PUSH1 0xA0 ADD PUSH1 0x40 MSTORE SWAP1 DUP2 PUSH0 DUP3 ADD DUP1 SLOAD PUSH2 0xCC6 SWAP1 PUSH2 0x223A JUMP JUMPDEST DUP1 PUSH1 0x1F ADD PUSH1 0x20 DUP1 SWAP2 DIV MUL PUSH1 0x20 ADD PUSH1 0x40 MLOAD SWAP1 DUP2 ADD PUSH1 0x40 MSTORE DUP1 SWAP3 SWAP2 SWAP1 DUP2 DUP2 MSTORE PUSH1 0x20 ADD DUP3 DUP1 SLOAD PUSH2 0xCF2 SWAP1 PUSH2 0x223A JUMP JUMPDEST DUP1 ISZERO PUSH2 0xD3D JUMPI DUP1 PUSH1 0x1F LT PUSH2 0xD14 JUMPI PUSH2 0x100 DUP1 DUP4 SLOAD DIV MUL DUP4 MSTORE SWAP2 PUSH1 0x20 ADD SWAP2 PUSH2 0xD3D JUMP JUMPDEST DUP3 ADD SWAP2 SWAP1 PUSH0 MSTORE PUSH1 0x20 PUSH0 KECCAK256 SWAP1 JUMPDEST DUP2 SLOAD DUP2 MSTORE SWAP1 PUSH1 0x1 ADD SWAP1 PUSH1 0x20 ADD DUP1 DUP4 GT PUSH2 0xD20 JUMPI DUP3 SWAP1 SUB PUSH1 0x1F AND DUP3 ADD SWAP2 JUMPDEST POP POP POP POP POP DUP2 MSTORE PUSH1 0x20 ADD PUSH1 0x1 DUP3 ADD DUP1 SLOAD PUSH2 0xD56 SWAP1 PUSH2 0x223A JUMP JUMPDEST DUP1 PUSH1 0x1F ADD PUSH1 0x20 DUP1 SWAP2 DIV MUL PUSH1 0x20 ADD PUSH1 0x40 MLOAD SWAP1 DUP2 ADD PUSH1 0x40 MSTORE DUP1 SWAP3 SWAP2 SWAP1 DUP2 DUP2 MSTORE PUSH1 0x20 ADD DUP3 DUP1 SLOAD PUSH2 0xD82 SWAP1 PUSH2 0x223A JUMP JUMPDEST DUP1 ISZERO PUSH2 0xDCD JUMPI DUP1 PUSH1 0x1F LT PUSH2 0xDA4 JUMPI PUSH2 0x100 DUP1 DUP4 SLOAD DIV MUL DUP4 MSTORE SWAP2 PUSH1 0x20 ADD SWAP2 PUSH2 0xDCD JUMP JUMPDEST DUP3 ADD SWAP2 SWAP1 PUSH0 MSTORE PUSH1 0x20 PUSH0 KECCAK256 SWAP1 JUMPDEST DUP2 SLOAD DUP2 MSTORE SWAP1 PUSH1 0x1 ADD SWAP1 PUSH1 0x20 ADD DUP1 DUP4 GT PUSH2 0xDB0 JUMPI DUP3 SWAP1 SUB PUSH1 0x1F AND DUP3 ADD SWAP2 JUMPDEST POP POP POP POP POP DUP2 MSTORE PUSH1 0x20 ADD PUSH1 0x2 DUP3 ADD DUP1 SLOAD PUSH2 0xDE6 SWAP1 PUSH2 0x223A JUMP JUMPDEST DUP1 PUSH1 0x1F ADD PUSH1 0x20 DUP1 SWAP2 DIV MUL PUSH1 0x20 ADD PUSH1 0x40 MLOAD SWAP1 DUP2 ADD PUSH1 0x40 MSTORE DUP1 SWAP3 SWAP2 SWAP1 DUP2 DUP2 MSTORE PUSH1 0x20 ADD DUP3 DUP1 SLOAD PUSH2 0xE12 SWAP1 PUSH2 0x223A JUMP JUMPDEST DUP1 ISZERO PUSH2 0xE5D JUMPI DUP1 PUSH1 0x1F LT PUSH2 0xE34 JUMPI PUSH2 0x100 DUP1 DUP4 SLOAD DIV MUL DUP4 MSTORE SWAP2 PUSH1 0x20 ADD SWAP2 PUSH2 0xE5D JUMP JUMPDEST DUP3 ADD SWAP2 SWAP1 PUSH0 MSTORE PUSH1 0x20 PUSH0 KECCAK256 SWAP1 JUMPDEST DUP2 SLOAD DUP2 MSTORE SWAP1 PUSH1 0x1 ADD SWAP1 PUSH1 0x20 ADD DUP1 DUP4 GT PUSH2 0xE40 JUMPI DUP3 SWAP1 SUB PUSH1 0x1F AND DUP3 ADD SWAP2 JUMPDEST POP POP POP POP POP DUP2 MSTORE PUSH1 0x20 ADD PUSH1 0x3 DUP3 ADD DUP1 SLOAD PUSH2 0xE76 SWAP1 PUSH2 0x223A JUMP JUMPDEST DUP1 PUSH1 0x1F ADD PUSH1 0x20 DUP1 SWAP2 DIV MUL PUSH1 0x20 ADD PUSH1 0x40 MLOAD SWAP1 DUP2 ADD PUSH1 0x40 MSTORE DUP1 SWAP3 SWAP2 SWAP1 DUP2 DUP2 MSTORE PUSH1 0x20 ADD DUP3 DUP1 SLOAD PUSH2 0xEA2 SWAP1 PUSH2 0x223A JUMP JUMPDEST DUP1 ISZERO PUSH2 0xEED JUMPI DUP1 PUSH1 0x1F LT PUSH2 0xEC4 JUMPI PUSH2 0x100 DUP1 DUP4 SLOAD DIV MUL DUP4 MSTORE SWAP2 PUSH1 0x20 ADD SWAP2 PUSH2 0xEED JUMP JUMPDEST DUP3 ADD SWAP2 SWAP1 PUSH0 MSTORE PUSH1 0x20 PUSH0 KECCAK256 SWAP1 JUMPDEST DUP2 SLOAD DUP2 MSTORE SWAP1 PUSH1 0x1 ADD SWAP1 PUSH1 0x20 ADD DUP1 DUP4 GT PUSH2 0xED0 JUMPI DUP3 SWAP1 SUB PUSH1 0x1F AND DUP3 ADD SWAP2 JUMPDEST POP POP POP POP POP DUP2 MSTORE PUSH1 0x20 ADD PUSH1 0x4 DUP3 ADD SLOAD DUP2 MSTORE POP POP DUP2 MSTORE PUSH1 0x20 ADD SWAP1 PUSH1 0x1 ADD SWAP1 PUSH2 0xC96 JUMP JUMPDEST POP POP POP POP DUP2 MSTORE PUSH1 0x20 ADD PUSH1 0x2 DUP3 ADD SLOAD DUP2 MSTORE PUSH1 0x20 ADD PUSH1 0x3 DUP3 ADD SLOAD DUP2 MSTORE POP POP SWAP1 POP SWAP2 SWAP1 POP JUMP JUMPDEST PUSH1 0x60 PUSH0 DUP1 DUP4 PUSH1 0x40 MLOAD PUSH2 0xF44 SWAP2 SWAP1 PUSH2 0x21F7 JUMP JUMPDEST SWAP1 DUP2 MSTORE PUSH1 0x20 ADD PUSH1 0x40 MLOAD DUP1 SWAP2 SUB SWAP1 KECCAK256 SWAP1 POP PUSH0 DUP2 PUSH1 0x1 ADD DUP1 SLOAD SWAP1 POP PUSH8 0xFFFFFFFFFFFFFFFF DUP2 GT ISZERO PUSH2 0xF76 JUMPI PUSH2 0xF75 PUSH2 0x1707 JUMP JUMPDEST JUMPDEST PUSH1 0x40 MLOAD SWAP1 DUP1 DUP3 MSTORE DUP1 PUSH1 0x20 MUL PUSH1 0x20 ADD DUP3 ADD PUSH1 0x40 MSTORE DUP1 ISZERO PUSH2 0xFA9 JUMPI DUP2 PUSH1 0x20 ADD JUMPDEST PUSH1 0x60 DUP2 MSTORE PUSH1 0x20 ADD SWAP1 PUSH1 0x1 SWAP1 SUB SWAP1 DUP2 PUSH2 0xF94 JUMPI SWAP1 POP JUMPDEST POP SWAP1 POP PUSH0 JUMPDEST DUP3 PUSH1 0x1 ADD DUP1 SLOAD SWAP1 POP DUP2 LT ISZERO PUSH2 0x1077 JUMPI DUP3 PUSH1 0x1 ADD DUP2 DUP2 SLOAD DUP2 LT PUSH2 0xFD3 JUMPI PUSH2 0xFD2 PUSH2 0x256C JUMP JUMPDEST JUMPDEST SWAP1 PUSH0 MSTORE PUSH1 0x20 PUSH0 KECCAK256 SWAP1 PUSH1 0x5 MUL ADD PUSH0 ADD DUP4 PUSH1 0x1 ADD DUP3 DUP2 SLOAD DUP2 LT PUSH2 0xFF7 JUMPI PUSH2 0xFF6 PUSH2 0x256C JUMP JUMPDEST JUMPDEST SWAP1 PUSH0 MSTORE PUSH1 0x20 PUSH0 KECCAK256 SWAP1 PUSH1 0x5 MUL ADD PUSH1 0x1 ADD DUP5 PUSH1 0x1 ADD DUP4 DUP2 SLOAD DUP2 LT PUSH2 0x101C JUMPI PUSH2 0x101B PUSH2 0x256C JUMP JUMPDEST JUMPDEST SWAP1 PUSH0 MSTORE PUSH1 0x20 PUSH0 KECCAK256 SWAP1 PUSH1 0x5 MUL ADD PUSH1 0x2 ADD PUSH1 0x40 MLOAD PUSH1 0x20 ADD PUSH2 0x103D SWAP4 SWAP3 SWAP2 SWAP1 PUSH2 0x25E3 JUMP JUMPDEST PUSH1 0x40 MLOAD PUSH1 0x20 DUP2 DUP4 SUB SUB DUP2 MSTORE SWAP1 PUSH1 0x40 MSTORE DUP3 DUP3 DUP2 MLOAD DUP2 LT PUSH2 0x105F JUMPI PUSH2 0x105E PUSH2 0x256C JUMP JUMPDEST JUMPDEST PUSH1 0x20 MUL PUSH1 0x20 ADD ADD DUP2 SWAP1 MSTORE POP DUP1 DUP1 PUSH1 0x1 ADD SWAP2 POP POP PUSH2 0xFAE JUMP JUMPDEST POP DUP1 SWAP3 POP POP POP SWAP2 SWAP1 POP JUMP JUMPDEST PUSH0 DUP1 PUSH0 DUP5 PUSH1 0x40 MLOAD PUSH2 0x1093 SWAP2 SWAP1 PUSH2 0x21F7 JUMP JUMPDEST SWAP1 DUP2 MSTORE PUSH1 0x20 ADD PUSH1 0x40 MLOAD DUP1 SWAP2 SUB SWAP1 KECCAK256 SWAP1 POP PUSH0 JUMPDEST DUP2 PUSH1 0x1 ADD DUP1 SLOAD SWAP1 POP DUP2 LT ISZERO PUSH2 0x117A JUMPI PUSH0 DUP3 PUSH1 0x1 ADD DUP3 DUP2 SLOAD DUP2 LT PUSH2 0x10CB JUMPI PUSH2 0x10CA PUSH2 0x256C JUMP JUMPDEST JUMPDEST SWAP1 PUSH0 MSTORE PUSH1 0x20 PUSH0 KECCAK256 SWAP1 PUSH1 0x5 MUL ADD SWAP1 POP PUSH0 DUP2 PUSH0 ADD DUP3 PUSH1 0x1 ADD DUP4 PUSH1 0x2 ADD PUSH1 0x40 MLOAD PUSH1 0x20 ADD PUSH2 0x10F7 SWAP4 SWAP3 SWAP2 SWAP1 PUSH2 0x25E3 JUMP JUMPDEST PUSH1 0x40 MLOAD PUSH1 0x20 DUP2 DUP4 SUB SUB DUP2 MSTORE SWAP1 PUSH1 0x40 MSTORE SWAP1 POP DUP6 PUSH1 0x40 MLOAD PUSH1 0x20 ADD PUSH2 0x1119 SWAP2 SWAP1 PUSH2 0x21F7 JUMP JUMPDEST PUSH1 0x40 MLOAD PUSH1 0x20 DUP2 DUP4 SUB SUB DUP2 MSTORE SWAP1 PUSH1 0x40 MSTORE DUP1 MLOAD SWAP1 PUSH1 0x20 ADD KECCAK256 DUP2 PUSH1 0x40 MLOAD PUSH1 0x20 ADD PUSH2 0x1140 SWAP2 SWAP1 PUSH2 0x21F7 JUMP JUMPDEST PUSH1 0x40 MLOAD PUSH1 0x20 DUP2 DUP4 SUB SUB DUP2 MSTORE SWAP1 PUSH1 0x40 MSTORE DUP1 MLOAD SWAP1 PUSH1 0x20 ADD KECCAK256 SUB PUSH2 0x116B JUMPI DUP2 PUSH1 0x4 ADD SLOAD SWAP5 POP POP POP POP POP PUSH2 0x1180 JUMP JUMPDEST POP POP DUP1 DUP1 PUSH1 0x1 ADD SWAP2 POP POP PUSH2 0x10A5 JUMP JUMPDEST POP PUSH0 SWAP2 POP POP JUMPDEST SWAP3 SWAP2 POP POP JUMP JUMPDEST DUP2 DUP2 DUP1 PUSH1 0x40 MLOAD PUSH1 0x20 ADD PUSH2 0x1199 SWAP2 SWAP1 PUSH2 0x21F7 JUMP JUMPDEST PUSH1 0x40 MLOAD PUSH1 0x20 DUP2 DUP4 SUB SUB DUP2 MSTORE SWAP1 PUSH1 0x40 MSTORE DUP1 MLOAD SWAP1 PUSH1 0x20 ADD KECCAK256 PUSH1 0x1 DUP4 PUSH1 0x40 MLOAD PUSH2 0x11BF SWAP2 SWAP1 PUSH2 0x21F7 JUMP JUMPDEST SWAP1 DUP2 MSTORE PUSH1 0x20 ADD PUSH1 0x40 MLOAD DUP1 SWAP2 SUB SWAP1 KECCAK256 PUSH1 0x1 ADD PUSH1 0x40 MLOAD PUSH1 0x20 ADD PUSH2 0x11E0 SWAP2 SWAP1 PUSH2 0x2556 JUMP JUMPDEST PUSH1 0x40 MLOAD PUSH1 0x20 DUP2 DUP4 SUB SUB DUP2 MSTORE SWAP1 PUSH1 0x40 MSTORE DUP1 MLOAD SWAP1 PUSH1 0x20 ADD KECCAK256 EQ PUSH2 0x1236 JUMPI PUSH1 0x40 MLOAD PUSH32 0x8C379A000000000000000000000000000000000000000000000000000000000 DUP2 MSTORE PUSH1 0x4 ADD PUSH2 0x122D SWAP1 PUSH2 0x2699 JUMP JUMPDEST PUSH1 0x40 MLOAD DUP1 SWAP2 SUB SWAP1 REVERT JUMPDEST PUSH0 DUP9 MLOAD GT PUSH2 0x1279 JUMPI PUSH1 0x40 MLOAD PUSH32 0x8C379A000000000000000000000000000000000000000000000000000000000 DUP2 MSTORE PUSH1 0x4 ADD PUSH2 0x1270 SWAP1 PUSH2 0x2701 JUMP JUMPDEST PUSH1 0x40 MLOAD DUP1 SWAP2 SUB SWAP1 REVERT JUMPDEST PUSH0 DUP1 DUP10 PUSH1 0x40 MLOAD PUSH2 0x1289 SWAP2 SWAP1 PUSH2 0x21F7 JUMP JUMPDEST SWAP1 DUP2 MSTORE PUSH1 0x20 ADD PUSH1 0x40 MLOAD DUP1 SWAP2 SUB SWAP1 KECCAK256 PUSH1 0x2 ADD SLOAD EQ PUSH2 0x12DB JUMPI PUSH1 0x40 MLOAD PUSH32 0x8C379A000000000000000000000000000000000000000000000000000000000 DUP2 MSTORE PUSH1 0x4 ADD PUSH2 0x12D2 SWAP1 PUSH2 0x2769 JUMP JUMPDEST PUSH1 0x40 MLOAD DUP1 SWAP2 SUB SWAP1 REVERT JUMPDEST PUSH0 DUP1 DUP10 PUSH1 0x40 MLOAD PUSH2 0x12EB SWAP2 SWAP1 PUSH2 0x21F7 JUMP JUMPDEST SWAP1 DUP2 MSTORE PUSH1 0x20 ADD PUSH1 0x40 MLOAD DUP1 SWAP2 SUB SWAP1 KECCAK256 SWAP1 POP DUP9 DUP2 PUSH0 ADD SWAP1 DUP2 PUSH2 0x130B SWAP2 SWAP1 PUSH2 0x2407 JUMP JUMPDEST POP DUP7 DUP2 PUSH1 0x2 ADD DUP2 SWAP1 SSTORE POP DUP6 DUP2 PUSH1 0x3 ADD DUP2 SWAP1 SSTORE POP PUSH0 JUMPDEST DUP9 MLOAD DUP2 LT ISZERO PUSH2 0x1460 JUMPI DUP2 PUSH1 0x1 ADD PUSH1 0x40 MLOAD DUP1 PUSH1 0xA0 ADD PUSH1 0x40 MSTORE DUP1 DUP12 DUP5 DUP2 MLOAD DUP2 LT PUSH2 0x134B JUMPI PUSH2 0x134A PUSH2 0x256C JUMP JUMPDEST JUMPDEST PUSH1 0x20 MUL PUSH1 0x20 ADD ADD MLOAD PUSH0 ADD MLOAD DUP2 MSTORE PUSH1 0x20 ADD DUP12 DUP5 DUP2 MLOAD DUP2 LT PUSH2 0x136E JUMPI PUSH2 0x136D PUSH2 0x256C JUMP JUMPDEST JUMPDEST PUSH1 0x20 MUL PUSH1 0x20 ADD ADD MLOAD PUSH1 0x20 ADD MLOAD DUP2 MSTORE PUSH1 0x20 ADD DUP12 DUP5 DUP2 MLOAD DUP2 LT PUSH2 0x1392 JUMPI PUSH2 0x1391 PUSH2 0x256C JUMP JUMPDEST JUMPDEST PUSH1 0x20 MUL PUSH1 0x20 ADD ADD MLOAD PUSH1 0x40 ADD MLOAD DUP2 MSTORE PUSH1 0x20 ADD DUP12 DUP5 DUP2 MLOAD DUP2 LT PUSH2 0x13B6 JUMPI PUSH2 0x13B5 PUSH2 0x256C JUMP JUMPDEST JUMPDEST PUSH1 0x20 MUL PUSH1 0x20 ADD ADD MLOAD PUSH1 0x60 ADD MLOAD DUP2 MSTORE PUSH1 0x20 ADD PUSH0 DUP2 MSTORE POP SWAP1 DUP1 PUSH1 0x1 DUP2 SLOAD ADD DUP1 DUP3 SSTORE DUP1 SWAP2 POP POP PUSH1 0x1 SWAP1 SUB SWAP1 PUSH0 MSTORE PUSH1 0x20 PUSH0 KECCAK256 SWAP1 PUSH1 0x5 MUL ADD PUSH0 SWAP1 SWAP2 SWAP1 SWAP2 SWAP1 SWAP2 POP PUSH0 DUP3 ADD MLOAD DUP2 PUSH0 ADD SWAP1 DUP2 PUSH2 0x1404 SWAP2 SWAP1 PUSH2 0x2407 JUMP JUMPDEST POP PUSH1 0x20 DUP3 ADD MLOAD DUP2 PUSH1 0x1 ADD SWAP1 DUP2 PUSH2 0x141A SWAP2 SWAP1 PUSH2 0x2407 JUMP JUMPDEST POP PUSH1 0x40 DUP3 ADD MLOAD DUP2 PUSH1 0x2 ADD SWAP1 DUP2 PUSH2 0x1430 SWAP2 SWAP1 PUSH2 0x2407 JUMP JUMPDEST POP PUSH1 0x60 DUP3 ADD MLOAD DUP2 PUSH1 0x3 ADD SWAP1 DUP2 PUSH2 0x1446 SWAP2 SWAP1 PUSH2 0x2407 JUMP JUMPDEST POP PUSH1 0x80 DUP3 ADD MLOAD DUP2 PUSH1 0x4 ADD SSTORE POP POP DUP1 DUP1 PUSH1 0x1 ADD SWAP2 POP POP PUSH2 0x1320 JUMP JUMPDEST POP PUSH1 0x2 DUP10 SWAP1 DUP1 PUSH1 0x1 DUP2 SLOAD ADD DUP1 DUP3 SSTORE DUP1 SWAP2 POP POP PUSH1 0x1 SWAP1 SUB SWAP1 PUSH0 MSTORE PUSH1 0x20 PUSH0 KECCAK256 ADD PUSH0 SWAP1 SWAP2 SWAP1 SWAP2 SWAP1 SWAP2 POP SWAP1 DUP2 PUSH2 0x1492 SWAP2 SWAP1 PUSH2 0x2407 JUMP JUMPDEST POP POP POP POP POP POP POP POP POP POP JUMP JUMPDEST PUSH0 DUP1 DUP4 PUSH1 0x40 MLOAD PUSH2 0x14AE SWAP2 SWAP1 PUSH2 0x21F7 JUMP JUMPDEST SWAP1 DUP2 MSTORE PUSH1 0x20 ADD PUSH1 0x40 MLOAD DUP1 SWAP2 SUB SWAP1 KECCAK256 SWAP1 POP PUSH0 JUMPDEST DUP2 PUSH1 0x1 ADD DUP1 SLOAD SWAP1 POP DUP2 LT ISZERO PUSH2 0x15DE JUMPI PUSH0 DUP3 PUSH1 0x1 ADD DUP3 DUP2 SLOAD DUP2 LT PUSH2 0x14E6 JUMPI PUSH2 0x14E5 PUSH2 0x256C JUMP JUMPDEST JUMPDEST SWAP1 PUSH0 MSTORE PUSH1 0x20 PUSH0 KECCAK256 SWAP1 PUSH1 0x5 MUL ADD SWAP1 POP PUSH0 DUP2 PUSH0 ADD DUP3 PUSH1 0x1 ADD DUP4 PUSH1 0x2 ADD PUSH1 0x40 MLOAD PUSH1 0x20 ADD PUSH2 0x1512 SWAP4 SWAP3 SWAP2 SWAP1 PUSH2 0x25E3 JUMP JUMPDEST PUSH1 0x40 MLOAD PUSH1 0x20 DUP2 DUP4 SUB SUB DUP2 MSTORE SWAP1 PUSH1 0x40 MSTORE SWAP1 POP DUP5 PUSH1 0x40 MLOAD PUSH1 0x20 ADD PUSH2 0x1534 SWAP2 SWAP1 PUSH2 0x21F7 JUMP JUMPDEST PUSH1 0x40 MLOAD PUSH1 0x20 DUP2 DUP4 SUB SUB DUP2 MSTORE SWAP1 PUSH1 0x40 MSTORE DUP1 MLOAD SWAP1 PUSH1 0x20 ADD KECCAK256 DUP2 PUSH1 0x40 MLOAD PUSH1 0x20 ADD PUSH2 0x155B SWAP2 SWAP1 PUSH2 0x21F7 JUMP JUMPDEST PUSH1 0x40 MLOAD PUSH1 0x20 DUP2 DUP4 SUB SUB DUP2 MSTORE SWAP1 PUSH1 0x40 MSTORE DUP1 MLOAD SWAP1 PUSH1 0x20 ADD KECCAK256 SUB PUSH2 0x15CF JUMPI DUP2 PUSH1 0x4 ADD PUSH0 DUP2 SLOAD DUP1 SWAP3 SWAP2 SWAP1 PUSH2 0x158A SWAP1 PUSH2 0x27B4 JUMP JUMPDEST SWAP2 SWAP1 POP SSTORE POP PUSH32 0x137AD23732468494166EC34D1367743690FFA17F6CEAC8429CBA8FC35D088B6E DUP7 DUP3 PUSH1 0x40 MLOAD PUSH2 0x15C0 SWAP3 SWAP2 SWAP1 PUSH2 0x27FB JUMP JUMPDEST PUSH1 0x40 MLOAD DUP1 SWAP2 SUB SWAP1 LOG1 POP POP PUSH2 0x15DE JUMP JUMPDEST POP POP DUP1 DUP1 PUSH1 0x1 ADD SWAP2 POP POP PUSH2 0x14C0 JUMP JUMPDEST POP POP POP POP JUMP JUMPDEST PUSH1 0x60 PUSH1 0x2 DUP1 SLOAD DUP1 PUSH1 0x20 MUL PUSH1 0x20 ADD PUSH1 0x40 MLOAD SWAP1 DUP2 ADD PUSH1 0x40 MSTORE DUP1 SWAP3 SWAP2 SWAP1 DUP2 DUP2 MSTORE PUSH1 0x20 ADD PUSH0 SWAP1 JUMPDEST DUP3 DUP3 LT ISZERO PUSH2 0x16AF JUMPI DUP4 DUP3 SWAP1 PUSH0 MSTORE PUSH1 0x20 PUSH0 KECCAK256 ADD DUP1 SLOAD PUSH2 0x1624 SWAP1 PUSH2 0x223A JUMP JUMPDEST DUP1 PUSH1 0x1F ADD PUSH1 0x20 DUP1 SWAP2 DIV MUL PUSH1 0x20 ADD PUSH1 0x40 MLOAD SWAP1 DUP2 ADD PUSH1 0x40 MSTORE DUP1 SWAP3 SWAP2 SWAP1 DUP2 DUP2 MSTORE PUSH1 0x20 ADD DUP3 DUP1 SLOAD PUSH2 0x1650 SWAP1 PUSH2 0x223A JUMP JUMPDEST DUP1 ISZERO PUSH2 0x169B JUMPI DUP1 PUSH1 0x1F LT PUSH2 0x1672 JUMPI PUSH2 0x100 DUP1 DUP4 SLOAD DIV MUL DUP4 MSTORE SWAP2 PUSH1 0x20 ADD SWAP2 PUSH2 0x169B JUMP JUMPDEST DUP3 ADD SWAP2 SWAP1 PUSH0 MSTORE PUSH1 0x20 PUSH0 KECCAK256 SWAP1 JUMPDEST DUP2 SLOAD DUP2 MSTORE SWAP1 PUSH1 0x1 ADD SWAP1 PUSH1 0x20 ADD DUP1 DUP4 GT PUSH2 0x167E JUMPI DUP3 SWAP1 SUB PUSH1 0x1F AND DUP3 ADD SWAP2 JUMPDEST POP POP POP POP POP DUP2 MSTORE PUSH1 0x20 ADD SWAP1 PUSH1 0x1 ADD SWAP1 PUSH2 0x1607 JUMP JUMPDEST POP POP POP POP SWAP1 POP SWAP1 JUMP JUMPDEST PUSH1 0x40 MLOAD DUP1 PUSH1 0x80 ADD PUSH1 0x40 MSTORE DUP1 PUSH1 0x60 DUP2 MSTORE PUSH1 0x20 ADD PUSH1 0x60 DUP2 MSTORE PUSH1 0x20 ADD PUSH0 DUP2 MSTORE PUSH1 0x20 ADD PUSH0 DUP2 MSTORE POP SWAP1 JUMP JUMPDEST PUSH0 PUSH1 0x40 MLOAD SWAP1 POP SWAP1 JUMP JUMPDEST PUSH0 DUP1 REVERT JUMPDEST PUSH0 DUP1 REVERT JUMPDEST PUSH0 DUP1 REVERT JUMPDEST PUSH0 DUP1 REVERT JUMPDEST PUSH0 PUSH1 0x1F NOT PUSH1 0x1F DUP4 ADD AND SWAP1 POP SWAP2 SWAP1 POP JUMP JUMPDEST PUSH32 0x4E487B7100000000000000000000000000000000000000000000000000000000 PUSH0 MSTORE PUSH1 0x41 PUSH1 0x4 MSTORE PUSH1 0x24 PUSH0 REVERT JUMPDEST PUSH2 0x173D DUP3 PUSH2 0x16F7 JUMP JUMPDEST DUP2 ADD DUP2 DUP2 LT PUSH8 0xFFFFFFFFFFFFFFFF DUP3 GT OR ISZERO PUSH2 0x175C JUMPI PUSH2 0x175B PUSH2 0x1707 JUMP JUMPDEST JUMPDEST DUP1 PUSH1 0x40 MSTORE POP POP POP JUMP JUMPDEST PUSH0 PUSH2 0x176E PUSH2 0x16DE JUMP JUMPDEST SWAP1 POP PUSH2 0x177A DUP3 DUP3 PUSH2 0x1734 JUMP JUMPDEST SWAP2 SWAP1 POP JUMP JUMPDEST PUSH0 PUSH8 0xFFFFFFFFFFFFFFFF DUP3 GT ISZERO PUSH2 0x1799 JUMPI PUSH2 0x1798 PUSH2 0x1707 JUMP JUMPDEST JUMPDEST PUSH2 0x17A2 DUP3 PUSH2 0x16F7 JUMP JUMPDEST SWAP1 POP PUSH1 0x20 DUP2 ADD SWAP1 POP SWAP2 SWAP1 POP JUMP JUMPDEST DUP3 DUP2 DUP4 CALLDATACOPY PUSH0 DUP4 DUP4 ADD MSTORE POP POP POP JUMP JUMPDEST PUSH0 PUSH2 0x17CF PUSH2 0x17CA DUP5 PUSH2 0x177F JUMP JUMPDEST PUSH2 0x1765 JUMP JUMPDEST SWAP1 POP DUP3 DUP2 MSTORE PUSH1 0x20 DUP2 ADD DUP5 DUP5 DUP5 ADD GT ISZERO PUSH2 0x17EB JUMPI PUSH2 0x17EA PUSH2 0x16F3 JUMP JUMPDEST JUMPDEST PUSH2 0x17F6 DUP5 DUP3 DUP6 PUSH2 0x17AF JUMP JUMPDEST POP SWAP4 SWAP3 POP POP POP JUMP JUMPDEST PUSH0 DUP3 PUSH1 0x1F DUP4 ADD SLT PUSH2 0x1812 JUMPI PUSH2 0x1811 PUSH2 0x16EF JUMP JUMPDEST JUMPDEST DUP2 CALLDATALOAD PUSH2 0x1822 DUP5 DUP3 PUSH1 0x20 DUP7 ADD PUSH2 0x17BD JUMP JUMPDEST SWAP2 POP POP SWAP3 SWAP2 POP POP JUMP JUMPDEST PUSH0 DUP1 PUSH1 0x40 DUP4 DUP6 SUB SLT ISZERO PUSH2 0x1841 JUMPI PUSH2 0x1840 PUSH2 0x16E7 JUMP JUMPDEST JUMPDEST PUSH0 DUP4 ADD CALLDATALOAD PUSH8 0xFFFFFFFFFFFFFFFF DUP2 GT ISZERO PUSH2 0x185E JUMPI PUSH2 0x185D PUSH2 0x16EB JUMP JUMPDEST JUMPDEST PUSH2 0x186A DUP6 DUP3 DUP7 ADD PUSH2 0x17FE JUMP JUMPDEST SWAP3 POP POP PUSH1 0x20 DUP4 ADD CALLDATALOAD PUSH8 0xFFFFFFFFFFFFFFFF DUP2 GT ISZERO PUSH2 0x188B JUMPI PUSH2 0x188A PUSH2 0x16EB JUMP JUMPDEST JUMPDEST PUSH2 0x1897 DUP6 DUP3 DUP7 ADD PUSH2 0x17FE JUMP JUMPDEST SWAP2 POP POP SWAP3 POP SWAP3 SWAP1 POP JUMP JUMPDEST PUSH0 DUP2 ISZERO ISZERO SWAP1 POP SWAP2 SWAP1 POP JUMP JUMPDEST PUSH2 0x18B5 DUP2 PUSH2 0x18A1 JUMP JUMPDEST DUP3 MSTORE POP POP JUMP JUMPDEST PUSH0 PUSH1 0x20 DUP3 ADD SWAP1 POP PUSH2 0x18CE PUSH0 DUP4 ADD DUP5 PUSH2 0x18AC JUMP JUMPDEST SWAP3 SWAP2 POP POP JUMP JUMPDEST PUSH0 DUP2 MLOAD SWAP1 POP SWAP2 SWAP1 POP JUMP JUMPDEST PUSH0 DUP3 DUP3 MSTORE PUSH1 0x20 DUP3 ADD SWAP1 POP SWAP3 SWAP2 POP POP JUMP JUMPDEST PUSH0 DUP2 SWAP1 POP PUSH1 0x20 DUP3 ADD SWAP1 POP SWAP2 SWAP1 POP JUMP JUMPDEST PUSH0 DUP2 MLOAD SWAP1 POP SWAP2 SWAP1 POP JUMP JUMPDEST PUSH0 DUP3 DUP3 MSTORE PUSH1 0x20 DUP3 ADD SWAP1 POP SWAP3 SWAP2 POP POP JUMP JUMPDEST DUP3 DUP2 DUP4 MCOPY PUSH0 DUP4 DUP4 ADD MSTORE POP POP POP JUMP JUMPDEST PUSH0 PUSH2 0x192F DUP3 PUSH2 0x18FD JUMP JUMPDEST PUSH2 0x1939 DUP2 DUP6 PUSH2 0x1907 JUMP JUMPDEST SWAP4 POP PUSH2 0x1949 DUP2 DUP6 PUSH1 0x20 DUP7 ADD PUSH2 0x1917 JUMP JUMPDEST PUSH2 0x1952 DUP2 PUSH2 0x16F7 JUMP JUMPDEST DUP5 ADD SWAP2 POP POP SWAP3 SWAP2 POP POP JUMP JUMPDEST PUSH0 PUSH2 0x1968 DUP4 DUP4 PUSH2 0x1925 JUMP JUMPDEST SWAP1 POP SWAP3 SWAP2 POP POP JUMP JUMPDEST PUSH0 PUSH1 0x20 DUP3 ADD SWAP1 POP SWAP2 SWAP1 POP JUMP JUMPDEST PUSH0 PUSH2 0x1986 DUP3 PUSH2 0x18D4 JUMP JUMPDEST PUSH2 0x1990 DUP2 DUP6 PUSH2 0x18DE JUMP JUMPDEST SWAP4 POP DUP4 PUSH1 0x20 DUP3 MUL DUP6 ADD PUSH2 0x19A2 DUP6 PUSH2 0x18EE JUMP JUMPDEST DUP1 PUSH0 JUMPDEST DUP6 DUP2 LT ISZERO PUSH2 0x19DD JUMPI DUP5 DUP5 SUB DUP10 MSTORE DUP2 MLOAD PUSH2 0x19BE DUP6 DUP3 PUSH2 0x195D JUMP JUMPDEST SWAP5 POP PUSH2 0x19C9 DUP4 PUSH2 0x1970 JUMP JUMPDEST SWAP3 POP PUSH1 0x20 DUP11 ADD SWAP10 POP POP PUSH1 0x1 DUP2 ADD SWAP1 POP PUSH2 0x19A5 JUMP JUMPDEST POP DUP3 SWAP8 POP DUP8 SWAP6 POP POP POP POP POP POP SWAP3 SWAP2 POP POP JUMP JUMPDEST PUSH0 DUP2 MLOAD SWAP1 POP SWAP2 SWAP1 POP JUMP JUMPDEST PUSH0 DUP3 DUP3 MSTORE PUSH1 0x20 DUP3 ADD SWAP1 POP SWAP3 SWAP2 POP POP JUMP JUMPDEST PUSH0 DUP2 SWAP1 POP PUSH1 0x20 DUP3 ADD SWAP1 POP SWAP2 SWAP1 POP JUMP JUMPDEST PUSH0 DUP2 MLOAD SWAP1 POP SWAP2 SWAP1 POP JUMP JUMPDEST PUSH0 DUP3 DUP3 MSTORE PUSH1 0x20 DUP3 ADD SWAP1 POP SWAP3 SWAP2 POP POP JUMP JUMPDEST PUSH0 DUP2 SWAP1 POP PUSH1 0x20 DUP3 ADD SWAP1 POP SWAP2 SWAP1 POP JUMP JUMPDEST PUSH0 DUP2 SWAP1 POP SWAP2 SWAP1 POP JUMP JUMPDEST PUSH2 0x1A53 DUP2 PUSH2 0x1A41 JUMP JUMPDEST DUP3 MSTORE POP POP JUMP JUMPDEST PUSH0 PUSH1 0xA0 DUP4 ADD PUSH0 DUP4 ADD MLOAD DUP5 DUP3 SUB PUSH0 DUP7 ADD MSTORE PUSH2 0x1A73 DUP3 DUP3 PUSH2 0x1925 JUMP JUMPDEST SWAP2 POP POP PUSH1 0x20 DUP4 ADD MLOAD DUP5 DUP3 SUB PUSH1 0x20 DUP7 ADD MSTORE PUSH2 0x1A8D DUP3 DUP3 PUSH2 0x1925 JUMP JUMPDEST SWAP2 POP POP PUSH1 0x40 DUP4 ADD MLOAD DUP5 DUP3 SUB PUSH1 0x40 DUP7 ADD MSTORE PUSH2 0x1AA7 DUP3 DUP3 PUSH2 0x1925 JUMP JUMPDEST SWAP2 POP POP PUSH1 0x60 DUP4 ADD MLOAD DUP5 DUP3 SUB PUSH1 0x60 DUP7 ADD MSTORE PUSH2 0x1AC1 DUP3 DUP3 PUSH2 0x1925 JUMP JUMPDEST SWAP2 POP POP PUSH1 0x80 DUP4 ADD MLOAD PUSH2 0x1AD6 PUSH1 0x80 DUP7 ADD DUP3 PUSH2 0x1A4A JUMP JUMPDEST POP DUP1 SWAP2 POP POP SWAP3 SWAP2 POP POP JUMP JUMPDEST PUSH0 PUSH2 0x1AEC DUP4 DUP4 PUSH2 0x1A59 JUMP JUMPDEST SWAP1 POP SWAP3 SWAP2 POP POP JUMP JUMPDEST PUSH0 PUSH1 0x20 DUP3 ADD SWAP1 POP SWAP2 SWAP1 POP JUMP JUMPDEST PUSH0 PUSH2 0x1B0A DUP3 PUSH2 0x1A18 JUMP JUMPDEST PUSH2 0x1B14 DUP2 DUP6 PUSH2 0x1A22 JUMP JUMPDEST SWAP4 POP DUP4 PUSH1 0x20 DUP3 MUL DUP6 ADD PUSH2 0x1B26 DUP6 PUSH2 0x1A32 JUMP JUMPDEST DUP1 PUSH0 JUMPDEST DUP6 DUP2 LT ISZERO PUSH2 0x1B61 JUMPI DUP5 DUP5 SUB DUP10 MSTORE DUP2 MLOAD PUSH2 0x1B42 DUP6 DUP3 PUSH2 0x1AE1 JUMP JUMPDEST SWAP5 POP PUSH2 0x1B4D DUP4 PUSH2 0x1AF4 JUMP JUMPDEST SWAP3 POP PUSH1 0x20 DUP11 ADD SWAP10 POP POP PUSH1 0x1 DUP2 ADD SWAP1 POP PUSH2 0x1B29 JUMP JUMPDEST POP DUP3 SWAP8 POP DUP8 SWAP6 POP POP POP POP POP POP SWAP3 SWAP2 POP POP JUMP JUMPDEST PUSH0 PUSH1 0x80 DUP4 ADD PUSH0 DUP4 ADD MLOAD DUP5 DUP3 SUB PUSH0 DUP7 ADD MSTORE PUSH2 0x1B8D DUP3 DUP3 PUSH2 0x1925 JUMP JUMPDEST SWAP2 POP POP PUSH1 0x20 DUP4 ADD MLOAD DUP5 DUP3 SUB PUSH1 0x20 DUP7 ADD MSTORE PUSH2 0x1BA7 DUP3 DUP3 PUSH2 0x1B00 JUMP JUMPDEST SWAP2 POP POP PUSH1 0x40 DUP4 ADD MLOAD PUSH2 0x1BBC PUSH1 0x40 DUP7 ADD DUP3 PUSH2 0x1A4A JUMP JUMPDEST POP PUSH1 0x60 DUP4 ADD MLOAD PUSH2 0x1BCF PUSH1 0x60 DUP7 ADD DUP3 PUSH2 0x1A4A JUMP JUMPDEST POP DUP1 SWAP2 POP POP SWAP3 SWAP2 POP POP JUMP JUMPDEST PUSH0 PUSH2 0x1BE5 DUP4 DUP4 PUSH2 0x1B73 JUMP JUMPDEST SWAP1 POP SWAP3 SWAP2 POP POP JUMP JUMPDEST PUSH0 PUSH1 0x20 DUP3 ADD SWAP1 POP SWAP2 SWAP1 POP JUMP JUMPDEST PUSH0 PUSH2 0x1C03 DUP3 PUSH2 0x19EF JUMP JUMPDEST PUSH2 0x1C0D DUP2 DUP6 PUSH2 0x19F9 JUMP JUMPDEST SWAP4 POP DUP4 PUSH1 0x20 DUP3 MUL DUP6 ADD PUSH2 0x1C1F DUP6 PUSH2 0x1A09 JUMP JUMPDEST DUP1 PUSH0 JUMPDEST DUP6 DUP2 LT ISZERO PUSH2 0x1C5A JUMPI DUP5 DUP5 SUB DUP10 MSTORE DUP2 MLOAD PUSH2 0x1C3B DUP6 DUP3 PUSH2 0x1BDA JUMP JUMPDEST SWAP5 POP PUSH2 0x1C46 DUP4 PUSH2 0x1BED JUMP JUMPDEST SWAP3 POP PUSH1 0x20 DUP11 ADD SWAP10 POP POP PUSH1 0x1 DUP2 ADD SWAP1 POP PUSH2 0x1C22 JUMP JUMPDEST POP DUP3 SWAP8 POP DUP8 SWAP6 POP POP POP POP POP POP SWAP3 SWAP2 POP POP JUMP JUMPDEST PUSH0 PUSH1 0x40 DUP3 ADD SWAP1 POP DUP2 DUP2 SUB PUSH0 DUP4 ADD MSTORE PUSH2 0x1C84 DUP2 DUP6 PUSH2 0x197C JUMP JUMPDEST SWAP1 POP DUP2 DUP2 SUB PUSH1 0x20 DUP4 ADD MSTORE PUSH2 0x1C98 DUP2 DUP5 PUSH2 0x1BF9 JUMP JUMPDEST SWAP1 POP SWAP4 SWAP3 POP POP POP JUMP JUMPDEST PUSH0 PUSH1 0x20 DUP3 DUP5 SUB SLT ISZERO PUSH2 0x1CB6 JUMPI PUSH2 0x1CB5 PUSH2 0x16E7 JUMP JUMPDEST JUMPDEST PUSH0 DUP3 ADD CALLDATALOAD PUSH8 0xFFFFFFFFFFFFFFFF DUP2 GT ISZERO PUSH2 0x1CD3 JUMPI PUSH2 0x1CD2 PUSH2 0x16EB JUMP JUMPDEST JUMPDEST PUSH2 0x1CDF DUP5 DUP3 DUP6 ADD PUSH2 0x17FE JUMP JUMPDEST SWAP2 POP POP SWAP3 SWAP2 POP POP JUMP JUMPDEST PUSH0 DUP3 DUP3 MSTORE PUSH1 0x20 DUP3 ADD SWAP1 POP SWAP3 SWAP2 POP POP JUMP JUMPDEST PUSH0 PUSH2 0x1D02 DUP3 PUSH2 0x18FD JUMP JUMPDEST PUSH2 0x1D0C DUP2 DUP6 PUSH2 0x1CE8 JUMP JUMPDEST SWAP4 POP PUSH2 0x1D1C DUP2 DUP6 PUSH1 0x20 DUP7 ADD PUSH2 0x1917 JUMP JUMPDEST PUSH2 0x1D25 DUP2 PUSH2 0x16F7 JUMP JUMPDEST DUP5 ADD SWAP2 POP POP SWAP3 SWAP2 POP POP JUMP JUMPDEST PUSH0 DUP3 DUP3 MSTORE PUSH1 0x20 DUP3 ADD SWAP1 POP SWAP3 SWAP2 POP POP JUMP JUMPDEST PUSH0 PUSH2 0x1D4A DUP3 PUSH2 0x1A18 JUMP JUMPDEST PUSH2 0x1D54 DUP2 DUP6 PUSH2 0x1D30 JUMP JUMPDEST SWAP4 POP DUP4 PUSH1 0x20 DUP3 MUL DUP6 ADD PUSH2 0x1D66 DUP6 PUSH2 0x1A32 JUMP JUMPDEST DUP1 PUSH0 JUMPDEST DUP6 DUP2 LT ISZERO PUSH2 0x1DA1 JUMPI DUP5 DUP5 SUB DUP10 MSTORE DUP2 MLOAD PUSH2 0x1D82 DUP6 DUP3 PUSH2 0x1AE1 JUMP JUMPDEST SWAP5 POP PUSH2 0x1D8D DUP4 PUSH2 0x1AF4 JUMP JUMPDEST SWAP3 POP PUSH1 0x20 DUP11 ADD SWAP10 POP POP PUSH1 0x1 DUP2 ADD SWAP1 POP PUSH2 0x1D69 JUMP JUMPDEST POP DUP3 SWAP8 POP DUP8 SWAP6 POP POP POP POP POP POP SWAP3 SWAP2 POP POP JUMP JUMPDEST PUSH0 PUSH1 0x40 DUP3 ADD SWAP1 POP DUP2 DUP2 SUB PUSH0 DUP4 ADD MSTORE PUSH2 0x1DCB DUP2 DUP6 PUSH2 0x1CF8 JUMP JUMPDEST SWAP1 POP DUP2 DUP2 SUB PUSH1 0x20 DUP4 ADD MSTORE PUSH2 0x1DDF DUP2 DUP5 PUSH2 0x1D40 JUMP JUMPDEST SWAP1 POP SWAP4 SWAP3 POP POP POP JUMP JUMPDEST PUSH0 PUSH1 0x80 DUP4 ADD PUSH0 DUP4 ADD MLOAD DUP5 DUP3 SUB PUSH0 DUP7 ADD MSTORE PUSH2 0x1E02 DUP3 DUP3 PUSH2 0x1925 JUMP JUMPDEST SWAP2 POP POP PUSH1 0x20 DUP4 ADD MLOAD DUP5 DUP3 SUB PUSH1 0x20 DUP7 ADD MSTORE PUSH2 0x1E1C DUP3 DUP3 PUSH2 0x1B00 JUMP JUMPDEST SWAP2 POP POP PUSH1 0x40 DUP4 ADD MLOAD PUSH2 0x1E31 PUSH1 0x40 DUP7 ADD DUP3 PUSH2 0x1A4A JUMP JUMPDEST POP PUSH1 0x60 DUP4 ADD MLOAD PUSH2 0x1E44 PUSH1 0x60 DUP7 ADD DUP3 PUSH2 0x1A4A JUMP JUMPDEST POP DUP1 SWAP2 POP POP SWAP3 SWAP2 POP POP JUMP JUMPDEST PUSH0 PUSH1 0x20 DUP3 ADD SWAP1 POP DUP2 DUP2 SUB PUSH0 DUP4 ADD MSTORE PUSH2 0x1E67 DUP2 DUP5 PUSH2 0x1DE8 JUMP JUMPDEST SWAP1 POP SWAP3 SWAP2 POP POP JUMP JUMPDEST PUSH0 PUSH1 0x20 DUP3 ADD SWAP1 POP DUP2 DUP2 SUB PUSH0 DUP4 ADD MSTORE PUSH2 0x1E87 DUP2 DUP5 PUSH2 0x197C JUMP JUMPDEST SWAP1 POP SWAP3 SWAP2 POP POP JUMP JUMPDEST PUSH2 0x1E98 DUP2 PUSH2 0x1A41 JUMP JUMPDEST DUP3 MSTORE POP POP JUMP JUMPDEST PUSH0 PUSH1 0x20 DUP3 ADD SWAP1 POP PUSH2 0x1EB1 PUSH0 DUP4 ADD DUP5 PUSH2 0x1E8F JUMP JUMPDEST SWAP3 SWAP2 POP POP JUMP JUMPDEST PUSH0 PUSH8 0xFFFFFFFFFFFFFFFF DUP3 GT ISZERO PUSH2 0x1ED1 JUMPI PUSH2 0x1ED0 PUSH2 0x1707 JUMP JUMPDEST JUMPDEST PUSH1 0x20 DUP3 MUL SWAP1 POP PUSH1 0x20 DUP2 ADD SWAP1 POP SWAP2 SWAP1 POP JUMP JUMPDEST PUSH0 DUP1 REVERT JUMPDEST PUSH0 DUP1 REVERT JUMPDEST PUSH0 DUP1 REVERT JUMPDEST PUSH2 0x1EF7 DUP2 PUSH2 0x1A41 JUMP JUMPDEST DUP2 EQ PUSH2 0x1F01 JUMPI PUSH0 DUP1 REVERT JUMPDEST POP JUMP JUMPDEST PUSH0 DUP2 CALLDATALOAD SWAP1 POP PUSH2 0x1F12 DUP2 PUSH2 0x1EEE JUMP JUMPDEST SWAP3 SWAP2 POP POP JUMP JUMPDEST PUSH0 PUSH1 0xA0 DUP3 DUP5 SUB SLT ISZERO PUSH2 0x1F2D JUMPI PUSH2 0x1F2C PUSH2 0x1EE6 JUMP JUMPDEST JUMPDEST PUSH2 0x1F37 PUSH1 0xA0 PUSH2 0x1765 JUMP JUMPDEST SWAP1 POP PUSH0 DUP3 ADD CALLDATALOAD PUSH8 0xFFFFFFFFFFFFFFFF DUP2 GT ISZERO PUSH2 0x1F56 JUMPI PUSH2 0x1F55 PUSH2 0x1EEA JUMP JUMPDEST JUMPDEST PUSH2 0x1F62 DUP5 DUP3 DUP6 ADD PUSH2 0x17FE JUMP JUMPDEST PUSH0 DUP4 ADD MSTORE POP PUSH1 0x20 DUP3 ADD CALLDATALOAD PUSH8 0xFFFFFFFFFFFFFFFF DUP2 GT ISZERO PUSH2 0x1F85 JUMPI PUSH2 0x1F84 PUSH2 0x1EEA JUMP JUMPDEST JUMPDEST PUSH2 0x1F91 DUP5 DUP3 DUP6 ADD PUSH2 0x17FE JUMP JUMPDEST PUSH1 0x20 DUP4 ADD MSTORE POP PUSH1 0x40 DUP3 ADD CALLDATALOAD PUSH8 0xFFFFFFFFFFFFFFFF DUP2 GT ISZERO PUSH2 0x1FB5 JUMPI PUSH2 0x1FB4 PUSH2 0x1EEA JUMP JUMPDEST JUMPDEST PUSH2 0x1FC1 DUP5 DUP3 DUP6 ADD PUSH2 0x17FE JUMP JUMPDEST PUSH1 0x40 DUP4 ADD MSTORE POP PUSH1 0x60 DUP3 ADD CALLDATALOAD PUSH8 0xFFFFFFFFFFFFFFFF DUP2 GT ISZERO PUSH2 0x1FE5 JUMPI PUSH2 0x1FE4 PUSH2 0x1EEA JUMP JUMPDEST JUMPDEST PUSH2 0x1FF1 DUP5 DUP3 DUP6 ADD PUSH2 0x17FE JUMP JUMPDEST PUSH1 0x60 DUP4 ADD MSTORE POP PUSH1 0x80 PUSH2 0x2005 DUP5 DUP3 DUP6 ADD PUSH2 0x1F04 JUMP JUMPDEST PUSH1 0x80 DUP4 ADD MSTORE POP SWAP3 SWAP2 POP POP JUMP JUMPDEST PUSH0 PUSH2 0x2023 PUSH2 0x201E DUP5 PUSH2 0x1EB7 JUMP JUMPDEST PUSH2 0x1765 JUMP JUMPDEST SWAP1 POP DUP1 DUP4 DUP3 MSTORE PUSH1 0x20 DUP3 ADD SWAP1 POP PUSH1 0x20 DUP5 MUL DUP4 ADD DUP6 DUP2 GT ISZERO PUSH2 0x2046 JUMPI PUSH2 0x2045 PUSH2 0x1EE2 JUMP JUMPDEST JUMPDEST DUP4 JUMPDEST DUP2 DUP2 LT ISZERO PUSH2 0x208D JUMPI DUP1 CALLDATALOAD PUSH8 0xFFFFFFFFFFFFFFFF DUP2 GT ISZERO PUSH2 0x206B JUMPI PUSH2 0x206A PUSH2 0x16EF JUMP JUMPDEST JUMPDEST DUP1 DUP7 ADD PUSH2 0x2078 DUP10 DUP3 PUSH2 0x1F18 JUMP JUMPDEST DUP6 MSTORE PUSH1 0x20 DUP6 ADD SWAP5 POP POP POP PUSH1 0x20 DUP2 ADD SWAP1 POP PUSH2 0x2048 JUMP JUMPDEST POP POP POP SWAP4 SWAP3 POP POP POP JUMP JUMPDEST PUSH0 DUP3 PUSH1 0x1F DUP4 ADD SLT PUSH2 0x20AB JUMPI PUSH2 0x20AA PUSH2 0x16EF JUMP JUMPDEST JUMPDEST DUP2 CALLDATALOAD PUSH2 0x20BB DUP5 DUP3 PUSH1 0x20 DUP7 ADD PUSH2 0x2011 JUMP JUMPDEST SWAP2 POP POP SWAP3 SWAP2 POP POP JUMP JUMPDEST PUSH0 DUP1 PUSH0 DUP1 PUSH0 DUP1 PUSH1 0xC0 DUP8 DUP10 SUB SLT ISZERO PUSH2 0x20DE JUMPI PUSH2 0x20DD PUSH2 0x16E7 JUMP JUMPDEST JUMPDEST PUSH0 DUP8 ADD CALLDATALOAD PUSH8 0xFFFFFFFFFFFFFFFF DUP2 GT ISZERO PUSH2 0x20FB JUMPI PUSH2 0x20FA PUSH2 0x16EB JUMP JUMPDEST JUMPDEST PUSH2 0x2107 DUP10 DUP3 DUP11 ADD PUSH2 0x17FE JUMP JUMPDEST SWAP7 POP POP PUSH1 0x20 DUP8 ADD CALLDATALOAD PUSH8 0xFFFFFFFFFFFFFFFF DUP2 GT ISZERO PUSH2 0x2128 JUMPI PUSH2 0x2127 PUSH2 0x16EB JUMP JUMPDEST JUMPDEST PUSH2 0x2134 DUP10 DUP3 DUP11 ADD PUSH2 0x2097 JUMP JUMPDEST SWAP6 POP POP PUSH1 0x40 PUSH2 0x2145 DUP10 DUP3 DUP11 ADD PUSH2 0x1F04 JUMP JUMPDEST SWAP5 POP POP PUSH1 0x60 PUSH2 0x2156 DUP10 DUP3 DUP11 ADD PUSH2 0x1F04 JUMP JUMPDEST SWAP4 POP POP PUSH1 0x80 DUP8 ADD CALLDATALOAD PUSH8 0xFFFFFFFFFFFFFFFF DUP2 GT ISZERO PUSH2 0x2177 JUMPI PUSH2 0x2176 PUSH2 0x16EB JUMP JUMPDEST JUMPDEST PUSH2 0x2183 DUP10 DUP3 DUP11 ADD PUSH2 0x17FE JUMP JUMPDEST SWAP3 POP POP PUSH1 0xA0 DUP8 ADD CALLDATALOAD PUSH8 0xFFFFFFFFFFFFFFFF DUP2 GT ISZERO PUSH2 0x21A4 JUMPI PUSH2 0x21A3 PUSH2 0x16EB JUMP JUMPDEST JUMPDEST PUSH2 0x21B0 DUP10 DUP3 DUP11 ADD PUSH2 0x17FE JUMP JUMPDEST SWAP2 POP POP SWAP3 SWAP6 POP SWAP3 SWAP6 POP SWAP3 SWAP6 JUMP JUMPDEST PUSH0 DUP2 SWAP1 POP SWAP3 SWAP2 POP POP JUMP JUMPDEST PUSH0 PUSH2 0x21D1 DUP3 PUSH2 0x18FD JUMP JUMPDEST PUSH2 0x21DB DUP2 DUP6 PUSH2 0x21BD JUMP JUMPDEST SWAP4 POP PUSH2 0x21EB DUP2 DUP6 PUSH1 0x20 DUP7 ADD PUSH2 0x1917 JUMP JUMPDEST DUP1 DUP5 ADD SWAP2 POP POP SWAP3 SWAP2 POP POP JUMP JUMPDEST PUSH0 PUSH2 0x2202 DUP3 DUP5 PUSH2 0x21C7 JUMP JUMPDEST SWAP2 POP DUP2 SWAP1 POP SWAP3 SWAP2 POP POP JUMP JUMPDEST PUSH32 0x4E487B7100000000000000000000000000000000000000000000000000000000 PUSH0 MSTORE PUSH1 0x22 PUSH1 0x4 MSTORE PUSH1 0x24 PUSH0 REVERT JUMPDEST PUSH0 PUSH1 0x2 DUP3 DIV SWAP1 POP PUSH1 0x1 DUP3 AND DUP1 PUSH2 0x2251 JUMPI PUSH1 0x7F DUP3 AND SWAP2 POP JUMPDEST PUSH1 0x20 DUP3 LT DUP2 SUB PUSH2 0x2264 JUMPI PUSH2 0x2263 PUSH2 0x220D JUMP JUMPDEST JUMPDEST POP SWAP2 SWAP1 POP JUMP JUMPDEST PUSH0 DUP2 SWAP1 POP DUP2 PUSH0 MSTORE PUSH1 0x20 PUSH0 KECCAK256 SWAP1 POP SWAP2 SWAP1 POP JUMP JUMPDEST PUSH0 PUSH1 0x20 PUSH1 0x1F DUP4 ADD DIV SWAP1 POP SWAP2 SWAP1 POP JUMP JUMPDEST PUSH0 DUP3 DUP3 SHL SWAP1 POP SWAP3 SWAP2 POP POP JUMP JUMPDEST PUSH0 PUSH1 0x8 DUP4 MUL PUSH2 0x22C6 PUSH32 0xFFFFFFFFFFFFFFFFFFFFFFFFFFFFFFFFFFFFFFFFFFFFFFFFFFFFFFFFFFFFFFFF DUP3 PUSH2 0x228B JUMP JUMPDEST PUSH2 0x22D0 DUP7 DUP4 PUSH2 0x228B JUMP JUMPDEST SWAP6 POP DUP1 NOT DUP5 AND SWAP4 POP DUP1 DUP7 AND DUP5 OR SWAP3 POP POP POP SWAP4 SWAP3 POP POP POP JUMP JUMPDEST PUSH0 DUP2 SWAP1 POP SWAP2 SWAP1 POP JUMP JUMPDEST PUSH0 PUSH2 0x230B PUSH2 0x2306 PUSH2 0x2301 DUP5 PUSH2 0x1A41 JUMP JUMPDEST PUSH2 0x22E8 JUMP JUMPDEST PUSH2 0x1A41 JUMP JUMPDEST SWAP1 POP SWAP2 SWAP1 POP JUMP JUMPDEST PUSH0 DUP2 SWAP1 POP SWAP2 SWAP1 POP JUMP JUMPDEST PUSH2 0x2324 DUP4 PUSH2 0x22F1 JUMP JUMPDEST PUSH2 0x2338 PUSH2 0x2330 DUP3 PUSH2 0x2312 JUMP JUMPDEST DUP5 DUP5 SLOAD PUSH2 0x2297 JUMP JUMPDEST DUP3 SSTORE POP POP POP POP JUMP JUMPDEST PUSH0 SWAP1 JUMP JUMPDEST PUSH2 0x234C PUSH2 0x2340 JUMP JUMPDEST PUSH2 0x2357 DUP2 DUP5 DUP5 PUSH2 0x231B JUMP JUMPDEST POP POP POP JUMP JUMPDEST JUMPDEST DUP2 DUP2 LT ISZERO PUSH2 0x237A JUMPI PUSH2 0x236F PUSH0 DUP3 PUSH2 0x2344 JUMP JUMPDEST PUSH1 0x1 DUP2 ADD SWAP1 POP PUSH2 0x235D JUMP JUMPDEST POP POP JUMP JUMPDEST PUSH1 0x1F DUP3 GT ISZERO PUSH2 0x23BF JUMPI PUSH2 0x2390 DUP2 PUSH2 0x226A JUMP JUMPDEST PUSH2 0x2399 DUP5 PUSH2 0x227C JUMP JUMPDEST DUP2 ADD PUSH1 0x20 DUP6 LT ISZERO PUSH2 0x23A8 JUMPI DUP2 SWAP1 POP JUMPDEST PUSH2 0x23BC PUSH2 0x23B4 DUP6 PUSH2 0x227C JUMP JUMPDEST DUP4 ADD DUP3 PUSH2 0x235C JUMP JUMPDEST POP POP JUMPDEST POP POP POP JUMP JUMPDEST PUSH0 DUP3 DUP3 SHR SWAP1 POP SWAP3 SWAP2 POP POP JUMP JUMPDEST PUSH0 PUSH2 0x23DF PUSH0 NOT DUP5 PUSH1 0x8 MUL PUSH2 0x23C4 JUMP JUMPDEST NOT DUP1 DUP4 AND SWAP2 POP POP SWAP3 SWAP2 POP POP JUMP JUMPDEST PUSH0 PUSH2 0x23F7 DUP4 DUP4 PUSH2 0x23D0 JUMP JUMPDEST SWAP2 POP DUP3 PUSH1 0x2 MUL DUP3 OR SWAP1 POP SWAP3 SWAP2 POP POP JUMP JUMPDEST PUSH2 0x2410 DUP3 PUSH2 0x18FD JUMP JUMPDEST PUSH8 0xFFFFFFFFFFFFFFFF DUP2 GT ISZERO PUSH2 0x2429 JUMPI PUSH2 0x2428 PUSH2 0x1707 JUMP JUMPDEST JUMPDEST PUSH2 0x2433 DUP3 SLOAD PUSH2 0x223A JUMP JUMPDEST PUSH2 0x243E DUP3 DUP3 DUP6 PUSH2 0x237E JUMP JUMPDEST PUSH0 PUSH1 0x20 SWAP1 POP PUSH1 0x1F DUP4 GT PUSH1 0x1 DUP2 EQ PUSH2 0x246F JUMPI PUSH0 DUP5 ISZERO PUSH2 0x245D JUMPI DUP3 DUP8 ADD MLOAD SWAP1 POP JUMPDEST PUSH2 0x2467 DUP6 DUP3 PUSH2 0x23EC JUMP JUMPDEST DUP7 SSTORE POP PUSH2 0x24CE JUMP JUMPDEST PUSH1 0x1F NOT DUP5 AND PUSH2 0x247D DUP7 PUSH2 0x226A JUMP JUMPDEST PUSH0 JUMPDEST DUP3 DUP2 LT ISZERO PUSH2 0x24A4 JUMPI DUP5 DUP10 ADD MLOAD DUP3 SSTORE PUSH1 0x1 DUP3 ADD SWAP2 POP PUSH1 0x20 DUP6 ADD SWAP5 POP PUSH1 0x20 DUP2 ADD SWAP1 POP PUSH2 0x247F JUMP JUMPDEST DUP7 DUP4 LT ISZERO PUSH2 0x24C1 JUMPI DUP5 DUP10 ADD MLOAD PUSH2 0x24BD PUSH1 0x1F DUP10 AND DUP3 PUSH2 0x23D0 JUMP JUMPDEST DUP4 SSTORE POP JUMPDEST PUSH1 0x1 PUSH1 0x2 DUP9 MUL ADD DUP9 SSTORE POP POP POP JUMPDEST POP POP POP POP POP POP JUMP JUMPDEST PUSH0 DUP2 SLOAD PUSH2 0x24E2 DUP2 PUSH2 0x223A JUMP JUMPDEST PUSH2 0x24EC DUP2 DUP7 PUSH2 0x21BD JUMP JUMPDEST SWAP5 POP PUSH1 0x1 DUP3 AND PUSH0 DUP2 EQ PUSH2 0x2506 JUMPI PUSH1 0x1 DUP2 EQ PUSH2 0x251B JUMPI PUSH2 0x254D JUMP JUMPDEST PUSH1 0xFF NOT DUP4 AND DUP7 MSTORE DUP2 ISZERO ISZERO DUP3 MUL DUP7 ADD SWAP4 POP PUSH2 0x254D JUMP JUMPDEST PUSH2 0x2524 DUP6 PUSH2 0x226A JUMP JUMPDEST PUSH0 JUMPDEST DUP4 DUP2 LT ISZERO PUSH2 0x2545 JUMPI DUP2 SLOAD DUP2 DUP10 ADD MSTORE PUSH1 0x1 DUP3 ADD SWAP2 POP PUSH1 0x20 DUP2 ADD SWAP1 POP PUSH2 0x2526 JUMP JUMPDEST DUP4 DUP9 ADD SWAP6 POP POP POP JUMPDEST POP POP POP SWAP3 SWAP2 POP POP JUMP JUMPDEST PUSH0 PUSH2 0x2561 DUP3 DUP5 PUSH2 0x24D6 JUMP JUMPDEST SWAP2 POP DUP2 SWAP1 POP SWAP3 SWAP2 POP POP JUMP JUMPDEST PUSH32 0x4E487B7100000000000000000000000000000000000000000000000000000000 PUSH0 MSTORE PUSH1 0x32 PUSH1 0x4 MSTORE PUSH1 0x24 PUSH0 REVERT JUMPDEST PUSH32 0x2000000000000000000000000000000000000000000000000000000000000000 PUSH0 DUP3 ADD MSTORE POP JUMP JUMPDEST PUSH0 PUSH2 0x25CD PUSH1 0x1 DUP4 PUSH2 0x21BD JUMP JUMPDEST SWAP2 POP PUSH2 0x25D8 DUP3 PUSH2 0x2599 JUMP JUMPDEST PUSH1 0x1 DUP3 ADD SWAP1 POP SWAP2 SWAP1 POP JUMP JUMPDEST PUSH0 PUSH2 0x25EE DUP3 DUP7 PUSH2 0x24D6 JUMP JUMPDEST SWAP2 POP PUSH2 0x25F9 DUP3 PUSH2 0x25C1 JUMP JUMPDEST SWAP2 POP PUSH2 0x2605 DUP3 DUP6 PUSH2 0x24D6 JUMP JUMPDEST SWAP2 POP PUSH2 0x2610 DUP3 PUSH2 0x25C1 JUMP JUMPDEST SWAP2 POP PUSH2 0x261C DUP3 DUP5 PUSH2 0x24D6 JUMP JUMPDEST SWAP2 POP DUP2 SWAP1 POP SWAP5 SWAP4 POP POP POP POP JUMP JUMPDEST PUSH32 0x4E6F7420616E2061646D696E206F7220696E636F72726563742070617373776F PUSH0 DUP3 ADD MSTORE PUSH32 0x7264000000000000000000000000000000000000000000000000000000000000 PUSH1 0x20 DUP3 ADD MSTORE POP JUMP JUMPDEST PUSH0 PUSH2 0x2683 PUSH1 0x22 DUP4 PUSH2 0x1CE8 JUMP JUMPDEST SWAP2 POP PUSH2 0x268E DUP3 PUSH2 0x2629 JUMP JUMPDEST PUSH1 0x40 DUP3 ADD SWAP1 POP SWAP2 SWAP1 POP JUMP JUMPDEST PUSH0 PUSH1 0x20 DUP3 ADD SWAP1 POP DUP2 DUP2 SUB PUSH0 DUP4 ADD MSTORE PUSH2 0x26B0 DUP2 PUSH2 0x2677 JUMP JUMPDEST SWAP1 POP SWAP2 SWAP1 POP JUMP JUMPDEST PUSH32 0x456C656374696F6E206E616D652063616E6E6F7420626520656D707479000000 PUSH0 DUP3 ADD MSTORE POP JUMP JUMPDEST PUSH0 PUSH2 0x26EB PUSH1 0x1D DUP4 PUSH2 0x1CE8 JUMP JUMPDEST SWAP2 POP PUSH2 0x26F6 DUP3 PUSH2 0x26B7 JUMP JUMPDEST PUSH1 0x20 DUP3 ADD SWAP1 POP SWAP2 SWAP1 POP JUMP JUMPDEST PUSH0 PUSH1 0x20 DUP3 ADD SWAP1 POP DUP2 DUP2 SUB PUSH0 DUP4 ADD MSTORE PUSH2 0x2718 DUP2 PUSH2 0x26DF JUMP JUMPDEST SWAP1 POP SWAP2 SWAP1 POP JUMP JUMPDEST PUSH32 0x456C656374696F6E20616C726561647920657869737473000000000000000000 PUSH0 DUP3 ADD MSTORE POP JUMP JUMPDEST PUSH0 PUSH2 0x2753 PUSH1 0x17 DUP4 PUSH2 0x1CE8 JUMP JUMPDEST SWAP2 POP PUSH2 0x275E DUP3 PUSH2 0x271F JUMP JUMPDEST PUSH1 0x20 DUP3 ADD SWAP1 POP SWAP2 SWAP1 POP JUMP JUMPDEST PUSH0 PUSH1 0x20 DUP3 ADD SWAP1 POP DUP2 DUP2 SUB PUSH0 DUP4 ADD MSTORE PUSH2 0x2780 DUP2 PUSH2 0x2747 JUMP JUMPDEST SWAP1 POP SWAP2 SWAP1 POP JUMP JUMPDEST PUSH32 0x4E487B7100000000000000000000000000000000000000000000000000000000 PUSH0 MSTORE PUSH1 0x11 PUSH1 0x4 MSTORE PUSH1 0x24 PUSH0 REVERT JUMPDEST PUSH0 PUSH2 0x27BE DUP3 PUSH2 0x1A41 JUMP JUMPDEST SWAP2 POP PUSH32 0xFFFFFFFFFFFFFFFFFFFFFFFFFFFFFFFFFFFFFFFFFFFFFFFFFFFFFFFFFFFFFFFF DUP3 SUB PUSH2 0x27F0 JUMPI PUSH2 0x27EF PUSH2 0x2787 JUMP JUMPDEST JUMPDEST PUSH1 0x1 DUP3 ADD SWAP1 POP SWAP2 SWAP1 POP JUMP JUMPDEST PUSH0 PUSH1 0x40 DUP3 ADD SWAP1 POP DUP2 DUP2 SUB PUSH0 DUP4 ADD MSTORE PUSH2 0x2813 DUP2 DUP6 PUSH2 0x1CF8 JUMP JUMPDEST SWAP1 POP DUP2 DUP2 SUB PUSH1 0x20 DUP4 ADD MSTORE PUSH2 0x2827 DUP2 DUP5 PUSH2 0x1CF8 JUMP JUMPDEST SWAP1 POP SWAP4 SWAP3 POP POP POP JUMP INVALID LOG2 PUSH5 0x6970667358 0x22 SLT KECCAK256 SWAP10 0xEC SUB BLOCKHASH DUP10 SWAP11 MCOPY SWAP13 0xE4 BASEFEE 0xDE TIMESTAMP STATICCALL AND GAS 0xEB SWAP15 0xF7 0xFC PUSH12 0x54B6AC9438FE9D63068E72B4 PUSH5 0x736F6C6343 STOP ADDMOD BYTE STOP CALLER "
				},
				"gasEstimates": {
					"creation": {
						"codeDepositCost": "2068400",
						"executionCost": "infinite",
						"totalCost": "infinite"
					},
					"external": {
						"addAdmin(string,string)": "infinite",
						"addElectionWithDetails(string,(string,string,string,string,uint256)[],uint256,uint256,string,string)": "infinite",
						"getAllElectionNames()": "infinite",
						"getAllElections()": "infinite",
						"getCandidateNames(string)": "infinite",
						"getCandidateVotes(string,string)": "infinite",
						"getElectionDetails(string)": "infinite",
						"getElectionResult(string)": "infinite",
						"verifyAdmin(string,string)": "infinite",
						"vote(string,string)": "infinite"
					}
				},
				"methodIdentifiers": {
					"addAdmin(string,string)": "1f459041",
					"addElectionWithDetails(string,(string,string,string,string,uint256)[],uint256,uint256,string,string)": "c7bbf8af",
					"getAllElectionNames()": "f36be3dd",
					"getAllElections()": "7fd5f268",
					"getCandidateNames(string)": "9d3adf5b",
					"getCandidateVotes(string,string)": "b7ff50fc",
					"getElectionDetails(string)": "928cb52e",
					"getElectionResult(string)": "897de252",
					"verifyAdmin(string,string)": "6fcf1c7d",
					"vote(string,string)": "e8d5940d"
				}
			},
			"storageLayout": {
				"storage": [
					{
						"astId": 33,
						"contract": "contracts/Lock.sol:Lock",
						"label": "elections",
						"offset": 0,
						"slot": "0",
						"type": "t_mapping(t_string_memory_ptr,t_struct(ElectionDetails)23_storage)"
					},
					{
						"astId": 38,
						"contract": "contracts/Lock.sol:Lock",
						"label": "admins",
						"offset": 0,
						"slot": "1",
						"type": "t_mapping(t_string_memory_ptr,t_struct(Admin)28_storage)"
					},
					{
						"astId": 41,
						"contract": "contracts/Lock.sol:Lock",
						"label": "electionNames",
						"offset": 0,
						"slot": "2",
						"type": "t_array(t_string_storage)dyn_storage"
					}
				],
				"types": {
					"t_array(t_string_storage)dyn_storage": {
						"base": "t_string_storage",
						"encoding": "dynamic_array",
						"label": "string[]",
						"numberOfBytes": "32"
					},
					"t_array(t_struct(Candidate)12_storage)dyn_storage": {
						"base": "t_struct(Candidate)12_storage",
						"encoding": "dynamic_array",
						"label": "struct Lock.Candidate[]",
						"numberOfBytes": "32"
					},
					"t_mapping(t_string_memory_ptr,t_struct(Admin)28_storage)": {
						"encoding": "mapping",
						"key": "t_string_memory_ptr",
						"label": "mapping(string => struct Lock.Admin)",
						"numberOfBytes": "32",
						"value": "t_struct(Admin)28_storage"
					},
					"t_mapping(t_string_memory_ptr,t_struct(ElectionDetails)23_storage)": {
						"encoding": "mapping",
						"key": "t_string_memory_ptr",
						"label": "mapping(string => struct Lock.ElectionDetails)",
						"numberOfBytes": "32",
						"value": "t_struct(ElectionDetails)23_storage"
					},
					"t_string_memory_ptr": {
						"encoding": "bytes",
						"label": "string",
						"numberOfBytes": "32"
					},
					"t_string_storage": {
						"encoding": "bytes",
						"label": "string",
						"numberOfBytes": "32"
					},
					"t_struct(Admin)28_storage": {
						"encoding": "inplace",
						"label": "struct Lock.Admin",
						"members": [
							{
								"astId": 25,
								"contract": "contracts/Lock.sol:Lock",
								"label": "id",
								"offset": 0,
								"slot": "0",
								"type": "t_string_storage"
							},
							{
								"astId": 27,
								"contract": "contracts/Lock.sol:Lock",
								"label": "password",
								"offset": 0,
								"slot": "1",
								"type": "t_string_storage"
							}
						],
						"numberOfBytes": "64"
					},
					"t_struct(Candidate)12_storage": {
						"encoding": "inplace",
						"label": "struct Lock.Candidate",
						"members": [
							{
								"astId": 3,
								"contract": "contracts/Lock.sol:Lock",
								"label": "firstName",
								"offset": 0,
								"slot": "0",
								"type": "t_string_storage"
							},
							{
								"astId": 5,
								"contract": "contracts/Lock.sol:Lock",
								"label": "middleName",
								"offset": 0,
								"slot": "1",
								"type": "t_string_storage"
							},
							{
								"astId": 7,
								"contract": "contracts/Lock.sol:Lock",
								"label": "lastName",
								"offset": 0,
								"slot": "2",
								"type": "t_string_storage"
							},
							{
								"astId": 9,
								"contract": "contracts/Lock.sol:Lock",
								"label": "partyName",
								"offset": 0,
								"slot": "3",
								"type": "t_string_storage"
							},
							{
								"astId": 11,
								"contract": "contracts/Lock.sol:Lock",
								"label": "votes",
								"offset": 0,
								"slot": "4",
								"type": "t_uint256"
							}
						],
						"numberOfBytes": "160"
					},
					"t_struct(ElectionDetails)23_storage": {
						"encoding": "inplace",
						"label": "struct Lock.ElectionDetails",
						"members": [
							{
								"astId": 14,
								"contract": "contracts/Lock.sol:Lock",
								"label": "electionName",
								"offset": 0,
								"slot": "0",
								"type": "t_string_storage"
							},
							{
								"astId": 18,
								"contract": "contracts/Lock.sol:Lock",
								"label": "candidates",
								"offset": 0,
								"slot": "1",
								"type": "t_array(t_struct(Candidate)12_storage)dyn_storage"
							},
							{
								"astId": 20,
								"contract": "contracts/Lock.sol:Lock",
								"label": "startTime",
								"offset": 0,
								"slot": "2",
								"type": "t_uint256"
							},
							{
								"astId": 22,
								"contract": "contracts/Lock.sol:Lock",
								"label": "endTime",
								"offset": 0,
								"slot": "3",
								"type": "t_uint256"
							}
						],
						"numberOfBytes": "128"
					},
					"t_uint256": {
						"encoding": "inplace",
						"label": "uint256",
						"numberOfBytes": "32"
					}
				}
			},
			"userdoc": {
				"kind": "user",
				"methods": {},
				"version": 1
			}
		}
	}
}