{
  "_format": "hh-sol-artifact-1",
  "contractName": "Lock",
  "sourceName": "contracts/Lock.sol",
  "abi": [
    {
      "inputs": [
        {
          "internalType": "string",
          "name": "_initialAdminId",
          "type": "string"
        },
        {
          "internalType": "string",
          "name": "_initialAdminPassword",
          "type": "string"
        }
      ],
      "stateMutability": "nonpayable",
      "type": "constructor"
    },
    {
      "anonymous": false,
      "inputs": [
        {
          "indexed": false,
          "internalType": "string",
          "name": "electionName",
          "type": "string"
        },
        {
          "indexed": false,
          "internalType": "string",
          "name": "candidateName",
          "type": "string"
        }
      ],
      "name": "VoteCast",
      "type": "event"
    },
    {
      "inputs": [
        {
          "internalType": "string",
          "name": "_id",
          "type": "string"
        },
        {
          "internalType": "string",
          "name": "_password",
          "type": "string"
        }
      ],
      "name": "addAdmin",
      "outputs": [],
      "stateMutability": "nonpayable",
      "type": "function"
    },
    {
      "inputs": [
        {
          "internalType": "string",
          "name": "_electionName",
          "type": "string"
        },
        {
          "components": [
            {
              "internalType": "string",
              "name": "firstName",
              "type": "string"
            },
            {
              "internalType": "string",
              "name": "middleName",
              "type": "string"
            },
            {
              "internalType": "string",
              "name": "lastName",
              "type": "string"
            },
            {
              "internalType": "string",
              "name": "partyName",
              "type": "string"
            },
            {
              "internalType": "uint64",
              "name": "votes",
              "type": "uint64"
            }
          ],
          "internalType": "struct Lock.Candidate[]",
          "name": "_candidates",
          "type": "tuple[]"
        },
        {
          "internalType": "uint256",
          "name": "_startTime",
          "type": "uint256"
        },
        {
          "internalType": "uint256",
          "name": "_endTime",
          "type": "uint256"
        },
        {
          "internalType": "string",
          "name": "_adminId",
          "type": "string"
        },
        {
          "internalType": "string",
          "name": "_adminPassword",
          "type": "string"
        }
      ],
      "name": "addElectionWithDetails",
      "outputs": [],
      "stateMutability": "nonpayable",
      "type": "function"
    },
    {
      "inputs": [],
      "name": "getAllElectionNames",
      "outputs": [
        {
          "internalType": "string[]",
          "name": "",
          "type": "string[]"
        }
      ],
      "stateMutability": "view",
      "type": "function"
    },
    {
      "inputs": [],
      "name": "getAllElections",
      "outputs": [
        {
          "internalType": "string[]",
          "name": "",
          "type": "string[]"
        },
        {
          "components": [
            {
              "internalType": "string",
              "name": "electionName",
              "type": "string"
            },
            {
              "components": [
                {
                  "internalType": "string",
                  "name": "firstName",
                  "type": "string"
                },
                {
                  "internalType": "string",
                  "name": "middleName",
                  "type": "string"
                },
                {
                  "internalType": "string",
                  "name": "lastName",
                  "type": "string"
                },
                {
                  "internalType": "string",
                  "name": "partyName",
                  "type": "string"
                },
                {
                  "internalType": "uint64",
                  "name": "votes",
                  "type": "uint64"
                }
              ],
              "internalType": "struct Lock.Candidate[]",
              "name": "candidates",
              "type": "tuple[]"
            },
            {
              "internalType": "uint256",
              "name": "startTime",
              "type": "uint256"
            },
            {
              "internalType": "uint256",
              "name": "endTime",
              "type": "uint256"
            },
            {
              "internalType": "string[]",
              "name": "voted",
              "type": "string[]"
            }
          ],
          "internalType": "struct Lock.ElectionDetails[]",
          "name": "",
          "type": "tuple[]"
        }
      ],
      "stateMutability": "view",
      "type": "function"
    },
    {
      "inputs": [
        {
          "internalType": "string",
          "name": "_electionName",
          "type": "string"
        }
      ],
      "name": "getCandidateNames",
      "outputs": [
        {
          "internalType": "string[]",
          "name": "",
          "type": "string[]"
        }
      ],
      "stateMutability": "view",
      "type": "function"
    },
    {
      "inputs": [
        {
          "internalType": "string",
          "name": "_electionName",
          "type": "string"
        },
        {
          "internalType": "string",
          "name": "_candidateFullName",
          "type": "string"
        }
      ],
      "name": "getCandidateVotes",
      "outputs": [
        {
          "internalType": "uint256",
          "name": "",
          "type": "uint256"
        }
      ],
      "stateMutability": "view",
      "type": "function"
    },
    {
      "inputs": [
        {
          "internalType": "string",
          "name": "_electionName",
          "type": "string"
        }
      ],
      "name": "getElectionDetails",
      "outputs": [
        {
          "components": [
            {
              "internalType": "string",
              "name": "electionName",
              "type": "string"
            },
            {
              "components": [
                {
                  "internalType": "string",
                  "name": "firstName",
                  "type": "string"
                },
                {
                  "internalType": "string",
                  "name": "middleName",
                  "type": "string"
                },
                {
                  "internalType": "string",
                  "name": "lastName",
                  "type": "string"
                },
                {
                  "internalType": "string",
                  "name": "partyName",
                  "type": "string"
                },
                {
                  "internalType": "uint64",
                  "name": "votes",
                  "type": "uint64"
                }
              ],
              "internalType": "struct Lock.Candidate[]",
              "name": "candidates",
              "type": "tuple[]"
            },
            {
              "internalType": "uint256",
              "name": "startTime",
              "type": "uint256"
            },
            {
              "internalType": "uint256",
              "name": "endTime",
              "type": "uint256"
            },
            {
              "internalType": "string[]",
              "name": "voted",
              "type": "string[]"
            }
          ],
          "internalType": "struct Lock.ElectionDetails",
          "name": "",
          "type": "tuple"
        }
      ],
      "stateMutability": "view",
      "type": "function"
    },
    {
      "inputs": [
        {
          "internalType": "string",
          "name": "_electionName",
          "type": "string"
        }
      ],
      "name": "getElectionResult",
      "outputs": [
        {
          "internalType": "string",
          "name": "",
          "type": "string"
        },
        {
          "components": [
            {
              "internalType": "string",
              "name": "firstName",
              "type": "string"
            },
            {
              "internalType": "string",
              "name": "middleName",
              "type": "string"
            },
            {
              "internalType": "string",
              "name": "lastName",
              "type": "string"
            },
            {
              "internalType": "string",
              "name": "partyName",
              "type": "string"
            },
            {
              "internalType": "uint64",
              "name": "votes",
              "type": "uint64"
            }
          ],
          "internalType": "struct Lock.Candidate[]",
          "name": "",
          "type": "tuple[]"
        },
        {
          "internalType": "string[]",
          "name": "",
          "type": "string[]"
        }
      ],
      "stateMutability": "view",
      "type": "function"
    },
    {
      "inputs": [
        {
          "internalType": "string",
          "name": "_id",
          "type": "string"
        },
        {
          "internalType": "string",
          "name": "_password",
          "type": "string"
        }
      ],
      "name": "verifyAdmin",
      "outputs": [
        {
          "internalType": "bool",
          "name": "",
          "type": "bool"
        }
      ],
      "stateMutability": "view",
      "type": "function"
    },
    {
      "inputs": [
        {
          "internalType": "string",
          "name": "_electionName",
          "type": "string"
        },
        {
          "internalType": "string",
          "name": "_candidateFullName",
          "type": "string"
        },
        {
          "internalType": "string",
          "name": "_voterId",
          "type": "string"
        }
      ],
      "name": "vote",
      "outputs": [],
      "stateMutability": "nonpayable",
      "type": "function"
    }
  ],
  "bytecode": "0x60806040523480156200001157600080fd5b50604051620036853803806200368583398181016040528101906200003791906200023a565b6040518060400160405280838152602001828152506001836040516200005e91906200030c565b9081526020016040518091039020600082015181600001908162000083919062000565565b5060208201518160010190816200009b919062000565565b5090505050506200064c565b6000604051905090565b600080fd5b600080fd5b600080fd5b600080fd5b6000601f19601f8301169050919050565b7f4e487b7100000000000000000000000000000000000000000000000000000000600052604160045260246000fd5b6200011082620000c5565b810181811067ffffffffffffffff82111715620001325762000131620000d6565b5b80604052505050565b600062000147620000a7565b905062000155828262000105565b919050565b600067ffffffffffffffff821115620001785762000177620000d6565b5b6200018382620000c5565b9050602081019050919050565b60005b83811015620001b057808201518184015260208101905062000193565b60008484015250505050565b6000620001d3620001cd846200015a565b6200013b565b905082815260208101848484011115620001f257620001f1620000c0565b5b620001ff84828562000190565b509392505050565b600082601f8301126200021f576200021e620000bb565b5b815162000231848260208601620001bc565b91505092915050565b60008060408385031215620002545762000253620000b1565b5b600083015167ffffffffffffffff811115620002755762000274620000b6565b5b620002838582860162000207565b925050602083015167ffffffffffffffff811115620002a757620002a6620000b6565b5b620002b58582860162000207565b9150509250929050565b600081519050919050565b600081905092915050565b6000620002e282620002bf565b620002ee8185620002ca565b93506200030081856020860162000190565b80840191505092915050565b60006200031a8284620002d5565b915081905092915050565b7f4e487b7100000000000000000000000000000000000000000000000000000000600052602260045260246000fd5b600060028204905060018216806200036d57607f821691505b60208210810362000383576200038262000325565b5b50919050565b60008190508160005260206000209050919050565b60006020601f8301049050919050565b600082821b905092915050565b600060088302620003ed7fffffffffffffffffffffffffffffffffffffffffffffffffffffffffffffffff82620003ae565b620003f98683620003ae565b95508019841693508086168417925050509392505050565b6000819050919050565b6000819050919050565b600062000446620004406200043a8462000411565b6200041b565b62000411565b9050919050565b6000819050919050565b620004628362000425565b6200047a62000471826200044d565b848454620003bb565b825550505050565b600090565b6200049162000482565b6200049e81848462000457565b505050565b5b81811015620004c657620004ba60008262000487565b600181019050620004a4565b5050565b601f8211156200051557620004df8162000389565b620004ea846200039e565b81016020851015620004fa578190505b6200051262000509856200039e565b830182620004a3565b50505b505050565b600082821c905092915050565b60006200053a600019846008026200051a565b1980831691505092915050565b600062000555838362000527565b9150826002028217905092915050565b6200057082620002bf565b67ffffffffffffffff8111156200058c576200058b620000d6565b5b62000598825462000354565b620005a5828285620004ca565b600060209050601f831160018114620005dd5760008415620005c8578287015190505b620005d4858262000547565b86555062000644565b601f198416620005ed8662000389565b60005b828110156200061757848901518255600182019150602085019450602081019050620005f0565b8683101562000637578489015162000633601f89168262000527565b8355505b6001600288020188555050505b505050505050565b613029806200065c6000396000f3fe608060405234801561001057600080fd5b506004361061009e5760003560e01c8063928cb52e11610066578063928cb52e1461015c57806395f59fe11461018c5780639d3adf5b146101a8578063b7ff50fc146101d8578063f36be3dd146102085761009e565b80631f459041146100a35780632cdf7732146100bf5780636fcf1c7d146100db5780637fd5f2681461010b578063897de2521461012a575b600080fd5b6100bd60048036038101906100b89190611d40565b610226565b005b6100d960048036038101906100d4919061201a565b61028c565b005b6100f560048036038101906100f09190611d40565b6105e2565b6040516101029190612132565b60405180910390f35b610113610671565b6040516101219291906125c5565b60405180910390f35b610144600480360381019061013f91906125fc565b610ccf565b60405161015393929190612715565b60405180910390f35b610176600480360381019061017191906125fc565b611141565b60405161018391906127e5565b60405180910390f35b6101a660048036038101906101a19190612807565b6115d1565b005b6101c260048036038101906101bd91906125fc565b611859565b6040516101cf91906128ae565b60405180910390f35b6101f260048036038101906101ed9190611d40565b6119b3565b6040516101ff91906128df565b60405180910390f35b610210611ade565b60405161021d91906128ae565b60405180910390f35b60405180604001604052808381526020018281525060018360405161024b9190612936565b9081526020016040518091039020600082015181600001908161026e9190612b59565b5060208201518160010190816102849190612b59565b509050505050565b81818060405160200161029f9190612936565b604051602081830303815290604052805190602001206001836040516102c59190612936565b90815260200160405180910390206001016040516020016102e69190612cae565b604051602081830303815290604052805190602001201461033c576040517f08c379a000000000000000000000000000000000000000000000000000000000815260040161033390612d37565b60405180910390fd5b6000885111610380576040517f08c379a000000000000000000000000000000000000000000000000000000000815260040161037790612da3565b60405180910390fd5b600080896040516103919190612936565b908152602001604051809103902060020154146103e3576040517f08c379a00000000000000000000000000000000000000000000000000000000081526004016103da90612e0f565b60405180910390fd5b600080896040516103f49190612936565b90815260200160405180910390209050888160000190816104159190612b59565b5086816002018190555085816003018190555060005b88518110156105a157816001016040518060a001604052808b848151811061045657610455612e2f565b5b60200260200101516000015181526020018b848151811061047a57610479612e2f565b5b60200260200101516020015181526020018b848151811061049e5761049d612e2f565b5b60200260200101516040015181526020018b84815181106104c2576104c1612e2f565b5b6020026020010151606001518152602001600067ffffffffffffffff16815250908060018154018082558091505060019003906000526020600020906005020160009091909190915060008201518160000190816105209190612b59565b5060208201518160010190816105369190612b59565b50604082015181600201908161054c9190612b59565b5060608201518160030190816105629190612b59565b5060808201518160040160006101000a81548167ffffffffffffffff021916908367ffffffffffffffff1602179055505050808060010191505061042b565b506002899080600181540180825580915050600190039060005260206000200160009091909190915090816105d69190612b59565b50505050505050505050565b6000806001846040516105f59190612936565b90815260200160405180910390209050826040516020016106169190612936565b60405160208183030381529060405280519060200120816001016040516020016106409190612cae565b604051602081830303815290604052805190602001200361066557600191505061066b565b60009150505b92915050565b6060806000600280549050905060008167ffffffffffffffff81111561069a57610699611c15565b5b6040519080825280602002602001820160405280156106cd57816020015b60608152602001906001900390816106b85790505b50905060008267ffffffffffffffff8111156106ec576106eb611c15565b5b60405190808252806020026020018201604052801561072557816020015b610712611bb7565b81526020019060019003908161070a5790505b50905060005b83811015610cc1576002818154811061074757610746612e2f565b5b90600052602060002001805461075c9061297c565b80601f01602080910402602001604051908101604052809291908181526020018280546107889061297c565b80156107d55780601f106107aa576101008083540402835291602001916107d5565b820191906000526020600020905b8154815290600101906020018083116107b857829003601f168201915b50505050508382815181106107ed576107ec612e2f565b5b602002602001018190525060006002828154811061080e5761080d612e2f565b5b906000526020600020016040516108259190612cae565b90815260200160405180910390206040518060a001604052908160008201805461084e9061297c565b80601f016020809104026020016040519081016040528092919081815260200182805461087a9061297c565b80156108c75780601f1061089c576101008083540402835291602001916108c7565b820191906000526020600020905b8154815290600101906020018083116108aa57829003601f168201915b5050505050815260200160018201805480602002602001604051908101604052809291908181526020016000905b82821015610ba157838290600052602060002090600502016040518060a00160405290816000820180546109289061297c565b80601f01602080910402602001604051908101604052809291908181526020018280546109549061297c565b80156109a15780601f10610976576101008083540402835291602001916109a1565b820191906000526020600020905b81548152906001019060200180831161098457829003601f168201915b505050505081526020016001820180546109ba9061297c565b80601f01602080910402602001604051908101604052809291908181526020018280546109e69061297c565b8015610a335780601f10610a0857610100808354040283529160200191610a33565b820191906000526020600020905b815481529060010190602001808311610a1657829003601f168201915b50505050508152602001600282018054610a4c9061297c565b80601f0160208091040260200160405190810160405280929190818152602001828054610a789061297c565b8015610ac55780601f10610a9a57610100808354040283529160200191610ac5565b820191906000526020600020905b815481529060010190602001808311610aa857829003601f168201915b50505050508152602001600382018054610ade9061297c565b80601f0160208091040260200160405190810160405280929190818152602001828054610b0a9061297c565b8015610b575780601f10610b2c57610100808354040283529160200191610b57565b820191906000526020600020905b815481529060010190602001808311610b3a57829003601f168201915b505050505081526020016004820160009054906101000a900467ffffffffffffffff1667ffffffffffffffff1667ffffffffffffffff1681525050815260200190600101906108f5565b505050508152602001600282015481526020016003820154815260200160048201805480602002602001604051908101604052809291908181526020016000905b82821015610c8e578382906000526020600020018054610c019061297c565b80601f0160208091040260200160405190810160405280929190818152602001828054610c2d9061297c565b8015610c7a5780601f10610c4f57610100808354040283529160200191610c7a565b820191906000526020600020905b815481529060010190602001808311610c5d57829003601f168201915b505050505081526020019060010190610be2565b5050505081525050828281518110610ca957610ca8612e2f565b5b6020026020010181905250808060010191505061072b565b508181945094505050509091565b606080606060008085604051610ce59190612936565b90815260200160405180910390209050806000018160010182600401828054610d0d9061297c565b80601f0160208091040260200160405190810160405280929190818152602001828054610d399061297c565b8015610d865780601f10610d5b57610100808354040283529160200191610d86565b820191906000526020600020905b815481529060010190602001808311610d6957829003601f168201915b5050505050925081805480602002602001604051908101604052809291908181526020016000905b8282101561105a57838290600052602060002090600502016040518060a0016040529081600082018054610de19061297c565b80601f0160208091040260200160405190810160405280929190818152602001828054610e0d9061297c565b8015610e5a5780601f10610e2f57610100808354040283529160200191610e5a565b820191906000526020600020905b815481529060010190602001808311610e3d57829003601f168201915b50505050508152602001600182018054610e739061297c565b80601f0160208091040260200160405190810160405280929190818152602001828054610e9f9061297c565b8015610eec5780601f10610ec157610100808354040283529160200191610eec565b820191906000526020600020905b815481529060010190602001808311610ecf57829003601f168201915b50505050508152602001600282018054610f059061297c565b80601f0160208091040260200160405190810160405280929190818152602001828054610f319061297c565b8015610f7e5780601f10610f5357610100808354040283529160200191610f7e565b820191906000526020600020905b815481529060010190602001808311610f6157829003601f168201915b50505050508152602001600382018054610f979061297c565b80601f0160208091040260200160405190810160405280929190818152602001828054610fc39061297c565b80156110105780601f10610fe557610100808354040283529160200191611010565b820191906000526020600020905b815481529060010190602001808311610ff357829003601f168201915b505050505081526020016004820160009054906101000a900467ffffffffffffffff1667ffffffffffffffff1667ffffffffffffffff168152505081526020019060010190610dae565b50505050915080805480602002602001604051908101604052809291908181526020016000905b8282101561112d5783829060005260206000200180546110a09061297c565b80601f01602080910402602001604051908101604052809291908181526020018280546110cc9061297c565b80156111195780601f106110ee57610100808354040283529160200191611119565b820191906000526020600020905b8154815290600101906020018083116110fc57829003601f168201915b505050505081526020019060010190611081565b505050509050935093509350509193909250565b611149611bb7565b6000826040516111599190612936565b90815260200160405180910390206040518060a00160405290816000820180546111829061297c565b80601f01602080910402602001604051908101604052809291908181526020018280546111ae9061297c565b80156111fb5780601f106111d0576101008083540402835291602001916111fb565b820191906000526020600020905b8154815290600101906020018083116111de57829003601f168201915b5050505050815260200160018201805480602002602001604051908101604052809291908181526020016000905b828210156114d557838290600052602060002090600502016040518060a001604052908160008201805461125c9061297c565b80601f01602080910402602001604051908101604052809291908181526020018280546112889061297c565b80156112d55780601f106112aa576101008083540402835291602001916112d5565b820191906000526020600020905b8154815290600101906020018083116112b857829003601f168201915b505050505081526020016001820180546112ee9061297c565b80601f016020809104026020016040519081016040528092919081815260200182805461131a9061297c565b80156113675780601f1061133c57610100808354040283529160200191611367565b820191906000526020600020905b81548152906001019060200180831161134a57829003601f168201915b505050505081526020016002820180546113809061297c565b80601f01602080910402602001604051908101604052809291908181526020018280546113ac9061297c565b80156113f95780601f106113ce576101008083540402835291602001916113f9565b820191906000526020600020905b8154815290600101906020018083116113dc57829003601f168201915b505050505081526020016003820180546114129061297c565b80601f016020809104026020016040519081016040528092919081815260200182805461143e9061297c565b801561148b5780601f106114605761010080835404028352916020019161148b565b820191906000526020600020905b81548152906001019060200180831161146e57829003601f168201915b505050505081526020016004820160009054906101000a900467ffffffffffffffff1667ffffffffffffffff1667ffffffffffffffff168152505081526020019060010190611229565b505050508152602001600282015481526020016003820154815260200160048201805480602002602001604051908101604052809291908181526020016000905b828210156115c25783829060005260206000200180546115359061297c565b80601f01602080910402602001604051908101604052809291908181526020018280546115619061297c565b80156115ae5780601f10611583576101008083540402835291602001916115ae565b820191906000526020600020905b81548152906001019060200180831161159157829003601f168201915b505050505081526020019060010190611516565b50505050815250509050919050565b600080846040516115e29190612936565b9081526020016040518091039020905060005b81600401805490508110156116be57826040516020016116159190612936565b6040516020818303038152906040528051906020012082600401828154811061164157611640612e2f565b5b9060005260206000200160405160200161165b9190612cae565b60405160208183030381529060405280519060200120036116b1576040517f08c379a00000000000000000000000000000000000000000000000000000000081526004016116a890612eaa565b60405180910390fd5b80806001019150506115f5565b5060005b81600101805490508110156118525760008260010182815481106116e9576116e8612e2f565b5b90600052602060002090600502019050600081600001826001018360020160405160200161171993929190612f16565b60405160208183030381529060405290508560405160200161173b9190612936565b60405160208183030381529060405280519060200120816040516020016117629190612936565b60405160208183030381529060405280519060200120036118435781600401600081819054906101000a900467ffffffffffffffff16809291906117a590612f8c565b91906101000a81548167ffffffffffffffff021916908367ffffffffffffffff1602179055505083600401859080600181540180825580915050600190039060005260206000200160009091909190915090816118029190612b59565b507f137ad23732468494166ec34d1367743690ffa17f6ceac8429cba8fc35d088b6e8782604051611834929190612fbc565b60405180910390a15050611852565b505080806001019150506116c2565b5050505050565b60606000808360405161186c9190612936565b908152602001604051809103902090506000816001018054905067ffffffffffffffff81111561189f5761189e611c15565b5b6040519080825280602002602001820160405280156118d257816020015b60608152602001906001900390816118bd5790505b50905060005b82600101805490508110156119a8578260010181815481106118fd576118fc612e2f565b5b906000526020600020906005020160000183600101828154811061192457611923612e2f565b5b906000526020600020906005020160010184600101838154811061194b5761194a612e2f565b5b906000526020600020906005020160020160405160200161196e93929190612f16565b6040516020818303038152906040528282815181106119905761198f612e2f565b5b602002602001018190525080806001019150506118d8565b508092505050919050565b6000806000846040516119c69190612936565b9081526020016040518091039020905060005b8160010180549050811015611ad1576000826001018281548110611a00576119ff612e2f565b5b906000526020600020906005020190506000816000018260010183600201604051602001611a3093929190612f16565b604051602081830303815290604052905085604051602001611a529190612936565b6040516020818303038152906040528051906020012081604051602001611a799190612936565b6040516020818303038152906040528051906020012003611ac2578160040160009054906101000a900467ffffffffffffffff1667ffffffffffffffff16945050505050611ad8565b505080806001019150506119d9565b5060009150505b92915050565b60606002805480602002602001604051908101604052809291908181526020016000905b82821015611bae578382906000526020600020018054611b219061297c565b80601f0160208091040260200160405190810160405280929190818152602001828054611b4d9061297c565b8015611b9a5780601f10611b6f57610100808354040283529160200191611b9a565b820191906000526020600020905b815481529060010190602001808311611b7d57829003601f168201915b505050505081526020019060010190611b02565b50505050905090565b6040518060a0016040528060608152602001606081526020016000815260200160008152602001606081525090565b6000604051905090565b600080fd5b600080fd5b600080fd5b600080fd5b6000601f19601f8301169050919050565b7f4e487b7100000000000000000000000000000000000000000000000000000000600052604160045260246000fd5b611c4d82611c04565b810181811067ffffffffffffffff82111715611c6c57611c6b611c15565b5b80604052505050565b6000611c7f611be6565b9050611c8b8282611c44565b919050565b600067ffffffffffffffff821115611cab57611caa611c15565b5b611cb482611c04565b9050602081019050919050565b82818337600083830152505050565b6000611ce3611cde84611c90565b611c75565b905082815260208101848484011115611cff57611cfe611bff565b5b611d0a848285611cc1565b509392505050565b600082601f830112611d2757611d26611bfa565b5b8135611d37848260208601611cd0565b91505092915050565b60008060408385031215611d5757611d56611bf0565b5b600083013567ffffffffffffffff811115611d7557611d74611bf5565b5b611d8185828601611d12565b925050602083013567ffffffffffffffff811115611da257611da1611bf5565b5b611dae85828601611d12565b9150509250929050565b600067ffffffffffffffff821115611dd357611dd2611c15565b5b602082029050602081019050919050565b600080fd5b600080fd5b600080fd5b600067ffffffffffffffff82169050919050565b611e1081611df3565b8114611e1b57600080fd5b50565b600081359050611e2d81611e07565b92915050565b600060a08284031215611e4957611e48611de9565b5b611e5360a0611c75565b9050600082013567ffffffffffffffff811115611e7357611e72611dee565b5b611e7f84828501611d12565b600083015250602082013567ffffffffffffffff811115611ea357611ea2611dee565b5b611eaf84828501611d12565b602083015250604082013567ffffffffffffffff811115611ed357611ed2611dee565b5b611edf84828501611d12565b604083015250606082013567ffffffffffffffff811115611f0357611f02611dee565b5b611f0f84828501611d12565b6060830152506080611f2384828501611e1e565b60808301525092915050565b6000611f42611f3d84611db8565b611c75565b90508083825260208201905060208402830185811115611f6557611f64611de4565b5b835b81811015611fac57803567ffffffffffffffff811115611f8a57611f89611bfa565b5b808601611f978982611e33565b85526020850194505050602081019050611f67565b5050509392505050565b600082601f830112611fcb57611fca611bfa565b5b8135611fdb848260208601611f2f565b91505092915050565b6000819050919050565b611ff781611fe4565b811461200257600080fd5b50565b60008135905061201481611fee565b92915050565b60008060008060008060c0878903121561203757612036611bf0565b5b600087013567ffffffffffffffff81111561205557612054611bf5565b5b61206189828a01611d12565b965050602087013567ffffffffffffffff81111561208257612081611bf5565b5b61208e89828a01611fb6565b955050604061209f89828a01612005565b94505060606120b089828a01612005565b935050608087013567ffffffffffffffff8111156120d1576120d0611bf5565b5b6120dd89828a01611d12565b92505060a087013567ffffffffffffffff8111156120fe576120fd611bf5565b5b61210a89828a01611d12565b9150509295509295509295565b60008115159050919050565b61212c81612117565b82525050565b60006020820190506121476000830184612123565b92915050565b600081519050919050565b600082825260208201905092915050565b6000819050602082019050919050565b600081519050919050565b600082825260208201905092915050565b60005b838110156121b3578082015181840152602081019050612198565b60008484015250505050565b60006121ca82612179565b6121d48185612184565b93506121e4818560208601612195565b6121ed81611c04565b840191505092915050565b600061220483836121bf565b905092915050565b6000602082019050919050565b60006122248261214d565b61222e8185612158565b93508360208202850161224085612169565b8060005b8581101561227c578484038952815161225d85826121f8565b94506122688361220c565b925060208a01995050600181019050612244565b50829750879550505050505092915050565b600081519050919050565b600082825260208201905092915050565b6000819050602082019050919050565b600081519050919050565b600082825260208201905092915050565b6000819050602082019050919050565b6122ef81611df3565b82525050565b600060a083016000830151848203600086015261231282826121bf565b9150506020830151848203602086015261232c82826121bf565b9150506040830151848203604086015261234682826121bf565b9150506060830151848203606086015261236082826121bf565b915050608083015161237560808601826122e6565b508091505092915050565b600061238c83836122f5565b905092915050565b6000602082019050919050565b60006123ac826122ba565b6123b681856122c5565b9350836020820285016123c8856122d6565b8060005b8581101561240457848403895281516123e58582612380565b94506123f083612394565b925060208a019950506001810190506123cc565b50829750879550505050505092915050565b61241f81611fe4565b82525050565b600082825260208201905092915050565b60006124418261214d565b61244b8185612425565b93508360208202850161245d85612169565b8060005b85811015612499578484038952815161247a85826121f8565b94506124858361220c565b925060208a01995050600181019050612461565b50829750879550505050505092915050565b600060a08301600083015184820360008601526124c882826121bf565b915050602083015184820360208601526124e282826123a1565b91505060408301516124f76040860182612416565b50606083015161250a6060860182612416565b50608083015184820360808601526125228282612436565b9150508091505092915050565b600061253b83836124ab565b905092915050565b6000602082019050919050565b600061255b8261228e565b6125658185612299565b935083602082028501612577856122aa565b8060005b858110156125b35784840389528151612594858261252f565b945061259f83612543565b925060208a0199505060018101905061257b565b50829750879550505050505092915050565b600060408201905081810360008301526125df8185612219565b905081810360208301526125f38184612550565b90509392505050565b60006020828403121561261257612611611bf0565b5b600082013567ffffffffffffffff8111156126305761262f611bf5565b5b61263c84828501611d12565b91505092915050565b600082825260208201905092915050565b600061266182612179565b61266b8185612645565b935061267b818560208601612195565b61268481611c04565b840191505092915050565b600082825260208201905092915050565b60006126ab826122ba565b6126b5818561268f565b9350836020820285016126c7856122d6565b8060005b8581101561270357848403895281516126e48582612380565b94506126ef83612394565b925060208a019950506001810190506126cb565b50829750879550505050505092915050565b6000606082019050818103600083015261272f8186612656565b9050818103602083015261274381856126a0565b905081810360408301526127578184612219565b9050949350505050565b600060a083016000830151848203600086015261277e82826121bf565b9150506020830151848203602086015261279882826123a1565b91505060408301516127ad6040860182612416565b5060608301516127c06060860182612416565b50608083015184820360808601526127d88282612436565b9150508091505092915050565b600060208201905081810360008301526127ff8184612761565b905092915050565b6000806000606084860312156128205761281f611bf0565b5b600084013567ffffffffffffffff81111561283e5761283d611bf5565b5b61284a86828701611d12565b935050602084013567ffffffffffffffff81111561286b5761286a611bf5565b5b61287786828701611d12565b925050604084013567ffffffffffffffff81111561289857612897611bf5565b5b6128a486828701611d12565b9150509250925092565b600060208201905081810360008301526128c88184612219565b905092915050565b6128d981611fe4565b82525050565b60006020820190506128f460008301846128d0565b92915050565b600081905092915050565b600061291082612179565b61291a81856128fa565b935061292a818560208601612195565b80840191505092915050565b60006129428284612905565b915081905092915050565b7f4e487b7100000000000000000000000000000000000000000000000000000000600052602260045260246000fd5b6000600282049050600182168061299457607f821691505b6020821081036129a7576129a661294d565b5b50919050565b60008190508160005260206000209050919050565b60006020601f8301049050919050565b600082821b905092915050565b600060088302612a0f7fffffffffffffffffffffffffffffffffffffffffffffffffffffffffffffffff826129d2565b612a1986836129d2565b95508019841693508086168417925050509392505050565b6000819050919050565b6000612a56612a51612a4c84611fe4565b612a31565b611fe4565b9050919050565b6000819050919050565b612a7083612a3b565b612a84612a7c82612a5d565b8484546129df565b825550505050565b600090565b612a99612a8c565b612aa4818484612a67565b505050565b5b81811015612ac857612abd600082612a91565b600181019050612aaa565b5050565b601f821115612b0d57612ade816129ad565b612ae7846129c2565b81016020851015612af6578190505b612b0a612b02856129c2565b830182612aa9565b50505b505050565b600082821c905092915050565b6000612b3060001984600802612b12565b1980831691505092915050565b6000612b498383612b1f565b9150826002028217905092915050565b612b6282612179565b67ffffffffffffffff811115612b7b57612b7a611c15565b5b612b85825461297c565b612b90828285612acc565b600060209050601f831160018114612bc35760008415612bb1578287015190505b612bbb8582612b3d565b865550612c23565b601f198416612bd1866129ad565b60005b82811015612bf957848901518255600182019150602085019450602081019050612bd4565b86831015612c165784890151612c12601f891682612b1f565b8355505b6001600288020188555050505b505050505050565b60008154612c388161297c565b612c4281866128fa565b94506001821660008114612c5d5760018114612c7257612ca5565b60ff1983168652811515820286019350612ca5565b612c7b856129ad565b60005b83811015612c9d57815481890152600182019150602081019050612c7e565b838801955050505b50505092915050565b6000612cba8284612c2b565b915081905092915050565b7f4e6f7420616e2061646d696e206f7220696e636f72726563742070617373776f60008201527f7264000000000000000000000000000000000000000000000000000000000000602082015250565b6000612d21602283612645565b9150612d2c82612cc5565b604082019050919050565b60006020820190508181036000830152612d5081612d14565b9050919050565b7f456c656374696f6e206e616d652063616e6e6f7420626520656d707479000000600082015250565b6000612d8d601d83612645565b9150612d9882612d57565b602082019050919050565b60006020820190508181036000830152612dbc81612d80565b9050919050565b7f456c656374696f6e20616c726561647920657869737473000000000000000000600082015250565b6000612df9601783612645565b9150612e0482612dc3565b602082019050919050565b60006020820190508181036000830152612e2881612dec565b9050919050565b7f4e487b7100000000000000000000000000000000000000000000000000000000600052603260045260246000fd5b7f566f7465722068617320616c726561647920766f746564000000000000000000600082015250565b6000612e94601783612645565b9150612e9f82612e5e565b602082019050919050565b60006020820190508181036000830152612ec381612e87565b9050919050565b7f2000000000000000000000000000000000000000000000000000000000000000600082015250565b6000612f006001836128fa565b9150612f0b82612eca565b600182019050919050565b6000612f228286612c2b565b9150612f2d82612ef3565b9150612f398285612c2b565b9150612f4482612ef3565b9150612f508284612c2b565b9150819050949350505050565b7f4e487b7100000000000000000000000000000000000000000000000000000000600052601160045260246000fd5b6000612f9782611df3565b915067ffffffffffffffff8203612fb157612fb0612f5d565b5b600182019050919050565b60006040820190508181036000830152612fd68185612656565b90508181036020830152612fea8184612656565b9050939250505056fea26469706673582212206f5e64ffb89d85f39ab23e9626ce7a9cd30c70a0f784fb40c138b8b02562d3fb64736f6c63430008180033",
  "linkReferences": {},
  "deployedLinkReferences": {}
}